:100000000C947D020C949A020C949A020C949A021D
:100010000C949A020C949A020C949A020C949A02F0
:100020000C949A020C949A020C94F41E0C94C81F1F
:100030000C94BB190C949A020C949A020C949A0298
:100040000C949A020C949A020C949A020C949A02C0
:100050000C949A020C94121A0C949A020C949A0220
:100060000C949A020C949A020C949A020C949A02A0
:100070000C949A020C949A020C949A020C949A0290
:100080000C949A020C949A020C949A020C949A0280
:100090000C949A020C949A020C949A020C949A0270
:1000A0000C949A020C949A020C949A02290014005F
:1000B0001A000800150017001C0018000C001200A0
:1000C00013002A00E20004001600070009000A00DD
:1000D0000B000D000E000F0033002800E1001D0092
:1000E0001B00060019000500110010003600370043
:1000F0003800E3000000000000000000695D685D5A
:100100002C00E0000000000000000000015A025A2C
:10011000035A045A055A065A235A245A255A265A6B
:10012000275A285A645D075A095A0B5A0D5A115A10
:10013000165A1A5A1C5A1E5A205A225A655D085AD3
:100140000A5A0C5A0E5A125A175A1B5A1D5A1F5A3B
:10015000215A295A00000000000000000F5A105ACE
:10016000185A195A00000000000000001E001E006E
:100170001E001E001E001E001E001E001E001E008F
:100180001E001E00645D14001A0008001500170010
:100190001C0018000C00120013002F00655D040005
:1001A0001600070009000A000B000D000E000F00EA
:1001B00033003400000000000000000006001900B9
:1001C00011001000000000000000000035001E00BB
:1001D0001F0020002100220023002400250026000B
:1001E00027000000E200AD00AC00AE00AB00A900AB
:1001F0000000000000002F0030003400E1001D016D
:100200001B0106011901AA00A800000000002D0032
:100210002E00E3000000000000000000695D010006
:100220004C00E0000000000000000000675D3A00A4
:100230003B003C003D0000006500460047004800D0
:1002400000000000E2003E003F00400041000000CE
:10025000000049004A004B0000000000E10042009D
:10026000430044004500000000004C004D004E00DB
:100270003100E30000000000000000000100685DA4
:100280002B00E0000000000000000000665D0000A0
:10029000000000000000470054005F0060006100A3
:1002A0002D000000E2004A0052004D004B003900D2
:1002B00055005C005D005E0057002800E100500022
:1002C00051004F004E000653620059005A005B0077
:1002D0000000E30000000000000000000100010039
:1002E0000000E0000000000000000000000000002E
:1002F000000000000000000054005F00600061008A
:1003000056000000E2004A0052004D004B00000081
:1003100055005C005D005E0057002800E1005000C1
:1003200051004F004E00635D620059005A005B00AF
:100330000000E300000000000000000000000000DA
:100340000000E000000000000000000000D0D0D05D
:10035000D0D0D00101020408102041424448480096
:100360000000484850608182848890A0C1C2C4D0F7
:10037000D0D0D0D0D0C800000000000000000000A5
:100380000000000000000000000000001A035300FD
:1003900070006C00690074006F00670072006100FB
:1003A0007000680079000000140353004F004600FD
:1003B00054002F004800520055004600000004037E
:1003C000090409027800040100A0FA0904000001F0
:1003D00003010100092111010001224000070581EC
:1003E0000308000A090401000103000000092111AB
:1003F000010001226D000705820320000A080B029C
:1004000002020201000904020001020201000524A7
:1004100000100104240202052406020307058303D9
:100420000800FF09040300020A0000000705050296
:100430001000050705840210000512010002EF02FA
:100440000108EDFE60600100010200010501098064
:10045000A101850319012AB700150126B7009501EE
:1004600075108100C0050C0901A101850419012A3C
:10047000A002150126A002950175108100C005019A
:100480000906A1018505050719E029E715002501E1
:100490009508750181020507190029EF150025014E
:1004A00095F0750181020508190129059505750169
:1004B0009102950175039101C005010906A101058D
:1004C0000719E029E71500250195087501810295B6
:1004D00001750881010507190029FF150026FF0095
:1004E000950675088100050819012905950575010E
:1004F0009102950175039101C00011241FBECFEF39
:10050000DAE0DEBFCDBF11E0A0E0B1E0E2E7F7E462
:1005100002C005900D92A23AB107D9F722E0A2EAF3
:10052000B1E001C01D92A93EB207E1F70E94A913F4
:100530000C9488230C940000CF93C0E08C2F0E9471
:10054000F908CF5FC730D1F7CF9108951092A40179
:100550000E949C0280E00C947803FC018281882335
:10056000C1F00E949C0282E00E94D8080E94710E95
:10057000811102C00E941B0F0E94890E9093C70236
:1005800080688093C6028091C6029091C7020C9445
:10059000970E08950E949C0281E00C94D808CF9396
:1005A000DB0183569D45C1E087309105E0F4FC01F5
:1005B000E657FC4D0C94332312968C9181110DC09B
:1005C000C0E011C01296CC918091A401CC2341F0DF
:1005D00081608093A401833099F70E94A602F0CF36
:1005E0008E7F8093A4018C2FCF9108951296CC9189
:1005F0008091A401CC2311F08260EBCF8D7FF1CFED
:100600001296CC9183E0CC2361F00E94D80845E09B
:1006100064E083E00E94E603D3CF1296CC9184E09D
:10062000F2CF0E94F90845E064E083E00E94E6030F
:10063000DACFCB010E94AD02C3CF12968C918823F2
:1006400009F4BECF0E94CA02BBCF81E00C94E6132E
:1006500081E008950C94CF0208950C942C031F930D
:10066000CF93DF9300D000D00F92CDB7DEB7498390
:100670005A836B833091A50189819A8131111DC004
:100680006623B9F02223A9F00E94C809182F682F09
:1006900089819A810E94740969817A81812F0F90E2
:1006A0000F900F900F900F90DF91CF911F910C94AE
:1006B00015100E94A009182FEFCF0E94C809698168
:1006C0007A81EDCFFC01262F4081518162817381B7
:1006D00084810C942F0381E00895CF93DF93EC0184
:1006E00060E00E946203BE01DF91CF910C942D0364
:1006F000CF92DF92EF92FF92C12CD12C7601C3945E
:1007000004C0CC0CDD1CEE1CFF1C8A95D2F78C2D8E
:100710000E94840EC701B601FF90EF90DF90CF904A
:100720000C9476088F929F92AF92BF92CF92DF92F5
:10073000EF92FF920F931F936B017C0181E090E099
:10074000A0E0B0E04C015D0104C0880C991CAA1C1B
:10075000BB1C4A95D2F7B501A4014C015D0104C050
:10076000880C991CAA1CBB1C2A95D2F74829592928
:100770006A297B2904C0880F991FAA1FBB1F0A95ED
:10078000D2F78A019B010C211D212E213F21041744
:1007900015072607370789F48C299D29AE29BF291B
:1007A000BC01CD011F910F91FF90EF90DF90CF9092
:1007B000BF90AF909F908F90089580959095A09551
:1007C000B0958C219D21AE21BF21EACF0F93382F08
:1007D000262F6091C4017091C5018091C60190914E
:1007E000C701042F432F0E9492030F910C94B2086B
:1007F0000E941C120E946F040C9440120C9443122D
:1008000008950E941D080E9400042FEF84E39CE0DD
:10081000215080409040E1F700C000000C94361A4F
:100820000F931F93CF93DF938C0161E00E946203CB
:10083000EC01B8010E942A038823D9F1B801CE0146
:100840000E9449148823A9F1B801CE010E94B5166F
:10085000882379F1B801CE010E940717882349F156
:10086000B801CE010E942A18882319F1F80182816B
:10087000882361F0CB35FDE5DF0721F170F4C11568
:10088000ECE5DE07A1F0CF3DDC45C9F0C801DF9102
:10089000CF911F910F910C942803CC358DE5D8078B
:1008A000A1F0CD35DD4591F70E94A50DEFCF0E9457
:1008B000010480E0DF91CF911F910F9108950E9474
:1008C0001B0FF7CF0E94AE0DE1CF0E94B10DDECF1E
:1008D00008950C94680481E008950C946B040895C5
:1008E000CF93C82F0E9469048C2FCF910C946D0474
:1008F000CF93DF93CDB7DEB72B970FB6F894DEBF5B
:100900000FBECDBF4F83588769877A878B87611168
:100910000E94D40D1E821D8285E0FE013796DE0105
:10092000119601900D928A95E1F78C819D81892B1A
:1009300089F449815A816B817C818D819E810E94DD
:10094000D40C2B960FB6F894DEBF0FBECDBFDF914F
:10095000CF91089589819A8189238F3F51F3CE01E8
:1009600001960E946B038111E4CFEBCFFC018081E3
:1009700091810C940A0ACF93C82F882309F483C06D
:100980008238C1F40E94591881FD7DC089E30E941C
:100990006E0D0E94040E2FEF81EE94E021508040F6
:1009A0009040E1F700C0000089E30E94750DCF91EF
:1009B0000C94040E8338A1F40E94591880FD63C082
:1009C00083E50E946E0D0E94040E2FEF81EE94E0ED
:1009D000215080409040E1F700C0000083E5E5CF62
:1009E0008438A1F40E94591882FD4DC087E40E940A
:1009F0006E0D0E94040E2FEF81EE94E02150804096
:100A00009040E1F700C0000087E4CFCF8CEF8C0F5F
:100A1000813A90F46C2F80910001909101010E9425
:100A2000BF18882329F08C2F0E94750D0E94040E98
:100A30008C2F0E946E0DBBCF80E28C0F883048F463
:100A4000C77081E001C0880FCA95EAF70E94B70D10
:100A5000AECFEBE5EC0FE33040F4F0E0E25AFE4FAE
:100A6000808190E0CF910C947F18C85AC73158F418
:100A7000EC2FF0E0EE0FFF1FE05DFE4F80819181D3
:100A8000CF910C949518CF910895882309F44BC009
:100A9000823871F40E94591881FF45C089E30E9491
:100AA0006E0D0E94040E89E30E94750D0C94040ED5
:100AB000833859F40E94591880FF35C083E50E949D
:100AC0006E0D0E94040E83E5EFCF843859F40E9426
:100AD000591882FF28C087E40E946E0D0E94040E00
:100AE00087E4E2CF9CEF980F913AF0F290E2980FF2
:100AF000983050F4877091E001C0990F8A95EAF719
:100B0000892F0E94BD0DD2CF9BE5980F933020F422
:100B100090E080E00C947F18885A873120F490E0B0
:100B200080E00C94951808951F93CF93DF93182FAE
:100B3000EB010E94BB04209731F4812FDF91CF910C
:100B40001F910C9445058FE99FE00197F1F700C0D4
:100B500000002197F0CF70E060E0893311F460E588
:100B600070E00C949405882321F00E94B70D0C943A
:100B7000040E0895882321F00E94BD0D0C94040EEC
:100B80000895BF92CF92DF92EF92FF920F931F933F
:100B9000CF93DF936C01D62FC72FFC011281058103
:100BA00002950F700E948C0DE82E8823A1F0E12E93
:100BB000112389F08C2F807F803429F080E28D0F03
:100BC000E12C883040F082E00E94550E0E948C0D8E
:100BD00091E0E82EE926BC2EB2949FE0B922EB2DDD
:100BE000F0E0EF56FC4D0C9433230C2F0F70C07FB8
:100BF00011F00295007F1123A9F0002359F080E243
:100C00008D0F883010F0D11109C0802F0E94B70DD0
:100C10000E94040E8D2F0E94BB0414C0802F0E94DE
:100C2000C70DF6CF8D2F0E944505002359F080E2B5
:100C30008D0F883010F0D1112CC0802F0E94BD0D77
:100C40000E94040E2B2D2850330B2430310520F444
:100C50000E9459180E947004EE2009F493C10E946A
:100C6000880D80FD8FC1F60112820E94820D0E94C4
:100C7000D808C6010E94E3070E94820DDF91CF9140
:100C80001F910F91FF90EF90DF90CF90BF900C9449
:100C9000F908802F0E94CD0DD3CFFC2FFF70FF2EBF
:100CA000C07FC03219F0F29480EFF822DD2369F0A2
:100CB000D13049F1112391F1002351F1F6018581E1
:100CC00080FFA8CF8F70858323C0112381F001118D
:100CD00006C00E94E70D8F290E94B305B3CF0130F3
:100CE000C1F70E94E70D8F290E94ED0DABCF0111D6
:100CF00006C00E94FA0D8F2D0E94BA05A3CF0130C5
:100D000009F4A0CFF6CF112329F0063008F09ACFCE
:100D10008F2DE2CF053008F095CFEDCF002359F3AA
:100D2000D93349F4FFEF27EE33E0F1502040304053
:100D3000E1F700C000008D2F0E94450583CF8C2F66
:100D400086958695837069F0813009F07BCF8D2F71
:100D50009C2F9370111102C090E080E00E949518C2
:100D600071CF8D2F9C2F9370111102C090E080E005
:100D70000E947F1867CF8C2F837009F041C011113A
:100D800061CF4D2F429546954770440F440F0D2F6C
:100D90000F7010E030E020E0042E04C0000F111F9F
:100DA000221F331F0A94D2F760E070E0CB01D4FF1A
:100DB0000FC06FE070E080E090E004C0660F771F26
:100DC000881F991F4A95D2F76095709580959095E8
:100DD000C695C695C370602B712B822B932BC230A6
:100DE00049F058F4C13019F00E948A082BCF0E94B4
:100DF000780828CF0E949C0825CF0E94760822CF31
:100E00008695112311F08C2F8170882309F41ACF55
:100E10004D2F429546954770440F440F0D2F0F708C
:100E200010E030E020E0042E04C0000F111F221F4C
:100E3000331F0A94D2F760E070E0CB01D4FF0FC0FB
:100E40006FE070E080E090E004C0660F771F881FBD
:100E5000991F4A95D2F76095709580959095C695A3
:100E6000C695C370602B712B822B932BC23049F037
:100E700058F4C13019F00E944F09E4CE0E943D0998
:100E8000E1CE0E946109DECE0E94B208DBCECF70B7
:100E9000112329F08C2F0E94D8088D2F1DCF8D2F64
:100EA0000E94BA058C2F0E94F908CCCED23F89F15E
:100EB00060F4D03FC9F0D13F29F1112309F442C0B9
:100EC0000111A8CE8C2F8F7121C0D33F39F1D43FAF
:100ED000A1F7112369F1CF718C2F0E94D80863E02C
:100EE0008C2F0E943A0EAECE112341F0053008F04F
:100EF000A9CE8C2F8F710E941C09A4CE063008F059
:100F0000A1CEF7CF8C2F8F71112369F20E94D808E0
:100F100099CE8C2F8F711123C9F3C5CF112329F0DE
:100F20008C2F8F710E94C3088DCE0E94BE088ACE7E
:100F300081E00E94550E023008F484CE82E00E94C7
:100F4000550E80CE002359F0D93309F0F4CE8FEF3F
:100F500097EEE3E081509040E040E1F7EACE8C2F3D
:100F60008F71A1CF4C2F4F706D2FC6010E941110B1
:100F70000E94380A67CE4C2F4F706D2FC6010E9419
:100F8000141060CEDF91CF911F910F91FF90EF90E1
:100F9000DF90CF90BF9008950F931F93CF93DF936F
:100FA000EC01688179818A810E94140A8C010E9477
:100FB00073090E947508B801CE01DF91CF911F918E
:100FC0000F910C94C105CF93DF93EC018B819C8131
:100FD000892B29F08881998189238F3F59F4DF91EA
:100FE000CF910895CE010E94CC07CE01DF91CF9121
:100FF0000C946D03CE010E9410048111F3CF0E9466
:101000008C0D882361F38A81882349F382E0DF9184
:10101000CF910C94550E90E080E00E947F1890E0F4
:1010200080E00E9495180E94D40D0E94E40D0C945B
:10103000040E0E947C0D0C940B080E94C40D0C94AD
:101040001908E92FE295EF70E250EE3070F4F0E00D
:10105000EF55FC4D0C943323803F19F020F4883E6B
:1010600020F481E00895843FE1F380E00895883E14
:10107000C0F3813FD1F7F5CF93FB882780F908951E
:10108000FC01808191810E940A0A0C942108CF936F
:10109000DF9300D000D00F92CDB7DEB70F900F9046
:1010A0000F900F900F90DF91CF910895CF93DF9322
:1010B00000D000D000D0CDB7DEB726960FB6F8949A
:1010C000DEBF0FBECDBFDF91CF91089508950C9480
:1010D00066080E9467086093C8017093C9018093F5
:1010E000CA019093CB010C940B0808950C946908E5
:1010F0000F931F930091C8011091C9012091CA015B
:101100003091CB01602B712B822B932B1F910F9170
:101110000C9469080F931F930091C8011091C901A5
:101120002091CA013091CB01602371238223932344
:101130001F910F910C9469080F931F930091C801A0
:101140001091C9012091CA013091CB01602771270C
:10115000822793271F910F910C9469080C946608BD
:101160000C94AE080E94B0086093C4017093C5014E
:101170008093C6019093C7010C940B0860E070E067
:10118000CB010C94B2080F931F9341E050E060E054
:1011900070E08A019B0104C0000F111F221F331F42
:1011A0008A95D2F7C901B8011F910F910C94B2082A
:1011B0000F931F9341E050E060E070E004C0440FE3
:1011C000551F661F771F8A95D2F78091C4019091B1
:1011D000C501A091C601B091C7018A019B01082BEE
:1011E000192B2A2B3B2BC901B8011F910F910C948D
:1011F000B2080F931F9341E050E060E070E004C03C
:10120000440F551F661F771F8A95D2F7CB01BA018D
:1012100060957095809590950091C4011091C501DD
:101220002091C6013091C70160237123822393234B
:101230001F910F910C94B2080F931F9341E050E05F
:1012400060E070E004C0440F551F661F771F8A9549
:10125000D2F78091C4019091C501A091C601B091CF
:10126000C7018A019B01082719272A273B27C901A3
:10127000B8011F910F910C94B2080F931F93009126
:10128000C4011091C5012091C6013091C701602BA6
:10129000712B822B932B1F910F910C94B2080F93FB
:1012A0001F930091C4011091C5012091C601309196
:1012B000C70160237123822393231F910F910C9404
:1012C000B2080F931F930091C4011091C5012091A2
:1012D000C6013091C70160277127822793271F918C
:1012E0000F910C94B20808952CE0929F800D112468
:1012F000982F977041E001C0440F9A95EAF78695C0
:101300008695869595E0899FF0011124EA55FE4F58
:1013100090E080E070E05191DF0111979B01082E71
:1013200002C0369527950A94E2F72170219525276A
:10133000242325272C9301968530910561F7089584
:101340002CE0929F800D1124982F9770869586959A
:10135000869525E0829FF0011124EA55FE4F50E06A
:1013600040E080E0219130E0092E02C036952795BB
:101370000A94E2F721703327042E01C0220F0A9449
:10138000EAF7822B4F5F5F4F4530510559F70895BB
:10139000BF92CF92DF92EF92FF920F931F93CF9362
:1013A000DF938C01C090C401D090C501E090C601CC
:1013B000F090C7018091C8019091C901A091CA0124
:1013C000B091CB01C82AD92AEA2AFB2ACFE1D0E082
:1013D000BC2ED701C6010C2E04C0B695A7959795D3
:1013E00087950A94D2F780FD0EC0219788F7B12C1B
:1013F0008B2DDF91CF911F910F91FF90EF90DF9098
:10140000CF90BF900895B8018C2F0E943B11019797
:1014100061F3EECFCF93DF93EC010E94C809BE01C8
:10142000DF91CF910C943B111F93CF93DF93EB018E
:101430009091A501992331F0CB01DF91CF911F91BC
:101440000C940A0A882379F0CB010E94C809182F4E
:10145000682FCE010E947409BE01812FDF91CF91C8
:101460001F910C943B11CB010E94A009182FF4CFBF
:10147000EF92FF920F931F93CF93DF938C01892BF1
:1014800081F0F12CEE24E394E8012196F801849197
:10149000843770F4843008F05FC08130B1F082305E
:1014A000A1F1DF91CF911F910F91FF90EF900895DF
:1014B000853709F44CC008F43DC09CE7980F90377D
:1014C00080F78F770E94450549C00E5F1F4FFE01D0
:1014D000849190E2980F983060F48770FE2D01C0DF
:1014E000FF0F8A95EAF78F2F0E94D70D0E94040EF6
:1014F00002C00E94BB048F2D815030F2EFE9FFE063
:101500003197F1F700C00000F7CF0E5F1F4FFE01CB
:10151000849190E2980F983050F48770FE2D01C0AE
:10152000FF0F8A95EAF78F2F0E94DD0DDFCF0E9413
:101530004505E1CF0E5F1F4FFE01C491C150D8F2A7
:101540008FE99FE00197F1F700C00000F7CF0E5F31
:101550001F4FFE01F490CFCF0E94BB048E01CBCF72
:101560001F93CF93DF93C091CC0116E08091CD0102
:101570008C1304C0DF91CF911F910895D0E01C9F80
:10158000F0011D9FF00D1124E253FE4F4081518167
:1015900062817381848195810E9456082196C7706B
:1015A000E5CF4091FE015091FF01609100027091E2
:1015B000010280910202909103020C9456081F933D
:1015C000CF93DF9380910302807FA9F48091000282
:1015D000882389F08091CC01C091CD016091FE01FA
:1015E0007091FF01A0910102B0910202D62FD72382
:1015F00016E0C81304C0DF91CF911F91089590E0C9
:10160000109711F0DF3F19F401968770F2CF189F01
:101610009001199F300D1124F901E253FE4F4181D1
:101620004713F2CF40814613EFCF42814111ECCFF7
:10163000438154814A1B5B0B483C510528F780913C
:1016400003028F70806180930302F901ED52FE4F17
:1016500080818F70806180838EEF91E00E94E3072C
:10166000DF91CF911F910C94B00AAF92BF92CF92AD
:10167000DF92EF92FF920F931F93CF93DF93CDB73B
:10168000DEB761970FB6F894DEBF0FBECDBF8C01F9
:1016900085E0F801DE011D9601900D928A95E1F733
:1016A000F801E2808EEFC82E81E0D82E6091010211
:1016B000709102026115710509F45AC19091FE0101
:1016C0002091FF01892F82238F3F09F451C140816E
:1016D0005181A380B480F0900002F501E61BF70B66
:1016E000FF2009F4F6C080910302382F307FE83CD8
:1016F000F10508F0AFC0311179C0FE2C251323C0CD
:10170000941321C0E1101FC08F7080618093030289
:101710000E94D10AC6010E94E30780910302F801EA
:1017200085838F2D61960FB6F894DEBF0FBECDBFB7
:10173000DF91CF911F910F91FF90EF90DF90CF90AD
:10174000BF90AF900895AB2829F0842F85238F3F59
:1017500009F027C180E0F82FF170DF2E80FF3CC038
:101760008091CC012091CD0136E0821315C04D87C8
:101770005E878D859E850E940A0A292F22952F70EB
:101780002230F0F0243018F59F70F1F0F8019581C7
:10179000907FD1F4D12C1EC090E0389FF001399F8A
:1017A000F00D1124E253FE4F6181651306C0608184
:1017B000641303C06281E6120FC001968770D5CF13
:1017C0009F7011F0882331F3805E883018F3C801D0
:1017D0000E94E307FD2CA5CFEE2009F4A2CF809153
:1017E0000302816080930302F12C9BCF251306C076
:1017F000941304C0F801EE2009F487C0C8010E94C8
:101800004008882319F1EE2009F18091030280320B
:1018100070F02091FE013091FF0138872F831986E7
:10182000BB86AA868C87CE0107960E94E30786E0D6
:10183000F801AEEFB1E001900D928A95E1F70E94B8
:10184000DF0A0E94D10AFF24F3946BCFC8010E94E3
:10185000E307F9CF311113C07A2DB98AA88A6E2D0A
:1018600089890E9447088EEF91E00E94E30786E095
:10187000F60111928A95E9F70E94D10AB5CF251396
:101880000FC094130DC0E1100BC0F8018583C8018F
:101890000E94E30786E0F60111928A95E9F741CFAD
:1018A000C8010E944008882389F2EE2079F28091D5
:1018B0000302803208F4BBCF2091FE013091FF017A
:1018C0003A8329831B82BD82AC828E83CE0101962E
:1018D000ACCFE83CF10508F03EC0FE2CEE2009F448
:1018E000B5CF25132AC0941328C08091030280FD30
:1018F0001BC0982F907FC1F0F8018583903F31F095
:10190000982F907F905F8F70892B8583C8010E94EC
:10191000E30786E0F801AEEFB1E001900D928A9501
:10192000E1F70E94D10AFDCE86E0F801AEEFB1E00A
:1019300001900D928A95E1F7F4CEC8010E9440080B
:10194000811175CF80910302816080930302C801E9
:101950000E94E307E6CE7A2DB98AA88A6E2D89897E
:101960000E94470886E0F60111928A95E9F7D9CFDF
:10197000EE2009F46BCFC8010E944008F82E88239E
:1019800009F464CF86E0F801AEEFB1E001900D926A
:101990008A95E1F78EEF91E00E94B6040E94DF0A7B
:1019A000C0CF81E08E25D7CE1F93CF93DF93CDB7E5
:1019B000DEB72C970FB6F894DEBF0FBECDBF4F83B6
:1019C000588769877A878B879C87CE0107960E9404
:1019D000350B882369F08A859B85892B39F04F81E7
:1019E0005885842F85238F3F09F071C016E05FC0B2
:1019F00086E0FE013796DE01119601900D928A95E0
:101A0000E1F78A859B85892B89F38F8198858923C6
:101A10008F3F61F32091CD0130E0C90101968770BD
:101A200099274091CC014817190671F40E941D08AE
:101A30001092CD011092CC0186E0EEEFF1E0DF01D3
:101A40001D928A95E9F7D2CF96E0929FD001939F9D
:101A5000B00D1124A253BE4FFE01319601900D929C
:101A60009A95E1F78093CD010E94B00ABFCF819F84
:101A7000C001112482539E4F0E94350B8823E9F048
:101A8000E091CC011E9FF0011124E253FE4F4081F2
:101A9000518162817381848195810E945608809171
:101AA000CC0190E00196877099278093CC018091BA
:101AB000CC019091CD018913DACF2C960FB6F89412
:101AC000DEBF0FBECDBFDF91CF911F910895698515
:101AD0007A858B859C850E94560888CF682F8091D7
:101AE0000001909101010C943F19682F8091000131
:101AF000909101010C944A1980910001909101018B
:101B00000C945519809104028595859585950895C5
:101B1000809104028770089590910402977081E08B
:101B200009F480E008959091C70292FB222720F9E2
:101B3000281751F080FB92F99093C7028091C6025A
:101B40009091C7020C94970E08958091C70282FB72
:101B5000882780F991E089270C94930D81E00C94FB
:101B6000930D80E00C94930D80912802089590913C
:101B70002802892B8093280208958095909128024D
:101B80009823909328020895109228020895909126
:101B90002702892B80932702089580959091270230
:101BA0009823909327020895109227020895909108
:101BB0002602892B80932602089580959091260213
:101BC00098239093260208951092260208958091FA
:101BD0000502089508950C94EA0D9091C70292FDB4
:101BE00008C090910502981721F0809305020C948B
:101BF000EB0D089580910502882329F010920502CB
:101C000080E00C94EB0D0895E0910001F09101014A
:101C1000809128028083E0910001F0910101808190
:101C200090912702892B8083E0910001F0910101BE
:101C3000808190912602892B8083909105029923BF
:101C400081F0E0910001F09101018081892B808376
:101C500080910001909101010E94AB1881110E94B6
:101C6000FA0D80910001909101010C94651808957E
:101C70000C94370E9091C70292FD10C098E0899F96
:101C800090011124622B609304020E94D808809175
:101C900004028595859585950C94380E0C94D8088A
:101CA0001092040280E00C94380E9091040280950A
:101CB000892380930402282F277039F4282F082EB7
:101CC000000C330B9217130621F49091C70292FF78
:101CD00007C08595859585950E94F9080C94500E4E
:101CE000089590E080E00E944E2321E0893E9E4FBF
:101CF00009F020E0822F089582E090E00C944623C2
:101D000083E090E00C944623682F83E090E00C94ED
:101D10005423CF9384E090E00E944623C82F82E2B0
:101D200090E00E944623982F8C2FCF910895CF9357
:101D3000C92F682F84E090E00E9454236C2F82E228
:101D400090E0CF910C945423AB01BC018FE090E064
:101D50000C946623AB01BC0183E190E00C946623F4
:101D600060E070E0CB010C94AA0E60E070E0CB0163
:101D70000E94A40E0C94B00E69EE7EEF90E080E01D
:101D80000E94722360E082E090E00E94542360E0B1
:101D900083E090E00E9454231092C8011092C90180
:101DA0001092CA011092CB0160E084E090E00E94A2
:101DB000542360E082E290E00E94542360E085E0DA
:101DC00090E00E94542360E086E090E00E9454235B
:101DD0006FEF87E090E00E94542340E050E0BA01AA
:101DE00088E090E00E94662360E08DE090E00E9431
:101DF000542340E050E0BA0188E190E00E9466235D
:101E000060E087E190E00E94542340E050E0BA0196
:101E10008CE190E00E94662370E060E080E290E058
:101E20000E94722340E050E0BA0188E190E00E94F5
:101E300066230C94B50E0C94BC0E682F8EE090E0D7
:101E40000C9454230E94F719609336027093370262
:101E50008093380290933902609332027093330278
:101E60008093340290933502089585B7806885BFCA
:101E700085B7806885BF0895089508950C943C0F38
:101E800008950C94400F0E94350F89E192E10E9461
:101E9000681A0E943D0F0C943E0F81E008950C9447
:101EA0004D0F089508950E94510F0C94520F0E94F7
:101EB000E2190E9402130E94D9130C94410F8F92D1
:101EC0009F92AF92BF92CF92DF92EF92FF920F93C9
:101ED0001F93CF93DF93CDB7DEB72A970FB6F89451
:101EE000DEBF0FBECDBF0E94241381110E94220FBE
:101EF0005AE2852E52E0952E10E000E0A02E802FB1
:101F00000E9445126C01F401E190F1904F01E81636
:101F1000F90609F45CC080913A0281FD0E944E12DC
:101F2000C7018C259D25B12CEE24E394F12C9C0156
:101F30002E213F21232B09F444C00E944F0F8823F8
:101F4000A9F0BE82AF82CE20DF2081E0CD2809F447
:101F500080E088870E94EB198160782F9A878987B3
:101F60004E815F8168858A850E947804000F111F69
:101F7000F801E65DFD4F80819181E826F926F18226
:101F8000E0820E945F150E945918909129028917DA
:101F9000A9F10E945918809329022A960FB6F89445
:101FA000DEBF0FBECDBFDF91CF911F910F91FF908C
:101FB000EF90DF90CF90BF90AF909F908F900C9458
:101FC0007004B394EE0CFF1CFCE0BF12B0CF0F5FA7
:101FD0001F4F0430110509F091CF8FEF89838A8359
:101FE0001B820E94EB198160782F9D838C8349812D
:101FF0005A816B818D810E947804C3CF2A960FB6D7
:10200000F894DEBF0FBECDBFDF91CF911F910F912E
:10201000FF90EF90DF90CF90BF90AF909F908F9008
:10202000089590E080E008950895972F70E02CE0E7
:10203000929F600D711D1124FB0190E3899FE00DBB
:10204000F11D1124EE0FFF1FE455FF4F8591949170
:102050000895FC01EE0FFF1FE45BFC4F8591949106
:102060000895CF93DF930E943F11EC01811520E585
:10207000920708F041C0811530E4930708F0B4C01E
:10208000803E910518F5803C910508F09DC0883A86
:10209000910570F4853A910508F08EC08130910564
:1020A000F9F00097E9F00497D8F4D0E0C0E018C048
:1020B0008F3B9105D0F7C85AD0E0CC0FDD1FCF5928
:1020C000DE4F0990D881C02DD4640AC0811590429A
:1020D00058F4C11581E0D80718F4C83ED10528F797
:1020E000CE01DF91CF910895C11590E3D90708F093
:1020F00071C0CE019F706AC0811525E5920758F521
:10210000811534E5930708F09EC0811542E59407D8
:1021100050F4C11581E5D80708F469C0DC2FCC273D
:10212000C16FD06ADDCF982F969596959E0123704A
:102130003327C115D34508F077C0C1E0D0E002C015
:10214000CC0FDD1F2A95E2F720E2929FC0011124F7
:10215000C82BD92B67C0C11589E5D807A8F4C115CC
:1021600098E5D90708F074C0C11526E5D20708F034
:102170009CCF8C2F0E94D611C82FD0E0DC2FCC270B
:10218000CC27DF71D062ACCFC1153AE5D30708F494
:1021900064C0CE0190568115904208F086CF8D2FF5
:1021A0008F710E94D61190E0982F882788279F7101
:1021B0009C012C2BE901E6CFC55AD0E0C157DE4F78
:1021C000C881D0E0D0648CCF805C91090E94291036
:1021D000EC0186CFCE019927D3FF03C0EC01D86C68
:1021E0007FCFEC01D06C7CCFDF70D06A79CFCE018D
:1021F000E4E096958795EA95E1F783702C2F269574
:102200002695237090E2299F90011124382B8C2F62
:102210008370C1E0D0E002C0CC0FDD1F8A95E2F7E9
:10222000C22BD32BDC685CCFC1E0D0E002C0CC0F66
:10223000DD1F2A95E2F730E2939FC0011124C82BDD
:10224000D92BDA684DCFD82FCC27C46FD06A48CFAE
:10225000DC2FCC27C06FD06A43CF8C2F8F700E94A9
:10226000D61134E0D695C7953A95E1F7CF709C2FFB
:10227000EC01D06935CF0E9415100C9431108238D2
:102280009105B1F1B0F48133910509F475C048F4BA
:102290008932910509F469C08A32910509F473C045
:1022A00008958533910509F459C08933910501F1E9
:1022B0000895833E9105A9F138F4803E9105F9F027
:1022C000823E910549F10895863E9105A9F1873E28
:1022D0009105C9F1843E910519F52091C70221FFAE
:1022E0001FC08091C60284FD14C087EE90E008955F
:1022F0002091C6022370A1F080EE90E00895209115
:10230000C60220FD47C03091C70230FF09C024FF3C
:1023100044C090E080E004C02091C60222FDF7CFC7
:1023200008952091C60222FD3BC03091C70230FDC6
:10233000E3CF24FFF5CFEDCF2091C60223FFF0CFEE
:1023400024FDE7CFD2CF2091C60223FD2CC03091CF
:10235000C70231FFEECF84EE90E008952091C602CF
:1023600025FFDECF89E290E008952091C60225FF87
:10237000D7CF85E390E008952091C60226FFD0CF05
:102380008AE290E008952091C60226FFC9CF81E33A
:1023900090E0089589E390E0089583EE90E0089539
:1023A00082EE90E0089586EE90E008959091C60246
:1023B00092FF06C0282F28712830F9F4877F8460A7
:1023C00093FF06C0282F28712831F1F4877E84619D
:1023D0002091C70220FF06C0382F38713830D9F459
:1023E000877F816021FF06C0282F28712831D1F412
:1023F000877E816194FD877E0895282F2471243083
:10240000F9F68B7F8860DCCF282F2471243101F707
:102410008B7E8861DDCF382F3171313019F78E7F97
:102420008860E0CF282F2171213121F78E7E8861CD
:10243000E1CF80E0089508950E94710E811102C0DD
:102440000E941B0F0E947C0E80933A020E94890E0C
:102450009093C7028093C6020E941B120E94800EB6
:10246000682F70E090E080E00E9476086091C401DF
:102470007091C5018091C6019091C7010C94B0087C
:102480000C94250308950C944212E82FF0E0EE0F0F
:10249000FF1FE053FD4F808191810895089580EAE8
:1024A0008A95F1F7089500C008950C944F12F8949E
:1024B000E82FE295EF70F0E031A1282F2F7081E036
:1024C00090E001C0880F2A95EAF7982F9095932302
:1024D00091A392A1892B82A378940895CF93DF933F
:1024E00080E90E94571281E90E94571282E90E94F6
:1024F000571283E90E945712C2E9D1E089918F3FB8
:1025000011F00E94571281E0CE39D807B9F7DF9158
:10251000CF910895AF92BF92CF92DF92EF92FF9248
:102520000F931F93CF93DF938C01B62EC62FD0E06D
:10253000CE0182569E4F7C01FC0120812F3F09F481
:1025400053C0F894E22FE295EF70F0E031A12F70C4
:1025500081E090E001C0880F2A95EAF7932F982B2D
:1025600091A392A18095892382A378940E9453120B
:10257000E2E9F1E030E020E0D12CC12C41E050E074
:1025800081918F3FE1F1A82FA295AF70B0E09096B6
:102590006C9170E08F7002C0759567958A95E2F72F
:1025A00060FD2DC0CA01022E02C0880F991F0A9437
:1025B000E2F7C82AD92A2F5F3F4F2C30310501F7A7
:1025C000F70180818F3F11F00E94571261E0C11422
:1025D000D10409F460E08B2D0E945512CC0FDD1F51
:1025E000C00FD11FD982C882DF91CF911F910F9167
:1025F000FF90EF90DF90CF90BF90AF90089590E064
:1026000080E0D7CF0E946E12A8ECB2E011961C9227
:102610001E92E0EDF2E01182108213961C921E923F
:1026200012971382128215961C921E92149715828D
:10263000148217961C921E9216971782168284E0B7
:102640000E946F130C94F803FF920F931F93CF9384
:10265000DF93CDB7DEB728970FB6F894DEBF0FBE75
:10266000CDBF8E010F5F1F4F88E0F80111928A9550
:10267000E9F7F12C6F2DC8010E948A12F394F4E05F
:10268000FF12F8CF48E050E0B80188EC92E00E94D9
:102690003923FF24F394009709F4F12C892B41F09E
:1026A00088E0F801A8ECB2E001900D928A95E1F77C
:1026B0002F2D44E060ED72E088EC92E00E947013F0
:1026C0000E94FE038F2D28960FB6F894DEBF0FBE32
:1026D000CDBFDF91CF911F910F91FF900895089585
:1026E000FF920F931F93CF93DF93F82E092F162F8E
:1026F000D72FC42F222349F081E080933D020E940E
:10270000EB1990933C0280933B0280913D02882319
:10271000A1F080913B0290913C020E94031A059720
:1027200060F0EF2DF02FA12FBD2F90E080E0D0E0E2
:102730008C179D0744F010923D02DF91CF911F91BD
:102740000F91FF900895219131912D933D93019622
:10275000EFCF0E9467190E942B1C0E94441C0E940C
:10276000581C0E94530FFBCF90914102890F883073
:1027700008F088500895CF93DF9300D000D00F92D7
:10278000CDB7DEB76B837C838D838C819D81892B54
:1027900021F0CA0189238F3F51F480E081700F90AE
:1027A0000F900F900F900F90DF91CF9108958B8134
:1027B000F5CF0E94710E811102C00E941B0F8DE0A7
:1027C00090E00E94462380938802089596E0E0E915
:1027D000F2E0DF01292F1D922A95E9F7EAE8F2E0FD
:1027E000DF011D929A95E9F7109241021092400282
:1027F00010923F0210923E0210924702109246023F
:1028000080938802682F8DE090E00C94542381E03F
:1028100008950F931F93CF93DF936AE872E080913E
:1028200088020E940714882331F08091880288234F
:1028300071F08130D9F0EAE8F2E086E0DF011D9224
:102840008A95E9F7DF91CF911F910F910895CAE81A
:10285000D2E00EE812E0899181110E94EE1B0C1764
:102860001D07C9F780E00E94EE1BE5CF80918A0228
:10287000806880938A02CAE8D2E089910E94EE1BA8
:1028800082E0C039D807C9F7D6CF81E0089581E04A
:102890000895EF92FF920F931F93CF93DF937C01E4
:1028A000EB0180E3E8168AE5F806E9F030F4C701A9
:1028B0009A558A97A0F1C1E01DC0F1E3EF16FAE541
:1028C000FF06C9F781E39AE50E944714882389F03F
:1028D000488159816A817B818C810E94BB13882346
:1028E00041F081E019C080E39AE50E94471481110C
:1028F00009C0C0E08C2FDF91CF911F910F91FF9005
:10290000EF900895488159816A817B818C810E9472
:10291000BB13882371F380E00E94E613EACFC7015E
:102920000E944714882329F30E94EB198C0190938D
:10293000450280934402488159816A817B818C8160
:102940000E94BB13882321F010934302009342029C
:10295000109247021092460210918802112301F151
:10296000113009F446C0009189022AE832E0412F73
:10297000BE01C7010E944514882309F4BACF4881DB
:1029800059816A817B818C810E94BB13C82F809101
:102990008902CC2309F458C08F5F80938902A9CFA4
:1029A000488159816A817B818C810E94BB13F70128
:1029B000FF27E45BFC4F9491A92FA295A695A695BD
:1029C000A370B0E0882371F09D0120573D4FF901BD
:1029D0008081892B8083A657BD4F8C91E92FE82BEE
:1029E000EC93C1CFA057BD4FE92FE0958C91E82320
:1029F000F7CF488159816A817B818C810E94BB130A
:102A0000482F8E2D67E00E941323292FE82FF0E036
:102A100086E090E0821B910921E030E001C0220FA6
:102A20008A95EAF7DF01A057BD4F8C91442341F00E
:102A3000822B8C93E657FD4F8081282B208393CFE8
:102A4000209528232C938FCF815018160CF4A5CFF6
:102A500010928902D0914002D83041F58091410214
:102A600080933F0281E00E94B413809341028091E1
:102A70003F0290E026E0289FD001299FB00D11244D
:102A8000A85ABD4FEAE8F2E001900D922A95E1F7CD
:102A9000880F991FFC01E85BFD4F809142029091E5
:102AA0004302918380830E94091424CF8D2F0E94BA
:102AB000B41380933F02DF5FD0934002D8CF9F9240
:102AC000AF92BF92CF92DF92EF92FF920F931F933C
:102AD000CF93DF938091890218160CF0BFC08091CC
:102AE0004002882309F4BAC08091440290914502C3
:102AF0000E94031A7C018091460290914702892B23
:102B000009F080C0E0913F02F0E0EE0FFF1FE85BAC
:102B1000FD4FC0914202D091430280819181C81B38
:102B2000D90BEC16FD0608F46DC02097C1F1A090FA
:102B3000400222E32C9FC0012D9F900D112464E6DA
:102B400070E00E941F23BA2C6E01C61AD70A8E01AC
:102B5000060F171FBB2019F199249A949B0C892DFD
:102B60000E94B413E82FF0E0EE0FFF1FE85BFD4F6B
:102B7000208131818091420290914302821B930B0C
:102B80008C159D0520F00817190708F073C08B2DD0
:102B90000E94B41380934102AB18A09240020091AE
:102BA000400210E086E0C82E101761F1812F0E94CC
:102BB000B413D82E8C9DB0011124685A7D4F46E085
:102BC00050E080E992E00E943923892B09F058C037
:102BD000D0924102011B0093400210923E0224E673
:102BE0002C9FC0012D9F900D112480342FE192075E
:102BF00008F448C060E971E00E941F237093470207
:102C0000609346028091460290914702009731F10D
:102C1000E816F90618F180913E020E94B41396E07E
:102C2000989FF0011124E85AFD4FAAE8B2E0019004
:102C30000D929A95E1F70E94091480913E028F5FF0
:102C400080933E0290914002891302C010923E028E
:102C50000E94EB199093450280934402DF91CF913B
:102C60001F910F91FF90EF90DF90CF90BF90AF90AA
:102C70009F9008953093430220934202B92C6ACF6B
:102C80001F5F92CF84E190E09093470280934602C9
:102C9000B9CF0F931F93CF93DF93C42FD22FFC0193
:102CA00082818823C9F0409398020E94EB19909387
:102CB00097028093960280E28C0F883008F050C013
:102CC000C77081E001C0880FCA95EAF7DF91CF9104
:102CD0001F910F910C94B30510919802141335C0F5
:102CE00080919602909197020E94031A883C910568
:102CF00060F5C0E2CD0F1D17B9F080E2810F88307A
:102D000040F4177081E001C0880F1A95EAF70E941D
:102D1000BA05C83048F481E09D2F977001C0880F34
:102D20009A95EAF70E94B305802F0E94AB05C83040
:102D3000B8F4D77081E001C0880FDA95EAF7DF9127
:102D4000CF911F910F910C94BA0580E28C0F8830BF
:102D500038F4C77081E001C0880FCA95EAF7EFCF59
:102D6000DF91CF911F910F9108950F939C01CB019B
:102D7000243F4CE5340759F1A8F4293DFCE53F0711
:102D800001F12A3D4CE53407D1F1283D3C4591F451
:102D900006E221EE41EE68ED7CE50E94491680E0F6
:102DA0000F910895263FFCE53F07E9F0B0F0273F7B
:102DB0003C45F9F0FC018281882339F11092980298
:102DC000EFCF07E225EE45EE69ED7CE5E6CF06E2C2
:102DD00021EE40EE64EF7CE5E0CF07E225EE44EE25
:102DE00065EF7CE5DACF06E221EE42EE66EF7CE5A8
:102DF000D4CF07E225EE46EE67EF7CE5CECF08E2C2
:102E000021E045EE6AED7CE5C8CF81E0C9CFCF93E4
:102E1000DF93EC01FB018281882309F419C1C230E0
:102E2000FCE5DF07C0F1C6319CE5D90730F09E0113
:102E30002B5F3C452930310570F50E94890E909337
:102E4000C7028093C602C031ECE5DE0709F4CFC0AB
:102E500008F05BC0C8308CE5D80709F4B6C088F527
:102E6000C430ECE5DE0709F4A8C0C0F4C2308CE53C
:102E7000D80709F49CC08091C6028260C330DC454B
:102E800009F498C08091C6029091C7020E94970EE3
:102E90000E941D0880E0DF91CF9108958091C602C5
:102EA0008061C630ECE5DE0709F484C08091C6027B
:102EB0008860C730DC4508F47DC08091C60280621E
:102EC00079C0CC308CE5D80709F489C070F48091C2
:102ED000C6028C60CA30ECE5DE0709F46BC008F46A
:102EE00078C08091C6028E7F65C0CE308CE5D80751
:102EF00009F479C08091C6028B7FCF30DC4508F49D
:102F000059C08091C6028F7E55C0CC3FECE5DE07EC
:102F100009F457C030F5C3318CE5D80709F46FC008
:102F200078F4C131ECE5DE0709F465C0C231DC4557
:102F300009F0A8CF0E941D088091C6028F773AC081
:102F4000C5318CE5D80709F462C008F476C08091D9
:102F5000C7028160CB3FDC4509F094CF8093C70264
:102F600091CFC115FDE5DF0709F44DC088F48091CC
:102F7000C7028D7FCE3F9CE5D90781F38091C702C0
:102F80008E7FCF3FDC4550F38091C7028360E6CF50
:102F9000C230FDE5DF0709F459C008F444C080E001
:102FA000C330DD4509F06ECF0E941D0F6BCF8091BD
:102FB000C60281608093C60265CF8091C60284609C
:102FC000F9CF8091C7028260C9CF8091C602806428
:102FD000F1CF0E941D088091C6028068EBCF8091DE
:102FE000C6028D7FE7CF8091C602877FE3CF8091B5
:102FF000C6028F7DDFCF8091C6028F7BDBCF8091B1
:10300000C602837FD7CF8091C7028C7FA7CF8091E4
:10301000C60282FB992790F921E0922790FB82F962
:1030200090FB83F9C7CF8091C702982F909591703C
:103030008E7F892B90FB81F991CF0E941D08909182
:10304000C602892F97FB87F98058B4CF81E0ACCFB7
:1030500081E021CFCF93DF93EB0186319C4511F5C1
:103060000E94B40D9A81992399F08A7A91E009F42B
:1030700090E090939902811109C089E20E946E0D3F
:103080000E94040E80E0DF91CF91089585E3F6CF92
:1030900080919902811104C089E20E94750DF0CFE0
:1030A00085E3FBCF81E0EFCF90939F0280939E0258
:1030B0000895E0919E02F0919F02309721F00190D7
:1030C000F081E02D099480E00895E0919E02F09156
:1030D0009F02309799F020912701222359F02091E7
:1030E000C60227FF07C0DC012C9111962C93119783
:1030F00025E02C930280F381E02D0994089520911E
:103100009C0230919D022817390771F090939D021F
:1031100080939C02E0919E02F0919F02309721F0F3
:103120000680F781E02D0994089520919A0230914C
:103130009B022817390771F090939B0280939A02A3
:10314000E0919E02F0919F02309721F00084F1857A
:10315000E02D09940895FC0132968091270188237F
:1031600021F08091C6029EE187FF96E080E09150B9
:1031700008F4089521912223D1F38F5FF8CF6623BD
:1031800001F1209127012223F1F02091C60227FFAF
:103190001AC0462F4695469546954E3190F4677075
:1031A00021E030E002C0220F331F6A95E2F7840F5E
:1031B000911DFC01828190E02823392381E0232B9B
:1031C00069F480E00895FC01329608962191261753
:1031D00021F0E817F907D1F7F4CF81E008959C01B9
:1031E000FC0132969FEF80E04191461751F09F3FDE
:1031F00019F4411101C0982F8F5F8630A9F79F3FC6
:1032000009F40895290F311D97FD3A95F90162835C
:103210000895FC01329608962191261303C0DF0120
:1032200011971C92E817F907B9F70895E62FE6956C
:10323000E695E695EE3168F4E80FF92FF11D677019
:1032400021E030E001C0220F6A95EAF78281822BEB
:1032500082830895E62FE695E695E695EE3170F4C3
:10326000E80FF92FF11D677021E030E001C0220F57
:103270006A95EAF720958281282322830895209178
:103280002701222329F02091C60227FD0C9416194C
:103290000C94EF1820912701222329F02091C602D7
:1032A00027FD0C942A190C940919FC01329680917F
:1032B0002701882351F08091C60287FF06C08EE166
:1032C000DF011D928A95E9F7089586E0F9CF089508
:1032D000089508950C9469198091E002843049F1B1
:1032E0000E946A1980E00E9470041092A00288E196
:1032F00090E020E40FB6F894A895809360000FBE8C
:103300002093600083B7817F846083BF83B781602F
:1033100083BF7894889583B78E7F83BF0FB6F89468
:10332000A895809160008861809360001092600091
:103330000FBE08950895CF930E9468190E94241328
:103340000E949A19C0E08C2F0E944512892B31F4FB
:10335000CF5FC430C1F780E0CF91089581E0FCCF0A
:1033600008950C94B0190E941D080E9459180E94DB
:1033700070040C94B1191F921FB61F9211248F93E1
:103380009F93AF93BF938091A002811113C080914E
:10339000D8029091D902A091DA02B091DB02419655
:1033A000A11DB11D8093D8029093D902A093DA0297
:1033B000B093DB02BF91AF919F918F911F901FBE81
:1033C0001F90189582E084BD93E095BD9AEF97BD5C
:1033D00080936E0008952FB7F8948091D802909151
:1033E000D902A091DA02B091DB022FBF08952FB766
:1033F000F8946091D8027091D9028091DA0290918C
:10340000DB022FBF08959C014FB7F8948091D8023A
:103410009091D902A091DA02B091DB024FBF821BDA
:10342000930B089578941F921FB61F9211248F93C7
:103430009F93AF93BF938091D8029091D902A091AE
:10344000DA02B091DB020196A11DB11D8093D80272
:103450009093D902A093DA02B093DB02BF91AF91AF
:103460009F918F911F901FBE1F901895F89481E037
:103470008093E00080E28093D800E9ECF0E01082D5
:103480008FE19EE40197F1F700C000001DBA109291
:1034900068001CBC10BE1FBA10927A0010926E0019
:1034A00010926F0010927100109272001082ECEB7B
:1034B000F0E0108214B817B81AB81DB810BA10820C
:1034C00015B818B81BB81EB811BA0C94003F08956F
:1034D0009093A3018093A20108958091C40208955E
:1034E0009091E002943031F58093A1027093A30291
:1034F0006093A20282E08093E9008FEF9091E80050
:10350000815095FD06C095ED9A95F1F70000811167
:10351000F5CF8091E80085FF0DC050E040E063E00A
:1035200070E081EA92E00E94E91C8091E8008E77C9
:103530008093E8000895BC0184E00C94701ABC01EB
:1035400083E00C94701ACF93DF93EC0180912701F4
:103550008823B1F18091C60287FF32C060E282E029
:103560008093E9008FEF9091E800815095FD06C0AF
:1035700095ED9A95F1F700008111F5CF8091E80063
:1035800085FF1BC08091270170E050E040E0811171
:1035900004C050E040E068E070E0CE010E94E91C09
:1035A0008091E8008E778093E80080E2FE01A4EA33
:1035B000B2E001900D928A95E1F7DF91CF910895E5
:1035C00068E081E0CDCF08958091DF02811109C0CC
:1035D0000E94791E0E94D61E8091E2008460809332
:1035E000E20008951092DF02089508950895089565
:1035F00042E061EC81E00E94F51D42E261EC82E074
:103600000E94F51D42E061EC83E00E94F51D42E15D
:1036100060E885E00E94F51D42E161E884E00C94D9
:10362000F51D8091E202833009F460C048F48130D6
:10363000C9F1823009F4A2C082E091E00C946122C9
:103640008A3009F48AC08B3009F46DC08930A1F743
:103650008091E102813281F78091E5029091E6024A
:10366000029750F78091E800877F8093E80080916F
:10367000E80082FF36C09091F3008091F20002973B
:1036800029F48091F1008B7F813021F48091F10049
:103690008093C4028091E8008B778093E8000E94B9
:1036A000291ECACF8091E102813A31F68091E8006B
:1036B000877F8093E8008091E5029091E602892B54
:1036C00061F460E284EA92E070E00E94381D80912B
:1036D000E8008B778093E800AFCF60E090E080E077
:1036E000F3CF8091E0028111C2CF08958091E10271
:1036F000813A09F0A1CF8091E5029091E602892BF1
:1037000009F09ACF8091E800877F8093E80080914C
:10371000E80080FFFCCF809127018093F100809129
:10372000E8008E77BACF8091E102813209F084CF30
:103730008091E5029091E602892B09F07DCF80917E
:10374000E800877F8093E8000E94291E8091E302B1
:10375000809327010E941D086FCF8091E102813282
:1037600009F06ACF8091E800877F8093E8000E948B
:10377000291E8091E4028093C5025ECF8091E10210
:10378000813A09F059CF8091E800877F8093E80063
:103790008091E80080FFFCCF8091C502BECF82E01F
:1037A00090E0909315018093140182E091E00C94D5
:1037B00018220895CF93DF9382E091E00E94BF2109
:1037C000EC01209719F4DF91CF91089582E091E008
:1037D0000E94E8210E94D91B2197F3CFCF93C0917B
:1037E000E9002091EC00922F917020FD90E820914B
:1037F000120120FF12C0CF70C92B909103019F705E
:103800009093E9009091EB0090FF04C09091EE003E
:1038100097FD05C0CF70C093E900CF9108959FEF49
:103820002091E800915025FD06C025ED2A95F1F77D
:1038300000009111F5CF8093F10082E091E00E94A9
:103840007A218091E80080FFE5CF8091E8008E77B3
:103850008093E800DFCF84B7877F84BF0FB6F894EA
:10386000A89580916000886180936000109260004C
:103870000FBE80E890E00FB6F894809361009093BB
:1038800061000FBE0C94430F0E94791E0E94D61E49
:10389000E2EEF0E080818460808378940E945F2172
:1038A0000E94570F8DE191E00E9454180C94CF1B99
:1038B0008091E002853031F48091E002853051F052
:1038C0000E94B3190E945F0F0E94DA1B82E091E010
:1038D0000C94A8210E946C198091DE02882361F368
:1038E0000E949B19882341F30E94D31C0E941D084B
:1038F000E3CF0C947B1C292F33272330310519F19A
:1039000068F42130310509F444C02230310509F44E
:1039100045C090E080E030E020E025C02132310554
:1039200049F122323105A9F780E490E029EB34E037
:1039300061157105C1F08DE690E02CE434E0613052
:10394000710589F0E6CF99278130910581F00097C4
:1039500029F00297F1F6ECE8F3E002C0EEEBF3E0B9
:10396000849190E09F01FA01318320830895E8EA71
:10397000F3E0F6CF89E090E024ED33E061157105C6
:1039800091F389E090E02DEE33E06130710559F359
:10399000C0CF82E190E02AE334E0E5CF88E790E011
:1039A00022EC33E0E0CF80E189BD82E189BD09B43A
:1039B00000FEFDCF8091D8008F7D8093D80080914C
:1039C000E00082608093E0008091E00081FDFCCF08
:1039D0000895AF92BF92CF92DF92FF920F931F9301
:1039E000CF93DF936C01EB018A010E94481EF82EF1
:1039F000811123C00115110539F0F80180819181F1
:103A0000C81BD90BC80ED91EB12CA12C2097A9F028
:103A10008091E80085FD22C08091E8008E77809338
:103A2000E80001151105A1F0F80180819181A80E2F
:103A3000B91EB182A08285E0F82E8F2DDF91CF9143
:103A40001F910F91FF90DF90CF90BF90AF9008959E
:103A50000E94481E8823D1F2F82EEFCFF601819103
:103A60006F018093F1002197FFEFAF1ABF0ACECF0D
:103A7000FC018091E7029091E80286179707A0F079
:103A80006115710529F49091E8009E779093E80004
:103A900090E06115710551F4911108C08091E80022
:103AA00082FF34C080E00895BC01F2CF8091E00233
:103AB0008823C1F18530C1F18091E80083FD30C0D9
:103AC0008091E80082FDEACF8091E80080FFE1CF9D
:103AD0008091F3002091F200382F6115710519F0E3
:103AE0002830310558F091E02830310509F090E098
:103AF0002091E8002E772093E800CBCF819180932E
:103B0000F100615071092F5F3F4FE7CF8091E002D4
:103B1000882341F0853041F08091E80083FFBECFDB
:103B200081E0089582E0089583E00895FC0180918A
:103B3000E7029091E80286179707A0F061157105DA
:103B400029F48091E8008E778093E80090E0611579
:103B5000710551F4911108C08091E80082FF35C0D1
:103B600080E00895BC01F2CF8091E0028823C9F182
:103B70008530C9F18091E80083FD31C08091E80073
:103B800082FDEACF8091E80080FFE1CF8091F300D1
:103B90002091F200382F6115710519F02830310598
:103BA00058F091E02830310509F090E08091E8006C
:103BB0008E778093E800CBCF84918093F10031968B
:103BC000615071092F5F3F4FE6CF8091E00288235B
:103BD00041F0853041F08091E80083FFBDCF81E066
:103BE000089582E0089583E00895982F973028F093
:103BF0008F708093E90081E008959093E900242F6D
:103C0000762F50E0981731F07091EC002091ED0084
:103C10005091F00021FD02C09F5FE8CF3091EB0092
:103C20003E7F3093EB003091ED003D7F3093ED000F
:103C30003091EB0031603093EB007093EC002093F7
:103C4000ED005093F0002091EE0027FDE5CF80E0DD
:103C500008958091E10287FF13C08091E80082FF00
:103C600006C08091E8008B778093E80004C08091C3
:103C7000E0028111F2CF08958091E0028823D9F308
:103C80008091E80080FFF8CF8091E8008E77ECCF3C
:103C90002091E4003091E50095E6A9012091EC0027
:103CA000822F817020FF06C08091E80080FF06C04F
:103CB00080E008952091E80022FD1AC08091E00282
:103CC000882389F0853089F08091EB0085FD0FC055
:103CD0002091E4003091E50042175307F9F291502A
:103CE000E1F684E0089582E0089583E0089581E09C
:103CF00008950E94E71E0E94EF1EE0EEF0E0808132
:103D000081608083E8EDF0E080818F77808319BC4B
:103D1000A7EDB0E08C918E7F8C9380818F7E808325
:103D20001092DF0208950F931F93CF93DF930E94A9
:103D3000E71E0E94EF1EC8EDD0E088818F77888350
:103D400088818068888388818F7D888319BC1092E0
:103D5000E0021092DC021092DE021092DD0200EE10
:103D600010E0F80180818B7F808388818160888367
:103D700042E060E080E00E94F51DE1EEF0E080812D
:103D80008E7F8083E2EEF0E080818160808380819D
:103D900088608083F80180818E7F80838881806144
:103DA0008883DF91CF911F910F910895E8EDF0E0A6
:103DB00080818F7E8083E7EDF0E080818160808369
:103DC00084E082BF81E08093DF020C94931EE8EDD3
:103DD000F0E080818E7F80831092E200089510923F
:103DE000DA001092E10008951F920F920FB60F9221
:103DF00011242F933F934F935F936F937F938F93F0
:103E00009F93AF93BF93EF93FF938091E10082FF65
:103E10000BC08091E20082FF07C08091E1008B7FA0
:103E20008093E1000E945E218091DA0080FF19C03A
:103E30008091D80080FF15C08091DA008E7F80933A
:103E4000DA008091D90080FF96C080E189BD82E1CF
:103E500089BD09B400FEFDCF81E08093E0020E949D
:103E6000E41A8091E10080FF19C08091E20080FF98
:103E700015C08091E2008E7F8093E2008091E20085
:103E800080618093E2008091D80080628093D800A6
:103E900019BC85E08093E0020E94F61A8091E1004F
:103EA00084FF2BC08091E20084FF27C080E189BDA0
:103EB00082E189BD89B5982F917080FFFBCF8091F9
:103EC000D8008F7D8093D8008091E1008F7E809311
:103ED000E1008091E2008F7E8093E2008091E20019
:103EE00081608093E2008091DC02882309F449C05C
:103EF00084E08093E0020E94F71A8091E10083FF42
:103F000029C08091E20083FF25C08091E100877F76
:103F10008093E10082E08093E0021092DC028091C5
:103F2000E1008E7F8093E1008091E2008E7F80939C
:103F3000E2008091E20080618093E20042E060E074
:103F400080E00E94F51D8091F00088608093F00071
:103F50000E94F51AFF91EF91BF91AF919F918F91C0
:103F60007F916F915F914F913F912F910F900FBE75
:103F70000F901F90189519BC1092E0020E94F21A3F
:103F800070CF8091E30087FD93E09093E002B3CF80
:103F90001F920F920FB60F9211242F933F934F93BE
:103FA0005F936F937F938F939F93AF93BF93CF93C1
:103FB000DF93EF93FF93D091E900DF708091EC00E5
:103FC000C82FC17080FDC0E81092E9008091F00018
:103FD000877F8093F00078940E940C201092E90073
:103FE0008091F00088608093F000CD2BCF70C0935B
:103FF000E900FF91EF91DF91CF91BF91AF919F9138
:104000008F917F916F915F914F913F912F910F9081
:104010000FBE0F901F9018951F93CF93DF93CDB7CE
:10402000DEB7AA970FB6F894DEBF0FBECDBF81EE04
:1040300092E02091F100FC012193CF01F2E0893E52
:104040009F07B9F70E94111B8091E80083FF1EC1F2
:104050008091E1029091E2029A3008F017C1E92FB5
:10406000F0E0E155FC4D0C943323803899F0823810
:1040700009F00CC18091E5028F70873008F006C10D
:104080008093E9008091EB0085FB882780F91092EE
:10409000E90006C08091DD029091DE0291118260FC
:1040A0009091E800977F9093E8008093F100109240
:1040B000F1008091E8008E77E5C0882309F4D3C031
:1040C000823009F0E3C08091E3028111D6C0809173
:1040D000E5028F702FEF280F263008F0D7C08093AD
:1040E000E9002091EB0020FFC8C0933031F48091AB
:1040F000EB0080628093EB00C0C09091EB00906178
:104100009093EB0021E030E001C0220F8A95EAF79E
:104110002093EA001092EA008091EB008860EACFD9
:104120008111B4C01091E3021F778091E300807881
:10413000812B8093E3008091E800877F8093E800E3
:104140000E94291E8091E80080FFFCCF8091E3004F
:1041500080688093E30082E0111183E08093E002A5
:1041600095C08058823008F091C08091E302909110
:10417000E4028C3D23E09207A1F583E08A838AE282
:1041800089834FB7F894DE01139620E03EE051E2B8
:10419000E32FF0E050935700E49120FF03C0E29535
:1041A000EF703F5FEF708E2F90E0EA30C0F0C7965F
:1041B0008D939D932F5F243159F74FBF8091E80075
:1041C000877F8093E8006AE270E0CE0101960E944A
:1041D000381D8091E8008B778093E80057C0C09627
:1041E000E7CF6091E5027091E602AE014F5F5F4F4D
:1041F0000E94791CBC01892B09F448C09091E80009
:10420000977F9093E80089819A810E94961DE1CF63
:104210008038E1F58091E800877F8093E800809105
:10422000DC028093F10045CF811130C09091E30210
:10423000923060F58091E800877F8093E80090934A
:10424000DC020E94291E8091DC02882311F084E0A8
:1042500005C08091E30087FDFACF81E08093E00202
:104260000E94F81A13C08091E302813079F481E052
:10427000933009F080E08093DE021092E900809193
:10428000E800877F8093E8000E94291E8091E80063
:1042900083FF0AC08091E800877F8093E8008091C7
:1042A000EB0080628093EB00AA960FB6F894DEBF15
:1042B0000FBECDBFDF91CF911F9108950895CF9389
:1042C0008091E0028823A1F0C091E900CF70909125
:1042D000EC00892F817090FD80E8C82B1092E900D6
:1042E0008091E80083FD0E940C20CF70C093E9000C
:1042F000CF9108952091E002243041F5FC014489DA
:10430000558966897789452B462B472BF9F08181A2
:104310008F708093E9009091F3008091F200892BD7
:1043200011F480E008959091E8008091E8008E7784
:104330008093E80095FDF5CF0E94481E811107C0CB
:104340009091E8009E779093E800089582E00895A8
:104350002091E002243091F4FC014489558966895A
:104360007789452B462B472B49F021812F702093CD
:10437000E9002091E80020FD0C947A210895209115
:10438000E002243019F090E080E00895FC014489B7
:10439000558966897789452B462B472BA1F3868162
:1043A0008F708093E9008091E80082FFECCF9091BC
:1043B000F3008091F200009731F42091E8002B7710
:1043C0002093E80008959091F3008091F200089501
:1043D0002091E002243019F08FEF9FEF0895FC0147
:1043E0004489558966897789452B462B472BA1F34C
:1043F00086818F708093E9008091E80082FFECCF86
:104400009091F3008091F200892B79F08091F10076
:1044100090E03091F3002091F200232B29F42091B9
:10442000E8002B772093E80008958FEF9FEFF1CFFE
:104430000F931F93CF93DF93CDB7DEB728970FB6B7
:10444000F894DEBF0FBECDBF8C018091E0028430B6
:1044500059F5F80184899589A689B789892B8A2B12
:104460008B2B11F183858F708093E90088E0E8E25F
:10447000F1E0DE01119601900D928A95E1F750E08E
:1044800040E068E070E0CE0101960E94E91C50E037
:1044900040E062E070E0C80142960E94E91C809111
:1044A000E8008E778093E80028960FB6F894DEBF78
:1044B0000FBECDBFDF91CF911F910F910895089549
:1044C0000895CF93DF93EC018091E80083FF10C043
:1044D00028818091E5029091E6022817190641F49F
:1044E0008091E2028132F1F030F4803209F450C060
:1044F000DF91CF910895823209F47EC08332C1F7F3
:104500008091E1028132A1F78091E800877F80935A
:10451000E8000E94291E6091E302CE01DF91CF9155
:104520000C9460228091E102813A11F78091E800B9
:10453000877F8093E8008091E80080FFFCCF8C8922
:104540009D89AE89BF898093F100492F5A2F6B2F27
:1045500077274093F100AD01662777274093F1005C
:104560008B2F9927AA27BB278093F100888D8093F2
:10457000F100898D8093F1008A8D8093F100809104
:10458000E8008E778093E800DF91CF910C94291E8C
:104590008091E102813209F0ABCF8091E800877F02
:1045A0008093E8008091E80082FF21C03091F10003
:1045B0002091F1009091F1008091F1003C8B2D8BC6
:1045C0009E8B8F8B8091F100888F8091F100898F75
:1045D0008091F1008A8F8091E8008B778093E800CA
:1045E0000E94291ECE01DF91CF910C945F22809111
:1045F000E0028111D7CF7CCF8091E102813209F0B6
:1046000077CF8091E800877F8093E8000E94291E81
:104610008091E3029091E402998B888BCE01DF9127
:10462000CF910C945F22991B79E004C0991F9617D3
:1046300008F0961B881F7A95C9F780950895AA1BE4
:10464000BB1B51E107C0AA1FBB1FA617B70710F07D
:10465000A61BB70B881F991F5A95A9F780959095AF
:10466000BC01CD010895EE0FFF1F0590F491E02DE0
:104670000994FB01DC0104C08D910190801921F4A3
:1046800041505040C8F7881B990B0895F999FECF07
:1046900092BD81BDF89A992780B50895A8E1B0E050
:1046A00042E050E00C947A23262FF999FECF92BD78
:1046B00081BDF89A019700B4021639F01FBA20BDE7
:1046C0000FB6F894FA9AF99A0FBE08950396272F19
:1046D0000E9455230E945423252F0E945523242FE6
:1046E0000C9455230196272F0E9455230C94542394
:1046F000DC01CB01FC01F999FECF06C0F2BDE1BDA2
:10470000F89A319600B40D9241505040B8F7089590
:10471000F894FFCFDC02E202F6021D031903000346
:104720000D03F505F5054D064D069F0622062206EA
:104730002206BB06470756075607B207220622067F
:10474000BB072C082C08350835083708350835080C
:1047500035082C082C083C08350835083C0835205D
:104760005D2046215D2046219020B1204621082170
:02477000142112
:1047720006020284100000010510000001830800F7
:10478200000100000000000000000000006D1AA3FC
:104792001AE31A9F1A9B1A01A120000000000200CE
:1047A200E200E900EA00B500B600B700CD008301DF
:1047B200CC008A01920194012102230224022502E3
:1047C200260227022A02B300B4006F007000818221
:1047D20083E200E900EA00B500B600B700CD00832D
:1047E20001CC008A019201940121022302240225B4
:1047F20002260227022A02B300B4006F0070008171
:104802008283F0F1F4F5F6F76766363534979091C6
:0248120092937F
:00000001FF
