:020000040800F2
:10200000000400204522000847220008472200085B
:1020100047220008472200084722000847220008FC
:10202000472200084722000847220008796C000870
:102030004722000847220008472200084D7A00087E
:1020400047220008472200084722000847220008CC
:1020500047220008472200084722000847220008BC
:10206000472200084722000847220008C5780008D8
:10207000D9780008ED780008017900081579000882
:10208000297900083D790008472200084722000806
:102090004D7B00084722000847220008472200081D
:1020A00047220008F97A0008472200080D7B000843
:1020B000472200084722000847220008472200085C
:1020C000472200084722000847220008472200084C
:1020D000472200084722000847220008472200083C
:1020E000472200084722000847220008472200082C
:1020F000472200084722000847220008472200081C
:10210000472200084722000847220008472200080B
:1021100047220008472200084722000847220008FB
:1021200047220008472200084722000847220008EB
:1021300047220008472200084722000847220008DB
:1021400047220008472200084722000847220008CB
:1021500047220008472200084722000847220008BB
:0C216000E1830008452500082125000847
:10216C0072B6274880F30888264880F309882648E9
:10217C004EF60851CEF200010860022080F314885C
:10218C00BFF36F8F04F008FB04F0A9F84FF0553043
:10219C001E491B4A91423CBF41F8040BFAE71C490B
:1021AC00184A91423CBF41F8040BFAE719491A4A04
:1021BC001A4B9A423EBF51F8040B42F8040BF8E755
:1021CC0000201749174A91423CBF41F8040BFAE72B
:1021DC0004F0E6FA04F0E1FA134C144DAC4203DAC5
:1021EC0054F8041B8847F9E704F088F8104C114D9B
:1021FC00AC4203DA54F8041B8847F9E704F0CEBA72
:10220C0000040020000C002000200008000000202A
:10221C000004002070900008000C0020AC1300207B
:10222C00B0130020A81D00206021000868210008C0
:10223C00682100086C21000892E700F000F8FEE726
:10224C002DE9F04FC1F80CD0C3689D46BDE8F08F66
:10225C00002383F311882846A047002004F086FC55
:10226C0004F025FC00DFFEE753B94AB9002908BF8A
:10227C0000281CBF4FF0FF314FF0FF3000F00CB8BE
:10228C00ADF1080C6DE904CE05F050FFDDF804E06B
:10229C00DDE9022304B07047704700BF00230146FC
:1022AC001A46184600F0E0B838B50A4C0A4D641BC3
:1022BC00A4100AD004F18043013B05EB8305013CDB
:1022CC0055F804399847002CF9D1BDE8384006F090
:1022DC008DB800BF6C21000868210008844641EAD3
:1022EC00000313F0030349D1403A23D30B68036076
:1022FC004B6843608B688360CB68C3600B69036178
:10230C004B6943618B698361CB69C3610B6A03625F
:10231C004B6A43628B6A8362CB6AC3620B6B036347
:10232C004B6B43638B6B8363CB6BC363403040312C
:10233C00403ADBD230320BD30B6803604B684360FE
:10234C008B688360CB68C36010301031103AF3D2C5
:10235C000C3205D351F8043B40F8043B043AF9D253
:10236C00043208D0D2071CBF11F8013B00F8013B26
:10237C0001D30B8803806046704700BF082A13D333
:10238C008B07B1D010F00303AED0C3F10403D21A03
:10239C00DB071CBF11F8013B00F8013BA4D331F85B
:1023AC00023B20F8023B9FE7043AD9D3013A11F8DB
:1023BC00013B00F8013BF9D20B7803704B7843706A
:1023CC008B78837060467047F0B4860746D0541EF5
:1023DC00002A3CD0CAB2034602E014F1FF3436D3D3
:1023EC0003F8012B9D07F8D1032C29D9CDB245EA6E
:1023FC0005250F2C45EA054533D9A4F110063609FD
:10240C0003F1200707EB061703F1100242E904550C
:10241C0042E902551032BA42F8D1721C14F00C0F7A
:10242C0003EB021204F00F0613D0331F23F0030347
:10243C000433134442F8045B9342FBD106F00304CB
:10244C002CB1C9B21C4403F8011B9C42FBD1F0BC5B
:10245C00704734461346002CF3D1F8E71446034674
:10246C00C2E71A462646E0E72DE9F0411D4C054629
:10247C00206890461F460E4600F042F81A4B1A6828
:10248C00D2F848311BB35A6820681F2A24DC4DB996
:10249C00511C0232596043F8226000F039F80020D8
:1024AC00BDE8F081012403EB820CCCF88880D3F8D2
:1024BC00881194402143022DC3F88811CCF808717F
:1024CC00E6D1D3F88C110C43C3F88C41E0E702F54C
:1024DC00A673C2F84831D6E700F01AF84FF0FF3077
:1024EC00DEE700BF30100020FC830008704700BFFF
:1024FC00704700BF704700BF704700BF704700BFF8
:10250C00704700BF0120704701207047704700BF23
:10251C00704700BF10B5054C237833B9044B13B189
:10252C000448AFF300800123237010BDB0130020CA
:10253C00000000007090000808B5034B1BB1034964
:10254C000348AFF3008008BD00000000B413002066
:10255C007090000810B5064C06222046012105F0AB
:10256C0027FA2046BDE810400622022105F020BAC9
:10257C000008014070B502260125054C4CF2503084
:10258C002661256104F0F7FA6661656170BD00BFD4
:10259C000008014008B5002900F09C80142800F2C6
:1025AC009980DFE800F00B161D242B323940474E82
:1025BC00555B61676D73797F858B9100022002F00A
:1025CC0087F9002800F086800420BDE8084000F060
:1025DC0003B9022002F07CF900287BD01620F4E726
:1025EC00022002F075F9002874D00720EDE70220D4
:1025FC0002F06EF900286DD00920E6E7022002F007
:10260C0067F9002866D00A20DFE7022002F060F9A3
:10261C0000285FD00B20D8E7022002F059F90028DF
:10262C0058D00D20D1E7022002F052F9002851D0E9
:10263C000E20CAE7022002F04BF900284AD00F20E6
:10264C00C3E7022002F044F9002843D03320BCE752
:10265C00022002F03DF9E8B32820B6E7022002F090
:10266C0037F9B8B31E20B0E7022002F031F988B375
:10267C001F20AAE7022002F02BF958B32020A4E770
:10268C00022002F025F928B321209EE7022002F057
:10269C001FF9F8B1222098E7022002F019F9C8B10D
:1026AC00232092E7022002F013F998B124208CE742
:1026BC00022002F00DF968B1252086E7022002F015
:1026CC0007F938B1262080E7022002F001F908B1A1
:1026DC0027207AE708BD0000F8B5064602F0D2FACA
:1026EC00022501270D4C032813D8DFE800F0021255
:1026FC00060C256167613046F8BD01F095F80223A0
:10270C0027616361F7E701F095F8012325612361E7
:10271C00F1E701F08FF801236561F2E70008014051
:10272C00A0F58073B3F5F85F30B427D210F4805F56
:10273C0000F4807300F4007500F4806400F400620F
:10274C000ED0002B0CBF002010200DB140F020004B
:10275C000CB140F040000AB140F0800030BC08479A
:10276C00181E18BF01200DB140F002000CB140F052
:10277C000400002AF2D040F00800EFE730BC7047AC
:10278C00A0F1E003072B10B5044600D940B9204650
:10279C000449FFF7C5FFE0B2BDE8104001F090BA64
:1027AC000149F6E75B3E00083342000810B50446C9
:1027BC00C0B201F0E7FAA4F1E003072B00D92CB961
:1027CC0003492046BDE81040FFF7AABF0149F8E7CE
:1027DC006D3E00084542000810B50446FFF7D0FFD7
:1027EC002046BDE81040FFF7E1BF012070470120F3
:1027FC00704708B5FFF7FBFF08BD704708B5FFF73A
:10280C00FCFF08BD13B502AB03E903000F4B1B78AB
:10281C00B3B99DF8023073B16AB102F0E9F804461D
:10282C000146009802F0A0F82046009902B0BDE8DD
:10283C00104000F0ABB8009802F0BAF80446F3E789
:10284C00009802F0D5F80099F0E700BF221800209C
:10285C0003460A4600689988FFF7D4BF10B50446B2
:10286C000021FFF7F5FF2146FFF7C8FF10BD08B5A3
:10287C0002F043FA08B902F0C3FABDE80840FFF7CA
:10288C0079BE08B500F0B4FFBDE8084000F023BAEB
:10289C00704708B501F0E9FCFFF7FAFF46F2A81003
:1028AC0004F069F9BDE8084002F00EBC38B501210E
:1028BC000446FFF7CDFF21460546FFF79AFF08B9FE
:1028CC00002038BD2146284600F08CFB0028F7D0AC
:1028DC002146284600F0C8FF0028F1D021462846A2
:1028EC0000F012FE0028EBD02146284600F066FED0
:1028FC000028E5D02146284600F03AFF0028DFD01A
:10290C00A37813B345F601439D4209D045F6DF4346
:10291C009D4217D0B5F5B84F17D1FFF7BAFFCFE7E7
:10292C000C4A1078C0F3000383F0010363F300003A
:10293C0010F00104107003D0074802F013FFBFE73A
:10294C000648FAE702F05CFABAE72046FFF74DFFBB
:10295C00B7E700BFBB180020FE8500080F860008F3
:10296C00704708B5FFF7FCFF08BD0120704708B59C
:10297C00FFF7FBFF08BD10B50446FFF7F2FF20463A
:10298C00FFF7F5FF10BD002070477047C1F3072219
:10299C00CBB2302148430C2101FB02001844034BFD
:1029AC0082B033F8100002B0704700BF7E8400087C
:1029BC00014B33F8100070472286000813B5ADF8B0
:1029CC0004100199FFF7E2FF00F0AEF8B0F5A44F48
:1029DC0004463DD2B0F5A24F80F08780B0F5405F41
:1029EC0018D2B0F5005F74D2DF280BD8BF286AD894
:1029FC00012804D0031F9BB2A12B28BF0024204622
:102A0C0002B010BDE728FAD9A0F580739BB2B3F5DC
:102A1C00F85FF2E7B0F5A04FC3B208D2B0F5804F23
:102A2C005DD202051BB257D443F44044E7E7C0F330
:102A3C000114C3F38100400140EA0420012403F097
:102A4C00030304FA03F3184340F40C4084B2D6E7B2
:102A5C00B0F5AC4F1AD2B0F5AA4FC0B24BD2B4F508
:102A6C00A84F0ED20123B4F5A64F4FEA900400F004
:102A7C00030003FA00F040EA4410E5D340F40A40A6
:102A8C00E4E74AF2F40444EA0024B8E7B0F5B44FA2
:102A9C0009D2B0F5B24F3BD2A0F5B0439BB2FF2B9D
:102AAC0031D90024ABE7A0F5C0439BB2B3F5005F6E
:102ABC00F7D2C0F3042000F0B7F8000200F4F8508D
:102ACC00E4B220431CE0C03880B2FFF771FF04462B
:102ADC0095E7C0F30B00F8E743F448448FE700F4A4
:102AEC007060184340F4204489E74AF2F103C0B205
:102AFC0043EA002483E700F097F8000200F4F85052
:102B0C0040F400547BE74AF2F00040EA04209DE7D1
:102B1C0000F00F0000F088F8C4F3031440EA04201E
:102B2C0040F4104092E70000E7284DD8DF2807D882
:102B3C00312861D00ED8292857D02A2863D0704765
:102B4C00A0F1E003072B3FD8DFE803F0123E21266B
:102B5C00303E3A3F392804D0822802D035283DD067
:102B6C007047304B1B7813F0030F18BFE0207047F1
:102B7C002C4A1378D9074DD4527812F0010F23D078
:102B8C0013F0100F08BFE32018BF00207047254B2F
:102B9C001B7813F0040FF2E7224A137859073BD441
:102BAC005278D2073AD413F0100FEDE71D4B5A7838
:102BBC00910709D51B7813F0100F08BFE720E3E746
:102BCC00184B1B781A07F6D47047164A1378190756
:102BDC0026D452789207E6D5E420F5E7114B1B7802
:102BEC0013F0200F18BF292070470E4B1B7813F0E1
:102BFC00200F18BF352070470A4B1B7813F0400F7D
:102C0C0018BF2A207047074B1B7813F0400F18BFD2
:102C1C003120704739207047E2207047E020704720
:102C2C00E6207047C0180020294A1378590707D5A9
:102C3C0000F01801082927D100F0F70040F004003B
:102C4C00190707D500F01801182926D100F0E70064
:102C5C0040F014005278D10707D500F0180108296C
:102C6C0024D100F0F70040F00100920707D500F0E6
:102C7C001802182A23D100F0E70040F01100DB06FF
:102C8C0048BF00F0E700704700F01401042904BFAE
:102C9C0000F0FB0040F00800D2E700F0140114290A
:102CAC0004BF00F0EB0040F01800D3E700F0110176
:102CBC00012904BF00F0FE0040F00800D5E700F049
:102CCC001102112A04BF00F0EE0040F01800D6E704
:102CDC00C0180020704708B5FFF7FCFF08BD0000C6
:102CEC00014B33F810007047CC1300202DE9F04154
:102CFC000F4802F037FD00240E4DDFF83C800F4FDB
:102D0C000F4E2146404602F02DFD384602F02AFDBA
:102D1C0035F8020B01F0E4FF0146304602F022FDCB
:102D2C000134084802F01EFD042CEAD1BDE8F08104
:102D3C0022860008CC130020398600082F88000852
:102D4C003E860008918B0008032003F014BF08B5E1
:102D5C00202383F31188012100F00F0399400322F3
:102D6C0020F00F0004F024FE002383F3118808BD2B
:102D7C0038B51348FFF7EBFF1248FFF7E8FF12488E
:102D8C00FFF7E5FF1148FFF7E2FF0C24104D55F853
:102D9C00040B013CFFF7DBFF14F0FF04F7D10D4BE4
:102DAC000D4A042014801C8054805C8094809C808C
:102DBC00D480DC8000F06EF8BDE83840FFF757BDDA
:102DCC000F080140030C01400708014006080140B0
:102DDC0044860008CC130020D41300202DE9F84FB2
:102DEC00002504264FF00108A946DFF898A0264FCD
:102DFC005AF8044B202383F3118824F00F0B04F0B2
:102E0C000F0408FA04F406222146584604F0D0FDBB
:102E1C00CBF8144089F31188FFF796FF0022144673
:102E2C001A4951F8043B23F00F00806803F00F039C
:102E3C0020FA03F3DB074EBF002308FA02F31BB2A0
:102E4C00013223430C2A9CB2EBD15AF8040CFFF745
:102E5C007EFF3B88013EA34216BF012300233C802A
:102E6C0016F0FF0645EA030507F10207C0D12B4611
:102E7C0004220749044800F00FF8FFF702FD28462A
:102E8C00BDE8F88F74860008D4130020448600082F
:102E9C00CC13002070470000F8B506460F461546C7
:102EAC000E4C2BB10123237002F002F90C4B18804D
:102EBC0023782BB10A4B188802F0FFF805280AD8A2
:102ECC00F8BD36F8132027F8132001339D42F8DCA7
:102EDC0000232370F4E70023F8E700BFDC13002085
:102EEC00DE1300201FB56B4683E80300BDF80440D9
:102EFC0093E803009DF80220029034B14FF6FF7363
:102F0C00BDF80810994200D012B9002004B010BDD1
:102F1C000120FBE708B501F0F0FE08B901F070FFE5
:102F2C000D2000F095F9014B187008BDEC13002032
:102F3C000023074A014613609380064A136093806E
:102F4C00054A13609380054B18700D2000F088B96A
:102F5C00EE130020E0130020E6130020EC130020F9
:102F6C000120704770B5194C194D21462878FFF790
:102F7C00F7FF18B12B785BB1012B18D00023154A41
:102F8C0023601168A3809288134B19609A8070BDDE
:102F9C002646042516F8010B08B103F069F9013D2A
:102FAC0015F0FF05F6D1284603F062F9E6E7264650
:102FBC000625237863F07F03237016F8010B013D7F
:102FCC0003F056F915F0FF05F7D1D7E7E013002011
:102FDC00EC130020EE130020E613002001207047B4
:102FEC000120704745F6302398422DE9F3410646FF
:102FFC000C4614D005D8A0F5B443292B21D90124B3
:10300C0011E045F631239842F9D1FFF7E9FF48B1B9
:10301C002068A188FFF766FF20B101200EE0FFF7C2
:10302C00DFFF20B90024204602B0BDE8F081206803
:10303C00A188FFF757FF0028F4D00020FFF778FF96
:10304C00F0E7FFF7CDFF0028ECD04E4B1F78C7B14F
:10305C00012F43D04C4D3A4695F900302146009350
:10306C0030464A4BFFF7BAFF0028DBD02068A18816
:10307C00FFF738FF2B78044600286ED001332B70F5
:10308C00D0E7A1882068FFF72DFF414AF3B2D35C4B
:10309C003E4D404A990938B1C8B2515C194311549C
:1030AC002A5C13432B54D5E71068DFF8ECC028607A
:1030BC009088A880394DC8B2695C0B426FEA030353
:1030CC000CBF4FF0010E4FF0000E5BB219402954AB
:1030DC00115C8CF800E00B401354BBE7A18820680E
:1030EC00FFF700FF0721F5B2B5FBF1F1C1EBC1030E
:1030FC00EB1ADBB2274DC3F1060307FA03F3CAB28E
:10310C00DFF888C0695C5FFA83FE48B14EEA0103C0
:10311C00AB541CF802304EEA030E0CF802E099E7AF
:10312C002868DB43CCF80000A8885BB2ACF804003C
:10313C00DFF868C01CF802001EEA000F0CBF4FF04D
:10314C0001084FF00008DFF850E018400B408EF8F3
:10315C0000800CF80200AB547CE7013B5BB2002B07
:10316C00CCBF2B7028700C4D2B78002B3FF45AAF32
:10317C00FFF7F8FE2B78002B3FF454AFFFF7F2FE6D
:10318C0051E700BFEC130020ED130020E0130020EA
:10319C0084860008EE130020F4130020E6130020B0
:1031AC0008B500F03FF940F2FF3008BD08B50448FF
:1031BC0000F0F0F8BDE80840024800F0EBB800BFA2
:1031CC0000F8010800FC0108B0F5806F2DE9F04112
:1031DC00884602D30020BDE8F0814FF6FF7247000D
:1031EC0007F1006606F5FC36338844129BB2934215
:1031FC0004D1304600F0F0F880B2ECE7A402134D95
:10320C0004F1006404F5FC344FF480622146284636
:10321C00FFF764F833789845DCD040F2FE30384044
:10322C0005F80080204600F0B5F805F58066297891
:10323C0061F0FF014B1C03D0204689B200F0CCF8A2
:10324C000235B54204F10204F1D1D5E7F5130020A3
:10325C0080B2400000F1006000F5FC30007870474F
:10326C0080B2FFF7B1BF83B25B0003F1006303F5DB
:10327C00FC331A78431C9BB25B0003F1006303F52B
:10328C00FC33187842EA0020704738B50D4684B2FA
:10329C002046C9B2FFF798FF601C290A80B2BDE82E
:1032AC003840FFF791BFFFF7F0BFF8B50C4680B27E
:1032BC00471CBFB243007A0003F1006302F10062C5
:1032CC00861C03F5FC3302F5FC32B6B2197892F881
:1032DC0000C0720002F10062C51C02F5FC32ADB2F6
:1032EC0013786A0002F1006202F5FC321B041278BA
:1032FC0043EA0C230B4343EA0263A34212D0E1B22C
:10330C00FFF762FFC4F307213846FFF75DFFC4F3F4
:10331C0007413046FFF758FF2846210EBDE8F8401C
:10332C00FFF752BFF8BD00000B4BDA68D0070CD486
:10333C00DA6851070BD4DA68D2060AD4D86800F0E0
:10334C000100C0F10500C0B2704701207047022097
:10335C0070470320704700BF0020024073B504463D
:10336C000025FFF7E1FFFF2601280FD114B9062035
:10337C0002B070BD01950196019B1BB9FFF7D4FFFC
:10338C00013CF1E7019B013B0193F5E7002C08BFE1
:10339C000620EDE738B5054640F6FF70FFF7DEFF77
:1033AC00052815D10B4C40F6FF70236943F002033E
:1033BC0023616561236943F040032361FFF7CEFF6E
:1033CC0006281EBF236923F0020323613423E36024
:1033DC0038BD00BF00200240104B00F178429A42E9
:1033EC0070B505460E4616D81F20FFF7B7FF052807
:1033FC0010D10B4C1F20236943F0010323612E8055
:10340C00FFF7ACFF06281EBF236923F001032361DD
:10341C003423E36070BD0720FCE700BFFEFF07000C
:10342C0000200240034B044A5A6002F188325A6071
:10343C00704700BF00200240230167452DE9F0478B
:10344C00144682781D4607468A469DF820802C4BF0
:10345C0092B11C7001F02CFE2A4B188004F1200351
:10346C00DBB2072B49D8012004F00704A040C0B2FE
:10347C00BDE8F04700F0EBBC1E78A64233D1214BDF
:10348C00188801F01AFE39468146504601F01AF9A7
:10349C00814528D2AE4205F1200415D006F1200357
:1034AC00DBB2072B06D8012006F00706B040C0B2ED
:1034BC0000F0D6FCE3B2072B06D8012005F0070379
:1034CC009840C0B200F0C3FC4046E4B200F0AFFC40
:1034DC00072C12D8012005F00705A840C0B2BDE8A2
:1034EC00F04700F0BDBC04F12003DBB2072B04D87D
:1034FC00012004F00704A040F0E7BDE8F08700BF0E
:10350C00F5170020F617002013B545F6F7430446CF
:10351C009C4208460FD845F6F3439C4212D845F618
:10352C00D9439C421DD045F6DA439C423ED045F629
:10353C00D8439C420FD0807800283BD000221E4BF1
:10354C001A701CE0A4F5B944753C022C0ED8DFE8C7
:10355C0004F0181F260026230093E1231A46214667
:10356C000AE027230093E523E522F8E72623E0224F
:10357C00009345F6F441E123FFF760FF002002B011
:10358C0010BD2723E422009345F6F541E523F3E72C
:10359C002623E222009345F6F641E123ECE72723AC
:1035AC00E622009345F6F741E523E5E7282300934F
:1035BC000123D9E70120E2E7F517002038B50546CD
:1035CC008878002800F0CF8045F615439D4216D828
:1035DC0045F601439D4217D901F09FFB45F6154373
:1035EC00624C9D42208021D845F601439D420CD867
:1035FC00208801F09EFB00F038FE002004E0A5F5C9
:10360C00B9437B3B082BE7D938BDA5F5B845033D3D
:10361C00122D1AD8DFE805F01E222633373B3F4522
:10362C005155595D696D71757B978300A5F5B94549
:10363C007B3DABB2082BDBD8082DD9D8DFE805F0E1
:10364C00161B4D51376B7A8D9100237843F0010393
:10365C002370CDE7237843F00203F9E7237843F096
:10366C000403F5E7237843F00803F1E7637843F0AC
:10367C0001036370BCE7637843F00203F9E7237836
:10368C0043F01003E4E7237843F02003E0E72378CA
:10369C0043F04003DCE700F0E8FD237843F08003BF
:1036AC00D6E7237823F00C0343F00C03D0E76378C0
:1036BC0023F0030343F00303DBE723786FF30003EA
:1036CC00C6E723786FF34103C2E723786FF38203D5
:1036DC00BEE723786FF3C303BAE763786FF3000395
:1036EC00C7E763786FF34103C3E723786FF30413E1
:1036FC00AEE723786FF34513AAE723786FF38613AD
:10370C00A6E700F0B2FD23786FF3C713A0E7237888
:10371C0023F00C039CE7637823F00303A9E72378D9
:10372C00C3F3800282F00102D2B262F3820362F32D
:10373C00C3038DE76378DA4302F0010262F30003FE
:10374C0062F3410395E700F090FD2378C3F3C012B8
:10375C0082F0010262F3C7137AE7012001F052FBF9
:10376C0046E70020FAE701204EE700BFC018002012
:10377C0045F61643984210B50C461BD101F0B8F92A
:10378C00A2780D4B72B100F0AA00002815BF0122DF
:10379C000022352029201A7001F07AF901F014FA70
:1037AC00002010BD1B78002B14BF3520292001F000
:1037BC0077F9F3E70120F4E7F817002070B50A4D0C
:1037CC002B7883B168B10024084EE3B236F81300AD
:1037DC00FEF7D6FF013401F0F7F92A78E3B29A42EA
:1037EC00F3D800232B7070BDF9170020FE170020B2
:1037FC000A4B10B51B7883B1094C23786BB1094B7C
:10380C00188850B101F059FC232806D90023012057
:10381C002370BDE81040FFF7D1BF10BDDC100020B5
:10382C00FD1700200E1800200122014B1A70704762
:10383C00DC1000200023044A01201370034A13708B
:10384C00034A1380FFF7BABFFD170020DC100020DD
:10385C000E180020034B1A780AB1FFF7EBBF0122B8
:10386C001A707047DC10002000232DE9F74F644AD2
:10387C000746137045F6F8439842884608D18C7871
:10388C00C4B101225F4B1A70204603B0BDE8F08F23
:10389C0045F6F943984204D18C785CB1FFF7CAFF26
:1038AC00F2E745F6FA43984204D18C7814B1FFF74D
:1038BC00D1FFE9E7534B1E78002E00F09F800024C7
:1038CC00514BDFF848A11C804F4BB3F80090B9F175
:1038DC00140F0DD94A4B1B78002B6DD001F0E8FB6F
:1038EC004B4B18800020FFF769FF84F00104CBE7F5
:1038FC0000224FF6FF755AF83930D0B233F8101059
:10390C0001328F4208BF85B20029F6D16AB201326A
:10391C000FD14FF0000B44EA0B042EB10AEBC90394
:10392C009E79B6FA86F67609374A138801331380E6
:10393C00CAE74FEAC90201920122364B0AEBC90CC5
:10394C0093F800B098F8023002FA05F59CF806E0FE
:10395C006DB2D3B145EA0E05EDB28CF80650BBF151
:10396C00000FD6D002FA00F00138A842D3D1BCF82F
:10397C00040028B1FEF704FF0122214B1A70CAE79C
:10398C0011464846FEF706FEF6E78240013A7245BC
:10399C0010D1BCF8040048B1FEF708FF4FEAC90289
:1039AC005244917921EA05059571B4E74846FEF732
:1039BC00F1FDF3E78B46F1E754B90120FFF7FEFE6A
:1039CC00002E92D00122124B1C80124B1A708CE7E5
:1039DC0098F80230002B88D00E4B1B78002B84D02B
:1039EC0001F066FB0C4A0A4B18801378072B9FBF1B
:1039FC00591C1170094A22F8137076E7012443E729
:103A0C00FC170020DC100020FA17002034100020D6
:103A1C000E180020FD170020F9170020FE170020BB
:103A2C00014B1860704700BF10180020024B18683B
:103A3C0008B103681847704710180020F8B5194BE7
:103A4C0004461B68002B2CD0174A127842B1174A37
:103A5C0092F90020002ABFBF027842700522027042
:103A6C00134D20465B6898472B78580719D5D90712
:103A7C0002D5104801F076FE0F4F04F108062B78A2
:103A8C00DA0703D53846217801F06CFE0134B442D4
:103A9C00F5D12B78DB0704D5BDE8F840074801F0D9
:103AAC0061BEF8BD101800208C130020C018002037
:103ABC00BB180020C4860008D6860008918B00082D
:103ACC00054A1188814205D0044B10801B680BB14C
:103ADC00DB681847704700BF16180020101800202C
:103AEC00054A1188814205D0044B10801B680BB12C
:103AFC001B691847704700BF1418002010180020CD
:103B0C00704708B5FEF726FD08BD704708B5FFF7EE
:103B1C00FCFF08BD08B5FFF7F3FFFFF7F2FF08BD88
:103B2C000120704708B5FFF7FBFF08BD70477047D1
:103B3C0008B501F09DFAFFF71BF901F027FEFFF71E
:103B4C00E9F9054B1A7842F080021A70188801F0D6
:103B5C00F0F8FFF7DBFF08BDC018002038B50E4D9C
:103B6C0004462B78580711D5D9070FD50B4801F00F
:103B7C00F9FD2B78DA0709D52146094801F0F2FD49
:103B8C002B78DB0702D5074801F0ECFD2046BDE899
:103B9C003840FEF7F0BE00BFBB180020DC860008E2
:103BAC0039860008918B00082DE9F347FFF7BEFF1B
:103BBC00FFF7BDFFFFF712F9FFF7B4FF00284DD058
:103BCC00DFF8C4A000255646DFF8C080EFB23846B7
:103BDC00FFF786F83AF8024B814684423BD098F8BE
:103BEC0000309B0701D5FFF781F884EA0904A3B2E2
:103BFC00002201242342D1B228D019EA040F14BFA9
:103C0C00012300238DF800108DF802308DF801701F
:103C1C0001F04EFA40F0010002ABADF8040013E9DC
:103C2C00030000F037F836F815305C4026F81540E4
:103C3C00FFF7FCFE164C2378834222D0FFF7F6FEEA
:103C4C00207002B0BDE8F047FFF788BF0132640076
:103C5C000C2AA4B2CED10135042DB7D14FF6FF7387
:103C6C00ADF8003000238DF8023001F021FA40F05D
:103C7C000100ADF8040002AB13E9030000F00AF8F0
:103C8C00D6E702B0BDE8F0871A180020BB18002058
:103C9C001818002084B06B46002283E80300ADF8AE
:103CAC000E2093E8030004AB0290ADF80C1013E95E
:103CBC00030004B000F008BD008800F0B9BE00009D
:103CCC0010B5044600285AD0822813D1FFF7AEFE57
:103CDC00810754D4392000F0DBFE00F075FF42F26E
:103CEC00107002F048FF392000F0DAFEBDE81040F9
:103CFC0000F06ABF83280ED1FFF798FEC2073ED4AE
:103D0C00532000F0C5FE00F05FFF42F2107002F08D
:103D1C0032FF5320E8E784280ED1FFF787FE4307D4
:103D2C002DD4472000F0B4FE00F04EFF42F210708C
:103D3C0002F021FF4720D7E7031FDBB2A02B11D8DD
:103D4C0001F08CFFD8B90E4B2146186801F07CF8B5
:103D5C0020B1204600F0A4FE00F036FF204600F013
:103D6C0097FEC3E700F12003DBB2072B07D800F066
:103D7C0007040120A040C0B200F0C0FEB6E710BDA1
:103D8C00E010002008B5034600284FD082280FD140
:103D9C00FFF74CFE810749D5392000F079FE00F081
:103DAC0013FF392000F07CFEBDE8084000F00CBF8A
:103DBC0083280AD1FFF73AFEC20737D5532000F00B
:103DCC0067FE00F001FF5320ECE784280AD1FFF7CF
:103DDC002DFE43072AD5472000F05AFE00F0F4FED2
:103DEC004720DFE7021FD2B2A02ADBD900F1200264
:103DFC00D2B2072A07D800F0070301209840C0B2BE
:103E0C0000F084FED0E700F15B02D2B2022A04D8A3
:103E1C00BDE808400020FFF753BE5833DBB2162B29
:103E2C0004D8BDE808400020FFF75ABE08BD10B505
:103E3C000446FFF745FF392C0CBF4FF4FA50012014
:103E4C0002F099FE2046BDE81040FFF79BBF08B575
:103E5C0028B100F053FEBDE8084000F0B5BE08BD27
:103E6C0008B528B100F052FEBDE8084000F0ACBE29
:103E7C0008BD2DE9F0478679857880460C463609D1
:103E8C000DB100F061FE00F029FE074698B14DB36C
:103E9C00C4F3072303F0F003402B04D004F12003F8
:103EAC00DBB2072B1ED9022000F0D4FE00F016FE68
:103EBC0080F00107FFB2C4F30339B9F10F0F3FD8FB
:103ECC00DFE819F012001200620062003E003E00B2
:103EDC003E003E00AE000601160116016B013E00CD
:103EEC003E0074010027E6E7C4F30723C4F303265E
:103EFC0013F0F00F18BF3601E4B295B156B104F1CE
:103F0C002003DBB2072B304600D93CB900F0F6FD9C
:103F1C0000F05AFE2046FFF7D3FE11E000F004FE3D
:103F2C00F6E72046FFF72EFF56B104F12003DBB273
:103F3C00072B304600D924BB00F0E8FD00F044FE0E
:103F4C00A9F10809B9F1030F03D8FFF76FFDFEF7CC
:103F5C0012FD002F00F0318100F0B8FD10F00100CF
:103F6C0040F02B8188F8020000F0A8FD00F0C4FCA2
:103F7C00404600F035F900F0A1FDBDE8F04700F037
:103F8C00C5BC00F0D9FDD9E7C4F3072303F0F00357
:103F9C00C4F3032A202BE4B218BF4FEA0A1A64B107
:103FAC00012C28D07DB34EB398F80630D907B1D583
:103FBC006FF3071388F8063020E095B13EB900F096
:103FCC00DFFD40EA0A00C0B2FFF741FFB8E7012E5F
:103FDC00F5D100F0D5FD40EA0A00C0B200F0DCFDDE
:103FEC00AEE72EB900F0E4FD5046FFF739FFA7E726
:103FFC00012EA5D0F6E71DB1052EA1D85046E3E75A
:10400C00042E9DD8F0E7002EEED0392C0CBF4FF4C7
:10401C00FA50012002F0AFFD2046FFF7B3FE8FE708
:10402C0014F4407F25D1002D8AD1E20648BF0F251C
:10403C00C4F342104FEA8000C0B244BF8540ED4348
:10404C0004F00F03C4F381248340022C45EA0300DF
:10405C0009D0032C0AD0012C02D000F015FC6FE71C
:10406C0000F00AFC6CE700F017FC69E700F001FCBB
:10407C0066E7C4F30122FDB112F0010F3FF460AF0B
:10408C00C4F342139B00DBB204F00F0000FA03F2FE
:10409C0014F010001DBF0F209840C3430346C4F317
:1040AC008124022C43EA02000CD0032C0DD0012CED
:1040BC0005D000F047FC43E712F0020FDEE700F0FA
:1040CC0039FC3DE700F046FC3AE700F0F1FB37E73E
:1040DC00E6B2C4F3032425B1204600F00DFC3046B3
:1040EC0072E73046FFF7BCFE204600F00FFC27E7D6
:1040FC005FFA84FAAAF1F003042B39D8DFE803F055
:10410C00030E151A23003DB1042E3FF619AFC4F36C
:10411C00042000F005FC13E7052EF6E7C4F3042099
:10412C00002DE2D000F0E8FB0AE7C4F30420002DD8
:10413C00F8D0DAE725B1C4F3042000F0D7FBFFE692
:10414C0000F0C2FBFCE64DB1C4F30424204600F0A1
:10415C00D3FB0321204600F063FDF1E6012000F0C3
:10416C0079FD012E7FF6ECAE022000F073FDE7E640
:10417C002DB10EB15046CEE6C4F30420D2E74EB1B9
:10418C00BAF1390F0CBF4FF4FA50012002F0F3FCD6
:10419C00504642E7C4F30420A7E7C4F30322E1B27C
:1041AC004046FEF7F0FB00F0F7FAC9E64046C4F3D0
:1041BC000322E1B2FEF7E9FBC2E6BDE8F08738B5B1
:1041CC0001880446807800F03FFC054600F0CAFBED
:1041DC0000F04EFB29462046BDE83840FFF749BEAB
:1041EC0013B504460068A3880090D3B14FF6FF7353
:1041FC00BDF800209A4214D02046FEF757FB50B968
:10420C0000F06CFC68B1A3785BB1022002B0BDE891
:10421C00104000F01FBD2046FFF7D1FF2046FEF7EF
:10422C001DFB02B010BD08B528B100F07DFCBDE847
:10423C00084000F0C9BC08BD08B528B100F07CFCF2
:10424C00BDE8084000F0C0BC08BD08B500F07CFC1F
:10425C0000F090FCBDE8084000F0B6BC08B500F0DA
:10426C0027FCBDE80840FFF7F0BF08B500F056FC8E
:10427C00BDE80840FFF7F2BF0346C3F30332023A2E
:10428C00C0B20D2A1CD8DFE802F007071B1B141B59
:10429C001B1B0707181B1B18F02813D004D8E72882
:1042AC008CBF002001207047F42814BF002001208F
:1042BC007047E72806D9F128F7E7C3F3C020704709
:1042CC00002070470120704707B5ADF80400019835
:1042DC0000F0AEFB03B05DF804EBFFF7CDBF82B08E
:1042EC0002AB03E9030002B0704782B002AB03E9F2
:1042FC00030002B07047000070B5094B094E1C78E2
:10430C00094D3378A34200D170BD05EBC40355F8B9
:10431C00340059680134FFF7E8FF04F00704F0E7B4
:10432C006D1800206C1800202C180020024B186807
:10433C005968FFF7DABF00BF24180020214BF7B5EE
:10434C009A7912F0F00F0AD19A7842B14FF6FF77B2
:10435C001D4A1E4E12781E4D3178914201D103B088
:10436C00F0BD18680090988840B3BDF80010B942B1
:10437C0024D005EBC20493F801C061788C451DD1A3
:10438C0093F800C015F832108C4517D1A178A9B953
:10439C00A188091A89B2882910D80122997909486B
:1043AC0062F307119971A37962F30713A371FFF7F5
:1043BC0017FF03B0BDE8F040FFF79EBF013202F0DB
:1043CC000702C9E7241800206D1800206C18002083
:1043DC002C1800202DE9F0430546B64C0068A18846
:1043EC0085B0AB880090ADF80C102068A188ADF8B2
:1043FC000430EC462A786B78AF78B5F804900290CC
:10440C00002900F0EA804FF6FF70BDF808E0864501
:10441C0000F0E380A678002E00F0DF80A9EB01010C
:10442C00A07989B2882900F0F00800F2AD80B8F1CB
:10443C00000F6ED18DF800208DF80130BDF8001002
:10444C00B846714510D17FB9012363F30710A071F1
:10445C00FFF76CFF2046FFF7C3FEA379AB71002674
:10446C00304605B0BDE8F0838DF800208DF80130A2
:10447C008DF808208DF80930B9F1000F23D04FF6D4
:10448C00FF71BDF8080088421DD0F7B98A488B49E6
:10449C00077809788A48B9421CD1009800F0C8FA0C
:1044AC00C0F30332012AC3B225D90E3202F00F0237
:1044BC00012A29D810F4706F22D0AA7912F0F00FCB
:1044CC001ED14646CCE7002FC9D0A37943F0010397
:1044DC00A371C4E700EBC10494F801C09C4506D15C
:1044EC0010F831C0944502D1A478002CB7D1013119
:1044FC0001F00701CFE710F4706F01D0002BE0D072
:10450C002033DBB2072BDCD92846FFF769FEB04617
:10451C00D7E78DF800208DF80130BDF800107145FB
:10452C000BD157B9A8712846FFF75AFE2B682360A8
:10453C006B686360FFF7FAFE92E78DF800208DF848
:10454C0001300098FFF7C0FED0B1CFB1A3791F2B7B
:10455C000CD9228802A8ADF808200022ADF80C90E6
:10456C008DF80A208DF80E30FFF73AFE2B68236089
:10457C006B686360FFF7E2FEFFF7D8FE01266FE77A
:10458C002846FFF72DFEF9E7B8F1000F13D18DF88F
:10459C0000208DF801308DF802709CE80300FFF7C5
:1045AC009EFE2046FFF71CFEC4F80080C4F8048071
:1045BC00FFF7BCFE85E78DF800208DF801302188CF
:1045CC00BDF800C08C45B8D1002FB6D1A8712846D3
:1045DC00FFF706FE2760676042E720680290A0881C
:1045EC00ADF80C0000294CD04FF6FF70BDF80860F8
:1045FC00864246D0A678002E43D1A9EB01091FFABA
:10460C0089F9B9F1880F2FD83E46002FB8D08DF814
:10461C0000208DF801302188BDF800308B4216D176
:10462C00A379DA070ED413F0F0020BD0F02AAB7199
:10463C003FF479AFDBB2C3F30312013262F3071319
:10464C00AB7170E72B6823606B68636008E70098B8
:10465C00FFF73AFE002889D1A379284643F00103DD
:10466C00A371FFF7BDFDFBE68DF800208DF801303E
:10467C008DF802709CE80300FFF731FE266066603F
:10468C0058E7002F3FF47CAF8DF800208DF80130F7
:10469C000098FFF719FE064600283FF471AF2B680F
:1046AC00044823606B686360FFF706FBFFF746FE68
:1046BC0040E700BF241800206C1800206D18002063
:1046CC002C18002089207047F0B587B06C4684E820
:1046DC0003002046FFF77EFE2B4F0546BDF8042055
:1046EC002A4E78B194E803000490ADF814103AB156
:1046FC004FF6FF73BDF810209A4201D0FFF7F5FD7D
:10470C00234C3AE004AB94E8030083E803000290E6
:10471C00002AF5D04FF6FF72BDF808003C789042A5
:10472C003178EDD0621C02F007028A420BD003CB29
:10473C00174D3A7005EBC40C45F83400CCF8041056
:10474C00FFF7DAFDDCE7FFF790FD124B3D7035709B
:10475C001D605D60D4E704EBC000FFF73BFE80B149
:10476C00337804EBC30254F833005168FFF7BDFDF6
:10477C003378013303F00703337030783B7883428E
:10478C00E9D107B0F0BD00BF6C1800206D180020F7
:10479C002C18002024180020F8B5034660B1002521
:1047AC0001261C4614F8010B74283CD00BD80228A7
:1047BC002AD002D8012812D0F8BD031F6F2BFBD8CA
:1047CC00FFF77EFA1AE0752837D000F17C03DBB2D4
:1047DC006F2BF1D800F07F00FFF7D4FA0EE09C1C91
:1047EC005B7803F12002D2B2072A0BD803F007033F
:1047FC009840C0B200F0AEF900F0E6F92F46FFB9D0
:10480C002346CEE71846DBE758789C1C00F12003C2
:10481C00DBB2072BE0D800F0070006FA00F0C0B2BC
:10482C0000F0A0F9E8E75F789C1C002FE6D064202C
:10483C00013F02F0A0F9FFB2F7E75D789C1CDDE7C1
:10484C006420013F02F097F9FFB2D8E7704708B532
:10485C00FFF7FCFF08BD000008B5FFF7F8FF034B9E
:10486C001860BDE80840FFF7F0BC00BF70180020CE
:10487C007047FFF7F1BF0000024B1B681843FFF7AE
:10488C00EBBF00BF70180020024B1B681840FFF7ED
:10489C00E3BF00BF70180020024B1B685840FFF7A5
:1048AC00DBBF00BF7018002008B5FDF715FF08BD71
:1048BC0008B5FFF7F9FF034B1860BDE80840FFF798
:1048CC00C4BC00BF741800200020FFF7F1BF00002B
:1048DC00054B1B681BB9B0FA80F04009704723FAEE
:1048EC0000F000F00100704774180020012303FA57
:1048FC0000F0FFF7DDBF00000123034A834010687E
:10490C001843FFF7D5BF00BF741800200123034ADA
:10491C008340106820EA0300FFF7CABF7418002018
:10492C000123034A834010685840FFF7C1BF00BF02
:10493C0074180020024B1B681843FFF7B9BF00BF67
:10494C0074180020024B1B681840FFF7B1BF00BF62
:10495C0074180020024B1B685840FFF7A9BF00BF1A
:10496C00741800207047000037B501220024C0F3F2
:10497C00072303EB430300EB830000F007039A408B
:10498C00C0F3C400094B00EB8000D2B21844057888
:10499C0021FA04F343F300036B40134001346B40E2
:1049AC00052C00F8013BF2D103B030BD7818002083
:1049BC000022C0F3072303EB430313B500EB830082
:1049CC000A4900F00704C0F3C40000EB8000014466
:1049DC00104611F8013BE34003F001039340013210
:1049EC001843052AC0B2F4D102B010BD78180020CB
:1049FC0073B51F240C4BADF804001E680B4B1B68E1
:104A0C001E4326FA04F3DB07E5B205D4013CF8D2C9
:104A1C000025284602B070BD28460199FDF7CEFF4F
:104A2C0080B20128F2D0F4E774180020701800202E
:104A3C0007B5ADF804000198FFF7DAFF019903B050
:104A4C005DF804EBFDF7BABF13B5104BADF80410CD
:104A5C001B782BB1019802B0BDE81040FFF7E8BFFE
:104A6C0070B10198FFF7C4FF044601460198FFF7A7
:104A7C007BFF2046019902B0BDE81040FDF79EBFB8
:104A8C000198FFF795FF0446F3E700BF22180020BA
:104A9C00024B0146186800F05BBA00BFE010002022
:104AAC00024B0146186800F06BBA00BFE010002002
:104ABC00014B186800F07CBAE0100020024B93F90F
:104ACC000000C0F3C7007047B7180020024B1878DD
:104ADC0000F00700704700BFB7180020034B187890
:104AEC0010F0070018BF0120704700BFB718002056
:104AFC00014B1878704700BFB9180020024B1A7888
:104B0C0010431870704700BFB9180020024A137880
:104B1C0023EA000313707047B91800200022014BE0
:104B2C001A707047B9180020024B1A78104318708D
:104B3C00704700BFBA180020024A137823EA00031A
:104B4C0013707047BA1800200022014B1A7070477E
:104B5C00BA180020024B1A7810431870704700BF27
:104B6C00B6180020024A137823EA0003137070472A
:104B7C00B61800200022014B1A707047B61800209E
:104B8C00014B1878704700BFB8180020704708B563
:104B9C00FFF7FCFF08BD000008B5044A11788142FC
:104BAC0002D01070FFF7F3FF08BD00BFB81800204B
:104BBC0008B5044B1A781AB100201870FFF7E7FFFC
:104BCC0008BD00BFB818002010B50D4B0D4A1B785E
:104BDC0012780D4C13430D4A2068127813430C4A7B
:104BEC000370127832B11343037000F00FF908B15F
:104BFC00FFF7DEFF2068BDE81040FEF71FBF00BFC7
:104C0C00B9180020BA180020E0100020B6180020B7
:104C1C00B8180020704708B5FFF7FCFF08BD00006E
:104C2C0010B5064C41EAC0012170FFF765FE94F9FE
:104C3C000000C0F3C700FFF7EEFF10BDB71800204F
:104C4C00002008B5024B1870FFF7E5FF08BD00BF48
:104C5C00B718002008B50A4A92F9003023EA000080
:104C6C0040B2107042070AD1DBB2834207D0C0F3C6
:104C7C00C700FFF74BFEBDE80840FFF7E1BF08BDDA
:104C8C00B7180020020C002A03460BBF034613463C
:104C9C00002010201A0A1CBF134608301A091EBF28
:104CAC0013460430C0B29A081EBF13460230C0B27D
:104CBC005B081CBF0130C0B27047030943EA001304
:104CCC00DBB298009B1003F0330300F0CC001843C8
:104CDC004300401003F0AA0300F05500184370473E
:104CEC00024608B5C0B2FFF7E8FF0146100AFFF70D
:104CFC00E4FF40EA012080B208BD08B50020FEF7B1
:104D0C00B2FA4FF6EC63C31A5842584108BD022060
:104D1C00FEF79EBA0320FEF79BBA10B50420FEF7EF
:104D2C0097FA04462120FEF793FA44EA002080B259
:104D3C0010BD10B50446C1B20420FEF791FA210A49
:104D4C002120BDE81040FEF78BBA01460F20FEF77C
:104D5C00ACBA01461320FEF7A8BA0020FFF7F9BF42
:104D6C0008B50020FFF7F1FFFFF7F7FF08BD0000C3
:104D7C0010B50024FEF71AFA4FF6EC610020FEF78E
:104D8C0092FA00210220FEF76BFA00210320FEF7B5
:104D9C0067FA1A4B214604201C60FEF761FA214683
:104DAC002120FEF75DFA21460520FEF759FA21462F
:104DBC000620FEF755FAFF210720FEF751FA21468F
:104DCC000820FEF772FA21460D20FEF749FA21461B
:104DDC001820FEF76AFA21461720FEF741FA214601
:104DEC001C20FEF762FA21462020FEF739FA2146F4
:104DFC001820FEF75AFAFFF7B3FF10BD7018002009
:104E0C00FFF7B6BF01460E20FEF72ABA0C4B821CE8
:104E1C001B7863B10B4B93F90030002BACBF06230E
:104E2C001E230020013BDBB2FF2B02D1704706236F
:104E3C00F7E712F8011B0029F4D00130C0B2F1E7FA
:104E4C008C130020C0180020F9B1124B1B78A3B1B1
:104E5C00114B93F90030002B0FDAEF294FEAD102F6
:104E6C0013D80123104401F0070103FA01F18378F0
:104E7C00194214BF012000207047831C083013F81E
:104E8C00012B8A4203D08342F9D1002070470120C4
:104E9C00704700BF8C130020C01800204FF0FF3269
:104EAC00002330B5841C14F8015B8D420ED0B2F196
:104EBC00FF3F02D1002D08BF1A460133DDB2062D8B
:104ECC005BB2F0D1531C01D01044817030BD002274
:104EDC0010B5831C083013F8014B8C4208BF03F843
:104EEC00012C8342F7D110BDEF294FEAD10209D82A
:104EFC0001F0070301211044827801FA03F31343F4
:104F0C0083707047034B1B78DB0702D5024800F017
:104F1C0029BC7047BB180020EF860008EF294FEA28
:104F2C00D10209D801F0070301211044994083787C
:104F3C0023EA010383707047034B1B78DB0702D510
:104F4C00024800F00FBC7047BB1800200D8700080A
:104F5C0010B4094C034624780A463CB1074C94F92A
:104F6C000040002C02DA10BCFFF7BEBF11461846F9
:104F7C0010BCFFF793BF00BF8C130020C01800209B
:104F8C0010B4094C034624780A463CB1074C94F9FA
:104F9C000040002C02DA10BCFFF7C0BF11461846C7
:104FAC0010BCFFF794BF00BF8C130020C01800206A
:104FBC00094A03461278023042B1084A92F900209D
:104FCC00002A03DA1E220021FDF7FEB90022C3F8E5
:104FDC0002208280704700BF8C130020C018002074
:104FEC00704708B5FFF7FCFF08BD08B50020FDF7BA
:104FFC00C2FCFFF7F6FFBDE8084040F2A46001F0E8
:10500C00BABD7047704710B5FFF7FBFF0024FDF7E2
:10501C00E5FEFFF7F7FFE0B2FDF762FE18B90134C9
:10502C00042CF8D110BD0120FCE7704708B5FFF740
:10503C00FCFF08BD08B5FFF771FDFFF785FDFFF715
:10504C0037FDFEF7F3FCFDF796FCFFF7EFFF08BD0D
:10505C00202383F31188044B9A6A002383F311886D
:10506C00024B1A60704700BFE81B0020BC180020E0
:10507C00FFF7EEBF38B5202383F31188084B0021CE
:10508C009C6A81F311884FF47A75064B06481B68AD
:10509C00064AE41AE4FB05010023FDF7E5F838BDE8
:1050AC00E81B0020BC1800209F860100A086010090
:1050BC0008B5FFF7DFFF80B208BD10B50446FFF757
:1050CC00D9FF001B80B210BD074B084A1A60BFF312
:1050DC004F8F0749074BCA6802F4E0621343CB6059
:1050EC00BFF34F8F00BFFDE7FC4F0020EFBEADDEDE
:1050FC0000ED00E00400FA050A4A08B552F8041C59
:10510C00094B99420DD1002342F8043C83F31488D7
:10511C004FF000431A6882F3088862B65B689847C0
:10512C00FEE708BD00500020EFBEADDE70472DE954
:10513C00F04F8BB0149C1646DDE918521F460190B7
:10514C0088469DF8543016980CB922F0100212F4CF
:10515C00806B00D014B312F0200F14BF4FF0410934
:10516C004FF06109A44600240DF1080AA9F10A09BF
:10517C00BCFBF0FE00FB1ECE5FFA8EF1BEF1090FF8
:10518C0094BF30314944C9B284450AF8011B04F17B
:10519C000104BCFBF0F101D3202C0ED112F0020A59
:1051AC001FD102F001012DB121B113B912F00C0F76
:1051BC0000D0013D4FF0300C08E08C46D8E7202C95
:1051CC0008D00DF1080E0EF804C00134DDF85CE0D7
:1051DC00A645F4D84FF0300C19B1A54201D91F2CBB
:1051EC0040D9D10620D5BBF1000F42D1002C40D0C4
:1051FC001799A14201D0AC423BD1611E38D0102886
:10520C0041D1023C910640D41F2C16D878200AA913
:10521C00214401F8200C01341F2C0ED830200AA98F
:10522C00214401F8200C01341F2C06D89BB32D20EF
:10523C000AAB191901F8200C013493074BD0B14675
:10524C00A1444846A9EB0402002C48D1BAF1000F46
:10525C0005D0A9EB0609A94506EB090048D30BB00C
:10526C00BDE8F08F0DF1080E0EF804C00134B3E761
:10527C000C461028C6D00228CED11F2CDDD80AA986
:10528C0062202144C5E70C46F5E71F2CD5D80AA9A6
:10529C0058202144BDE7500703D50AAB2B20191920
:1052AC00C8E71107C9D50AAB20201919C2E73B463C
:1052BC0041462020DDF804C0E04709F101094D45C5
:1052CC000BEB0902F3D8A5EB0409A54238BF4FF04C
:1052DC000009B144B4E7A146A6EB040BEFE7013C8F
:1052EC0002A83B464146005DDDF804C0E047A8E754
:1052FC0002463B4641462020019CA04709F101098A
:10530C00A9E708B100F0B2BF704700002DE9F04FDB
:10531C00B1F100098DB00693AF4B18BF0346904610
:10532C000025169E0793069B187878B9454538BF1B
:10533C002A46434649464FF00000079C28BF08F117
:10534C00FF32A04728460DB0BDE8F08F069B2528FC
:10535C0003F10103069307D02A466C1C4346079DB4
:10536C004946A8472546DEE7002206E02D2B14D03F
:10537C00302B0CD142F001020690069810F8013B3C
:10538C002B2B0DD0F2D8202B0DD0232B0ED0A3F12C
:10539C003004092C28D8002710E042F00202EBE779
:1053AC0042F00402E8E742F00802E5E742F010029E
:1053BC00E2E70A2101FB07370690303F069810F808
:1053CC00013BA3F13004092CF3D9069B1B782E2B3F
:1053DC004BD1069B42F48062581C5B78A3F13004DD
:1053EC00092C39D8002411E02A2B08D156F8047B5B
:1053FC000690002FBCBF42F002027F42E5E7002777
:10540C00E3E70A21604601FB0434303C84461CF877
:10541C00013BA3F1300EBEF1090FF2D9034613F88C
:10542C0001CBBCF16C0F29D022D8BCF1680F2ED067
:10543C00BCF16A0F36D0034613F8010B782806939B
:10544C008AD8612831D8252886D0582884D142F0B2
:10545C0020024FF0100C6FE02A2B07D156F8044BAA
:10546C00069824EAE4740230D8E706980024D5E7BD
:10547C00BCF17A0FDFD142F48072DDE790F801C005
:10548C00BCF16C0FF7D142F44072831CD4E790F856
:10549C0001C0BCF1680F02D042F08002CCE742F0B0
:1054AC00C002F2E742F40072C6E7A0F16203162BC9
:1054BC003FF652AF01A151F823F000BF255500086B
:1054CC00E955000825550008655300086553000888
:1054DC0065530008655300082555000865530008FE
:1054EC0065530008655300086553000865530008B0
:1054FC002555000839570008655300086553000806
:10550C0069560008655300082555000865530008C6
:10551C00655300082555000878289AD06F2800F0AC
:10552C001A81622800F01A8169284FF00A0C22F0C7
:10553C00100203D0642801D022F00C02510548BFA0
:10554C0022F00102692802F4007301D0642825D1ED
:10555C00002B7FF4E8AED30506F1040A14D53368AA
:10556C00CDE902C4CDE90472002B4FEAD37201924B
:10557C00B8BF5B422A460093494643460798FFF75B
:10558C00D6FD56460546CEE612F0400F336801D0E4
:10559C00DBB2E5E7160648BF1BB2E1E7002B7FF450
:1055AC00C2AED00506F1040A06D5CDE90472CDE9E8
:1055BC0002C401933368DDE712F0400F336807D063
:1055CC00DBB2CDE904720022CDE902C40192D1E72D
:1055DC00110648BF9BB2F4E73951000812F00204DF
:1055EC0027D04FF0010A56F8040B2A4605F1010B9F
:1055FC0043464946079DC0B2A8476CB354465A4629
:10560C0022E0434649462020DDF81CC0E0470AEB67
:10561C0005020AF1010A5745F3D8002F07F1FF33B1
:10562C0008BF002307F1010A1D4408BF4FF0020A0E
:10563C00D9E7A246EBE7551C434649462020DDF846
:10564C001CC0E0472A460134BC42F4D3A7EB0A0342
:10565C00574538BF00239B445D4664E6334653F8F8
:10566C0004AB002C089314BF23464FF0FF33D346F2
:10567C0053449BF8000008B15B4511D112F48063D0
:10568C00ABEB0A0B099302D0A34528BFA34612F03B
:10569C0002030A931CD1ABEB05032A460B930AE0D9
:1056AC000BF1010BE5E7561C434649462020DDF87B
:1056BC001CC0E04732460B9B1344BB42F3D3A7EB11
:1056CC000B035F4538BF00230BF1010B1D449B44BA
:1056DC005646A5EB0A0A05E01C462A4643464946AF
:1056EC00079DA8470AEB060516F8010B28B1099B84
:1056FC00002BF2D0631E002CEED10A9BA3B12A46DC
:10570C00ABEB050407E0561C434649462020DDF868
:10571C001CC0E0473246A318BB42F4D3A7EB0B03E3
:10572C005F4538BF00231D44089EFCE5082342F06A
:10573C002102CDE90343059200231022CDE9013269
:10574C0056F8043B2A460093494643460798FFF710
:10575C00EEFC0546E7E54FF0080CEDE64FF0020CC9
:10576C00EAE600BF0FB41FB506AA52F8043B02A923
:10577C000392009204484FF0FF32FFF7C7FD05B0CB
:10578C005DF804EB04B070470F53000808B5FFF741
:10579C00B4FA08B9FFF734FBFFF7B9FA074B1870E6
:1057AC00FFF7BBFA064B1880FFF7B4FAFFF761F866
:1057BC00044B1868BDE80840FFF776B8BB1800200A
:1057CC00C01800207418002010B501460446054886
:1057DC00FFF7C8FF0120A040FFF74BF8BDE81040D1
:1057EC00FEF743BD2B870008431F10B53E2B00F27C
:1057FC002A82DFE813F0250116012B014A0028024A
:10580C002802140128022802540128026301A30172
:10581C002802280228022802830128022802720189
:10582C002802400128023F002602260226022602F8
:10583C0026022602260226022602B3012802250190
:10584C000E01280228022802280228022802280217
:10585C00280228022802B301280228021401280277
:10586C002302230223022302230223022302230204
:10587C002302B301BB48FFF775FF00F042FAFEF7B5
:10588C00D5F8FDF778F8012010BDB748FFF76AFF8F
:10589C00B648FFF767FFFFF73DFA0146B448FFF73C
:1058AC0061FFB448FFF75EFFFFF731FA0446B248D8
:1058BC00FFF758FF2146B148FFF754FFAD48FFF7FB
:1058CC0051FFAF48FFF74EFF04F00101A848FFF766
:1058DC0049FFA848FFF746FFAA48FFF743FFC4F368
:1058EC004001A348FFF73EFFA248FFF73BFFA64845
:1058FC00FFF738FFC4F380019D48FFF733FF9D4845
:10590C00FFF730FFA148FFF72DFFC4F3C001984803
:10591C00FFF728FF9748FFF725FFFFF7FEF904462E
:10592C009B48FFF71FFF21469448FFF71BFF914848
:10593C00FFF718FF9748FFF715FF04F001018C489B
:10594C00FFF710FF8B48FFF70DFF9348FFF70AFF97
:10595C00C4F340018648FFF705FF8648FFF702FFB6
:10596C008E48FFF7FFFEC4F300218148FFF7FAFED3
:10597C008048FFF7F7FE8A48FFF7F4FEC4F3402196
:10598C007B48FFF7EFFE7B48FFF7ECFE8548FFF7FF
:10599C00E9FEC4F380017648FFF7E4FE7548FFF793
:1059AC00E1FE8148FFF7DEFEC4F3C0017048FFF74B
:1059BC00D9FE7048FFF7D6FE7C48FFF7D3FEC4F340
:1059CC0000116B48FFF7CEFE6A48FFF7CBFE784814
:1059DC00FFF7C8FEC4F340116548FFF7C3FE6548E6
:1059EC00FFF7C0FE7348FFF7BDFEC4F3801160489B
:1059FC00FFF7B8FE5F48FFF7B5FE6F48FFF7B2FE42
:105A0C005B48C4F3C011FFF7ADFE5A48FFF7AAFE7E
:105A1C0039E76A48FFF7A6FEFFF7F2F933E7684863
:105A2C00F4E7684A6848137823F00F031370FFF704
:105A3C0099FE6648FFF796FE0120654B187023E728
:105A4C006448FFF78FFEFCF724FF1CE75D4C2378BE
:105A5C00C3F3000282F0010262F300032370DB0740
:105A6C0001D55D48D2E75D48FFF77CFE237823F033
:105A7C000E03237007E7534C2378C3F3400282F0E4
:105A8C00010262F341039807237006D55448FFF7CF
:105A9C0069FE237843F00103EBE75248B6E7494C23
:105AAC002378C3F3800282F0010262F38203590768
:105ABC00237001D54C48EAE74C48A7E7414C2378C2
:105ACC00C3F3C00282F0010262F3C3031A0723700E
:105ADC0001D54748DBE7474898E74748FFF742FEC0
:105AEC004648FFF73FFE4648FFF73CFE4548FFF7A8
:105AFC0039FE4548FFF736FE444887E74448FFF730
:105B0C0031FEFDF793FF01464248FFF72BFE424B57
:105B1C0042481978FFF726FE414B42481978FFF7A7
:105B2C0021FE414B41481978C909FFF71BFEFFF7CD
:105B3C00A1FA01463E48FFF715FEA4E6FEF795FBD9
:105B4C0039490B78C3F3C01282F0010262F3C71318
:105B5C000B701B064CBF3748374857E70020FFF740
:105B6C0033FE90E61B8A0008308700083B8700084C
:105B7C004B870008918B00084E8700083986000877
:105B8C00618700086B87000875870008818700080B
:105B9C008A8700089E870008B7870008CE87000810
:105BAC00E0870008F28700080488000816880008BF
:105BBC0020880008328800084E88000856880008A3
:105BCC0067880008BB1800202B8A0008468A00084A
:105BDC00C21800204A8A0008668A0008728A0008E7
:105BEC007F8A00088C8A00089A8A0008A98A000813
:105BFC00B98A0008C58A0008D28A0008E18A000820
:105C0C00268B0008598B0008938B0008C28B000868
:105C1C00CF8B0008DD8B00088C130020F78B00085D
:105C2C00A01A00200E8C0008C0180020218C00083F
:105C3C00398C0008508C00085A8C00083938C0B2D6
:105C4C008DE71D38FBE70248FFF78CFD00201BE6B3
:105C5C00658C0008002070470020704770B5214EFD
:105C6C000546347824B1012C13D0002434700CE098
:105C7C00FEF73EFF222808D12846FFF7EBFF30B98C
:105C8C002846FFF7B1FD00F00104204670BD01204D
:105C9C00F9E7FEF72DFF2228284609D1FFF7DAFF96
:105CAC0018B92846FFF7A0FD044604F00104ECE700
:105CBC00FFF7D2FF0028E8D1292DD6D008D80B2D1C
:105CCC0008D0142DD1D00848FFF74CFD0024DCE798
:105CDC00382DF8D10548FFF745FD0548FFF742FD83
:105CEC000124D2E7C2180020658C00082B8A00081A
:105CFC00468A000870470220FCF73DBE0020FCF7E6
:105D0C003ABE704770470000202310B583F311880A
:105D1C00064C04F1D40000F077FC04F50A7000F096
:105D2C0073FC002383F3118810BD00BFE410002026
:105D3C0038B5094C0D4610460021224640EA052094
:105D4C0042F8041F194600F025FB2060606800280B
:105D5C0018BF204638BD00BF841A002038B5044651
:105D6C0005295DD8DFE801F05F5C1D5F5D03202530
:105D7C0085F31188344800F005FC002484F3118865
:105D8C0085F31188314800F0FDFB84F31188FFF78F
:105D9C0051F9FFF7B3FFFDF749FEBDE83840FCF7BA
:105DAC00EABD202383F31188294D0121294A01F0F2
:105DBC00D4F902212046284A01F0CFF9204695F863
:105DCC00B41005F1440201F0C8F995F8B51020465D
:105DDC0005F1680201F0C1F995F8B61021B1204621
:105DEC0005F18C0201F0B9F9174800F0D6FB2046FA
:105DFC001A4A95F8081201F0B0F995F809122046E4
:105E0C00174A01F0AAF995F80A1219B12046154A59
:105E1C0001F0A3F90D4800F0C0FB002383F31188B7
:105E2C0038BDFFF768FF202585F31188064800F080
:105E3C0091FB002484F3118885F31188034800F04A
:105E4C0089FB84F31188EBE7B81100200C130020B8
:105E5C00E4100020688C00088C8C00087C12002058
:105E6C00A0120020C412002090F87A10074A0229D0
:105E7C00137807D103F0FB03012B05D15278044BA7
:105E8C001A707047024A1370704700BFDA1A00206C
:105E9C00B81A002070B5044606480D46C3680BB10D
:105EAC0000F036FD2B462146BDE87040024A014801
:105EBC0000F014BDA41A0020C95E000838B50446D1
:105ECC00202383F311880378042B03D0002383F35E
:105EDC00118838BD124B1B78DB09F7D1114D2B788B
:105EEC00002BF3D0104B1B78002BEFD003899B07B2
:105EFC0004D4082301210D4A01F081F928780C4BB8
:105F0C004FF47A72A0FB03030021002300F2E73068
:105F1C00FCF7AAF921468000FFF7BCFFD6E700BFCB
:105F2C00C0180020A01A00208C130020B91A0020E1
:105F3C00A086010038B590F87430044603F07F0257
:105F4C00212A6ED113F0800F90F8750021D0022811
:105F5C0019D003280ED0012863D194F878302BB9CE
:105F6C00434AA2662022E266236738BD0023C4E9B7
:105F7C001A33F9E7B4F87830002B52D101203D4A9E
:105F8C00E066A266F0E701203B4BE066A3660023C7
:105F9C00EAE70A283CD00B280DD0092841D194F807
:105FAC007830012B3DD8354BA3660223E366344B86
:105FBC0001202367D9E7B4F878302BBB94F87650DE
:105FCC002C4B002D14BF0121002119702D4B1A7878
:105FDC0061F3C7121A7017D1274B1A78A2B120227D
:105FEC0082F311881878284B4FF47A72A0FB0303C4
:105FFC000021002300F2E730FCF736F9214680003F
:10600C00FFF748FF85F311880023C4E91A33CFE763
:10601C001C4994F877200978174BCD091A70F3D1E5
:10602C00DCE740F28163B4F874209A4208D0174B35
:10603C0093F8B620B2B993F80A329BB9002094E7D2
:10604C00636820465D6894F87620B4F8783094F84C
:10605C007710A8470028F1D04368A3660368E3666D
:10606C000023A5E72046BDE8384000F0ADBA00BFDC
:10607C00B91A00208C130020A01A0020DA1A002074
:10608C00755E0008C0180020A0860100E4100020F6
:10609C0070470000F8B5254C054604F10803A365CC
:1060AC0004F11C0304F1D406C4F8803004F1B007E9
:1060BC0004F13003C4F8A0303046394600F008FA39
:1060CC003046394600F02EFA04F5AE73C4F8AC3104
:1060DC0004F5B873C4F8D43104F5C273C4F8F431C0
:1060EC0004F5017604F50A743146204600F0F0F907
:1060FC0031464FF4805620460D4C00F013FA062220
:10610C004FF48051204601F053FC0A48666100F0C0
:10611C0032FD2846084900F0E3FF022231462046B2
:10612C0001F046FC0022054BDA60F8BDE4100020BB
:10613C0000080140F0490200B08C0008A41A0020AD
:10614C0070B505464FF480560A4C00F0DCFF062271
:10615C0020464FF4805101F02BFC2846064966611D
:10616C0000F0BEFF31462046BDE87040022201F02F
:10617C001FBC00BF00080140B08C0008014B187810
:10618C00704700BFB81A002038B50446202383F3AB
:10619C0011881F4D2B78042B25D11E4A2B8992F97F
:1061AC000020002A23DA1C4A127802B35A0710D4B2
:1061BC00202322460221164801F021F82246174BD3
:1061CC0004F1200152F8040B8A4243F8040BF9D174
:1061DC0009E06B694FF0FF3158690C3000F0D8FCC6
:1061EC002B78042BE4D0002383F3118838BD9B0754
:1061FC0003D4082322460121DDE72B694FF0FF3140
:10620C0058690C3000F0C4FC2B78042BEBD1F0E770
:10621C00E01C0020C01800208C130020B91A0020AC
:10622C00704770477047000007B58DF807000648A7
:10623C000122D0F8D4300DF107015B68D4309847B7
:10624C0040B203B05DF804FBE410002010B5064822
:10625C0088B0D0F8D43020221C6A69460023D43090
:10626C00A04708B010BD00BFE4100020FFF7DCBF52
:10627C0007B58DF8070006480122D0F828320DF139
:10628C0007015B6800F50A70984703B05DF804FBE2
:10629C00E4100020704700002DE9FF410D4E06F57B
:1062AC000A78D6F8283210221C6A69460023404628
:1062BC00A0476F460025C4B2AC4204DC002CF0D1E0
:1062CC0004B0BDE8F08117F8010BFFF7E3FF0135CF
:1062DC00F2E700BFE410002070477047704708B524
:1062EC00FFF7FAFF01F00DFFFFF7F7FF08BD08B548
:1062FC0001F00EFFFFF7F2FF08BD000038B500F00B
:10630C00E5FC00F07BFAFCF74BFFFDF703FC1C48A7
:10631C00FFF7C0FE41F2883000F02DFC1948FFF762
:10632C0021FAFDF705FC1848FDF77AFBFFF7E2FCB4
:10633C001648FFF717FA124C154D2378052B07D189
:10634C002846FFF70FFA2378052B0CD0FEF73CFC00
:10635C00FDF72AFCFFF77AFFFFF79EFFFDF7E6FB40
:10636C00FDF7E5FBE9E7FEF740FEFEF74CFE0028E3
:10637C00E9D0204600F056FF2046FFF7E1FEE2E7A9
:10638C00E01C0020C08C000890130020D18C000869
:10639C00E28C000810B5040A032C0FD007D8012C8E
:1063AC0023D0022C07D19820114B136010BD212C47
:1063BC000DD0222C12D000200346F6E7C0B20228E2
:1063CC00F9D80C4B0C4953F82030405CEDE702290E
:1063DC00F1D80A4B092053F82130E6E70229EAD814
:1063EC00074B084853F82130EFE71220064BDCE747
:1063FC00138D0008E88C0008F48C0008F88C000859
:10640C00048D0008108D0008CD8D000813B5446B69
:10641C00E36F1A681178042915D1217A022912D157
:10642C001979012312898B4013420CD101A904F173
:10643C00440000F052FD024628B1E06F019B017947
:10644C00006800F0DCFE02B010BD0C3000F0D6BCD1
:10645C004FF0FF330C3000F0D1BC443000F0A5BD40
:10646C004FF0FF33443000F0A0BD0C3000F0A9BC5D
:10647C004FF0FF310C3000F0A4BC443000F075BD7F
:10648C004FF0FF32443000F070BD10B5C36F0446BE
:10649C001A681178042916D1017A022913D11979B5
:1064AC00012352898B4013420DD10C3000F044FC77
:1064BC00024640B1E06FA36A4179043B0068BDE835
:1064CC00104000F08ABE10BD406BFFF7DEBF00002D
:1064DC007FB5034601260D4604460F4A43F8042BAC
:1064EC0043600E4B067202900193CB680C30009304
:1064FC004B690A6A314600F0FDFB094B31460193AA
:10650C00AB68EA69009302942B6904F1440000F033
:10651C00C1FC04B070BD00BFA08E0008D56400089B
:10652C001964000820220B6882F311880A7903EBA6
:10653C00820290624A79113243F822008A7912B1B0
:10654C0003EB820398620223C1670372002383F377
:10655C001188704738B5044601250221043000F03B
:10656C0071FB04F10C006FF00101257500F043FB89
:10657C0084F84C5004F144006FF00101BDE8384040
:10658C0000F039BB10B501210446043000F05AFB71
:10659C000023237584F84C3010BD38B50446002513
:1065AC000C3000F0BEFB04F14400257500F089FCB2
:1065BC00201D84F84C50012100F044FB2046BDE81E
:1065CC003840FFF762BF000090F87420034602F0D9
:1065DC006002202A14D190F875200020212A02D8BC
:1065EC001F2A03D87047222A07D07047054A9A669B
:1065FC000722DA66186701207047C3E91A00F9E729
:10660C0000207047A413002073B5C36F04461A68AA
:10661C001178042927D1017A022924D1197901236F
:10662C0015898B401D401ED100F14406304600F008
:10663C0004FDC0B1304601A900F04FFCE36F0646E3
:10664C001A7E4AB101981A692946121A3044FBF78E
:10665C00BBFEE36F1B690193E06F32460179019B2E
:10666C00006800F0CCFD02B070BD00EB81032DE999
:10667C00F3419E6A04460D46FEB1202383F3118834
:10668C000821301D04EB850700F0DCFAFB6806F1ED
:10669C0044085B691B6813B1404600F02BFC404674
:1066AC0001A900F01AFC024650B1019B2946204674
:1066BC0000F0A5FD002383F3118802B0BDE8F08142
:1066CC00FB685A691268002AF4D01B8A013B1342FA
:1066DC00F0D1F36F1B7E002BECD104F17402E5E7D3
:1066EC00113110B550F82140C4B1202383F3118827
:1066FC000421601800F0A6FAE26F04F10C00136894
:10670C00527903EB8203DB689B69596800F01EFB2E
:10671C002046FFF7BAFE002383F3118810BD7047A3
:10672C00024B034A1A60034A5A607047F01A002061
:10673C00A81D00200050002070B50A4C431E25688F
:10674C004E42A81801380B4408446268304033406C
:10675C0003449A4203D39D4201D8236070BD0020AC
:10676C00FCE700BFF01A002008B5202383F3118842
:10677C00FFF7E2FF002383F3118808BD0448054BA3
:10678C0003600023C0E901330C3000F042BA00BFB3
:10679C00F81A00207567000870477047FEE7000084
:1067AC0070B50825134CD4E9010201462368043B5B
:1067BC008A4219D8D31C1B1AC11E23F003038A4228
:1067CC0038BF00231844E368C11EDA1C121A22F0E9
:1067DC000302994288BF00220021FBF7F5FD013D21
:1067EC0004F11004DFD170BD53F8046F41F8046B51
:1067FC00DEE700BFC88E0008FEE7000010B51A4C9B
:10680C0000F098F800F05CF8FFF78AFFFFF7B6FF8E
:10681C0080222046154900F04DF901230377144BD3
:10682C00144AD96844F8180C21F4E0610904090CE5
:10683C000A43DA60D3F8FC200F4942F08072C3F8A7
:10684C00FC200A6842F001020A601022DA7720224A
:10685C0083F82220002383F3118862B6BDE8104030
:10686C00064800F057B900BF181C0020688F0008BC
:10687C0000ED00E00003FA05001000E0508F000866
:10688C00F8B50E4C2546A36A0133A36255F81C3F9C
:10689C00AB4206D020269A68013A9A60E3699A685E
:1068AC0002B1F8BD1968DF68DA604D60E16182F30E
:1068BC0011881869B84786F31188EFE7E81B0020A8
:1068CC00054B03F11C02C3E907224FF0FF325A6259
:1068DC0000229A62704700BFE81B002010B50B4CD9
:1068EC00C0E90323E3699A688A420CD35A680360AF
:1068FC0042601060586081609A68511A99604FF03C
:10690C00FF33636210BD1B68891AECE7E81B00209B
:10691C00036881689A680A449A6042681360036845
:10692C005A6000234FF0FF32C360014B5A6270472C
:10693C00E81B00200022034BC3E90033C3E90433F6
:10694C009A607047E81B0020002382680377054B90
:10695C001B6899689142FBD25A68036042601060D0
:10696C0058607047E81B002008B5202383F311887A
:10697C00027F0023052A06D8DFE802F00B05050389
:10698C00120E026A13604FF0FF330362FFF7DCFF55
:10699C00002383F3118808BD026A93680133936066
:1069AC00D0E9003213605A60EDE7000000238268E2
:1069BC000377054B1B6899689142FBD85A680360B2
:1069CC004260106058607047E81B0020054B9969C5
:1069DC0008771868026853601A609861012303777E
:1069EC00FBF72EBCE81B002030B54B1C04460B4DAE
:1069FC0087B010D0AB690A4A01A8FFF76FFF204699
:106A0C00FFF7E4FF049B13B101A8FFF781FFAB690B
:106A1C00186A07B030BDFFF7D9FFF8E7E81B002074
:106A2C007569000838B50C4D0162AB6981689A68CC
:106A3C000446914203D8BDE83840FFF785BF18469D
:106A4C00FFF7B4FF01230146AC6120462377BDE874
:106A5C003840FBF7F5BB00BFE81B0020044B1A685D
:106A6C009B6990689B68984294BF002001207047F6
:106A7C00E81B002010B5084C2368A0691A68546004
:106A8C00226001221A77A361FFF790FF0146A069EB
:106A9C00BDE81040FBF7D4BBE81B002008B5FFF79E
:106AAC00DDFF18B1BDE80840FFF7E4BF08BDFFF7F4
:106ABC00E1BF0000826082630022C0E90C22022246
:106ACC00828301228277074A8161516902614161A7
:106ADC000861506100F12402426200F12802C0E911
:106AEC000A227047E81B002083680168A3F1640246
:106AFC0043F8342C026943F8642C426943F8602C47
:106B0C00034A43F8442CC268A3F14000FFF7D2BFFC
:106B1C005D22000810B5202383F31188FFF7E4FFF2
:106B2C0000210446FFF77EFF002383F311882046E3
:106B3C0010BD000038B50C4B9C69206204F1240593
:106B4C00606AA8420AD1A37F1BB9D4E9043213614D
:106B5C005A610F20BDE83840FFF738BF0368636205
:106B6C00FFF7F2FEECE700BFE81B0020202383F3C5
:106B7C001188FFF7DFBF08B50146202383F3118886
:106B8C000820FFF731FF002383F3118808BD0000B4
:106B9C00054B9B6921B1036018620320FFF724BFEA
:106BAC004FF0FF30704700BFE81B00200346006821
:106BBC0020B100221A600162FFF7C6BE70470000C8
:106BCC0049B1064B42689B6918605A601360436078
:106BDC000420FFF709BF4FF0FF307047E81B00207F
:106BEC0003460068834205D002681A605360016254
:106BFC00FFF7AABE704738B504460D46206884429C
:106C0C0000D138BD036823605C600562FFF79CFE11
:106C1C00F4E70023C0E9000083607047036B19435D
:106C2C00037F01630A2B03D1036A194205D1704714
:106C3C000B2B06D1036A8B4303D100230362FFF7AE
:106C4C0083BE704770B506460D460468B44200D149
:106C5C0070BDE3682B43E36015B123691D4203D07B
:106C6C00D4E90101FFF7DAFF2468EFE7EFF30983BA
:106C7C00203383F30988002383F3118870470000C5
:106C8C00202310B583F311880D4B5B6813F400635C
:106C9C0012D0EFF309844FF0807344F8043CA4F154
:106CAC00200383F30988FFF7D9FE18B1054B44F88C
:106CBC00083C10BD044BFAE783F31188F9E700BFD9
:106CCC0000ED00E06D2200087022000808B500F00D
:106CDC0057FD074800F036FE00F0CDF900F0D4F96E
:106CEC0000F0EFF9FFF703FBBDE8084000F0D6B960
:106CFC002C9000080172002130B5039C043304FB76
:106D0C000325C0E90653049BC0E900000363059BFF
:106D1C00C0E90422C0E90842C0E90A11C16043631A
:106D2C0030BD0022416AC0E90A22C0E90411C260E8
:106D3C006FF00101FFF75FBFD0E90432934201D13C
:106D4C00C2680AB9181D70470020704703691960A2
:106D5C00C26800210132C260C269134482690361B6
:106D6C00934224BF436A0361FFF73ABF38B5044628
:106D7C000D46E3683BB162690020131D1268A362E3
:106D8C001344E36207E0237A33B929462046FFF720
:106D9C0017FF0028EDDA38BD6FF00100FBE7C36880
:106DAC00C269013BC36043691344826943619342E6
:106DBC0024BF436A436100238362036B03B118470A
:106DCC00704770B52023044683F31188866A3EB958
:106DDC00FFF7CCFF054618B186F31188284670BD25
:106DEC00A36AE26A13F8015B9342A36202D32046C2
:106DFC00FFF7D5FF002383F31188EFE72DE9F84F58
:106E0C0004460E46174698464FF0200989F3118820
:106E1C000025AA46D4F828B0BBF1000F09D1414691
:106E2C002046FFF7A3FF20B18BF311882846BDE85D
:106E3C00F88FA7EB050BD4E90A12521A934528BF19
:106E4C009346BBF1400F1BD9334601F1400251F878
:106E5C00040B914243F8040BF9D1A36A403640333A
:106E6C00A3624035D4E90A239A4202D32046FFF7A5
:106E7C0096FF8AF31188BD42D8D289F31188C9E7ED
:106E8C0030465A46FBF72AFAA36A5E445B44A36277
:106E9C005D44E7E710B5029C0433017204FB032147
:106EAC00C0E906130023C0E90A33039BC0E90000C4
:106EBC000363049BC0E90422C0E90842C460436335
:106ECC0010BD026A6FF00101C260426AC0E904227F
:106EDC000022C0E90A22FFF78EBE0346D0E9042047
:106EEC00824201D1DB681BB950F8043B0B60704740
:106EFC0000207047C368C2690133C3604369002135
:106F0C00134482694361934224BF436A4361FFF790
:106F1C0067BE38B504460D46E3683BB123690020D3
:106F2C001A1DA262E2691344E36207E0237A33B9C3
:106F3C0029462046FFF744FE0028EDDA38BD6FF0F5
:106F4C000100FBE703691960C268013AC260C269BB
:106F5C00134482690361934224BF436A0361002393
:106F6C008362036B03B11847704770B520230D463D
:106F7C000446114683F31188866A2EB9FFF7C9FFC0
:106F8C0010B186F3118870BDA36A1D70A36AE26A02
:106F9C0001339342A36204D3E16920460439FFF71D
:106FAC00D1FF002080F31188EDE72DE9F84F04465E
:106FBC000D46904699464FF0200A8AF31188002618
:106FCC00B346A76A4FB949462046FFF7A2FF20B146
:106FDC0087F311883046BDE8F88FD4E90A073A1ACE
:106FEC00A8EB0607974228BF1746402F1BD905F17F
:106FFC00400355F8042B9D4240F8042BF9D1A36AA9
:10700C0040364033A362D4E90A239A4204D3E1699F
:10701C0020460439FFF796FF8BF311884645D9D2E9
:10702C008AF31188CDE729463A46FBF757F9A36A4C
:10703C003D443B44A3623E44E5E7D0E904218A4247
:10704C00034616D1C068A8B1986A98B10438801A62
:10705C0010D01060D96801200139D960D9690A446F
:10706C0099691A618A4224BF5A6A1A6100229A628B
:10707C0070470020704700F0FDBC01230370002313
:10708C004360C3600374704700F0C4BC01230370F9
:10709C000023C0E901330C30FFF7BBBD00F0DDBCB1
:1070AC0010B5044690F8763080F87E3000F088FEFB
:1070BC0063681B6813B10121204698470323237092
:1070CC0010BD00F05BBE012310B538220446002130
:1070DC0000F82C3BFBF778F90023C4E9013310BD11
:1070EC0010B52022044682F31188416000210C3037
:1070FC00FBF76AF9204600F0FFFE02232370002301
:10710C0083F3118810BD70B52023044683F31188D6
:10711C0000F03AFE254600260123666005F80C3B7C
:10712C002C3455F8043B7BB1586920B16FF0010148
:10713C000C30FFF73BFD55F8043C986920B16FF01B
:10714C0001010C30FFF732FDA54245F8046CE8D183
:10715C00FFF7A4FC86F3118870BD70B500EB8103BA
:10716C00054650690E461446DA6018B11422002107
:10717C00FBF72AF9A06918B114220021FBF724F9B6
:10718C0031462846BDE8704000F024BEF8B50446F0
:10719C000027836800F1100503F00113836000F1F0
:1071AC002C0655F8043B7BB1586920B16FF00101F6
:1071BC000C30FFF7FBFC55F8043C986920B16FF0DC
:1071CC0001010C30FFF7F2FCB54245F8047CE8D124
:1071DC002046BDE8F84000F0B5BEF0B4012500EB48
:1071EC008104E4684789A4698D403D43458123604F
:1071FC000023A2606360E360F0BC00F0EDBEF0B46D
:10720C00012500EB8104E468078964698D403D43E6
:10721C00058123600023A2606360E360F0BC00F092
:10722C00FDBE000010B50378052B0BD1064CC82011
:10723C00236C43F010032364FFF79DFC236C23F0B5
:10724C001003236410BD00BF005C00402DE9F04129
:10725C000223002604464FF020080370C6678660A0
:10726C0000F10C0500F12C0755F8043BABB188F389
:10727C00118855F8043C586920B16FF001010C30AD
:10728C00FFF794FC55F8043C986920B16FF00101AC
:10729C000C30FFF78BFC86F31188BD4245F8046C6B
:1072AC00E2D1204684F8646000F00AFE63681B6833
:1072BC0023B12046BDE8F04100211847BDE8F0811C
:1072CC00F8B50378044680F88030052303704368D2
:1072DC001B680BB1042198472026002704F10C05EC
:1072EC002C3455F8043BABB186F3118855F8043CAB
:1072FC00586920B16FF001010C30FFF757FC55F8BD
:10730C00043C986920B16FF001010C30FFF74EFC82
:10731C0087F31188A542E4D1F8BD90F8802043682A
:10732C0002701B680BB105211847704770B590F8B7
:10733C006430044613B1002380F86430204604F115
:10734C00740200F02FFE63689B68B3B994F8743034
:10735C0013F0600535D00021204600F093FE00218B
:10736C00204600F07DFE63681B6813B106212046A1
:10737C009847062384F8643070BD2046984700284F
:10738C00E4D0B4F87A30E26E9A4288BFE36694F99E
:10739C007430E56E002B4FF0200380F2EF80002D4F
:1073AC0000F0DE80092284F8642083F31188002128
:1073BC00D4E91A232046FFF722FF002383F3118818
:1073CC00DAE794F8752003F07F0343EA022340F2D6
:1073DC000232934200F0B18020D8B3F5807F47D0C1
:1073EC000CD8012B3ED0022B7FD0002BB3D104F153
:1073FC007C02A2660222E2662367C2E7B3F5817FB4
:10740C0000F08880B3F5407FA5D194F87630012B3D
:10741C00A1D1B4F87C3043F0020332E0B3F5006F35
:10742C0039D017D8B3F5A06F31D0A3F5C063012BB9
:10743C0091D8636820465E6894F87620B4F878306A
:10744C0094F87710B047002885D04368A36603688A
:10745C00E3661AE0B3F5106F22D040F60242934275
:10746C007FF479AF524BA3660223E3660023C3E794
:10747C0094F87630012B7FF46EAFB4F87C3023F0A7
:10748C000203C4E91A55A4F87C30256779E7C4E9EE
:10749C001A55484BB0E704F17F03A3660123D7E7E5
:1074AC002378042B10D1202383F311882046FFF777
:1074BC006DFE85F311880321636884F87F50217079
:1074CC001B680BB12046984794F876304BB184F882
:1074DC007F300423237063681B6813B1022120469C
:1074EC0098470023C4E91A3386E794F8783020468D
:1074FC001D0603F00F010AD500F046FD012804D04B
:10750C0002287FF428AF2C4BADE72C4BABE700F0F7
:10751C002DFDF3E794F87630002B7FF41CAF94F834
:10752C00783013F00F01DCD01A06204602D500F09B
:10753C00D1FDD6E700F0B8FDD3E794F87630002BF8
:10754C007FF409AF94F8783013F00F01C9D01B0603
:10755C00204602D500F096FDC3E700F081FDC0E7A0
:10756C00142284F8642083F311882B462A4629467A
:10757C002046FFF732FE85F31188FDE65DB115223A
:10758C0084F8642083F311880021D4E91A2320465F
:10759C00FFF723FE11E70B2284F8642083F3118894
:1075AC002B462A4629462046FFF729FEE3E700BF73
:1075BC00828F0008AD7000087E8F0008808F000855
:1075CC0038B590F864300446002B3ED0063BDAB256
:1075DC000F2A34D80F2B32D8DFE803F037313108BB
:1075EC00223231313131313131313737C56EB0F86A
:1075FC007A309D4214D2C3681B8AB5FBF3F203FBAD
:10760C0012556DB9202383F311882B462A4629463F
:10761C00FFF7F5FD85F311880A2384F864300EE03A
:10762C00142384F86430202383F31188002320462C
:10763C001A461946FFF7D1FD002383F3118838BD94
:10764C00036F03B198470023E7E70021204600F0C1
:10765C0019FD0021204600F003FD63681B6813B17F
:10766C000621204698470623D7E710B590F86430DA
:10767C000446142B29D017D8062B05D001D81BB1E2
:10768C0010BD093B022BFBD80021204600F0FAFC70
:10769C000021204600F0E4FC63681B6813B106214E
:1076AC0020469847062319E0152BE9D10B2380F8C7
:1076BC006430202383F3118800231A461946FFF700
:1076CC009EFD002383F31188DAE7C3689B695B682E
:1076DC00002BD5D1036F03B19847002384F8643095
:1076EC00CEE70122090100F1604303F56143C9B201
:1076FC0083F8001300F01F039A4043099B0003F129
:10770C00604303F56143C3F880211A6070470000A1
:10771C00012100F01F0342099940044B203243F829
:10772C0022101844002380F80033704700E100E079
:10773C00090100F16040C9B200F56D400176704757
:10774C00062108B50846FFF7CCFF06210720FFF7F6
:10775C00C8FF06210820FFF7C4FF06210920FFF708
:10776C00C0FF06210A20FFF7BCFF06211720FFF7F8
:10777C00B8FFBDE8084006212820FFF7B2BF000083
:10778C004FF0FF3108B5104B1A6919611A690022C4
:10779C001A611869D868D960D968DA60DA68DA6968
:1077AC0042F08052DA61DA69DA6942F00062DA6139
:1077BC00064ADB69136843F48073136000F042F8E7
:1077CC00BDE80840FFF7BCBF00100240007000404D
:1077DC00194B1A6842F001021A601A689007FCD51E
:1077EC001A6802F0F9021A6000225A605A6812F004
:1077FC000C0FFBD11A6842F480321A601A6891039C
:10780C00FCD55A6842F4E8125A601A6842F0807249
:10781C001A601A689201FCD51221084A5A60084A6B
:10782C0011605A6842F002025A605A6802F00C0267
:10783C00082AFAD1704700BF0010024000641D00F6
:10784C000020024000231946094A10B5C2E9003352
:10785C00084C04EB83004068016002EB43000433E6
:10786C001C2B8160F5D14FF0FF32034B5A6010BDD9
:10787C00541C0020848F00080000024010B40468DF
:10788C00437B21684268D940126801F00E010A421C
:10789C000ED0827B01FA03F36360064B013253F87E
:1078AC0032402CB103EBC2035868234610BC184776
:1078BC0010BC7047541C002008B50348FFF7DEFFCE
:1078CC00BDE80840FFF7DCB9848F000808B5034811
:1078DC00FFF7D4FFBDE80840FFF7D2B9948F00083A
:1078EC0008B50348FFF7CAFFBDE80840FFF7C8B961
:1078FC00A48F000808B50348FFF7C0FFBDE8084097
:10790C00FFF7BEB9B48F000808B50348FFF7B6FF00
:10791C00BDE80840FFF7B4B9C48F000808B50348A8
:10792C00FFF7ACFFBDE80840FFF7AAB9D48F0008F9
:10793C0008B50348FFF7A2FFBDE80840FFF7A0B960
:10794C00E48F0008184B9A6942F07D029A619B699A
:10795C000268164BDA6082685A6042681A60C26824
:10796C0003F58063DA6042695A6002691A608269C1
:10797C00C3F80C24026AC3F80424C269C3F80024B7
:10798C00426AC3F80C28C26AC3F80428826AC3F896
:10799C000028026BC3F80C2C826BC3F8042C426BCE
:1079AC00C3F8002C704700BF0010024000080140D3
:1079BC00032AF0B528D10161154B9F5C00230822E6
:1079CC001D461C461E4611F0800F4FEA04144FEA68
:1079DC0003134FEA06164FEA05150CBF44F00F04CB
:1079EC003B4311F4004F0CBF46F00F063D43013AE8
:1079FC004FEA4101E7D1426832402A4342600268B3
:107A0C00224013430360F0BD042A08BF4161D3E751
:107A1C00F48F000810B5084C2046FFF737FB002305
:107A2C00064A41F20A01C4E90723636241F21803D2
:107A3C00C4E90A1310BD00BF941C0020003800409C
:107A4C0008B5202383F31188FEF71AFF002383F374
:107A5C001188BDE80840FFF713B94FF0E02340F25E
:107A6C00CF225A6100229A61072208210B201A6149
:107A7C00FFF75EBE10B5044C2046FFF7FEFA042358
:107A8C002374024BA36110BDC41C0020002C0140C8
:107A9C00836970B51A69DD6804461540EAB2D243B1
:107AAC00AE071A6103D543681B6903B19847680791
:107ABC0004D563689B690BB120469847290704D508
:107ACC0063681B6A0BB120469847EA0604D56368C5
