:100000000C9455020C949C020C949C020C949C023F
:100010000C949C020C949C020C949C020C949C02E8
:100020000C949C020C949C020C9464290C9420293E
:100030000C945F2A0C949C020C949C020C949C02DD
:100040000C949C020C949C020C949C020C949C02B8
:100050000C949C020C943B2A0C949C020C949C02E1
:100060000C949C020C949C020C949C020C949C0298
:100070000C949C020C949C020C949C020C949C0288
:100080000C949C020C949C020C949C020C949C0278
:100090000C949C020C949C020C949C020C949C0268
:1000A0000C949C020C949C020C949C02536570204E
:1000B000313520323032310076312E313A20436CE6
:1000C00061794D0000000000000000000000000009
:1000D0000000000000000000000000000000000020
:1000E00000000000000000007E0F00D4FFFFFFC7EB
:1000F0000000007800000000000000002A2B28000B
:1001000000000000000000000000000000000029C6
:10011000000000002C1E3420212224342627252E06
:10012000362D3738271E1F2021222324252633333E
:10013000362E37381F0405060708090A0B0C0D0E6A
:100140000F101112131415161718191A1B1C1D2F36
:100150003130232D350405060708090A0B0C0D0E56
:100160000F101112131415161718191A1B1C1D2F16
:100170003130354C00D0D0D0D0D0D00101020408AD
:1001800010204142444848000000484850608182A5
:10019000848890A0C1C2C4D0D0D0D0D0D0C8000034
:1001A000000000000000000000000000000000004F
:1001B000000000000000165A175A195A00001A5A77
:1001C0001B5A185A00001C5A1D5A235A00001E5A66
:1001D0001F5A00000000205A215A00000000225A35
:1001E000295A000000000000000000000000115A21
:1001F000125A105A00000D5A0E5A0F5A00000B5A8C
:100200000C5A015A0000095A0A5A00000000075A05
:10021000085A00000000005A155A000000000000B3
:100220000000000000001C000B0025020000180068
:100230000D004C0000000C000E00105000001200D9
:100240000F00000000001300330000000000280031
:100250003402000000000000000000000000170051
:100260000A0028420000150009002C0000000800C8
:100270000700E20000001A00160000000000140051
:10028000040000000000E100E000000000000000A9
:1002900000000000000023001100250200002400DF
:1002A00010004C000000250036021050000026000F
:1002B00037020000000027003802000000002D0077
:1002C000E500000000000000000000000000220027
:1002D000050028000000210019002C00000020006B
:1002E0000600E20000001F001B00000000001E00CE
:1002F0001D0000000000E100E00000000000000020
:100300000000000005010906A1018501050719E0AB
:1003100029E71500250195087501810295017508E9
:1003200081010507190029FF150026FF00950675B4
:1003300008810005081901290595057501910295A7
:100340000175039101C005010902A101850209019E
:10035000A100050919012908150025019508750155
:1003600081020501093009311581257F9502750843
:10037000810609381581257F950175088106050CD0
:100380000A38021581257F950175088106C0C005D0
:10039000010980A101850319012AB700150126B7BB
:1003A00000950175108100C0050C0901A1018504AB
:1003B00019012AA002150126A002950175108100DD
:1003C000C005010906A1018505050719E029E71502
:1003D0000025019508750181020507190029EF150F
:1003E00000250195F075018102050819012905957F
:1003F0000575019102950175039101C009025F0025
:10040000030100A0FA090400000103010100092111
:100410001101000122F8000705810320000A080BE2
:1004200001020202010009040100010202010005AB
:10043000240010010424020205240601020705829B
:10044000030800FF09040200020A00000007050477
:10045000021000050705830210000512010002EFDB
:10046000020108EDFE37130100010200010E0347EF
:100470000065006F007200670069000000260367D6
:1004800000200048006500610076007900200049E6
:10049000006E0064007500730074007200690065EE
:1004A0000073000000040309040011241FBECFEFF5
:1004B000DAE0DEBFCDBF04B603FE27C08091E003C3
:1004C0009091E103A091E203B091E3038730904B58
:1004D000A740B04BD1F41092E0031092E1031092C8
:1004E000E2031092E30314BE84B7877F84BF0FB684
:1004F000F894A895809160008861809360001092C4
:1005000060000FBEE0E0F8E3099511E0A0E0B1E083
:10051000E2E0FDE502C005900D92A236B107D9F7E1
:1005200023E0A2E6B1E001C01D92A03EB207E1F7D0
:100530000E94862A0C94312E0C940000E8EDF0E025
:1005400080818E7F80831092E2001092DA001092F8
:10055000E100A0EEB0E08C9181608C9380818F7778
:10056000808319BCA7EDB0E08C918E7F8C93808145
:100570008F7E80831092AE0308952091E400309125
:10058000E50095E6A9012091EC00822F817020FF03
:1005900006C08091E80080FF06C080E008952091A9
:1005A000E80022FD1AC08091DC03882389F08530A1
:1005B00089F08091EB0085FD0FC02091E40030911F
:1005C000E50042175307F9F29150E1F684E00895EF
:1005D00082E0089583E0089581E008958091DC032E
:1005E000843061F58091210190912201A091230135
:1005F000B0912401892B8A2B8B2B01F180910E0164
:100600008F708093E9009091F3008091F200892B24
:1006100011F480E008959091E8008091E8008E77D1
:100620008093E80095FDF5CF0E94BD02811107C0BF
:100630009091E8009E779093E800089582E00895F5
:10064000EF92FF920F931F93CF937C018B010E9437
:10065000BD02C82F811117C08091E80085FD0BC035
:100660008091E8008E778093E8000E94BD02882385
:1006700099F3C82F08C0F70181917F018093F100A1
:100680000150110949F78C2FCF911F910F91FF90C5
:10069000EF9008958091D40387FF13C08091E80004
:1006A00082FF06C08091E8008B778093E80004C049
:1006B0008091DC038111F2CF08958091DC038823BF
:1006C000D9F38091E80080FFF8CF8091E8008E7721
:1006D000ECCF982F9093E900242F762F50E08917C4
:1006E00031F07091EC002091ED005091F00021FD6F
:1006F00007C09F5F973071F78093E90081E008950C
:100700003091EB003E7F3093EB003091ED003D7F68
:100710003093ED003091EB0031603093EB0070933B
:10072000EC002093ED005093F0002091EE0027FDA7
:10073000E0CF80E00895CF92DF92EF92FF920F9387
:100740001F93CF93DF93C8EDD0E088818F7E88839D
:10075000E7EDF0E080818160808384E082BF81E00A
:100760008093AE0388818E7F888302EE10E0F801CB
:1007700010821092DA0081EEC82ED12CF601108280
:1007800088818F77888388818068888388818F7D3E
:10079000888319BC1092DC031092D3031092D20309
:1007A0001092D10390EEE92EF12CF70180818B7F1E
:1007B000808388818160888342E060E080E00E94DD
:1007C0006903F60180818E7F8083F80180818160DA
:1007D0008083808188608083F70180818E7F808321
:1007E000888180618883DF91CF911F910F91FF9065
:1007F000EF90DF90CF900895FC018091DA03909103
:10080000DB0386179707A0F06115710529F4909115
:10081000E8009E779093E80090E06115710551F42F
:10082000911108C08091E80082FF34C080E00895F3
:10083000BC01F2CF8091DC038823C1F18530C1F186
:100840008091E80083FD30C08091E80082FDEACF0E
:100850008091E80080FFE1CF8091F3002091F200C9
:10086000382F6115710519F02830310558F091E0E5
:100870002830310509F090E02091E8002E77209390
:10088000E800CBCF81918093F100615071092F5F17
:100890003F4FE7CF8091DC03882341F0853041F062
:1008A0008091E80083FFBECF81E0089582E0089543
:1008B00083E008958091B00308959C014FB7F894A8
:1008C0008091A5039091A603A091A703B091A803DE
:1008D0004FBF821B930B08952FB7F8948091A50307
:1008E0009091A603A091A703B091A8032FBF0895EC
:1008F000DF92EF92FF920F931F93CF93DF93F82E27
:100900000E946C048C0184EAE82E94E8D92E10929F
:10091000BC00E092BC000E946C04EC018091BC0021
:1009200087FF0DC08091B900887F8830F9F08091F1
:10093000B900887F8031D1F0CFEFDFEF08C00E948F
:100940006C048C1B9D0BC29748F3CEEFDFEFC80100
:100950000E945D04883E9340D0F2CE01DF91CF919A
:100960001F910F91FF90EF90DF900895F092BB00E0
:10097000D092BC000E946C04EC018091BC0087FF07
:100980000AC08091B900887F883111F08034A1F6C7
:10099000D0E0C0E0E2CF0E946C048C1B9D0BC2979C
:1009A00060F3D3CFCF93DF938093BB0084E8809331
:1009B000BC000E946C04EC018091BC0087FF0FC05A
:1009C0002091B900287F81E090E0283211F490E076
:1009D00080E0919581959109DF91CF9108950E94D2
:1009E0006C048C1B9D0B883E934030F38EEF9FEF81
:1009F000F3CF2091A2033091A3032817390771F098
:100A00009093A3038093A203E091A003F091A1032C
:100A1000309721F00084F185E02D0994089520910C
:100A20009E0330919F032817390771F090939F031D
:100A300080939E03E091A003F091A103309721F0F1
:100A40000680F781E02D09940895E091A003F091CC
:100A5000A103309721F00190F081E02D099480E00E
:100A600008950E946C049C0190919A0380919B03CD
:100A7000982B21F0309397032093960390919C0339
:100A800080919D03982B21F030939503209394033C
:100A9000E091A003F091A103309749F082E08093A8
:100AA00098030480F581E02D88E993E00994089586
:100AB00040919A038D3E59F480919B0387FF0DC0AE
:100AC00010929B0341110BC01092920308C08E3EFE
:100AD00081F480919B0318169CF3442381F080914C
:100AE0009C0390919D03892B09F05AC010929103A9
:100AF00008958F3E49F447FFF0CF10929A038091FA
:100B00009B038111ECCFE0CF803F19F41416ACF3B6
:100B1000E4CF90919C03893F29F41916F4F61092C2
:100B20009C03DBCF8A3F19F497FFD7CFF8CF909182
:100B30009D038B3F29F497FFD0CF10929D03CDCF1B
:100B40008C3F19F41916CCF3C8CF9FE0980F98305A
:100B500090F4815F990B21E030E0B90102C0660F8B
:100B6000771F8A95E2F7CB018095909199038923AD
:100B700080939903B2CF8D3F31F4809193038E7FA0
:100B800080939303AACF8E3F21F4809193038D7FAE
:100B9000F7CF8F3F09F0A1CF809193038B7FF0CFE8
:100BA00008958091930380FD16C081FD16C082FDDB
:100BB00016C0809191038823A1F0883280F428E048
:100BC000829FC001112468E270E00E94C12D862F2F
:100BD000672B39F0089582E0089584E0089588E055
:100BE000089581E008958091930380FD16C081FDF2
:100BF00016C082FD18C080919203882391F08C3337
:100C000090F423E2829FC00111246CE370E00E9403
:100C1000C12D862F672B49F0089588E0089581E162
:100C2000089585E0089583E2089581E008958D3E5A
:100C300031F40E94F305819580939B0308958E3EC5
:100C400019F40E94F305F8CF8F3E31F40E94F305AA
:100C5000819580939A030895803F19F40E94F305CB
:100C6000F8CF893F29F40E94D10580939C03089511
:100C70008A3F21F40E94D1058195F7CF8B3F31F453
:100C80000E94D105819580939D0308958C3F19F4AE
:100C90000E94D105F8CF9FE0980F983070F4815FE3
:100CA000990B21E030E001C0220F8A95EAF780918C
:100CB0009903822B8093990308958D3F31F480919D
:100CC000930381608093930308958E3F21F4809174
:100CD00093038260F7CF8F3FB9F7809193038460CD
:100CE000F1CFCF93DF9300D000D00F92CDB7DEB716
:100CF0006B837C838D838C819D81892B21F0CA013C
:100D000089238F3F51F480E081700F900F900F90F6
:100D10000F900F90DF91CF9108958B81F5CF80E0F8
:100D200008959091A90392FF06C0282F28712830BA
:100D3000F9F4877F846093FF06C0282F287128313B
:100D4000F1F4877E84612091AA0320FF06C0382F2A
:100D500038713830D9F4877F816021FF06C0282F91
:100D600028712831D1F4877E816194FD877E0895B2
:100D7000282F24712430F9F68B7F8860DCCF282F50
:100D80002471243101F78B7E8861DDCF382F3171DA
:100D9000313019F78E7F8860E0CF282F2171213103
:100DA00021F78E7E8861E1CFCF93DF93EC0182380B
:100DB000910581F1B0F58133910509F491C020F5D9
:100DC0008932910509F485C08A9709F490C0C1154C
:100DD00020E5D20708F0A7C0C11530E4D30708F01A
:100DE000F6C0CF3BD10508F089C0C83AD10508F05C
:100DF000E1C0C53AD10508F0D5C0C430D105F8F43A
:100E0000C130D105E1F040C08533910509F45AC0E5
:100E1000C997E9F68091A903837089F0C0EED0E00C
:100E20000EC0833E910599F170F4803E910501F169
:100E3000823E910561F68091A90382FD21C0CE0119
:100E4000DF91CF910895863E910561F1873E91052E
:100E500071F1843E910509F0BACF8091AA0381FF18
:100E6000EECF8091A903C7EED0E084FD0DC0E7CF9F
:100E70008091A90380FDFEC09091AA0390FFDFCF6F
:100E8000C3EED0E084FFDBCFD0E0C0E0D8CF8091CC
:100E9000A90382FDF2C09091AA0390FDBFCF84FF09
:100EA000CECFF2CF8091A90383FDDDCFC8CF809153
:100EB000A90383FDE5C09091AA0391FFF0CFC4EE92
:100EC000D0E0BDCF8091A90385FFB9CFC9E2D0E0C2
:100ED000B6CF8091A90385FFB2CFC5E3D0E0AFCFF5
:100EE0008091A90386FFABCFCAE2D0E0A8CF809162
:100EF000A90386FFA4CFC1E3D0E0A1CFCF3FD105A6
:100F000009F058F4CD3ED10508F05FC0CE01805EF7
:100F10009109089708F493CFB7CFC11540E2D407E1
:100F200008F48DCFB1CFC11584E5D807A0F4C11561
:100F300093E5D90708F07CC0C11522E5D20708F077
:100F400066C0C11531E5D30708F444C0DC2FCC27B7
:100F5000C16FD06A74CFC1154AE5D40778F4C115C2
:100F600089E5D80708F078C0C11598E5D90708F4D5
:100F70008BCFDC2FCC27C06FD06A61CFCE019056CB
:100F80008115904208F080CF8D2F8F710E949106BD
:100F900090E0982F882788279F719C012C2BE901CE
:100FA000D0624DCFC55AD0E0C05DDE4FC881D0E0E1
:100FB000D06445CFC85AD0E0CC0FDD1FCD5CDE4FEA
:100FC0000990D881C02DD4643ACFD06538CFDF7076
:100FD000D06A35CFCE0164E0969587956A95E1F7A2
:100FE00083702C2F26952695237040E2249F900134
:100FF0001124382B8C2F8370C1E0D0E002C0CC0FBD
:10100000DD1F8A95E2F7C22BD32BDC6818CFCE0107
:101010008370992721E030E002C0220F331F8A95A8
:10102000E2F7C695C69580E2C89FE0011124EBCF98
:10103000CE018370992721E030E002C0220F331FD8
:101040008A95E2F7C695C69590E2C99FE001112402
:10105000C22BD32BDA68F3CE8C2F8F700E949106AF
:1010600034E0D695C7953A95E1F7CF709C2FEC0107
:10107000D069E5CEC9E3D0E0E2CEC2EED0E0DFCE6B
:10108000C6EED0E0DCCE80916F0290916E02892B8B
:1010900090916D02892B80936501E091A003F091FE
:1010A000A103309799F080910C01882369F0809119
:1010B000A90387FF09C085E0809364010280F38162
:1010C000E02D84E691E0099481E0F6CF08959091B7
:1010D0000C019923D1F09091A90397FF16C0E82F36
:1010E000E695E695E695EE31E0F4F0E0EC59FE4F3A
:1010F000282F277081E090E001C0880F2A95EAF739
:1011000080959281892382830895E7E6F1E09191A9
:10111000891303C0DF0111971C9291E0ED36F907A6
:10112000B1F7089590910C019923C1F09091A90312
:1011300097FF14C0E82FE695E695E695EE31F8F4B2
:10114000F0E0EC59FE4F877021E030E001C0220F43
:101150008A95EAF78281822B82830895A7E6B1E01F
:10116000EFEF90E02D91821751F0EF3F19F421112C
:1011700001C0E92F9F5F9630A9F7EF3F09F408956A
:101180000E2E000CFF0BEC59FE4F838308958091C7
:101190006C0290913B02981301C008958F5F877095
:1011A000FACF8F929F92AF92BF92CF92DF92EF923F
:1011B000FF920F931F93CF93DF93809074029090D0
:1011C0007502A0907602B090770240917002509123
:1011D00071026091720270917302842A952AA62A84
:1011E000B72ACFE1D0E0E92EF12C2EE0C22E082F55
:1011F00010E0DC2ED501C4010C2E04C0B695A795D5
:10120000979587950A94D2F780FD11C0219788F7AA
:10121000D12C8D2DDF91CF911F910F91FF90EF90E9
:10122000DF90CF90BF90AF909F908F900895CC9E0D
:10123000F001CD9EF00D1124EE0DFF1DEE0FFF1FEE
:10124000EE0FFF1FE00FF11FEE0FFF1FEC54FE4FDC
:10125000859194910E94D4060197C1F2DACFCF9381
:10126000DF93EC010E94D1089EE0899FF0011124D8
:10127000ED0FF11DEE0FFF1FEE0FFF1FEC0FF11D25
:10128000EE0FFF1FEC54FE4F85919491DF91CF91AB
:101290000C94D406990F990F890F982F9770869503
:1012A0008695869525E0829FF0011124EE5EFD4F24
:1012B00050E040E080E0219130E0092E02C03695F8
:1012C00027950A94E2F721703327042E01C0220FDC
:1012D0000A94EAF7822B4F5F5F4F4530510559F76B
:1012E0000895990F990F890F982F977041E001C0C9
:1012F000440F9A95EAF786958695869595E0899F9D
:10130000F0011124EE5EFD4F30E020E070E05191DD
:10131000DF011197CB01022E02C0969587950A94A2
:10132000E2F7817081958527842385278C932F5F31
:101330003F4F2530310559F70895FC018081918197
:101340000E942F09292F2F7092959F7092509E30E6
:1013500078F4E92FF0E0ED5CF14D0C94D52D803F51
:1013600019F020F4883E20F481E00895843FE1F3F1
:1013700080E00895883EC0F3813FD1F7F5CF822FFA
:10138000869586958695089590E080E00E940F05E9
:1013900090E080E00E94F90410926E0210926D02BB
:1013A0000E94430886E0E8E9F3E0DF011D928A9598
:1013B000E9F71092920310929103109293030C9408
:1013C0003105609374027093750280937602909356
:1013D00077020C94C4090F931F9341E050E060E042
:1013E00070E004C0440F551F661F771F8A95D2F71F
:1013F000CB01BA016095709580959095009174022B
:10140000109175022091760230917702602371234A
:10141000822393231F910F910C94E1090F931F9343
:1014200041E050E060E070E004C0440F551F661FCB
:10143000771F8A95D2F78091740290917502A091DE
:101440007602B09177028A019B01082B192B2A2B77
:101450003B2BC901B8011F910F910C94E1096093D6
:1014600070027093710280937202909373020C94D5
:10147000C409882341F0809590916F02892380935D
:101480006F020C9443080895882339F090916F02FD
:10149000982B90936F020C9443080895882309F4C5
:1014A00059C0823871F40E94250581FF53C089E339
:1014B0000E9492080E94430889E30E9467080C94E6
:1014C0004308833859F40E94250580FF43C083E513
:1014D0000E9492080E94430883E5EFCF843859F4B4
:1014E0000E94250582FF36C087E40E9492080E9470
:1014F000430887E4E2CF9CEF980F913AF0F290E234
:10150000980F983088F4877021E030E0A90102C07C
:10151000440F551F8A95E2F7CA01809590916F029A
:10152000892380936F02CBCF9BE5980F933020F4F3
:1015300090E080E00C940F0598E5980F973120F427
:1015400090E080E00C94F9048D3E20F00E94580554
:101550000C94310508956093090270930A028093F8
:101560000B0290930C0280915D0390915E03909327
:10157000080280930702ECEDF2E0A7E8B1E04191A8
:101580005191619171914D935D936D937D9383E042
:10159000EC35F807A1F708950F931F93CF93DF93CE
:1015A000EC018B01FB018281882309F44EC00E946B
:1015B0006C04909386018093850181E080935F03A2
:1015C000F8019281FE01FA55EA32F10508F0D9C11D
:1015D000EF5BF14D0C94D52D409178035091790338
:1015E00060917A0370917B03992331F144604093B9
:1015F00078035093790360937A0370937B0380910F
:101600005D0390915E03FC01EE0FFF1FEE0FFF1FC5
:10161000E452FD4F409178035091790360917A0331
:1016200070917B034083518362837383019690930F
:101630005E0380935D0309C04B7F40937803509312
:10164000790360937A0370937B0381E0DF91CF91FC
:101650001F910F9108954091780350917903609103
:101660007A0370917B03992311F04860C0CF477FC4
:10167000E4CF409178035091790360917A0370919F
:101680007B03992311F04061B2CF4F7ED6CF4091BA
:1016900078035091790360917A0370917B039923C9
:1016A00011F04062A4CF4F7DC8CF40917803509194
:1016B000790360917A0370917B03992311F0416063
:1016C00096CF4E7FBACF40917803509179036091C5
:1016D0007A0370917B03992311F0426088CF4D7F8C
:1016E000ACCF409178035091790360917A03709167
:1016F0007B03992311F040647ACF4F7B9ECF4091BA
:1017000078035091790360917A0370917B03992358
:1017100011F040686CCF4F7790CF40917803509193
:10172000790360917A0370917B03992311F05160E2
:101730005ECF5E7F82CF40917803509179036091B4
:101740007A0370917B03992311F0526050CF5D7F33
:1017500074CF409178035091790360917A0370912E
:101760007B03992311F0546042CF5B7F66CF409199
:1017700078035091790360917A0370917B039923E8
:1017800011F0586034CF577F58CF40917803509173
:10179000790360917A0370917B03992311F0506172
:1017A00026CF5F7E4ACF40917803509179036091B4
:1017B0007A0370917B03992311F0506218CF5F7DFB
:1017C0003CCF409178035091790360917A037091F6
:1017D0007B03992311F050640ACF5F7B2ECF409199
:1017E00078035091790360917A0370917B03992378
:1017F00011F05068FCCE5F7720CF40917803509174
:10180000790360917A0370917B03992311F06160F1
:10181000EECE6E7F12CF40917803509179036091A4
:101820007A0370917B03992311F06260E0CE6D7FA3
:1018300004CF409178035091790360917A037091BD
:101840007B03992311F06460D2CE6B7FF6CE40917A
:1018500078035091790360917A0370917B03992307
:1018600011F06860C4CE677FE8CE40917803509154
:10187000790360917A0370917B03992311F0606181
:10188000B6CE6F7EDACE40917803509179036091A5
:101890007A0370917B03992311F06062A8CE6F7D6B
:1018A000CCCE409178035091790360917A03709186
:1018B0007B03992311F060649ACE6F7BBECE40917A
:1018C00078035091790360917A0370917B03992397
:1018D00011F060688CCE6F77B0CE40917803509154
:1018E000790360917A0370917B03992311F0716001
:1018F0007ECE7E7FA2CE4091780350917903609195
:101900007A0370917B03992311F0726070CE7D7F12
:1019100094CE409178035091790360917A0370914D
:101920007B03992311F0746062CE7B7F86CE409159
:1019300078035091790360917A0370917B03992326
:1019400011F0786054CE777F78CE40917803509133
:10195000790360917A0370917B03992311F0706190
:1019600046CE7F7E6ACE4091780350917903609194
:101970007A0370917B03992311F0706238CE7F7DDA
:101980005CCE992309F461CE3ACECF93C82F87302D
:1019900050F580910A0190910B01892B11F580E49B
:1019A0000E94780490930B0180930A01892BB1F473
:1019B00082E10E94D20490930B0180930A01892B4B
:1019C00069F481E090E001C0880FCA95EAF780953C
:1019D0000E94D20490930B0180930A0184E98093C2
:1019E000BC00CF9108958A30B1F038F4883069F0A6
:1019F000893071F0209A2898F4CF8C3091F070F0F3
:101A00008D30C1F73E9A4698ECCF219A2998E9CFBC
:101A1000229A2A98E6CF239A2B98E3CF529A5A9883
:101A2000E0CF539A5B98DDCF84B1807F84B985B1D4
:101A3000807F85B93E9846988AB1837F8AB98BB1F9
:101A4000837F8BB9089580B38D7880BB81B3826723
:101A500081BB0895EF92FF920F931F93CF93DF9373
:101A6000C82F873008F084C080910A0190910B0143
:101A7000892B09F088C080E40E94780490930B01C0
:101A800080930A01892B09F43FC090E084E9809398
:101A9000BC002C2F30E0F901E055FD4FA081A927B3
:101AA0009083F901EE0FFF1FEE0FFF1FE858FD4F67
:101AB00070E060E040E0C1E0D0E0B0E055E0162F1B
:101AC0008081882309F461C0815080837D0102C038
:101AD000F594E7941A95E2F7E0FC50836F5F7F4F2F
:101AE00031966430710559F722543D4F842F80950B
:101AF000F901208182239423892BDF91CF911F91BB
:101B00000F91FF90EF90089583E10E94D20490938B
:101B10000B0180930A01892B09F0B7CF81E40E9461
:101B2000780490930B0180930A01892B09F0ADCFC3
:101B300084E88093BC000E946C048C018091BC00FE
:101B400087FF08C09091BB00909510920B011092F6
:101B50000A019CCF0E946C04801B910B883E93402D
:101B600068F38EEF9FEF90930B0180930A018DCF66
:101B70008FB19FB1869581709695969596959E703A
:101B8000982B909586CF90E084CF7E01062E01C0E1
:101B9000EE0C0A94EAF74E2999CFCF93C091E90051
:101BA0002091EC00922F917020FD90E820911D0172
:101BB00020FF12C0CF70C92B90910E019F7090939F
:101BC000E9009091EB0090FF04C09091EE0097FD2A
:101BD00005C0CF70C093E900CF9108959FEF209189
:101BE000E800915025FD06C025ED2A95F1F700008B
:101BF0009111F5CF8093F1008DE091E00E94EE020B
:101C00008091E80080FFE5CF8091E8008E77809397
:101C1000E800DFCF9091DC03943031F58093AB0383
:101C20007093AD036093AC0381E08093E9008FEF84
:101C30009091E800815095FD06C095ED9A95F1F7D9
:101C400000008111F5CF8091E80085FF0DC050E0C4
:101C500040E063E070E08BEA93E00E942003809113
:101C6000E8008E778093E8000895BC0184E00C942E
:101C70000A0EBC0183E00C940A0E9C0181E0809363
:101C8000E9009FEF8091E800915085FD06C085ED49
:101C90008A95F1F700009111F5CF8091E80085FF5A
:101CA0000CC050E040E066E070E0C9010E942003F3
:101CB0008091E8008E778093E8000895CF93DF93BA
:101CC000EC0180910C01882321F08091A90360E24E
:101CD00087FF69E081E08093E9008FEF9091E80051
:101CE000815095FD06C095ED9A95F1F700008111A0
:101CF000F5CF8091E80085FF19C080910C0181111A
:101D000018C050E040E068E070E0CE0101960E940B
:101D100020038091E8008E778093E80080E2FE0146
:101D2000A1EBB3E001900D928A95E1F7DF91CF919D
:101D3000089570E050E040E0CE01E9CFCF93C82F86
:101D4000882309F4AEC08238C1F40E94250581FDC4
:101D5000A8C089E30E9492080E9443082FEF81EEF9
:101D600094E0215080409040E1F700C0000089E3FA
:101D70000E946708CF910C9443088338A1F40E9415
:101D8000250580FD8EC083E50E9492080E944308CD
:101D90002FEF81EE94E0215080409040E1F700C0A9
:101DA000000083E5E5CF8438A1F40E94250582FD7B
:101DB00078C087E40E9492080E9443082FEF81EECA
:101DC00094E0215080409040E1F700C0000087E49B
:101DD000CFCF8CEF8C0F813A88F580910C0188234E
:101DE00001F18091A90387FF1CC0EC2FE695E695D1
:101DF000E695F0E0EC59FE4F828190E04C2F477061
:101E000021E030E002C0220F331F4A95E2F782231F
:101E10009323892B79F08C2F0E9467080E94430836
:101E200009C0E7E6F1E08191C817A9F321E0ED369A
:101E3000F207C9F78C2F0E9492089CCF80E28C0F8A
:101E4000883068F4C77021E030E001C0220FCA95E5
:101E5000EAF780916F02822B80936F028BCFEBE5C4
:101E6000EC0FE33040F4F0E0E05DFE4F808190E065
:101E7000CF910C940F05E8E5EC0FE73150F4F0E05A
:101E8000EE0FFF1FED5CFE4F80819181CF910C948E
:101E9000F904CD3E30F08C2F0E941706CF910C94A0
:101EA0003105CF9108951F93CF93DF93182FD0E082
:101EB000C0E0893311F4C0E5D0E0812F0E949E0E6E
:101EC000209731F4812FDF91CF911F910C944E0A0E
:101ED0008FE99FE00197F1F700C000002197F0CF54
:101EE0000F931F93CF93DF93C62FD42F022FFC01A4
:101EF00082818823A1F06093DF030E946C04909399
:101F0000DE038093DD03C77081E001C0880FCA95AE
:101F1000EAF7DF91CF911F910F910C94440A8091C1
:101F2000DF03681335C08091DD039091DE030E94CA
:101F30005D04883C910560F510E21D0FCD17B9F0E6
:101F400080E28C0F883040F4C77081E001C0880FB8
:101F5000CA95EAF70E94390A183048F481E09D2FAB
:101F6000977001C0880F9A95EAF70E94440A802F63
:101F70000E94530F183098F4D77081E001C0880F89
:101F8000DA95EAF7DF91CF911F910F910C94390AFE
:101F9000C77081E001C0880FCA95EAF7F3CFDF91DF
:101FA000CF911F910F91089590917603923069F42B
:101FB00090917503943158F4E92FF0E0E05AFC4F0A
:101FC00080839F5F9093750308950C949E0E0895EF
:101FD000CF92DF92EF92FF92C0907803D090790376
:101FE000E0907A03F0907B03C11491E0D906E104FC
:101FF000F10461F4811103C084E10E94D40FC70190
:10200000B601FF90EF90DF90CF900895C11492E059
:10201000D906E104F10421F48111F1CF84E0EDCF80
:10202000C11494E0D906E104F10421F48111E7CF51
:102030008AE1E3CFC11490E1D906E104F10421F46F
:102040008111DDCF88E0D9CFC11490E4D906E10435
:10205000F10421F48111D3CF85E1CFCFC11498E0F1
:10206000D906E104F10421F48111C9CF86E1C5CF7D
:10207000C11490E2D906E104F10421F48111BFCF2B
:1020800087E0BBCFC11490E8D906E104F10421F444
:102090008111B5CF89E0B1CF94E0C916D104E10434
:1020A000F10421F48111ABCF87E1A7CF98E0C916E5
:1020B000D104E104F10421F48111A1CF8AE09DCF84
:1020C000C114D10491E0E906F10421F4811197CF04
:1020D00086E093CFC114D10492E0E906F10421F423
:1020E00081118DCF89E189CFC114D10494E0E90633
:1020F000F10421F4811183CF81E17FCFC114D10498
:1021000098E0E906F10421F4811179CF80E175CFDF
:1021100090E1C916D104E104F10421F481116FCFDB
:102120008CE16BCF90E2C916D104E104F10421F4F3
:10213000811165CF8BE061CFC114D10490E1E90634
:10214000F10421F481115BCF88E157CFC114D10490
:1021500090E4E906F10421F4811151CF8CE04DCFD8
:10216000C114D104E10491E0F90621F4811147CFB3
:1021700082E143CFC114D104E10494E0F90621F4D3
:1021800081113DCF83E139CFC114D104E10490E145
:10219000F90621F4811133CF8FE22FCFC114D1047E
:1021A00090E2E906F10421F4811129CF8DE025CFD9
:1021B000C114D10490E8E906F10421F481111FCF84
:1021C0008EE01BCFC114D104E10492E0F90621F4A2
:1021D000811115CF8FE011CFC114D104E10498E033
:1021E000F90621F481110BCF83E307CFC114D10489
:1021F000E10490E2F90621F4811101CF84E3FDCEE0
:1022000090E4C916D104E104F10421F48111F7CE60
:102210008EE1F3CE90E8C916D104E104F104B1F3E4
:10222000C12CD12C7601EBCEAF92BF92CF92DF9230
:10223000EF92FF920F931F93CF93DF93EC018AE00D
:10224000A82EFE012491222309F494C0213009F024
:102250003EC031968491813031F42296FE01849102
:102260000E94530F07C0823039F42296FE018491F8
:102270000E949E0E2196E5CF833031F42296FE0116
:1022800084910E944E0AF6CF843009F071C02296E4
:10229000FE01249190E080E0FE0131962053330B43
:1022A0002A30310548F0019728F3EFE9FFE0319734
:1022B000F1F700C00000F7CFA89EA001A99E500D25
:1022C0001124C901840F951F2491EF01E5CFE22F5E
:1022D000F0E0EC50FF4FB490822F8695869586955E
:1022E00090E0FC01EC51FF4FE4902770F12C022E9E
:1022F00002C0F594E7940A94E2F731E0E322FF2468
:10230000FC01EC52FF4FC490D12C022E02C0D59498
:10231000C7940A94E2F7E1E0CE22DD24FC01EC53FD
:10232000FF4F049110E002C0159507952A95E2F73A
:1023300001701127E114F10419F081EE0E949E0E44
:10234000C114D10419F086EE0E949E0E8B2D0E94BE
:10235000530FCD2819F086EE0E944E0AEF2819F08F
:1023600081EE0E944E0A012B09F484CF8CE278CFD3
:10237000EF0180CFDF91CF911F910F91FF90EF90F0
:10238000DF90CF90BF90AF900895CF92DF92EF9201
:10239000FF92C0907803D0907903E0907A03F09098
:1023A0007B0390E4C916D104E1049CE3F90689F4A7
:1023B000811108C088EB90E00E9414118CEA90E033
:1023C0000E941411C701B601FF90EF90DF90CF90EB
:1023D000089590ECC916D1049FE0E906F10431F4A8
:1023E0008111F0CF8EEA0E94D40FECCFC1149CE390
:1023F000D906E104F10449F48111E4CF8091760318
:10240000813001F780930E02DDCF9CE2C91690E285
:10241000D906E104F10431F48111D4CF8AE20E949B
:10242000D40FD0CFC1149AE0D90692E0E906F104A6
:1024300071F48111C7CF82EF0E9417060E94310507
:1024400081E080937D0382EF80937C03BBCFC11436
:1024500090EAD90692E0E906F10471F48111B2CF55
:1024600081EF0E9417060E94310581E080937D0371
:1024700081EF80937C03A6CFC114D1049FE0E906CD
:10248000F10431F481119ECF89E30E94D40F9ACFD9
:10249000C114D10499E0E906F10431F4811192CF1D
:1024A00089E20E94D40F8ECFC114D10496E0E906D0
:1024B000F10431F4811186CF80EE0E94D40F82CFD7
:1024C00090ECC916D10499E0E906F10449F48111B0
:1024D00079CF80EE0E94D40F81EE0E94D40F72CF8C
:1024E00090E4C916D10495E0E906F10461F4811184
:1024F00069CF80EE0E94D40F81EE0E94D40F82EE4D
:102500000E94D40F5FCFC114D104E1049CE3F9060B
:1025100031F4811157CF83EE0E94D40F53CFC114F1
:10252000D104E10494E1F90631F481114BCF80EE3E
:102530000E94D40F47CFC114D104E10498E2F906F8
:1025400031F481113FCF82EE0E94D40F3BCF90E453
:10255000C916D10491E0E906F10431F4811132CFBA
:1025600080EE0E94D40F2ECFC114D10493E0E9066F
:10257000F10431F4811126CF82EE0E94D40F22CFD4
:10258000C114D10492E0E906F10431F481111ACFAB
:1025900081EE0E94D40F16CFC1149AE5D90690E3BC
:1025A000E906F10431F481110DCF8EE30E94D40FBE
:1025B00009CFC1149AE5D90690ECE906F10431F48B
:1025C000811100CF8FE30E94D40FFCCEC1149AE595
:1025D000D906E10493E0F90631F48111F3CE80E4E9
:1025E0000E94D40FEFCEC1149AE5D906E1049CE015
:1025F000F90631F48111E6CE81E40E94D40FE2CED7
:10260000C1149AE5D90690E1E906F10431F481118B
:10261000D9CE8AE30E94D40FD5CEC1149AE5D9064B
:1026200090E4E906F10431F48111CCCE8BE30E94F1
:10263000D40FC8CEC1149AE5D906E10491E0F90699
:1026400031F48111BFCE8CE30E94D40FBBCEC114F4
:102650009AE5D906E10494E0F90631F48111B2CE8D
:102660008DE30E94D40FAECEC1149AE5D90690E254
:10267000E906F10431F48111A5CE82E40E94D40F61
:10268000A1CEC1149AE5D906E10492E0F90631F42D
:10269000811198CE83E40E94D40F94CEC1149AE5A0
:1026A000D90690E8E906F10431F481118BCE84E477
:1026B0000E94D40F87CEC1149AE5D906E10498E0B0
:1026C000F90631F481117ECE85E40E94D40F7ACED2
:1026D0009CE0C916D10490E1E906F10431F48111BE
:1026E00071CE80E50E94D40F6DCE9CE0C916D10456
:1026F00090E4E906F10431F4811164CE81E50E9491
:10270000D40F60CE9CE0C916D104E10491E0F90633
:1027100031F4811157CE82E50E94D40F53CE9CE054
:10272000C916D104E10494E0F90631F481114ACECE
:102730008FE40E94D40F46CE9CE1C916D104E10477
:10274000F10431F481113ECE8BE40E94D40F3ACED5
:102750009CE2C916D104E104F10431F4811132CEB6
:102760008EE40E94D40F2ECEC1149AEAD90690E1CD
:10277000E906F10431F4811125CE8CEA0E94D40FD0
:1027800021CEC1149AEAD90690E4E906F10431F4A5
:10279000811118CE8EEA0E94D40F14CEC1149AEA89
:1027A000D906E10491E0F90631F481110BCE8EEAED
:1027B0000E94D40F07CEC1149AEAD906E10494E02E
:1027C000F90631F48111FECD8BEA0E94D40FFACDC7
:1027D000C1149AEAD906E10490E1F90631F48111B5
:1027E000F1CD89EA0E94D40FEDCDC1149AEAD90641
:1027F000E10490E2F90631F48111E4CD8AEA0E9405
:10280000D40FE0CDC1149AEAD906E10498E0F906A4
:1028100031F48111D7CD88EA0E94D40FD3CD90E452
:10282000C91691E0D906E104F10431F48111CACD51
:102830008EE10E94D40FC6CD90E4C91694E0D9066B
:10284000E104F10431F48111BDCD8FE10E94D40F78
:10285000B9CD90E4C91690E1D906E104F10431F450
:102860008111B0CD80E20E94D40FACCD90E4C916A6
:10287000D906E104F10431F48111A4CD81E20E9472
:10288000D40FA0CD94E4C916D104E104F10431F4CD
:10289000811198CD82E20E94D40F94CD90E5C916A3
:1028A000D104E104F10431F481118CCD83E20E9462
:1028B000D40F88CD90E4C916D10490E1E906F10463
:1028C00031F481117FCD84E20E94D40F7BCD90E45E
:1028D000C916D104E906F10431F4811173CD85E202
:1028E0000E94D40F6FCD90E4C916D104E10491E0A9
:1028F000F90631F4811166CD86E20E94D40F62CDD3
:1029000090E4C916D104E10494E0F90631F4811190
:1029100059CD87E20E94D40F55CD90E8C91691E0B9
:10292000D906E104F10431F481114CCD8EE10E940D
:10293000D40F48CD90E8C91694E0D906E104F1041B
:1029400031F481113FCD8FE10E94D40F3BCD90E84F
:10295000C91690E1D906E104F10431F4811132CDB8
:1029600080E20E94D40F2ECD90E8C91690E4D906DB
:10297000E104F10431F4811125CD81E20E94D40FEC
:1029800021CD94E8C916D104E104F10431F4811198
:1029900019CD82E20E94D40F15CD90E9C916D10459
:1029A000E104F10431F481110DCD83E20E94D40FD2
:1029B00009CD90E8C916D10490E1E906F10431F49B
:1029C000811100CD84E20E94D40FFCCC90E8C9169E
:1029D000D10490E4E906F10431F48111F3CC85E2ED
:1029E0000E94D40FEFCC90E8C916D104E10491E025
:1029F000F90631F48111E6CC86E20E94D40FE2CCD4
:102A000090E8C916D104E10494E0F90631F481118B
:102A1000D9CC87E20E94D40FD5CC90E8C916D10456
:102A200091E0E906F10431F48111CCCC82E20E94FC
:102A3000D40FC8CC90E8C916D10498E0E906F10497
:102A400031F48111BFCC8BE20E94D40FBBCCC114F6
:102A5000D1049CE0E906F10431F48111B3CC8AE29F
:102A60000E94D40FAFCCC114D104E10490E3F90665
:102A700031F48111A7CC88E20E94D40FA3CCC114F9
:102A8000D10494E0E906F10431F481119BCC88E291
:102A90000E94D40F97CCC114D104E10490E1F9064F
:102AA00031F481118FCC8AE20E94D40F8BCC90E458
:102AB000C916D104E104F10431F4811183CC8AE216
:102AC0000E94D40F7FCC90E8C916D104E104F10430
:102AD00031F4811177CC8AE20E94D40F73CCC114F7
:102AE000D10491E0E906F10431F481116BCC8CE260
:102AF0000E94D40F67CCC114D10498E0E906F10418
:102B000031F481115FCC8CE20E94D40F5BCCC114F4
:102B1000D104E10490E2F90631F4811153CC89E249
:102B20000E94D40F4FCC92E0C916D1049CE0E90674
:102B3000F10431F4811146CC88E20E94D40F42CCDA
:102B400092E0C916D10493E0E906F10431F4811151
:102B500039CC8CE20E94D40F35CC92E0C91690E3B8
:102B6000D906E104F10449F481112CCC81EE0E94D4
:102B7000D40F86E20E94D40F25CC92E0C91690ECC7
:102B8000D906E104F10449F481111CCC81EE0E94C4
:102B9000D40F87E20E94D40F15CC9EE0C916D10451
:102BA000E104F10431F481110DCC85E30E94D40FCE
:102BB00009CC92E0C916D104E10490E3F90631F49E
:102BC000811100CC89E20E94D40FFCCB92E0C9169F
:102BD00093E0D906E104F10449F48111F3CB81EECD
:102BE0000E94D40F80E20E94D40FECCB92E0C91671
:102BF0009CE0D906E104F10449F48111E3CB81EEB4
:102C00000E94D40F81E20E94D40FDCCB92E0C9165F
:102C100091E0D906E104F10449F48111D3CB81EEAE
:102C20000E94D40F8EE10E94D40FCCCB92E0C91643
:102C3000D906E104F10449F48111C4CB81EE0E946C
:102C4000D40F82E20E94D40FBDCB92E0C91694E06B
:102C5000D906E104F10449F48111B4CB81EE0E945C
:102C6000D40F8FE10E94D40FADCB92E0C91698E04B
:102C7000D906E104F10449F48111A4CB81EE0E944C
:102C8000D40F83E20E94D40F9DCB92E0C91690E14D
:102C9000D906E104F10449F4811194CB81EE0E943C
:102CA000D40F8FE20E94D40F8DCB92E0C91690E230
:102CB000D906E104F10431F4811184CB8FE20E9442
:102CC000D40F80CB92E0C91690E4D906E104F10458
:102CD00049F4811177CB81EE0E94D40F80E30E94EA
:102CE000D40F70CB92E0C91690E8D906E104F10444
:102CF00031F4811167CB80E30E94D40F63CB96E05F
:102D0000C916D104E104F10449F481115BCB81EED1
:102D10000E94D40F81E30E94D40F54CB9AE0C916CD
:102D2000D104E104F10449F481114CCB81EE0E94FD
:102D3000D40F85E30E94D40F45CB92E1C916D1048C
:102D4000E104F10431F481113DCB84E30E94D40FFE
:102D500039CB92E2C916D104E104F10449F481119E
:102D600031CB81EE0E94D40F84E30E94D40F2ACB92
:102D700092E0C916D10490E1E906F10431F4811121
:102D800021CB87E50E94D40F1DCB92E0C916D10458
:102D900090E2E906F10449F4811114CB81EE0E941E
:102DA000D40F84E20E94D40F0DCB92E0C916D10457
:102DB00090E4E906F10431F4811104CB8DE20E9424
:102DC000D40F00CB92E0C916D10490E8E906F104D3
:102DD00031F48111F7CA8EE20E94D40FF3CA92E057
:102DE000C916D104E10491E0F90631F48111EACA6F
:102DF00088E30E94D40FE6CA92E0C916D104E10428
:102E0000F90631F48111DECA86E30E94D40FDACAD2
:102E100092E0C916D104E10494E0F90631F481117D
:102E2000D1CA85E50E94D40FCDCA92E0C916D1045B
:102E3000E10498E0F90631F48111C4CA87E30E94E5
:102E4000D40FC0CA92E0C916D104E10490E1F9069A
:102E500031F48111B7CA8BE20E94D40FB3CA92E059
:102E6000C916D10491E0E906F10431F48111AACA2E
:102E700081EE0E94D40FA6CA92E0C916D104E906D9
:102E8000F10431F481119ECA88E30E94D40F9ACADA
:102E900092E0C916D10494E0E906F10431F48111FD
:102EA00091CA83E30E94D40F8DCA92E0C916D1045F
:102EB00098E0E906F10431F4811184CA81E30E94AB
:102EC000D40F80CA92E4C916D104E104F10431F4AC
:102ED000811178CA81E30E94D40F74CA92E0C916A6
:102EE000D10490E3E906F10431F481116BCA80E565
:102EF0000E94D40F67CA92E0C916D10490ECE9068B
:102F0000F10431F481115ECA81E50E94D40F5ACADE
:102F100092E0C916D104E10493E0F90631F481117D
:102F200051CA82E50E94D40F4DCA92E0C916D1045D
:102F3000E1049CE0F90631F4811144CA8FE40E9457
:102F4000D40F40CAC11493E0D906E104F10431F46E
:102F5000811138CA84E00E94D40F34CAC1149CE0A5
:102F6000D906E104F10431F481112CCA86E10E94F2
:102F7000D40F28CAC11490E3D906E104F10431F456
:102F8000811120CA87E00E94D40F1CCAC11490ECA2
:102F9000D906E104F10431F4811114CA89E00E94D8
:102FA000D40F10CA9CE0C916D104E104F10431F435
:102FB000811108CA8AE00E94D40F04CA90E3C9169E
:102FC000D104E104F10431F48111FCC98BE00E94C9
:102FD000D40FF8C9C114D10490E3E906F10431F427
:102FE0008111F0C98DE00E94D40FECC9C114D10445
:102FF000E1049CE0F90631F48111E4C983E30E9405
:10300000D40FE0C9C114D104E10493E0F90631F40E
:103010008111D8C98FE00E94D40FD4C9C114D10442
:1030200090ECE906F10431F48111CCC98EE00E94E4
:10303000D40FC8C9C11491E0D906E104F10431F4F8
:103040008111C0C984E10E94D40FBCC9C11492E0AF
:10305000D906E104F10431F48111B4C98DE10E9473
:10306000D40FB0C9C11494E0D906E104F10431F4DD
:103070008111A8C98AE10E94D40FA4C9C11498E0A3
:10308000D906E104F10431F481119CC98BE10E945D
:10309000D40F98C9C11490E1D906E104F10431F4C8
:1030A000811190C988E00E94D40F8CC9C11490E2AC
:1030B000D906E104F10431F4811184C986E00E944B
:1030C000D40F80C9C11490E4D906E104F10431F4AD
:1030D000811178C985E10E94D40F74C9C11490E8A8
:1030E000D906E104F10431F481116CC989E10E942F
:1030F000D40F68C994E0C916D104E104F10431F495
:10310000811160C987E10E94D40F5CC998E0C9169B
:10311000D104E104F10431F4811154C985E00E9425
:10312000D40F50C990E1C916D104E104F10431F47F
:10313000811148C98CE10E94D40F44C990E2C9169C
:10314000D104E104F10431F481113CC981E10E9410
:10315000D40F38C9C114D10490E1E906F10431F467
:10316000811130C988E10E94D40F2CC9C114D10447
:1031700090E2E906F10431F4811124C980E10E9452
:10318000D40F20C9C114D10490E4E906F10431F44C
:10319000811118C98CE00E94D40F14C9C114D10444
:1031A00090E8E906F10431F481110CC986E30E942C
:1031B000D40F08C9C114D104E10491E0F90631F437
:1031C000811100C982E10E94D40FFCC8C114D1044E
:1031D000E10492E0F90631F48111F4C887E30E941A
:1031E000D40FF0C8C114D104E10494E0F90631F41D
:1031F0008111E8C883E10E94D40FE4C8C114D1044E
:10320000E10498E0F90631F48111DCC888E30E94FA
:10321000D40FD8C8C12CD12C7601D4C82F923F929C
:103220004F925F926F927F928F929F92AF92BF92D6
:10323000CF92DF92EF92FF920F931F93CF93DF9382
:10324000CDB7DEB7CB57D1090FB6F894DEBF0FBEAE
:10325000CDBF182FC0907803D0907903E0907A0307
:10326000F0907B03C0FE0CC0D701C60121E082278D
:103270008093780390937903A0937A03B0937B03B0
:10328000112361F181E00E94E80F80907803909013
:103290007903A0907A03B0907B03681579058A05BD
:1032A0009B05E1F480E0C558DF4F0FB6F894DEBF10
:1032B0000FBECDBFDF91CF911F910F91FF90EF9087
:1032C000DF90CF90BF90AF909F908F907F906F9046
:1032D0005F904F903F902F900C94E80F81E00E94F8
:1032E000C5118090780390907903A0907A03B090F4
:1032F0007B03681579058A059B0509F446C0AE0174
:103300004F5F5F4FA3965FAF4EAFA397A5965FAF9A
:103310004EAFA597812C912C5401EA961FAE1EAE9C
:10332000EA978C149D04AE04BF0409F475C12CED1A
:1033300032E0A7963FAF2EAFA797312C212CA8964D
:103340001FAEA897EB961FAEEB97EC961FAEEC97CF
:1033500000E060E070E0CB0124013501409450941E
:1033600060947094E0964CAE5DAE6EAE7FAEE0972A
:10337000A50194012270332744275527E4962CAFEA
:103380003DAF4EAF5FAFE497C5C080E00E94C5116E
:1033900080910E02882361F18091090290910A02C6
:1033A000A0910B02B0910C02809378039093790363
:1033B000A0937A03B0937B03809107029091080257
:1033C00090935E0380935D03E7E8F1E0ACEDB2E03B
:1033D00041915191619171914D935D936D937D9365
:1033E00052E0E730F507A1F710920E0210E032CF5D
:1033F000609178037091790380917A0390917B03B7
:10340000C558DF4F0FB6F894DEBF0FBECDBFDF91BA
:10341000CF911F910F91FF90EF90DF90CF90BF90D1
:10342000AF909F908F907F906F905F904F903F9064
:103430002F900C94AB0AA796AEADBFADA7972D9178
:103440003D914D915D91A796BFAFAEAFA797E09626
:103450004CAC5DAC6EAC7FACE09742225322642250
:103460007522E8964CAE5DAE6EAE7FAEE8974092A8
:1034700078035092790360927A0370927B0341142F
:1034800051046104710409F442C02114310489F02B
:10349000611571058105910561F04626572668265C
:1034A0007926A3019201223031054105510509F425
:1034B00043C0E4964CAC5DAC6EAC7FACE497452861
:1034C0004628472879F0E8962CAD3DAD4EAD5FAD6E
:1034D000E8972260209378033093790340937A032E
:1034E00050937B0381E0112309F45CC00E94E80F34
:1034F000611571058105910551F0A8966FAFA897E8
:10350000EB967FAFEB97EC968FAFEC97092F2FEFF1
:10351000221A320A20915D0330915E032215330591
:103520000CF089CFA8966FADA897EB967FADEB977F
:10353000EC968FADEC97902F862A972AA82AB92A65
:10354000A596AEADBFADA5976D937D938D939D93DD
:10355000A596BFAFAEAFA597EA96EEADFFADEA97E1
:103560003196EA96FFAFEEAFEA97789709F0D9CE99
:10357000C558DF4F0FB6F894DEBF0FBECDBFDF9149
:10358000CF911F910F91FF90EF90DF90CF90BF9060
:10359000AF909F908F907F906F905F904F903F90F3
:1035A0002F9008950E94C511A3CFA396EEADFFAD55
:1035B000A39781919191A191B191A396FFAFEEAFA5
:1035C000A3978093780390937903A0937A03B093A1
:1035D0007B0380E01123E9F00E94E80FFFEFAF1AB0
:1035E000BF0AEA964EAC5FACEA974A145B04E9F670
:1035F00080910E02811104C0C701B6010E94AB0A7E
:10360000C0927803D0927903E0927A03F0927B0320
:10361000AFCF0E94C511E2CFB12CA12CE2CF80E246
:1036200090E090930B0180930A0180910D0281112B
:1036300011C01092B9008CE08093B80081E08093B3
:103640000D022FEF83ED90E3215080409040E1F791
:1036500000C0000080E40E94780490930B018093E6
:103660000A01892B09F040C080E00E94D2049093A7
:103670000B0180930A01892BB9F580E80E94D204DE
:1036800090930B0180930A01892B71F58FEF0E94B3
:10369000D20490930B0180930A01892B29F584E9C8
:1036A0008093BC0080E40E94780490930B01809387
:1036B0000A01892BC9F48CE00E94D20490930B017B
:1036C00080930A01892B81F480E80E94D2049093B0
:1036D0000B0180930A01892B39F48FEF0E94D204E9
:1036E00090930B0180930A0184E98093BC00809140
:1036F0000A01089510926F0280910C01882369F0ED
:103700008091A90387FF09C0E6E6F1E08EE1DF01C1
:103710001D928A95E9F70C94C409E7E6F1E086E08A
:10372000F6CF1F93CF93DF93CDB7DEB7AA970FB62F
:10373000F894DEBF0FBECDBF84ED93E02091F10081
:10374000FC012193CF01F3E08C3D9F07B9F78091F5
:10375000D503833009F4B8C008F04CC0813009F4B7
:103760007EC0823009F4F8C08091E80083FF9BC0DE
:1037700020910D018091D8039091D9032817190643
:1037800009F091C08091D503813209F405C108F098
:10379000F4C0803209F087C08091D403813209F0EF
:1037A00082C08091E800877F8093E8008091E800E4
:1037B00082FF2FC13091F1002091F1009091F10032
:1037C0008091F100309321012093220190932301F5
:1037D000809324018091F100809325018091F10074
:1037E000809326018091F100809327018091E80069
:1037F0008B770AC18A3009F49EC08B3009F481C0EE
:10380000893009F0B1CF8091D403813209F0ACCF77
:103810008091D8039091D903892B09F0A5CF80918D
:10382000E800877F8093E8008091E80082FF37C03E
:103830009091F3008091F200029729F48091F100B9
:103840008B7F813021F48091F1008093B0038091CF
:10385000E8008B778093E8000E944A0385CF80912F
:10386000D403813A09F080CF8091E800877F80936C
:10387000E8008091D8039091D903892B61F460E22C
:1038800081EB93E070E00E94FC038091E8008B776D
:103890008093E80069CF60E090E080E0F3CF809112
:1038A000DC038111C1CF8091E80083FF47C1809183
:1038B000D4039091D5039A3008F040C1E92FF0E08D
:1038C000E559F14D0C94D52D8091D403813A09F03E
:1038D0004BCF8091D8039091D903892B09F044CF25
:1038E0008091E800877F8093E8008091E80080FF66
:1038F000FCCF80910C018093F1008091E8008E77DD
:10390000A9CF8091D403813209F02ECF8091D803C2
:103910009091D903892B09F027CF8091E800877F08
:103920008093E8000E944A038091D60380930C01A3
:103930000E947A1B19CF8091D403813209F014CFF1
:103940008091E800877F8093E8000E944A0380917D
:10395000D7038093AF0308CF8091D403813A09F055
:1039600003CF8091E800877F8093E8008091E80092
:1039700080FFFCCF8091AF03BECF823209F44EC0EE
:10398000833209F090CF8091D403813209F08BCF3C
:103990008091E800877F38C08091D403813A09F094
:1039A00082CF8091E800877F8093E8008091E800D3
:1039B00080FFFCCF8091210190912201A0912301F1
:1039C000B09124018093F100492F5A2F6B2F772754
:1039D0004093F100AD01662777274093F1008B2FCC
:1039E0009927AA27BB278093F10080912501809316
:1039F000F100809126018093F1008091270180934E
:103A0000F1008091E8008E778093E8000E944A03DD
:103A10004ACF8091DC038111C9CE45CF8091D40378
:103A2000813209F040CF8091E800877F8093E800E1
:103A30000E944A038091D6039091D70390931E0170
:103A400080931D0130CF803899F0823809F076C01C
:103A50008091D8038F70873008F070C08093E900A0
:103A60008091EB0085FB882780F91092E90006C061
:103A70008091D1039091D203911182609091E800DE
:103A8000977F9093E8008093F1001092F10080916D
:103A9000E8008E77A1C1882309F48EC1823009F035
:103AA0004DC08091D603811192C18091D8038F704F
:103AB0002FEF280F263008F041C08093E9002091B5
:103AC000EB0020FF84C1933031F48091EB008062E1
:103AD0008093EB007CC19091EB0090619093EB00A0
:103AE00021E030E001C0220F8A95EAF72093EA0036
:103AF0001092EA008091EB008860EACF81111EC02D
:103B00001091D6031F778091E3008078812B8093FA
:103B1000E3008091E800877F8093E8000E944A03D9
:103B20008091E80080FFFCCF8091E3008068809363
:103B3000E30082E0111183E08093DC038091E800D0
:103B400083FF0AC08091E800877F8093E80080911E
:103B5000EB0080628093EB00AA960FB6F894DEBF6C
:103B60000FBECDBFDF91CF911F9108958058823055
:103B700028F78091D6039091D7038C3D23E09207DC
:103B8000A1F583E08A838AE289834FB7F894DE0146
:103B9000139620E03EE051E2E32FF0E0509357000F
:103BA000E49120FF03C0E295EF703F5FEF708E2F2E
:103BB00090E0EA30C0F0C7968D939D932F5F24313B
:103BC00059F74FBF8091E800877F8093E8006AE251
:103BD00070E0CE0101960E94FC038091E8008B7793
:103BE0008093E800ABCFC096E7CF4091D8035091C7
:103BF000D903292F33272330310509F43FC078F545
:103C00002130310509F466C08FE590E0ECEFF3E078
:103C10002230310509F092CF2091E800277F2093D0
:103C2000E8002091DA033091DB038217930708F450
:103C30009C0140E02115310509F051C041114FC0F0
:103C40008091E80082FDC9CF8091DC03882329F2AE
:103C5000853019F28091E80083FFF2CFBECF213288
:103C6000310581F12232310509F068CF452B09F089
:103C700065CF88EF90E0E4E0F3E0CECF9927813084
:103C80009105C1F0009759F0029709F057CFEDE682
:103C9000F4E0E4918E2F90E0EDE6F4E007C0E5EA71
:103CA000F4E0E4918E2F90E0E5EAF4E0009709F06B
:103CB000B3CF44CFEDE7F4E0E4918E2F90E0EDE751
:103CC000F4E0F4CF452B09F039CF89E090E0EEE045
:103CD000F4E0A2CF82E190E0EBE5F4E09DCF8091AB
:103CE000DC03882309F479CF853009F476CF8091FD
:103CF000E80083FD72CF8091E80082FDA1CF809122
:103D0000E80080FF97CF9091F3008091F200211599
:103D1000310519F08830910550F041E0089709F01D
:103D200040E08091E8008E778093E80083CF449153
:103D30004093F1003196215031090196E8CF803847
:103D400009F0FCCE8091E800877F8093E8008091A5
:103D5000D3038093F1009BCE8111F0CE1091D60356
:103D6000123008F0EBCE8091E800877F8093E80066
:103D70001093D3030E944A03112311F084E005C07D
:103D80008091E30087FDFACF81E08093DC0342E27B
:103D900061EC81E00E94690342E061EC82E00E94F4
:103DA000690342E160E884E00E94690342E161E85E
:103DB00083E00E946903C2CE8091D603813009F06E
:103DC000BDCE81E0933009F080E08093D203109261
:103DD000E9008091E800877F8093E8000E944A0311
:103DE000ADCE0F931F93CF93DF9380917D038823F4
:103DF00041F010927D0380917C030E9458050E943F
:103E000031058091780390917903A0917A03B09164
:103E10007B038F309105A105B10541F580917703B2
:103E200091E08927809377031092780310927903A9
:103E300010927A0310927B0310925F0310925E033C
:103E400010925D030E947A1B10925C03ECEDF2E08D
:103E50008CE593E04FEF5FEF60E070E041935193AA
:103E6000619371938E179F07C9F759C083309105ED
:103E7000A10520E3B20721F580917603823041F05D
:103E8000109275038093740382E080937603CCCF05
:103E9000809174038093760300E613E0D0E0C0E0E5
:103EA000809175038C171D0609F01CF40E947A1B83
:103EB000BBCFD8018D918D010E949E0E2196F0CF2F
:103EC00083339105A105B10521F481E00E940E0A1A
:103ED000ABCF2091760381309105A105B10539F46E
:103EE000211102C081E0D1CF109276039DCF213005
:103EF00059F580FF33C010925F0310925E03109259
:103F00005D03109278031092790310927A03109255
:103F10007B0380919003882369F18130D1F186E0A1
:103F2000EAE8F3E0DF01282F1D922A95E9F7EEE792
:103F3000F3E0A4E8B3E001900D928A95E1F7DF91F8
:103F4000CF911F910F910895223041F083709927EE
:103F5000AA27BB27892B8A2B8B2B21F080E00E947C
:103F60000E1962CF2111C7CF80917703882319F2F0
:103F700081E0F5CFCAE8D3E00EE813E08991811122
:103F80000E94CD0D0C171D07C9F780E00E94CD0DD2
:103F9000C6CF80918A03806880938A03CAE8D3E001
:103FA00000E913E089910E94CD0D0C171D07D1F790
:103FB000B6CF0F931F93CF93DF9380910A01909117
:103FC0000B01892B71F0809184018F5F80938401B4
:103FD000811107C00E940F1B90E090930B0180930A
:103FE0000A010EEB12E0C0E08C2F0E94C50CD7E056
:103FF000DC0F8D2F0E94C50C8C2F0E942A0DF8011A
:1040000081938F018D2F0E942A0DF80186830E94D3
:10401000140DCF5FC73041F780917603813089F46A
:1040200080915F03882369F080915C0381110FC048
:1040300080918501909186010E945D048F3E92409F
:1040400000F581E0DF91CF911F910F91089580914C
:104050008501909186010E945D044A9790F380E06B
:104060000E940E190E9443080E947A1B0E946C0451
:10407000909386018093850180915C038111E1CF4B
:10408000D7CF81E080935C03DCCF96E0EEE7F3E0EE
:10409000DF01292F1D922A95E9F7EAE8F3E0DF0115
:1040A000292F1D922A95E9F7E4E8F3E0DF011D923C
:1040B0009A95E9F780939003682F8DE090E00C9437
:1040C000FD2DCF9384E090E00E94EF2DC82F82E277
:1040D00090E00E94EF2D982F8C2FCF91089569EEDC
:1040E0007EEF90E080E00E941B2E60E082E090E096
:1040F0000E94FD2D60E083E090E00E94FD2D109273
:10410000700210927102109272021092730260E0BB
:1041100084E090E00E94FD2D60E082E290E00E9449
:10412000FD2D60E085E090E00E94FD2D60E086E0DE
:1041300090E00E94FD2D6FEF87E090E00E94FD2D42
:1041400040E050E0BA0188E090E00E940F2E60E06D
:104150008DE090E00E94FD2D40E050E0BA0188E142
:1041600090E00E940F2E60E087E190E00E94FD2D1C
:1041700040E050E0BA018CE190E00E940F2E70E028
:1041800060E080E290E00E941B2E40E050E0BA0127
:1041900088E190E00E940F2E40E050E0BA018FE0ED
:1041A00090E00E940F2E40E050E0BA0183E190E0E1
:1041B0000C940F2E4F925F926F927F928F929F92EC
:1041C000AF92BF92CF92DF92EF92FF920F931F9325
:1041D000CF93DF9300D000D00F92CDB7DEB77C0134
:1041E000FC0183819481892B39F010810181812F19
:1041F00080238F3F09F067C50F900F900F900F90AD
:104200000F90DF91CF911F910F91FF90EF90DF9072
:10421000CF90BF90AF909F908F907F906F905F9066
:104220004F9008950E94D108D82E682F89819A81D5
:104230000E947109E02FF0E02EE0D29EE00DF11D0A
:104240001124EE0FFF1FEE0FFF1FE10FF11DEE0F08
:10425000FF1FEC54FE4F0591149100334AE51407FB
:1042600009F4BDC0B0F5C8019A558A9708F4E2C0B8
:10427000043FECE51E0709F4ACC108F043C0093D5A
:104280002CE5120709F4A1C10A3D4CE5140709F415
:10429000ACC1083D8CE5180709F042C026E241EEAA
:1042A00061EEC7010F900F900F900F900F90DF916C
:1042B000CF911F910F91FF90EF90DF90CF90BF9023
:1042C000AF909F908F907F906F905F904F900C94E5
:1042D000700F01339AE5190759F6B70181E39AE5A2
:1042E0000E94CC0A882309F487CFF70140815181CD
:1042F0006281738184810E947106882309F47CCFD6
:1043000081E081C0063F9CE5190709F46AC108F401
:1043100064C127E245EE66EE073FFCE51F0709F2A0
:10432000F7018281882309F4DFC41092DF03023091
:10433000FCE51F0708F43AC206312CE5120738F0F5
:1043400098012B5F3C452930310508F02FC20E94AF
:1043500061209093AA038093A90300314CE51407D0
:1043600009F4F3C108F081C108309CE5190709F48C
:10437000E2C108F050C10430FCE51F0709F4D3C1C5
:1043800008F036C102304CE5140709F4C2C103300D
:104390001C4509F4C4C16091A9031091AA0384E0EB
:1043A00090E00E94FD2D612F82E290E00E94FD2DA1
:1043B0000F900F900F900F900F90DF91CF911F9162
:1043C0000F91FF90EF90DF90CF90BF90AF909F90B4
:1043D0008F907F906F905F904F900C947A1BB701F5
:1043E00080E39AE50E94CC0A882309F405CFF701FF
:1043F000408151816281738184810E94710688238A
:1044000009F4FACE80E00F900F900F900F900F906C
:10441000DF91CF911F910F91FF90EF90DF90CF90A0
:10442000BF90AF909F908F907F906F905F904F90D4
:104430000C944520B701C8010E94CC0A882309F4D6
:10444000DBCED0909003F70140815181628173816E
:1044500084810E947106A82FDD20A9F0F1E0DF160B
:1044600009F44DC010911002F70140815181628121
:10447000738184810E947106882309F47BC01F5FC9
:1044800010931002B9CEF801FF27EC58FE4F0491AB
:10449000802F8295869586958370AA2371F0A82F28
:1044A000B0E0FD01E258FC4F8081802B8083A6574D
:1044B000BC4FEC91E02BEC93D5CF96E0EEE7F3E028
:1044C000AAE8B3E001900D929A95E1F7A82FB0E029
:1044D0009D012C573C4FF9018081402F482391E0EA
:1044E00009F090E090930F02902F90958923F901A5
:1044F0008083A258BC4F0C91E92FE023DCCF802FA2
:1045000067E00E94B52D492F90E026E030E0241BA3
:10451000310941E050E001C0440F2A95EAF7BC019F
:1045200062587C4FFB012081AA2349F0242B208371
:10453000FC01E657FC4F9081942B908393CF36E09B
:10454000EEE7F3E0AAE8B3E001900D923A95E1F7C7
:10455000FC01EC57FC4F8081382F342391E009F0A7
:1045600090E090930F02942F90958923808392235B
:10457000FB01E3CF115011162CF51093100280911E
:104580000F02882309F438CE0E94F11E80910F0299
:10459000882309F431CE0F900F900F900F900F9059
:1045A000DF91CF911F910F91FF90EF90DF90CF900F
:1045B000BF90AF909F908F907F906F905F904F9043
:1045C0000C94F11E10921002DACF27E245EE65EE50
:1045D00068CE26E241EE60EE64CE27E245EE64EE60
:1045E00060CE26E241EE62EE5CCE28E241E0EFCF03
:1045F0008091A903806106309CE5190709F48CC0FD
:104600008091A903886007301C4508F485C080911B
:10461000A903806281C08091A9038D7F0C30FCE5E5
:104620001F0709F479C070F48091A9038C600A30E7
:104630004CE5140709F470C008F481C08091A90307
:104640008E7F6AC08091A903877F0E309CE5190791
:1046500009F462C08091A9038B7F0F301C4508F4D8
:104660005BC08091A9038F7E57C00C3FFCE51F07FC
:1046700009F45DC030F503314CE5140709F46DC051
:1046800078F401319CE5190709F463C002311C4537
:1046900009F081CE0E947A1B8091A9038F773CC0DC
:1046A0000531FCE51F0709F460C008F474C080916F
:1046B000AA0381600B3F1C4509F06DCE8093AA03CD
:1046C0006ACE01158DE5180709F44BC088F4809176
:1046D000AA038D7F0E3FECE51E0781F38091AA03AC
:1046E0008E7F0F3F1C4550F38091AA038360E6CF75
:1046F00002302DE5120709F457C008F442C060E00B
:1047000003301D4509F047CE8EE090E00E94FD2D5C
:1047100042CE8091A90381608093A9033CCE809111
:10472000A9038260F9CF8091A9038460F5CF8091BD
:10473000AA038260C3CF8091A9038064EDCF0E9459
:104740007A1B8091A9038068E7CF8091A9038F7DB0
:10475000E3CF8091A9038F7BDFCF8091A903837F73
:10476000DBCF8091AA038C7FA9CF8091A90382FB24
:10477000992790F921E0922790FB82F990FB83F929
:10478000CBCF8091AA03982F909591708E7F892B23
:1047900090FB81F993CF0E947A1B9091A903892FF6
:1047A00097FB87F98058B8CF61E0AECF06319CE522
:1047B000190709F0A4C280916F028A7A91E009F486
:1047C00090E09093110281111AC089E20E94920830
:1047D0000F900F900F900F900F90DF91CF911F913E
:1047E0000F91FF90EF90DF90CF90BF90AF909F9090
:1047F0008F907F906F905F904F900C94430885E36B
:10480000E5CF85E379C20E947A1BEFEFF4E32CE059
:10481000E150F0402040E1F700C0000081E08093CB
:10482000E00080E28093D8001092C9008FE19EE4FE
:104830000197F1F700C0000087E090EBDC01809366
:10484000E0039093E103A093E203B093E30388E1D4
:104850009CE00FB6F894A895809360000FBE9093EB
:104860006000FFCF0F900F900F900F900F90DF918F
:10487000CF911F910F91FF90EF90DF90CF90BF905D
:10488000AF909F908F907F906F905F904F900C941F
:104890006F20812F902F0E944A09D82E49C2F92FEC
:1048A000FF70CF2E907F19F0C29440EFC4228D2D5F
:1048B0002223C9F0CC2069F090E29D0D983010F0D1
:1048C000D1100BC080916F02C82AC0926F020E9463
:1048D00043088D2D0E949E0E18C080916E02C82A3A
:1048E000C0926E02F4CF0E944E0ACC2071F0C094A8
:1048F00080E28D0D883010F0B11031C080916F02D0
:10490000C822C0926F020E94430808501109043067
:10491000110510F40E94250585E0F701DE011196CE
:1049200001900D928A95E1F789819A810E944A0946
:10493000EA81F0E09EE0899FE00DF11D1124CF0196
:10494000880F991F880F991FE981E80FF92FF11D32
:10495000EE0FFF1FEC54FE4F859194914DCC80914A
:104960006E02C822C0926E02CECF892F8F70907FC8
:10497000903211F08295807F9D2D41E0B4120EC0DF
:10498000222331F0333008F0C0CF0E94440ABDCF5B
:10499000323008F0BACF0E94390AB7CF222319F07B
:1049A000332399F396CF3323B1F3993349F48FEF3F
:1049B00097EEE3E081509040E040E1F700C0000056
:1049C0008D2D0E944E0AA1CF892F869586958370E2
:1049D00061F0813009F099CF8D2D9370211102C0C3
:1049E00090E080E00E94F90490CF8D2D937021110A
:1049F00002C090E080E00E940F0587CF8D2D22231A
:104A000029F00E9417060E9431057FCF0E945805A9
:104A1000FACF892F837009F06CC0211176CF8D2DCC
:104A2000829586958770880F880F6D2D6F70462E42
:104A3000512C712C612C082E04C0440C551C661C92
:104A4000771C0A94D2F740E050E0BA01D4FE0FC0C0
:104A50004FE050E060E070E004C0440F551F661F57
:104A6000771F8A95D2F740955095609570959695E9
:104A700096959370923019F1A8F5809070029090FD
:104A80007102A0907202B0907302913069F04429D3
:104A9000552966297729CB01BA01682179218A2114
:104AA0009B210E942F0A31CF84289528A628B72859
:104AB000CB01BA01682979298A299B29F2CF442997
:104AC0005529662977298090700290907102A090F4
:104AD0007202B0907302CB01BA01682579258A254C
:104AE0009B25DFCFCB01BA01642975298629972937
:104AF000D8CF8695222311F0892F8170882309F45D
:104B000004CF8D2D829586958770880F880F6D2D27
:104B10006F70462E512C712C612C082E04C0440C51
:104B2000551C661C771C0A94D2F740E050E0BA018D
:104B3000D4FE0FC04FE050E060E070E004C0440FCE
:104B4000551F661F771F8A95D2F74095509560953F
:104B50007095969596959370923019F1A8F580907E
:104B6000740290907502A0907602B0907702913016
:104B700069F04429552966297729CB01BA016821B2
:104B800079218A219B210E94E109BFCE84289528A2
:104B9000A628B728CB01BA01682979298A299B2937
:104BA000F2CF442955296629772980907402909084
:104BB0007502A0907602B0907702CB01BA01682509
:104BC00079258A259B25DFCFCB01BA016429752978
:104BD00086299729D8CF9F70C92E222329F0892FA3
:104BE0000E940E0A8D2DD1CE8D2D0E94390A8C2D5A
:104BF0000E94EB098ACE8D2DF1EFDF1609F442C039
:104C0000FD1558F040EFD416F1F0222309F44BC003
:104C100031115FCE892F8F713AC0E2EFDE16D1F1EC
:104C2000F3EFDF12F2CF2223D1F1292F2F7161E0B0
:104C300070E080E090E004C0660F771F881F991F26
:104C40002A95D2F7A0CF2223C9F0323008F05DCEEA
:104C5000292F2F7161E070E080E090E004C0660FC2
:104C6000771F881F991F2A95D2F780907402909021
:104C70007502A0907602B0907702A1CF333008F091
:104C800044CEE6CF892F8F71222309F4B1CF0E9441
:104C90000E0A3BCE892F8F712223C9F3A9CF60E082
:104CA00070E0CB0170CF332359F0893309F088CEFF
:104CB0002FEF47EE83E0215040408040E1F77ECE69
:104CC000892F8F7195CF85E0DE01119601900D92AD
:104CD0008A95E1F7F701228189819A812111A2CA7F
:104CE0000E944A09D82EA6CA06311C4589F4809133
:104CF0001102811186CD89E20E94670869CD0115F4
:104D00002CE5120709F47FCD0F3D1C4509F4AACD0F
:104D1000F70110810181882309F4BBCD812F902FE9
:104D20000E94D108D82E682F812F902F0E947109E0
:104D3000E02FF0E02EE0D29EE00DF11D1124EE0FE9
:104D4000FF1FEE0FFF1FE10FF11DEE0FFF1FEC54D1
:104D5000FE4F859194910E94D406D82EB82EF7016B
:104D60002281358132953F70892F82958F70082F6F
:104D700010E08C3008F0C9CDF801EB58F14D0C94DF
:104D8000D52D1F93CF93DF9380913A02807FA9F4B2
:104D900080913702882389F080916C02D0913B0288
:104DA0006091350270913602A0913802B0913902BB
:104DB000C62FC72316E0D81304C0DF91CF911F91EF
:104DC000089590E0109711F0CF3F19F40196877085
:104DD000F2CF189F9001199F300D1124F901E45C66
:104DE000FD4F41814713F2CF40814613EFCF4281FF
:104DF0004111ECCF438154814A1B5B0B483C510568
:104E000028F780913A028F70806180933A02F9010D
:104E1000EF5BFD4F80818F708061808385E392E03E
:104E20000E94DA20DF91CF911F910C94C708AF92B6
:104E3000BF92CF92DF92EF92FF920F931F93CF9387
:104E4000DF93CDB7DEB761970FB6F894DEBF0FBE24
:104E5000CDBF8C0185E0F801DE011D9601900D9219
:104E60008A95E1F7F801E28085E3A82E82E0B82E6A
:104E700060913802709139026115710509F432C1EF
:104E80009091350240913602892F84238F3F09F497
:104E900029C120813181C380D480F0903702F6018E
:104EA000E61BF70BFF2009F4E8C080913A02582F67
:104EB000507FE83CF10508F0ABC0511177C0FE2CE3
:104EC000431321C092131FC0E1101DC08F70806179
:104ED00080933A02C5010E94DA2080913A02F801DB
:104EE00085838F2D61960FB6F894DEBF0FBECDBFC0
:104EF000DF91CF911F910F91FF90EF90DF90CF90B6
:104F0000BF90AF900895CD2829F0822F83238F3F43
:104F100009F003C180E0F82FF170DF2E80FF3CC064
:104F200080916C0240913B0256E0841315C02D879E
:104F30003E878D859E850E942F09292F22952F70EF
:104F40002230F0F0243018F59F70F1F0F8019581CF
:104F5000907FD1F4D12C1EC090E0589FF001599F52
:104F6000F00D1124E45CFD4F6181361306C06081B1
:104F7000261303C06281E6120FC001968770D5CF59
:104F80009F7011F0882331F3805E883018F3C801D8
:104F90000E94DA20FD2CA5CFEE2009F4A2CF80914B
:104FA0003A02816080933A02F12C9BCF431306C0F2
:104FB000921304C0F801EE2009F479C0C8010E94E0
:104FC0009D09882309F1EE20F9F080913A028032A0
:104FD00070F0209135023091360238872F83198680
:104FE000DB86CA868C87CE0107960E94DA2086E08F
:104FF000F801A5E3B2E001900D928A95E1F70E94D5
:10500000C126FF24F3946DCFC8010E94DA20F9CFA6
:1050100051110AC085E392E00E94DA2086E0F50192
:1050200011928A95E9F7C0CF43130FC092130DC0B8
:10503000E1100BC0F8018583C8010E94DA2086E0E8
:10504000F50111928A95E9F74CCFC8010E949D099C
:105050008823D1F2EE20C1F280913A02803238F2F8
:1050600020913502309136023A8329831B82DD82FA
:10507000CC828E83CE010196B8CFE83CF105F8F6DC
:10508000FE2CEE2009F243131FC092131DC0809125
:105090003A0280FD10C0982F907F69F0F801858357
:1050A000903F31F0982F907F905F8F70892B858390
:1050B000C8010E94DA2086E0F801A5E3B2E0019081
:1050C0000D928A95E1F70DCFC8010E949D098111CB
:1050D0008ECF80913A02816080933A02C8010E948B
:1050E000DA20FFCEEE2009F48FCFC8010E949D097F
:1050F000F82E882309F488CF86E0F801A5E3B2E012
:1051000001900D928A95E1F78091350290913602D7
:105110000E942F090E94C126E4CE81E08E25FBCE9D
:105120001F93CF93DF93CDB7DEB767970FB6F89491
:10513000DEBF0FBECDBF4B8B5C8B6D8B7E8B8F8BA1
:10514000611110926E021A8A198A85E0FE01739627
:10515000DE011D9601900D928A95E1F786E0FE0131
:105160003D96DE01179601900D928A95E1F7CE01EA
:1051700007960E941727882389F016E080916C0219
:1051800090913B02891349C067960FB6F894DEBF31
:105190000FBECDBFDF91CF911F91089586E0FE0134
:1051A0003796DE01119601900D928A95E1F78A8576
:1051B0009B85892B11F38F81988589238F3FE9F295
:1051C00020913B0230E0C9010196877099274091F8
:1051D0006C024817190671F40E947A1B10923B0268
:1051E00010926C0286E0E5E3F2E0DF011D928A9501
:1051F000E9F7C3CF96E0929FD001939FB00D1124A1
:10520000A45CBD4FFE01319601900D929A95E1F795
:1052100080933B020E94C708B0CF819FC001112438
:10522000845C9D4F0E941727882309F4ADCF80919D
:105230006C0290E001968770992780936C029ECF54
:105240001F920F920FB60F9211242F933F934F93FB
:105250005F936F937F938F939F93AF93BF93CF93FE
:10526000DF93EF93FF93D091E900DF708091EC0022
:10527000C82FC17080FDC0E81092E9008091F00055
:10528000877F8093F00078940E94911B1092E90030
:105290008091F00088608093F000CD2BCF70C09398
:1052A000E900FF91EF91DF91CF91BF91AF919F9175
:1052B0008F917F916F915F914F913F912F910F90BF
:1052C0000FBE0F901F9018951F920F920FB60F925E
:1052D00011242F933F934F935F936F937F938F93FB
:1052E0009F93AF93BF93EF93FF938091E10082FF71
:1052F00009C08091E20082FF05C08091E1008B7FB0
:105300008093E1008091DA0080FF24C08091D80072
:1053100080FF20C08091DA008E7F8093DA00809138
:10532000D90080FF9BC080E189BD82E189BD09B4BD
:1053300000FEFDCF81E08093DC038091AE038111FC
:1053400009C00E949E020E949B038091E20084603B
:105350008093E2008091E10080FF17C08091E2001D
:1053600080FF13C08091E2008E7F8093E2008091E5
:10537000E20080618093E2008091D8008062809397
:10538000D80019BC85E08093DC038091E10084FFA4
:1053900029C08091E20084FF25C080E189BD82E1BF
:1053A00089BD89B5982F917080FFFBCF8091D8007F
:1053B0008F7D8093D8008091E1008F7E8093E10003
:1053C0008091E2008F7E8093E2008091E200816014
:1053D0008093E2008091D303882309F445C084E0E0
:1053E0008093DC038091E10083FF27C08091E2007D
:1053F00083FF23C08091E100877F8093E10082E0FA
:105400008093DC031092D3038091E1008E7F809320
:10541000E1008091E2008E7F8093E2008091E200C3
:1054200080618093E20042E060E080E00E946903D6
:105430008091F00088608093F000FF91EF91BF9120
:10544000AF919F918F917F916F915F914F913F911C
:105450002F910F900FBE0F901F90189519BC1092AE
:10546000DC031092AE0376CF8091E30087FD93E0DA
:105470009093DC03B7CF78941F921FB61F9211242C
:105480008F939F93AF93BF938091A5039091A603B1
:10549000A091A703B091A8030196A11DB11D80930F
:1054A000A5039093A603A093A703B093A803BF916D
:1054B000AF919F918F911F901FBE1F9018951F92C3
:1054C0001FB61F9211248F939F93AF93BF93809128
:1054D000A403811113C08091A5039091A603A0910C
:1054E000A703B091A8034196A11DB11D8093A50308
:1054F0009093A603A093A703B093A803BF91AF9185
:105500009F918F911F901FBE1F901895CDB7DEB74A
:1055100062970FB6F894DEBF0FBECDBF84B7877F0A
:1055200084BF0FB6F894A89580916000886180933D
:105530006000109260000FBE80E890E00FB6F89413
:1055400080936100909361000FBE85B7806885BF2E
:1055500085B7806885BF8FE896E09093630180935C
:1055600062010E949E020E949B038091E20084607F
:105570008093E20078948091DC038823A1F010915D
:10558000E9001F709091EC00892F817090FD80E8F8
:10559000182B1092E9008091E80083FD0E94911B76
:1055A0001F701093E90082E084BD93E095BD9AEFEF
:1055B00097BD80936E000E940F1B90E090930B01AB
:1055C00080930A010E94140D0E94230D80EB92E04B
:1055D000E8E7F2E04EEB52E0DA011D92AD01DC01AA
:1055E0001D92CD0110821182128213823496B2E094
:1055F0004C3C5B0789F790E080E00E94F72D893EE4
:105600009E4F11F00E946F2082E090E00E94EF2DEB
:105610008093CD020E9461209093AA038093A903F6
:1056200083E090E00E94EF2D682F70E090E080E032
:105630000E942F0A81E00E9445203F988AB18F7016
:105640008AB96E98479A8BB1806F8BB9769A90E041
:1056500080E00E94F72D893E9E4F11F00E946F203E
:105660008DE090E00E94EF2D809390036091A9035C
:1056700060686093A9031091AA0384E090E00E94FF
:10568000FD2D612F82E290E00E94FD2D80E091E0EF
:105690009093A1038093A00382E090E09093200177
:1056A00080931F018091DC03843069F48091210193
:1056B00090912201A0912301B0912401892B8A2B82
:1056C0008B2B09F06CC188E1E82EF12C90E4D92EE7
:1056D00020E1C22E32E1B32E8091DC03853049F403
:1056E0008091DC03853009F47EC10E947A1B0E9400
:1056F00025050E94D91F882359F08FB7F89440914F
:10570000A5035091A6036091A7037091A8038FBFD2
:10571000EEECF2E0AEEBB2E010E000E0302F8D9165
:105720009191981709F4ACC1292F282790E0AA2459
:10573000A3944A2D422309F49EC199873A878A216E
:1057400091E009F490E09B870E946C048160782FBF
:105750009D878C8749855A856B858D850E94902809
:10576000F801E253FD4F8081A826A08286E0E8E997
:10577000F3E0DE01119601900D928A95E1F7A09079
:105780009A0390909B0310919C0300919D031092AB
:105790009A0310929B0310929C0310929D038A2DF2
:1057A000892909F448C080919603909197030E943B
:1057B0005D049C0190919203992309F4D2C1253193
:1057C0003105C8F19F3F19F09F5F90939203AA2083
:1057D00059F00E94F3059FEF1A140CF491E0899F91
:1057E000802D112480939A03992059F00E94F3058B
:1057F0009FEF19140CF491E0899F802D1124809360
:105800009B0330919A033323B1F020919B03222311
:1058100091F045EB3403C0011124992309F447C1E9
:1058200090939A0345EB240390011124332309F448
:1058300042C130939B03812F802B09F448C0809193
:105840009403909195030E945D049C0190919103B3
:10585000992309F482C125363105C8F19F3F19F01B
:105860009F5F90939103112359F00E94D1059FEF00
:1058700011160CF491E0899F802D112480939C03D4
:10588000002359F00E94D1059FEF10160CF491E00F
:10589000899F802D112480939D0330919C03332395
:1058A000B1F020919D03222391F045EB3403C00118
:1058B0001124992309F403C190939C0345EB24031D
:1058C00090011124332309F4FEC030939D0380918D
:1058D0009A0390919B03892B90919C03892B909123
:1058E0009D03892B11F00E94310586E0FE0131965F
:1058F000A8E9B3E001900D928A95E1F70E94250591
:105900009091CC02891721F00E9425058093CC024A
:105910008091DC03843019F54090210150902201E0
:1059200060902301709024014114510461047104BA
:10593000B1F0809113018F708093E9009091E8009D
:1059400092FF0DC09091F3002091F200392F232B8C
:1059500009F0BDC08091E8008B778093E8008091CA
:10596000DC03843009F0B8CE8091210190912201AE
:10597000A0912301B0912401892B8A2B8B2B09F450
:10598000ABCE80910E018F708093E9008091E8008A
:1059900080FFA2CE8DE091E00E94EE029DCE80912C
:1059A00018018F708093E90088E0E8E2F1E0DE0101
:1059B000119601900D928A95E1F750E040E068E081
:1059C00070E0CE0101960E94200350E040E062E0CA
:1059D00070E08FE191E00E9420038091E8008E77D3
:1059E0008093E80070CE8091DC03843009F110923E
:1059F000A4030FB6F894A895E09260000FBED09271
:105A0000600083B7817F846083BF83B7816083BF79
:105A10007894889583B78E7F83BF0FB6F894A89546
:105A200080916000886180936000109260000FBEDA
:105A30008091D203882309F453CE0E940F1B90E07B
:105A400090930B0180930A010E94140D0E94230D74
:105A5000EEEBF2E0119282E0EC3CF807D9F70E94FD
:105A6000D91FEEEBF2E08191811161C0A2E0EC3C24
:105A7000FA07C9F735CE9F5FAA0C943009F059CECA
:105A80000F5F1F4F0E30110509F048CE8FEF8E8744
:105A90008F87188A0E946C048160782F9A8B898B7B
:105AA0004E855F8568898A890E9490285FCE81E053
:105AB00080939A03B7CE81E080939B03BCCE81E0B4
:105AC00080939C03FBCE81E080939D0300CF909157
:105AD000F3002091F200392F2115310509F43FCF51
