:100000000C9455020C949C020C949C020C949C023F
:100010000C949C020C949C020C949C020C949C02E8
:100020000C949C020C949C020C94DE290C949A294A
:100030000C94D92A0C949C020C949C020C949C0263
:100040000C949C020C949C020C949C020C949C02B8
:100050000C949C020C94B52A0C949C020C949C0267
:100060000C949C020C949C020C949C020C949C0298
:100070000C949C020C949C020C949C020C949C0288
:100080000C949C020C949C020C949C020C949C0278
:100090000C949C020C949C020C949C020C949C0268
:1000A0000C949C020C949C020C949C02536570204E
:1000B000313320323032310076312E313A20436CE8
:1000C00061794D0000000000000000000000000009
:1000D0000000000000000000000000000000000020
:1000E00000000000000000007E0F00D4FFFFFFC7EB
:1000F0000000007800000000000000002A2B28000B
:1001000000000000000000000000000000000029C6
:10011000000000002C1E3420212224342627252E06
:10012000362D3738271E1F2021222324252633333E
:10013000362E37381F0405060708090A0B0C0D0E6A
:100140000F101112131415161718191A1B1C1D2F36
:100150003130232D350405060708090A0B0C0D0E56
:100160000F101112131415161718191A1B1C1D2F16
:100170003130354C00D0D0D0D0D0D00101020408AD
:1001800010204142444848000000484850608182A5
:10019000848890A0C1C2C4D0D0D0D0D0D0C8000034
:1001A000000000000000000000000000000000004F
:1001B000000000000000165A175A195A00001A5A77
:1001C0001B5A185A00001C5A1D5A235A00001E5A66
:1001D0001F5A00000000205A215A00000000225A35
:1001E000295A000000000000000000000000115A21
:1001F000125A105A00000D5A0E5A0F5A00000B5A8C
:100200000C5A015A0000095A0A5A00000000075A05
:10021000085A00000000005A155A000000000000B3
:100220000000000000001C000B0025020000180068
:100230000D004C0000000C000E00105000001200D9
:100240000F00000000001300330000000000280031
:100250003402000000000000000000000000170051
:100260000A0028420000150009002C0000000800C8
:100270000700E20000001A00160000000000140051
:10028000040000000000E100E000000000000000A9
:1002900000000000000023001100250200002400DF
:1002A00010004C000000250036021050000026000F
:1002B00037020000000027003802000000002D0077
:1002C000E500000000000000000000000000220027
:1002D000050028000000210019002C00000020006B
:1002E0000600E20000001F001B00000000001E00CE
:1002F0001D0000000000E100E00000000000000020
:100300000000000005010906A1018501050719E0AB
:1003100029E71500250195087501810295017508E9
:1003200081010507190029FF150026FF00950675B4
:1003300008810005081901290595057501910295A7
:100340000175039101C005010902A101850209019E
:10035000A100050919012908150025019508750155
:1003600081020501093009311581257F9502750843
:10037000810609381581257F950175088106050CD0
:100380000A38021581257F950175088106C0C005D0
:10039000010980A101850319012AB700150126B7BB
:1003A00000950175108100C0050C0901A1018504AB
:1003B00019012AA002150126A002950175108100DD
:1003C000C005010906A1018505050719E029E71502
:1003D0000025019508750181020507190029EF150F
:1003E00000250195F075018102050819012905957F
:1003F0000575019102950175039101C009025F0025
:10040000030100A0FA090400000103010100092111
:100410001101000122F8000705810320000A080BE2
:1004200001020202010009040100010202010005AB
:10043000240010010424020205240601020705829B
:10044000030800FF09040200020A00000007050477
:10045000021000050705830210000512010002EFDB
:10046000020108EDFE37130100010200010E0347EF
:100470000065006F007200670069000000260367D6
:1004800000200048006500610076007900200049E6
:10049000006E0064007500730074007200690065EE
:1004A0000073000000040309040011241FBECFEFF5
:1004B000DAE0DEBFCDBF04B603FE27C080912A0478
:1004C00090912B04A0912C04B0912D048730904B77
:1004D000A740B04BD1F410922A0410922B04109232
:1004E0002C0410922D0414BE84B7877F84BF0FB6EE
:1004F000F894A895809160008861809360001092C4
:1005000060000FBEE0E0F8E3099511E0A0E0B1E083
:10051000E0EBFFE502C005900D92A236B107D9F7D6
:1005200024E0A2E6B1E001C01D92AA32B207E1F7D1
:100530000E94002B0C94882F0C940000E8EDF0E052
:1005400080818E7F80831092E2001092DA001092F8
:10055000E100A0EEB0E08C9181608C9380818F7778
:10056000808319BCA7EDB0E08C918E7F8C93808145
:100570008F7E80831092F80308952091E4003091DB
:10058000E50095E6A9012091EC00822F817020FF03
:1005900006C08091E80080FF06C080E008952091A9
:1005A000E80022FD1AC080912604882389F0853056
:1005B00089F08091EB0085FD0FC02091E40030911F
:1005C000E50042175307F9F29150E1F684E00895EF
:1005D00082E0089583E0089581E0089580912604E3
:1005E000843061F58091210190912201A091230135
:1005F000B0912401892B8A2B8B2B01F180910E0164
:100600008F708093E9009091F3008091F200892B24
:1006100011F480E008959091E8008091E8008E77D1
:100620008093E80095FDF5CF0E94BD02811107C0BF
:100630009091E8009E779093E800089582E00895F5
:10064000EF92FF920F931F93CF937C018B010E9437
:10065000BD02C82F811117C08091E80085FD0BC035
:100660008091E8008E778093E8000E94BD02882385
:1006700099F3C82F08C0F70181917F018093F100A1
:100680000150110949F78C2FCF911F910F91FF90C5
:10069000EF90089580911E0487FF13C08091E800B9
:1006A00082FF06C08091E8008B778093E80004C049
:1006B000809126048111F2CF089580912604882329
:1006C000D9F38091E80080FFF8CF8091E8008E7721
:1006D000ECCF982F9093E900242F762F50E08917C4
:1006E00031F07091EC002091ED005091F00021FD6F
:1006F00007C09F5F973071F78093E90081E008950C
:100700003091EB003E7F3093EB003091ED003D7F68
:100710003093ED003091EB0031603093EB0070933B
:10072000EC002093ED005093F0002091EE0027FDA7
:10073000E0CF80E00895CF92DF92EF92FF920F9387
:100740001F93CF93DF93C8EDD0E088818F7E88839D
:10075000E7EDF0E080818160808384E082BF81E00A
:100760008093F80388818E7F888302EE10E0F80181
:1007700010821092DA0081EEC82ED12CF601108280
:1007800088818F77888388818068888388818F7D3E
:10079000888319BC1092260410921D0410921C0428
:1007A00010921B0490EEE92EF12CF70180818B7FD3
:1007B000808388818160888342E060E080E00E94DD
:1007C0006903F60180818E7F8083F80180818160DA
:1007D0008083808188608083F70180818E7F808321
:1007E000888180618883DF91CF911F910F91FF9065
:1007F000EF90DF90CF900895FC01809124049091B8
:10080000250486179707A0F06115710529F49091CA
:10081000E8009E779093E80090E06115710551F42F
:10082000911108C08091E80082FF34C080E00895F3
:10083000BC01F2CF809126048823C1F18530C1F13B
:100840008091E80083FD30C08091E80082FDEACF0E
:100850008091E80080FFE1CF8091F3002091F200C9
:10086000382F6115710519F02830310558F091E0E5
:100870002830310509F090E02091E8002E77209390
:10088000E800CBCF81918093F100615071092F5F17
:100890003F4FE7CF80912604882341F0853041F017
:1008A0008091E80083FFBECF81E0089582E0089543
:1008B00083E008958091FA0308959C014FB7F8945E
:1008C0008091EF039091F003A091F103B091F203B6
:1008D0004FBF821B930B08952FB7F8948091EF03BD
:1008E0009091F003A091F103B091F2032FBF08950E
:1008F000DF92EF92FF920F931F93CF93DF93F82E27
:100900000E946C048C0184EAE82E94E8D92E10929F
:10091000BC00E092BC000E946C04EC018091BC0021
:1009200087FF0DC08091B900887F8830F9F08091F1
:10093000B900887F8031D1F0CFEFDFEF08C00E948F
:100940006C048C1B9D0BC29748F3CEEFDFEFC80100
:100950000E945D04883E9340D0F2CE01DF91CF919A
:100960001F910F91FF90EF90DF900895F092BB00E0
:10097000D092BC000E946C04EC018091BC0087FF07
:100980000AC08091B900887F883111F08034A1F6C7
:10099000D0E0C0E0E2CF0E946C048C1B9D0BC2979C
:1009A00060F3D3CFCF93DF938093BB0084E8809331
:1009B000BC000E946C04EC018091BC0087FF0FC05A
:1009C0002091B900287F81E090E0283211F490E076
:1009D00080E0919581959109DF91CF9108950E94D2
:1009E0006C048C1B9D0B883E934030F38EEF9FEF81
:1009F000F3CF2091EC033091ED032817390771F004
:100A00009093ED038093EC03E091EA03F091EB0304
:100A1000309721F00084F185E02D0994089520910C
:100A2000E8033091E9032817390771F09093E9033F
:100A30008093E803E091EA03F091EB03309721F013
:100A40000680F781E02D09940895E091EA03F09182
:100A5000EB03309721F00190F081E02D099480E0C4
:100A600008950E946C049C019091E4038091E50339
:100A7000982B21F03093E1032093E0039091E6035B
:100A80008091E703982B21F03093DF032093DE035E
:100A9000E091EA03F091EB03309749F082E0809314
:100AA000E2030480F581E02D82EE93E0099408953D
:100AB0004091E4038D3E59F48091E50387FF0DC01A
:100AC0001092E50341110BC01092DC0308C08E3E6A
:100AD00081F48091E50318169CF3442381F0809102
:100AE000E6039091E703892B09F05AC01092DB03CB
:100AF00008958F3E49F447FFF0CF1092E4038091B0
:100B0000E5038111ECCFE0CF803F19F41416ACF36C
:100B1000E4CF9091E603893F29F41916F4F6109278
:100B2000E603DBCF8A3F19F497FFD7CFF8CF909138
:100B3000E7038B3F29F497FFD0CF1092E703CDCF87
:100B40008C3F19F41916CCF3C8CF9FE0980F98305A
:100B500090F4815F990B21E030E0B90102C0660F8B
:100B6000771F8A95E2F7CB0180959091E303892363
:100B70008093E303B2CF8D3F31F48091DD038E7F0C
:100B80008093DD03AACF8E3F21F48091DD038D7F1A
:100B9000F7CF8F3F09F0A1CF8091DD038B7FF0CF9E
:100BA00008958091DD0380FD16C081FD16C082FD91
:100BB00016C08091DB038823A1F0883280F428E0FE
:100BC000829FC001112468E270E00E941F2F862FCF
:100BD000672B39F0089582E0089584E0089588E055
:100BE000089581E008958091DD0380FD16C081FDA8
:100BF00016C082FD18C08091DC03882391F08C33ED
:100C000090F423E2829FC00111246CE370E00E9403
:100C10001F2F862F672B49F0089588E0089581E102
:100C2000089585E0089583E2089581E008958D3E5A
:100C300031F40E94F30581958093E50308958E3E7B
:100C400019F40E94F305F8CF8F3E31F40E94F305AA
:100C500081958093E4030895803F19F40E94F30581
:100C6000F8CF893F29F40E94D1058093E6030895C7
:100C70008A3F21F40E94D1058195F7CF8B3F31F453
:100C80000E94D10581958093E70308958C3F19F464
:100C90000E94D105F8CF9FE0980F983070F4815FE3
:100CA000990B21E030E001C0220F8A95EAF780918C
:100CB000E303822B8093E30308958D3F31F4809109
:100CC000DD0381608093DD0308958E3F21F48091E0
:100CD000DD038260F7CF8F3FB9F78091DD03846039
:100CE000F1CF90912503890F883008F0885008953E
:100CF000CF93DF9300D000D00F92CDB7DEB76B83D8
:100D00007C838D838C819D81892B21F0CA0189236D
:100D10008F3F51F480E081700F900F900F900F90F3
:100D20000F90DF91CF9108958B81F5CF80E00895EA
:100D30009091F30392FF06C0282F28712830F9F410
:100D4000877F846093FF06C0282F28712831F1F433
:100D5000877E84612091F40320FF06C0382F38710C
:100D60003830D9F4877F816021FF06C0282F287191
:100D70002831D1F4877E816194FD877E0895282FE4
:100D800024712430F9F68B7F8860DCCF282F247102
:100D9000243101F78B7E8861DDCF382F31713130FE
:100DA00019F78E7F8860E0CF282F2171213121F73C
:100DB0008E7E8861E1CFCF93DF93EC01823891057D
:100DC00081F1B0F58133910509F491C020F58932A4
:100DD000910509F485C08A9709F490C0C11520E5F2
:100DE000D20708F0A7C0C11530E4D30708F0F6C059
:100DF000CF3BD10508F089C0C83AD10508F0E1C061
:100E0000C53AD10508F0D5C0C430D105F8F4C130D9
:100E1000D105E1F040C08533910509F45AC0C99766
:100E2000E9F68091F303837089F0C0EED0E00EC044
:100E3000833E910599F170F4803E910501F1823E67
:100E4000910561F68091F30382FD21C0CE01DF910F
:100E5000CF910895863E910561F1873E910571F12C
:100E6000843E910509F0BACF8091F40381FFEECF63
:100E70008091F303C7EED0E084FD0DC0E7CF8091F1
:100E8000F30380FDFEC09091F40390FFDFCFC3EE2B
:100E9000D0E084FFDBCFD0E0C0E0D8CF8091F30377
:100EA00082FDF2C09091F40390FDBFCF84FFCECFBE
:100EB000F2CF8091F30383FDDDCFC8CF8091F303A0
:100EC00083FDE5C09091F40391FFF0CFC4EED0E034
:100ED000BDCF8091F30385FFB9CFC9E2D0E0B6CF93
:100EE0008091F30385FFB2CFC5E3D0E0AFCF80910F
:100EF000F30386FFABCFCAE2D0E0A8CF8091F30323
:100F000086FFA4CFC1E3D0E0A1CFCF3FD10509F048
:100F100058F4CD3ED10508F05FC0CE01805E910946
:100F2000089708F493CFB7CFC11540E2D40708F46F
:100F30008DCFB1CFC11584E5D807A0F4C11593E5D5
:100F4000D90708F07CC0C11522E5D20708F066C0B9
:100F5000C11531E5D30708F444C0DC2FCC27C16F9D
:100F6000D06A74CFC1154AE5D40778F4C11589E574
:100F7000D80708F078C0C11598E5D90708F48BCFD9
:100F8000DC2FCC27C06FD06A61CFCE01905681157F
:100F9000904208F080CF8D2F8F710E94980690E0CC
:100FA000982F882788279F719C012C2BE901D062FC
:100FB0004DCFC55AD0E0C05DDE4FC881D0E0D064CF
:100FC00045CFC85AD0E0CC0FDD1FCD5CDE4F099075
:100FD000D881C02DD4643ACFD06538CFDF70D06AC5
:100FE00035CFCE0164E0969587956A95E1F78370D9
:100FF0002C2F26952695237040E2249F90011124E2
:10100000382B8C2F8370C1E0D0E002C0CC0FDD1FE5
:101010008A95E2F7C22BD32BDC6818CFCE01837000
:10102000992721E030E002C0220F331F8A95E2F7B2
:10103000C695C69580E2C89FE0011124EBCFCE0192
:101040008370992721E030E002C0220F331F8A9578
:10105000E2F7C695C69590E2C99FE0011124C22B24
:10106000D32BDA68F3CE8C2F8F700E94980634E071
:10107000D695C7953A95E1F7CF709C2FEC01D069D2
:10108000E5CEC9E3D0E0E2CEC2EED0E0DFCEC6EEE0
:10109000D0E0DCCE80916E0290916D02892B909110
:1010A0006C02892B80936501E091EA03F091EB03D8
:1010B000309799F080910C01882369F08091F303B7
:1010C00087FF09C085E0809364010280F381E02DF1
:1010D00084E691E0099481E0F6CF089590910C01A7
:1010E0009923D1F09091F30397FF16C0E82FE6956E
:1010F000E695E695EE31E0F4F0E0EC59FE4F282F4E
:10110000277081E090E001C0880F2A95EAF780956A
:101110009281892382830895E7E6F1E09191891312
:1011200003C0DF0111971C9291E0ED36F907B1F78A
:10113000089590910C019923C1F09091F30397FFCA
:1011400014C0E82FE695E695E695EE31F8F4F0E068
:10115000EC59FE4F877021E030E001C0220F8A95E4
:10116000EAF78281822B82830895A7E6B1E0EFEF50
:1011700090E02D91821751F0EF3F19F4211101C039
:10118000E92F9F5F9630A9F7EF3F09F408950E2EDF
:10119000000CFF0BEC59FE4F8383089580916B0286
:1011A00090913A02981301C008958F5F8770FACF2B
:1011B0008F929F92AF92BF92CF92DF92EF92FF9267
:1011C0000F931F93CF93DF938090730290907402DC
:1011D000A0907502B090760240916F02509170021B
:1011E0006091710270917202842A952AA62AB72A08
:1011F000CFE1D0E0E92EF12C2EE0C22E082F10E036
:10120000DC2ED501C4010C2E04C0B695A795979588
:1012100087950A94D2F780FD11C0219788F7D12CC9
:101220008D2DDF91CF911F910F91FF90EF90DF9067
:10123000CF90BF90AF909F908F900895CC9EF0017B
:10124000CD9EF00D1124EE0DFF1DEE0FFF1FEE0FD2
:10125000FF1FE00FF11FEE0FFF1FEC54FE4F8591B3
:1012600094910E94DB060197C1F2DACFCF93DF930E
:10127000EC010E94D8089EE0899FF0011124ED0F37
:10128000F11DEE0FFF1FEE0FFF1FEC0FF11DEE0F14
:10129000FF1FEC54FE4F85919491DF91CF910C94F8
:1012A000DB06990F990F890F982F97708695869571
:1012B000869525E0829FF0011124EF5EFD4F50E0FE
:1012C00040E080E0219130E0092E02C0369527955C
:1012D0000A94E2F721703327042E01C0220F0A94EA
:1012E000EAF7822B4F5F5F4F4530510559F708955C
:1012F000990F990F890F982F977041E001C0440F03
:101300009A95EAF786958695869595E0899FF001EE
:101310001124EF5EFD4F30E020E070E05191DF01DD
:101320001197CB01022E02C0969587950A94E2F799
:10133000817081958527842385278C932F5F3F4F6C
:101340002530310559F70895FC01808191810E9473
:101350003609292F2F7092959F7092509E3078F405
:10136000E92FF0E0E657F04D0C94332F803F19F051
:1013700020F4883E20F481E00895843FE1F380E08A
:101380000895883EC0F3813FD1F7F5CF822F86952F
:1013900086958695089590E080E00E940F0590E084
:1013A00080E00E94F90410926D0210926C020E947B
:1013B0004A0886E0E2EEF3E0DF011D928A95E9F744
:1013C0001092DC031092DB031092DD030C943105C4
:1013D0006093730270937402809375029093760207
:1013E0000C94CB090F931F9341E050E060E070E054
:1013F00004C0440F551F661F771F8A95D2F7CB0193
:10140000BA01609570958095909500917302109146
:101410007402209175023091760260237123822339
:1014200093231F910F910C94E8090F931F9341E0B0
:1014300050E060E070E004C0440F551F661F771F46
:101440008A95D2F78091730290917402A0917502EF
:10145000B09176028A019B01082B192B2A2B3B2B7A
:10146000C901B8011F910F910C94E80960936F02B4
:101470007093700280937102909372020C94CB0966
:10148000882341F0809590916E02892380936E02AB
:101490000C944A080895882339F090916E02982B95
:1014A00090936E020C944A080895882309F459C059
:1014B000823871F40E94250581FF53C089E30E94A0
:1014C00099080E944A0889E30E946E080C944A0811
:1014D000833859F40E94250580FF43C083E50E94AC
:1014E00099080E944A0883E5EFCF843859F40E9496
:1014F000250582FF36C087E40E9499080E944A08A9
:1015000087E4E2CF9CEF980F913AF0F290E2980FC7
:10151000983088F4877021E030E0A90102C0440FC0
:10152000551F8A95E2F7CA01809590916E02892332
:1015300080936E02CBCF9BE5980F933020F490E020
:1015400080E00C940F0598E5980F973120F490E017
:1015500080E00C94F9048D3E20F00E9458050C9414
:10156000310508956093090270930A0280930B027B
:1015700090930C028091A7039091A8039093080286
:1015800080930702E6E2F3E0A7E8B1E041915191D0
:10159000619171914D935D936D937D9383E0E63AF4
:1015A000F807A1F708950F931F93CF93DF93EC01F2
:1015B0008B01FB018281882309F44EC00E946C04D8
:1015C000909386018093850181E08093A903F801BF
:1015D0009281FE01FA55EA32F10508F0D9C1E856C8
:1015E000F04D0C94332F4091C2035091C30360918E
:1015F000C4037091C503992331F144604093C20341
:101600005093C3036093C4037093C5038091A703F1
:101610009091A803FC01EE0FFF1FEE0FFF1FEA5D84
:10162000FC4F4091C2035091C3036091C403709179
:10163000C503408351836283738301969093A8030B
:101640008093A70309C04B7F4093C2035093C30309
:101650006093C4037093C50381E0DF91CF911F9124
:101660000F9108954091C2035091C3036091C40348
:101670007091C503992311F04860C0CF477FE4CF34
:101680004091C2035091C3036091C4037091C5039C
:10169000992311F04061B2CF4F7ED6CF4091C20363
:1016A0005091C3036091C4037091C503992311F055
:1016B0004062A4CF4F7DC8CF4091C2035091C30375
:1016C0006091C4037091C503992311F0416096CFD6
:1016D0004E7FBACF4091C2035091C3036091C403BF
:1016E0007091C503992311F0426088CF4D7FACCF34
:1016F0004091C2035091C3036091C4037091C5032C
:10170000992311F040647ACF4F7B9ECF4091C20362
:101710005091C3036091C4037091C503992311F0E4
:1017200040686CCF4F7790CF4091C2035091C30374
:101730006091C4037091C503992311F051605ECF8D
:101740005E7F82CF4091C2035091C3036091C40376
:101750007091C503992311F0526050CF5D7F74CF13
:101760004091C2035091C3036091C4037091C503BB
:10177000992311F0546042CF5B7F66CF4091C20342
:101780005091C3036091C4037091C503992311F074
:10179000586034CF577F58CF4091C2035091C30354
:1017A0006091C4037091C503992311F0506126CF55
:1017B0005F7E4ACF4091C2035091C3036091C4033E
:1017C0007091C503992311F0506218CF5F7D3CCF13
:1017D0004091C2035091C3036091C4037091C5034B
:1017E000992311F050640ACF5F7B2ECF4091C20342
:1017F0005091C3036091C4037091C503992311F004
:101800005068FCCE5F7720CF4091C2035091C30354
:101810006091C4037091C503992311F06160EECE0D
:101820006E7F12CF4091C2035091C3036091C403F5
:101830007091C503992311F06260E0CE6D7F04CFF3
:101840004091C2035091C3036091C4037091C503DA
:10185000992311F06460D2CE6B7FF6CE4091C20323
:101860005091C3036091C4037091C503992311F093
:101870006860C4CE677FE8CE4091C2035091C30335
:101880006091C4037091C503992311F06061B6CED5
:101890006F7EDACE4091C2035091C3036091C403BE
:1018A0007091C503992311F06062A8CE6F7DCCCEF4
:1018B0004091C2035091C3036091C4037091C5036A
:1018C000992311F060649ACE6F7BBECE4091C20323
:1018D0005091C3036091C4037091C503992311F023
:1018E00060688CCE6F77B0CE4091C2035091C30335
:1018F0006091C4037091C503992311F071607ECE8D
:101900007E7FA2CE4091C2035091C3036091C40375
:101910007091C503992311F0726070CE7D7F94CED3
:101920004091C2035091C3036091C4037091C503F9
:10193000992311F0746062CE7B7F86CE4091C20302
:101940005091C3036091C4037091C503992311F0B2
:10195000786054CE777F78CE4091C2035091C30314
:101960006091C4037091C503992311F0706146CE54
:101970007F7E6ACE4091C2035091C3036091C4033D
:101980007091C503992311F0706238CE7F7D5CCED3
:10199000992309F461CE3ACECF93C82F873050F502
:1019A00080910A0190910B01892B11F580E40E942E
:1019B000780490930B0180930A01892BB1F482E1A2
:1019C0000E94D20490930B0180930A01892B69F441
:1019D00081E090E001C0880FCA95EAF780950E94E7
:1019E000D20490930B0180930A0184E98093BC0098
:1019F000CF9108958A30B1F038F4883069F0893099
:101A000071F0209A2898F4CF8C3091F070F08D30DE
:101A1000C1F73E9A4698ECCF219A2998E9CF229AAD
:101A20002A98E6CF239A2B98E3CF529A5A98E0CF80
:101A3000539A5B98DDCF84B1807F84B985B1807F74
:101A400085B93E9846988AB1837F8AB98BB1837FE6
:101A50008BB9089580B38D7880BB81B3826781BBD9
:101A60000895EF92FF920F931F93CF93DF93C82FA8
:101A7000873008F084C080910A0190910B01892B76
:101A800009F088C080E40E94780490930B01809351
:101A90000A01892B09F43FC090E084E98093BC00DF
:101AA0002C2F30E0F901E155FD4FA081A92790834B
:101AB000F901EE0FFF1FEE0FFF1FE958FD4F70E019
:101AC00060E040E0C1E0D0E0B0E055E0162F80815A
:101AD000882309F461C0815080837D0102C0F594A0
:101AE000E7941A95E2F7E0FC50836F5F7F4F3196E1
:101AF0006430710559F723543D4F842F8095F901C7
:101B0000208182239423892BDF91CF911F910F9104
:101B1000FF90EF90089583E10E94D20490930B010F
:101B200080930A01892B09F0B7CF81E40E947804E1
:101B300090930B0180930A01892B09F0ADCF84E8C3
:101B40008093BC000E946C048C018091BC0087FFD4
:101B500008C09091BB00909510920B0110920A0161
:101B60009CCF0E946C04801B910B883E934068F3CD
:101B70008EEF9FEF90930B0180930A018DCF8FB171
:101B80009FB1869581709695969596959E70982BA7
:101B9000909586CF90E084CF7E01062E01C0EE0C9A
:101BA0000A94EAF74E2999CFCF93C091E90020918A
:101BB000EC00922F917020FD90E820911D0120FFF4
:101BC00012C0CF70C92B90910E019F709093E900C5
:101BD0009091EB0090FF04C09091EE0097FD05C03E
:101BE000CF70C093E900CF9108959FEF2091E80056
:101BF000915025FD06C025ED2A95F1F700009111C1
:101C0000F5CF8093F1008DE091E00E94EE0280918B
:101C1000E80080FFE5CF8091E8008E778093E800B0
:101C2000DFCF90912604943031F58093F5037093C3
:101C3000F7036093F60381E08093E9008FEF9091C2
:101C4000E800815095FD06C095ED9A95F1F70000EA
:101C50008111F5CF8091E80085FF0DC050E040E094
:101C600063E070E085EF93E00E9420038091E8003C
:101C70008E778093E8000895BC0184E00C94110EE7
:101C8000BC0183E00C94110E9C0181E08093E9007B
:101C90009FEF8091E800915085FD06C085ED8A9503
:101CA000F1F700009111F5CF8091E80085FF0CC09D
:101CB00050E040E066E070E0C9010E94200380919E
:101CC000E8008E778093E8000895CF93DF93EC01CE
:101CD00080910C01882321F08091F30360E287FF5B
:101CE00069E081E08093E9008FEF9091E8008150F6
:101CF00095FD06C095ED9A95F1F700008111F5CF9D
:101D00008091E80085FF19C080910C01811118C0F5
:101D100050E040E068E070E0CE0101960E942003B0
:101D20008091E8008E778093E80080E2FE01ABEFBF
:101D3000B3E001900D928A95E1F7DF91CF9108957C
:101D400070E050E040E0CE01E9CFCF93C82F882368
:101D500009F4AEC08238C1F40E94250581FDA8C0F7
:101D600089E30E9499080E944A082FEF81EE94E0CF
:101D7000215080409040E1F700C0000089E30E94BC
:101D80006E08CF910C944A088338A1F40E9425056F
:101D900080FD8EC083E50E9499080E944A082FEFBB
:101DA00081EE94E0215080409040E1F700C00000B7
:101DB00083E5E5CF8438A1F40E94250582FD78C033
:101DC00087E40E9499080E944A082FEF81EE94E070
:101DD000215080409040E1F700C0000087E4CFCF61
:101DE0008CEF8C0F813A88F580910C01882301F1EA
:101DF0008091F30387FF1CC0EC2FE695E695E695EE
:101E0000F0E0EC59FE4F828190E04C2F477021E0CA
:101E100030E002C0220F331F4A95E2F7822393235A
:101E2000892B79F08C2F0E946E080E944A0809C005
:101E3000E7E6F1E08191C817A9F321E0ED36F2075A
:101E4000C9F78C2F0E9499089CCF80E28C0F8830B4
:101E500068F4C77021E030E001C0220FCA95EAF7AC
:101E600080916E02822B80936E028BCFEBE5EC0F9C
:101E7000E33040F4F0E0E05DFE4F808190E0CF91F0
:101E80000C940F05E8E5EC0FE73150F4F0E0EE0FAD
:101E9000FF1FED5CFE4F80819181CF910C94F9047E
:101EA000CD3E30F08C2F0E941706CF910C94310557
:101EB000CF9108951F93CF93DF93182FD0E0C0E008
:101EC000893311F4C0E5D0E0812F0E94A50E209740
:101ED00031F4812FDF91CF911F910C94550A8FE936
:101EE0009FE00197F1F700C000002197F0CF0F931A
:101EF0001F93CF93DF93C62FD42F022FFC01828133
:101F00008823A1F0609329040E946C049093280414
:101F100080932704C77081E001C0880FCA95EAF753
:101F2000DF91CF911F910F910C944B0A809129045E
:101F3000681335C080912704909128040E945D04A5
:101F4000883C910560F510E21D0FCD17B9F080E2D5
:101F50008C0F883040F4C77081E001C0880FCA95AB
:101F6000EAF70E94400A183048F481E09D2F9770EC
:101F700001C0880F9A95EAF70E944B0A802F0E94B1
:101F80005A0F183098F4D77081E001C0880FDA95A5
:101F9000EAF7DF91CF911F910F910C94400AC7701F
:101FA00081E001C0880FCA95EAF7F3CFDF91CF91A6
:101FB0001F910F9108959091C003923069F4909110
:101FC000BF03943158F4E92FF0E0E655FC4F8083CD
:101FD0009F5F9093BF0308950C94A50E0895CF9230
:101FE000DF92EF92FF92C090C203D090C303E090C3
:101FF000C403F090C503C11491E0D906E104F104D3
:1020000061F4811103C084E10E94DB0FC701B601B6
:10201000FF90EF90DF90CF900895C11492E0D90621
:10202000E104F10421F48111F1CF84E0EDCFC1147A
:1020300094E0D906E104F10421F48111E7CF8AE1AB
:10204000E3CFC11490E1D906E104F10421F4811138
:10205000DDCF88E0D9CFC11490E4D906E104F104C2
:1020600021F48111D3CF85E1CFCFC11498E0D906F7
:10207000E104F10421F48111C9CF86E1C5CFC11477
:1020800090E2D906E104F10421F48111BFCF87E089
:10209000BBCFC11490E8D906E104F10421F4811109
:1020A000B5CF89E0B1CF94E0C916D104E104F104C1
:1020B00021F48111ABCF87E1A7CF98E0C916D104F5
:1020C000E104F10421F48111A1CF8AE09DCFC11474
:1020D000D10491E0E906F10421F4811197CF86E063
:1020E00093CFC114D10492E0E906F10421F48111E7
:1020F0008DCF89E189CFC114D10494E0E906F104C0
:1021000021F4811183CF81E17FCFC114D10498E004
:10211000E906F10421F4811179CF80E175CF90E1D6
:10212000C916D104E104F10421F481116FCF8CE1CF
:102130006BCF90E2C916D104E104F10421F48111BE
:1021400065CF8BE061CFC114D10490E1E906F104C1
:1021500021F481115BCF88E157CFC114D10490E401
:10216000E906F10421F4811151CF8CE04DCFC11467
:10217000D104E10491E0F90621F4811147CF82E115
:1021800043CFC114D104E10494E0F90621F4811194
:102190003DCF83E139CFC114D104E10490E1F906C8
:1021A00021F4811133CF8FE22FCFC114D10490E2FB
:1021B000E906F10421F4811129CF8DE025CFC11466
:1021C000D10490E8E906F10421F481111FCF8EE0DB
:1021D0001BCFC114D104E10492E0F90621F481116E
:1021E00015CF8FE011CFC114D104E10498E0F906B6
:1021F00021F481110BCF83E307CFC114D104E10493
:1022000090E2F90621F4811101CF84E3FDCE90E440
:10221000C916D104E104F10421F48111F7CE8EE155
:10222000F3CE90E8C916D104E104F104B1F3C12C56
:10223000D12C7601EBCEAF92BF92CF92DF92EF928C
:10224000FF920F931F93CF93DF93EC018AE0A82EA8
:10225000FE012491222309F494C0213009F03EC0EC
:1022600031968491813031F42296FE0184910E944E
:102270005A0F07C0823039F42296FE0184910E94E1
:10228000A50E2196E5CF833031F42296FE0184918C
:102290000E94550AF6CF843009F071C02296FE01E3
:1022A000249190E080E0FE0131962053330B2A30D8
:1022B000310548F0019728F3EFE9FFE03197F1F796
:1022C00000C00000F7CFA89EA001A99E500D1124C8
:1022D000C901840F951F2491EF01E5CFE22FF0E0B3
:1022E000EC50FF4FB490822F86958695869590E0AE
:1022F000FC01EC51FF4FE4902770F12C022E02C03C
:10230000F594E7940A94E2F731E0E322FF24FC011C
:10231000EC52FF4FC490D12C022E02C0D594C7942A
:102320000A94E2F7E1E0CE22DD24FC01EC53FF4FFA
:10233000049110E002C0159507952A95E2F7017007
:102340001127E114F10419F081EE0E94A50EC114C9
:10235000D10419F086EE0E94A50E8B2D0E945A0F13
:10236000CD2819F086EE0E94550AEF2819F081EE6B
:102370000E94550A012B09F484CF8CE278CFEF013B
:1023800080CFDF91CF911F910F91FF90EF90DF9061
:10239000CF90BF90AF900895CF92DF92EF92FF92CF
:1023A000C090C203D090C303E090C403F090C50373
:1023B00090E4C916D104E1049CE3F90689F4811183
:1023C00008C088EB90E00E941B118CEA90E00E940C
:1023D0001B11C701B601FF90EF90DF90CF900895D9
:1023E00090ECC916D1049FE0E906F10431F48111A3
:1023F000F0CF8EEA0E94DB0FECCFC1149CE3D9062C
:10240000E104F10449F48111E4CF8091C0038130EB
:1024100001F780930E02DDCF9CE2C91690E2D90647
:10242000E104F10431F48111D4CF8AE20E94DB0F80
:10243000D0CFC1149AE0D90692E0E906F10471F414
:102440008111C7CF82EF0E9417060E94310581E0FB
:102450008093C70382EF8093C603BBCFC11490EA79
:10246000D90692E0E906F10471F48111B2CF81EF4F
:102470000E9417060E94310581E08093C70381EF17
:102480008093C603A6CFC114D1049FE0E906F104EE
:1024900031F481119ECF89E30E94DB0F9ACFC114E2
:1024A000D10499E0E906F10431F4811192CF89E277
:1024B0000E94DB0F8ECFC114D10496E0E906F1042F
:1024C00031F4811186CF80EE0E94DB0F82CF90EC39
:1024D000C916D10499E0E906F10449F4811179CFD4
:1024E00080EE0E94DB0F81EE0E94DB0F72CF90E442
:1024F000C916D10495E0E906F10461F4811169CFB0
:1025000080EE0E94DB0F81EE0E94DB0F82EE0E94C4
:10251000DB0F5FCFC114D104E1049CE3F90631F471
:10252000811157CF83EE0E94DB0F53CFC114D1042A
:10253000E10494E1F90631F481114BCF80EE0E9461
:10254000DB0F47CFC114D104E10498E2F90631F45E
:1025500081113FCF82EE0E94DB0F3BCF90E4C91682
:10256000D10491E0E906F10431F4811132CF80EE1B
:102570000E94DB0F2ECFC114D10493E0E906F104D1
:1025800031F4811126CF82EE0E94DB0F22CFC114DD
:10259000D10492E0E906F10431F481111ACF81EE01
:1025A0000E94DB0F16CFC1149AE5D90690E3E90625
:1025B000F10431F481110DCF8EE30E94DB0F09CFBE
:1025C000C1149AE5D90690ECE906F10431F48111C1
:1025D00000CF8FE30E94DB0FFCCEC1149AE5D90631
:1025E000E10493E0F90631F48111F3CE80E40E9416
:1025F000DB0FEFCEC1149AE5D906E1049CE0F906A1
:1026000031F48111E6CE81E40E94DB0FE2CEC114E9
:102610009AE5D90690E1E906F10431F48111D9CEA9
:102620008AE30E94DB0FD5CEC1149AE5D90690E467
:10263000E906F10431F48111CCCE8BE30E94DB0F6B
:10264000C8CEC1149AE5D906E10491E0F90631F447
:102650008111BFCE8CE30E94DB0FBBCEC1149AE583
:10266000D906E10494E0F90631F48111B2CE8DE38C
:102670000E94DB0FAECEC1149AE5D90690E2E906BE
:10268000F10431F48111A5CE82E40E94DB0FA1CECA
:10269000C1149AE5D906E10492E0F90631F48111FA
:1026A00098CE83E40E94DB0F94CEC1149AE5D9063C
:1026B00090E8E906F10431F481118BCE84E40E94A4
:1026C000DB0F87CEC1149AE5D906E10498E0F9063C
:1026D00031F481117ECE85E40E94DB0F7ACE9CE03E
:1026E000C916D10490E1E906F10431F4811171CEEB
:1026F00080E50E94DB0F6DCE9CE0C916D10490E40A
:10270000E906F10431F4811164CE81E50E94DB0F0A
:1027100060CE9CE0C916D104E10491E0F90631F4E1
:10272000811157CE82E50E94DB0F53CE9CE0C91683
:10273000D104E10494E0F90631F481114ACE8FE42A
:102740000E94DB0F46CE9CE1C916D104E104F104DE
:1027500031F481113ECE8BE40E94DB0F3ACE9CE235
:10276000C916D104E104F10431F4811132CE8EE4B2
:102770000E94DB0F2ECEC1149AEAD90690E1E90639
:10278000F10431F4811125CE8CEA0E94DB0F21CEB9
:10279000C1149AEAD90690E4E906F10431F48111F2
:1027A00018CE8EEA0E94DB0F14CEC1149AEAD90625
:1027B000E10491E0F90631F481110BCE8EEA0E941A
:1027C000DB0F07CEC1149AEAD906E10494E0F906BA
:1027D00031F48111FECD8BEA0E94DB0FFACDC114DA
:1027E0009AEAD906E10490E1F90631F48111F1CDBC
:1027F00089EA0E94DB0FEDCDC1149AEAD906E10403
:1028000090E2F90631F48111E4CD8AEA0E94DB0FEF
:10281000E0CDC1149AEAD906E10498E0F90631F452
:102820008111D7CD88EA0E94DB0FD3CD90E4C91681
:1028300091E0D906E104F10431F48111CACD8EE1B1
:102840000E94DB0FC6CD90E4C91694E0D906E104DE
:10285000F10431F48111BDCD8FE10E94DB0FB9CDC0
:1028600090E4C91690E1D906E104F10431F4811134
:10287000B0CD80E20E94DB0FACCD90E4C916D90642
:10288000E104F10431F48111A4CD81E20E94DB0F57
:10289000A0CD94E4C916D104E104F10431F481110E
:1028A00098CD82E20E94DB0F94CD90E5C916D10449
:1028B000E104F10431F481118CCD83E20E94DB0F3D
:1028C00088CD90E4C916D10490E1E906F10431F411
:1028D00081117FCD84E20E94DB0F7BCD90E4C9168D
:1028E000D104E906F10431F4811173CD85E20E942F
:1028F000DB0F6FCD90E4C916D104E10491E0F90635
:1029000031F4811166CD86E20E94DB0F62CD90E446
:10291000C916D104E10494E0F90631F4811159CDCE
:1029200087E20E94DB0F55CD90E8C91691E0D906E9
:10293000E104F10431F481114CCD8EE10E94DB0FF2
:1029400048CD90E8C91694E0D906E104F10431F4C9
:1029500081113FCD8FE10E94DB0F3BCD90E8C9167E
:1029600090E1D906E104F10431F4811132CD80E225
:102970000E94DB0F2ECD90E8C91690E4D906E10441
:10298000F10431F4811125CD81E20E94DB0F21CDCC
:1029900094E8C916D104E104F10431F4811119CD90
:1029A00082E20E94DB0F15CD90E9C916D104E10443
:1029B000F10431F481110DCD83E20E94DB0F09CDCA
:1029C00090E8C916D10490E1E906F10431F48111CF
:1029D00000CD84E20E94DB0FFCCC90E8C916D10444
:1029E00090E4E906F10431F48111F3CC85E20E9410
:1029F000DB0FEFCC90E8C916D104E10491E0F906B1
:102A000031F48111E6CC86E20E94DB0FE2CC90E843
:102A1000C916D104E10494E0F90631F48111D9CC4E
:102A200087E20E94DB0FD5CC90E8C916D10491E073
:102A3000E906F10431F48111CCCC82E20E94DB0F73
:102A4000C8CC90E8C916D10498E0E906F10431F445
:102A50008111BFCC8BE20E94DB0FBBCCC114D1042F
:102A60009CE0E906F10431F48111B3CC8AE20E94C2
:102A7000DB0FAFCCC114D104E10490E3F90631F4CB
:102A80008111A7CC88E20E94DB0FA3CCC114D10432
:102A900094E0E906F10431F481119BCC88E20E94B4
:102AA000DB0F97CCC114D104E10490E1F90631F4B5
:102AB00081118FCC8AE20E94DB0F8BCC90E4C91687
:102AC000D104E104F10431F4811183CC8AE20E9443
:102AD000DB0F7FCC90E8C916D104E104F10431F496
:102AE000811177CC8AE20E94DB0F73CCC114D10430
:102AF00091E0E906F10431F481116BCC8CE20E9483
:102B0000DB0F67CCC114D10498E0E906F10431F47D
:102B100081115FCC8CE20E94DB0F5BCCC114D1042D
:102B2000E10490E2F90631F4811153CC89E20E946C
:102B3000DB0F4FCC92E0C916D1049CE0E906F1040A
:102B400031F4811146CC88E20E94DB0F42CC92E046
:102B5000C916D10493E0E906F10431F4811139CCAE
:102B60008CE20E94DB0F35CC92E0C91690E3D906C7
:102B7000E104F10449F481112CCC81EE0E94DB0FB9
:102B800086E20E94DB0F25CC92E0C91690ECD906B4
:102B9000E104F10449F481111CCC81EE0E94DB0FA9
:102BA00087E20E94DB0F15CC9EE0C916D104E10438
:102BB000F10431F481110DCC85E30E94DB0F09CCC7
:102BC00092E0C916D104E10490E3F90631F48111D1
:102BD00000CC89E20E94DB0FFCCB92E0C91693E0A7
:102BE000D906E104F10449F48111F3CB81EE0E948E
:102BF000DB0F80E20E94DB0FECCB92E0C9169CE079
:102C0000D906E104F10449F48111E3CB81EE0E947D
:102C1000DB0F81E20E94DB0FDCCB92E0C91691E072
:102C2000D906E104F10449F48111D3CB81EE0E946D
:102C3000DB0F8EE10E94DB0FCCCB92E0C916D906E8
:102C4000E104F10449F48111C4CB81EE0E94DB0F51
:102C500082E20E94DB0FBDCB92E0C91694E0D90658
:102C6000E104F10449F48111B4CB81EE0E94DB0F41
:102C70008FE10E94DB0FADCB92E0C91698E0D90638
:102C8000E104F10449F48111A4CB81EE0E94DB0F31
:102C900083E20E94DB0F9DCB92E0C91690E1D9063A
:102CA000E104F10449F4811194CB81EE0E94DB0F21
:102CB0008FE20E94DB0F8DCB92E0C91690E2D9061D
:102CC000E104F10431F4811184CB8FE20E94DB0F27
:102CD00080CB92E0C91690E4D906E104F10449F4EE
:102CE000811177CB81EE0E94DB0F80E30E94DB0F26
:102CF00070CB92E0C91690E8D906E104F10431F4F2
:102D0000811167CB80E30E94DB0F63CB96E0C9168D
:102D1000D104E104F10449F481115BCB81EE0E94FE
:102D2000DB0F81E30E94DB0F54CB9AE0C916D1047C
:102D3000E104F10449F481114CCB81EE0E94DB0FD8
:102D400085E30E94DB0F45CB92E1C916D104E10473
:102D5000F10431F481113DCB84E30E94DB0F39CBC8
:102D600092E2C916D104E104F10449F4811131CB96
:102D700081EE0E94DB0F84E30E94DB0F2ACB92E0FE
:102D8000C916D10490E1E906F10431F4811121CB97
:102D900087E50E94DB0F1DCB92E0C916D10490E2BB
:102DA000E906F10449F4811114CB81EE0E94DB0F96
:102DB00084E20E94DB0F0DCB92E0C916D10490E4AF
:102DC000E906F10431F4811104CB8DE20E94DB0F9E
:102DD00000CB92E0C916D10490E8E906F10431F481
:102DE0008111F7CA8EE20E94DB0FF3CA92E0C91686
:102DF000D104E10491E0F90631F48111EACA88E3D3
:102E00000E94DB0FE6CA92E0C916D104E104F9067C
:102E100031F48111DECA86E30E94DB0FDACA92E048
:102E2000C916D104E10494E0F90631F48111D1CA44
:102E300085E50E94DB0FCDCA92E0C916D104E104FA
:102E400098E0F90631F48111C4CA87E30E94DB0FD0
:102E5000C0CA92E0C916D104E10490E1F90631F448
:102E60008111B7CA8BE20E94DB0FB3CA92E0C91688
:102E7000D10491E0E906F10431F48111AACA81EE8E
:102E80000E94DB0FA6CA92E0C916D104E906F1043C
:102E900031F481119ECA88E30E94DB0F9ACA92E046
:102EA000C916D10494E0E906F10431F4811191CA04
:102EB00083E30E94DB0F8DCA92E0C916D10498E02B
:102EC000E906F10431F4811184CA81E30E94DB0F29
:102ED00080CA92E4C916D104E104F10431F48111ED
:102EE00078CA81E30E94DB0F74CA92E0C916D1044C
:102EF00090E3E906F10431F481116BCA80E50E9488
:102F0000DB0F67CA92E0C916D10490ECE906F10420
:102F100031F481115ECA81E50E94DB0F5ACA92E04A
:102F2000C916D104E10493E0F90631F4811151CAC4
:102F300082E50E94DB0F4DCA92E0C916D104E1047C
:102F40009CE0F90631F4811144CA8FE40E94DB0F42
:102F500040CAC11493E0D906E104F10431F48111AF
:102F600038CA84E00E94DB0F34CAC1149CE0D90641
:102F7000E104F10431F481112CCA86E10E94DB0FD7
:102F800028CAC11490E3D906E104F10431F4811197
:102F900020CA87E00E94DB0F1CCAC11490ECD9063E
:102FA000E104F10431F4811114CA89E00E94DB0FBD
:102FB00010CA9CE0C916D104E104F10431F4811176
:102FC00008CA8AE00E94DB0F04CA90E3C916D10444
:102FD000E104F10431F48111FCC98BE00E94DB0FA4
:102FE000F8C9C114D10490E3E906F10431F4811168
:102FF000F0C98DE00E94DB0FECC9C114D104E104DB
:103000009CE0F90631F48111E4C983E30E94DB0FEF
:10301000E0C9C114D104E10493E0F90631F481114F
:10302000D8C98FE00E94DB0FD4C9C114D10490EC41
:10303000E906F10431F48111CCC98EE00E94DB0F66
:10304000C8C9C11491E0D906E104F10431F4811139
:10305000C0C984E10E94DB0FBCC9C11492E0D9064B
:10306000E104F10431F48111B4C98DE10E94DB0F58
:10307000B0C9C11494E0D906E104F10431F481111E
:10308000A8C98AE10E94DB0FA4C9C11498E0D9063F
:10309000E104F10431F481119CC98BE10E94DB0F42
:1030A00098C9C11490E1D906E104F10431F4811109
:1030B00090C988E00E94DB0F8CC9C11490E2D90648
:1030C000E104F10431F4811184C986E00E94DB0F30
:1030D00080C9C11490E4D906E104F10431F48111EE
:1030E00078C985E10E94DB0F74C9C11490E8D90644
:1030F000E104F10431F481116CC989E10E94DB0F14
:1031000068C994E0C916D104E104F10431F48111D5
:1031100060C987E10E94DB0F5CC998E0C916D10441
:10312000E104F10431F4811154C985E00E94DB0F00
:1031300050C990E1C916D104E104F10431F48111C0
:1031400048C98CE10E94DB0F44C990E2C916D10442
:10315000E104F10431F481113CC981E10E94DB0FEB
:1031600038C9C114D10490E1E906F10431F48111A8
:1031700030C988E10E94DB0F2CC9C114D10490E250
:10318000E906F10431F4811124C980E10E94DB0FCA
:1031900020C9C114D10490E4E906F10431F481118D
:1031A00018C98CE00E94DB0F14C9C114D10490E847
:1031B000E906F10431F481110CC986E30E94DB0FAA
:1031C00008C9C114D104E10491E0F90631F4811178
:1031D00000C982E10E94DB0FFCC8C114D104E104E4
:1031E00092E0F90631F48111F4C887E30E94DB0F05
:1031F000F0C8C114D104E10494E0F90631F481115E
:10320000E8C883E10E94DB0FE4C8C114D104E104E3
:1032100098E0F90631F48111DCC888E30E94DB0FE5
:10322000D8C8C12CD12C7601D4C82F923F924F928E
:103230005F926F927F928F929F92AF92BF92CF9246
:10324000DF92EF92FF920F931F93CF93DF93CDB74F
:10325000DEB7CB57D1090FB6F894DEBF0FBECDBF96
:10326000182FC090C203D090C303E090C403F09025
:10327000C503C0FE0CC0D701C60121E082278093A0
:10328000C2039093C303A093C403B093C503112357
:1032900061F181E00E94EF0F8090C2039090C30320
:1032A000A090C403B090C503681579058A059B05F5
:1032B000E1F480E0C558DF4F0FB6F894DEBF0FBED3
:1032C000CDBFDF91CF911F910F91FF90EF90DF90D5
:1032D000CF90BF90AF909F908F907F906F905F90B6
:1032E0004F903F902F900C94EF0F81E00E94CC11F3
:1032F0008090C2039090C303A090C403B090C50314
:10330000681579058A059B0509F446C0AE014F5F33
:103310005F4FA3965FAF4EAFA397A5965FAF4EAF3B
:10332000A597812C912C5401EA961FAE1EAEEA9708
:103330008C149D04AE04BF0409F475C126E233E089
:10334000A7963FAF2EAFA797312C212CA8961FAE82
:10335000A897EB961FAEEB97EC961FAEEC9700E0AC
:1033600060E070E0CB0124013501409450946094FA
:103370007094E0964CAE5DAE6EAE7FAEE097A50168
:1033800094012270332744275527E4962CAF3DAF94
:103390004EAF5FAFE497C5C080E00E94CC11809132
:1033A0000E02882361F18091090290910A02A09196
:1033B0000B02B0910C028093C2039093C303A093BD
:1033C000C403B093C50380910702909108029093C3
:1033D000A8038093A703E7E8F1E0A6E2B3E04191F8
:1033E0005191619171914D935D936D937D9352E0F5
:1033F000E730F507A1F710920E0210E032CF60918E
:10340000C2037091C3038091C4039091C503C55852
:10341000DF4F0FB6F894DEBF0FBECDBFDF91CF9167
:103420001F910F91FF90EF90DF90CF90BF90AF90E2
:103430009F908F907F906F905F904F903F902F90D4
:103440000C94B20AA796AEADBFADA7972D913D9152
:103450004D915D91A796BFAFAEAFA797E0964CACEC
:103460005DAC6EAC7FACE0974222532264227522A1
:10347000E8964CAE5DAE6EAE7FAEE8974092C2036A
:103480005092C3036092C4037092C5034114510467
:103490006104710409F442C02114310489F06115FA
:1034A00071058105910561F0462657266826792623
:1034B000A3019201223031054105510509F443C0B1
:1034C000E4964CAC5DAC6EAC7FACE49745284628E6
:1034D000472879F0E8962CAD3DAD4EAD5FADE8974D
:1034E00022602093C2033093C3034093C4035093DC
:1034F000C50381E0112309F45CC00E94EF0F611540
:1035000071058105910551F0A8966FAFA897EB96CC
:103510007FAFEB97EC968FAFEC97092F2FEF221A26
:10352000320A2091A7033091A803221533050CF02D
:1035300089CFA8966FADA897EB967FADEB97EC96E9
:103540008FADEC97902F862A972AA82AB92AA5969C
:10355000AEADBFADA5976D937D938D939D93A596CD
:10356000BFAFAEAFA597EA96EEADFFADEA97319645
:10357000EA96FFAFEEAFEA97789709F0D9CEC55833
:10358000DF4F0FB6F894DEBF0FBECDBFDF91CF91F6
:103590001F910F91FF90EF90DF90CF90BF90AF9071
:1035A0009F908F907F906F905F904F903F902F9063
:1035B00008950E94CC11A3CFA396EEADFFADA397C3
:1035C00081919191A191B191A396FFAFEEAFA39795
:1035D0008093C2039093C303A093C403B093C50325
:1035E00080E01123E9F00E94EF0FFFEFAF1ABF0A4E
:1035F000EA964EAC5FACEA974A145B04E9F6809118
:103600000E02811104C0C701B6010E94B20AC09225
:10361000C203D092C303E092C403F092C503AFCFBC
:103620000E94CC11E2CFB12CA12CE2CF80E290E03D
:1036300090930B0180930A0180910D02811111C0BA
:103640001092B9008CE08093B80081E080930D0265
:103650002FEF83ED90E3215080409040E1F700C0D0
:10366000000080E40E94780490930B0180930A018B
:10367000892B09F040C080E00E94D20490930B0196
:1036800080930A01892BB9F580E80E94D2049093B7
:103690000B0180930A01892B71F58FEF0E94D204F0
:1036A00090930B0180930A01892B29F584E980937B
:1036B000BC0080E40E94780490930B0180930A017F
:1036C000892BC9F48CE00E94D20490930B01809363
:1036D0000A01892B81F480E80E94D20490930B01A7
:1036E00080930A01892B39F48FEF0E94D2049093C2
:1036F0000B0180930A0184E98093BC0080910A0148
:10370000089510926E0280910C01882369F08091D7
:10371000F30387FF09C0E6E6F1E08EE1DF011D92C9
:103720008A95E9F70C94CB09E7E6F1E086E0F6CF5D
:103730001F93CF93DF93CDB7DEB7AA970FB6F89458
:10374000DEBF0FBECDBF8EE194E02091F100FC0101
:103750002193CF01F4E086329F07B9F780911F04CF
:10376000833009F4B8C008F04CC0813009F47EC041
:10377000823009F4F8C08091E80083FF9BC020915B
:103780000D0180912204909123042817190609F055
:1037900091C080911F04813209F405C108F0F4C082
:1037A000803209F087C080911E04813209F082C006
:1037B0008091E800877F8093E8008091E80082FF95
:1037C0002FC13091F1002091F1009091F100809192
:1037D000F1003093210120932201909323018093E3
:1037E00024018091F100809325018091F100809364
:1037F00026018091F100809327018091E8008B776A
:103800000AC18A3009F49EC08B3009F481C0893026
:1038100009F0B1CF80911E04813209F0ACCF8091C4
:10382000220490912304892B09F0A5CF8091E80010
:10383000877F8093E8008091E80082FF37C09091F5
:10384000F3008091F200029729F48091F1008B7FC0
:10385000813021F48091F1008093FA038091E80097
:103860008B778093E8000E944A0385CF80911E04E5
:10387000813A09F080CF8091E800877F8093E8004B
:103880008091220490912304892B61F460E28BEFF4
:1038900093E070E00E94FC038091E8008B778093B6
:1038A000E80069CF60E090E080E0F3CF80912604EB
:1038B0008111C1CF8091E80083FF47C180911E0430
:1038C00090911F049A3008F040C1E92FF0E0EE53C8
:1038D000F04D0C94332F80911E04813A09F04BCFA8
:1038E0008091220490912304892B09F044CF809188
:1038F000E800877F8093E8008091E80080FFFCCF9C
:1039000080910C018093F1008091E8008E77A9CF1F
:1039100080911E04813209F02ECF80912204909173
:103920002304892B09F027CF8091E800877F8093BB
:10393000E8000E944A038091200480930C010E94B9
:10394000811B19CF80911E04813209F014CF809120
:10395000E800877F8093E8000E944A038091210459
:103960008093F90308CF80911E04813A09F003CFB8
:103970008091E800877F8093E8008091E80080FFD5
:10398000FCCF8091F903BECF823209F44EC083325E
:1039900009F090CF80911E04813209F08BCF809185
:1039A000E800877F38C080911E04813A09F082CFF9
:1039B0008091E800877F8093E8008091E80080FF95
:1039C000FCCF8091210190912201A0912301B0911F
:1039D00024018093F100492F5A2F6B2F77274093B2
:1039E000F100AD01662777274093F1008B2F9927CF
:1039F000AA27BB278093F100809125018093F100D5
:103A0000809126018093F100809127018093F1003D
:103A10008091E8008E778093E8000E944A034ACFA5
:103A2000809126048111C9CE45CF80911E04813238
:103A300009F040CF8091E800877F8093E8000E94E2
:103A40004A03809120049091210490931E01809359
:103A50001D0130CF803899F0823809F076C080910E
:103A600022048F70873008F070C08093E900809145
:103A7000EB0085FB882780F91092E90006C0809151
:103A80001B0490911C04911182609091E800977F33
:103A90009093E8008093F1001092F1008091E8008B
:103AA0008E77A1C1882309F48EC1823009F04DC000
:103AB00080912004811192C1809122048F702FEF98
:103AC000280F263008F041C08093E9002091EB00D8
:103AD00020FF84C1933031F48091EB0080628093A9
:103AE000EB007CC19091EB0090619093EB0021E0A2
:103AF00030E001C0220F8A95EAF72093EA00109285
:103B0000EA008091EB008860EACF81111EC010911D
:103B100020041F778091E3008078812B8093E3005D
:103B20008091E800877F8093E8000E944A0380919B
:103B3000E80080FFFCCF8091E30080688093E30081
:103B400082E0111183E0809326048091E80083FFD6
:103B50000AC08091E800877F8093E8008091EB00A5
:103B600080628093EB00AA960FB6F894DEBF0FBE7A
:103B7000CDBFDF91CF911F9108958058823028F7F3
:103B800080912004909121048C3D23E09207A1F5BF
:103B900083E08A838AE289834FB7F894DE01139623
:103BA00020E03EE051E2E32FF0E050935700E49133
:103BB00020FF03C0E295EF703F5FEF708E2F90E023
:103BC000EA30C0F0C7968D939D932F5F243159F74B
:103BD0004FBF8091E800877F8093E8006AE270E041
:103BE000CE0101960E94FC038091E8008B778093C0
:103BF000E800ABCFC096E7CF409122045091230458
:103C0000292F33272330310509F43FC078F52130BF
:103C1000310509F466C08FE590E0ECEFF3E0223067
:103C2000310509F092CF2091E800277F2093E8002A
:103C300020912404309125048217930708F49C01F5
:103C400040E02115310509F051C041114FC080916C
:103C5000E80082FDC9CF80912604882329F28530AF
:103C600019F28091E80083FFF2CFBECF21323105F7
:103C700081F12232310509F068CF452B09F065CF7B
:103C800088EF90E0E4E0F3E0CECF99278130910512
:103C9000C1F0009759F0029709F057CFEDE6F4E034
:103CA000E4918E2F90E0EDE6F4E007C0E5EAF4E061
:103CB000E4918E2F90E0E5EAF4E0009709F0B3CFAD
:103CC00044CFEDE7F4E0E4918E2F90E0EDE7F4E0EF
:103CD000F4CF452B09F039CF89E090E0EEE0F4E035
:103CE000A2CF82E190E0EBE5F4E09DCF8091260445
:103CF000882309F479CF853009F476CF8091E800E4
:103D000083FD72CF8091E80082FDA1CF8091E80011
:103D100080FF97CF9091F3008091F200211531053B
:103D200019F08830910550F041E0089709F040E023
:103D30008091E8008E778093E80083CF4491409390
:103D4000F1003196215031090196E8CF803809F011
:103D5000FCCE8091E800877F8093E80080911D046D
:103D60008093F1009BCE8111F0CE1091200412308F
:103D700008F0EBCE8091E800877F8093E8001093F5
:103D80001D040E944A03112311F084E005C08091B4
:103D9000E30087FDFACF81E08093260442E261ECE4
:103DA00081E00E94690342E061EC82E00E946903C5
:103DB00042E160E884E00E94690342E161E883E057
:103DC0000E946903C2CE80912004813009F0BDCEEB
:103DD00081E0933009F080E080931C041092E900A8
:103DE0008091E800877F8093E8000E944A03ADCE6F
:103DF0000F931F93CF93DF938091C703882341F0E4
:103E00001092C7038091C6030E9458050E94310595
:103E10008091C2039091C303A091C403B091C503E4
:103E20008F309105A105B10541F58091C10391E065
:103E300089278093C1031092C2031092C30310928A
:103E4000C4031092C5031092A9031092A803109204
:103E5000A7030E94811B1092A603E6E2F3E086EA24
:103E600093E04FEF5FEF60E070E041935193619317
:103E700071938E179F07C9F759C083309105A1052B
:103E800020E3B20721F58091C003823041F0109207
:103E9000BF038093BE0382E08093C003CCCF8091A8
:103EA000BE038093C0030AEA13E0D0E0C0E0809133
:103EB000BF038C171D0609F01CF40E94811BBBCFA9
:103EC000D8018D918D010E94A50E2196F0CF8333EC
:103ED0009105A105B10521F481E00E94150AABCF3F
:103EE0002091C00381309105A105B10539F421115C
:103EF00002C081E0D1CF1092C0039DCF213059F58F
:103F000080FF33C01092A9031092A8031092A70358
:103F10001092C2031092C3031092C4031092C503FF
:103F20008091DA03882369F18130D1F186E0E4EDF4
:103F3000F3E0DF01282F1D922A95E9F7E8ECF3E082
:103F4000AEECB3E001900D928A95E1F7DF91CF914D
:103F50001F910F910895223041F083709927AA276D
:103F6000BB27892B8A2B8B2B21F080E00E9415190F
:103F700062CF2111C7CF8091C103882319F281E05C
:103F8000F5CFC4EDD3E008ED13E0899181110E94D3
:103F9000D40D0C171D07C9F780E00E94D40DC6CFC1
:103FA0008091D40380688093D403C4EDD3E00AEDFC
:103FB00013E089910E94D40D0C171D07D1F7B6CFDD
:103FC0000F931F93CF93DF9380910A0190910B0180
:103FD000892B71F0809184018F5F8093840181111E
:103FE00007C00E94161B90E090930B0180930A017A
:103FF0000DEB12E0C0E08C2F0E94CC0CD7E0DC0F60
:104000008D2F0E94CC0C8C2F0E94310DF8018193D2
:104010008F018D2F0E94310DF80186830E941B0DA8
:10402000CF5FC73041F78091C003813089F4809120
:10403000A903882369F08091A60381110FC08091A4
:104040008501909186010E945D048F3E924000F5AB
:1040500081E0DF91CF911F910F91089580918501AB
:10406000909186010E945D044A9790F380E00E943F
:1040700015190E944A080E94811B0E946C049093AB
:104080008601809385018091A6038111E1CFD7CF6E
:1040900081E08093A603DCCF96E0E8ECF3E0DF015B
:1040A000292F1D922A95E9F7E4EDF3E0DF01292F8E
:1040B0001D922A95E9F7EEECF3E0DF011D929A9547
:1040C000E9F7109225031092240310922303109213
:1040D000220310922103109220038093DA03682FA9
:1040E0008DE090E00C94542FCF9384E090E00E94F8
:1040F000462FC82F82E290E00E94462F982F8C2FE7
:10410000CF91089569EE7EEF90E080E00E94722FDB
:1041100060E082E090E00E94542F60E083E090E055
:104120000E94542F10926F0210927002109271022E
:104130001092720260E084E090E00E94542F60E0F0
:1041400082E290E00E94542F60E085E090E00E94BF
:10415000542F60E086E090E00E94542F6FEF87E0DC
:1041600090E00E94542F40E050E0BA0188E090E0D7
:104170000E94662F60E08DE090E00E94542F40E0A6
:1041800050E0BA0188E190E00E94662F60E087E18C
:1041900090E00E94542F40E050E0BA018CE190E0A2
:1041A0000E94662F70E060E080E290E00E94722F33
:1041B00040E050E0BA0188E190E00E94662F40E0C4
:1041C00050E0BA018FE090E00E94662F40E050E09E
:1041D000BA0183E190E00C94662F4F925F926F9248
:1041E0007F928F929F92AF92BF92CF92DF92EF9287
:1041F000FF920F931F93CF93DF9300D000D00F92C5
:10420000CDB7DEB77C01DC0113968D919C9114979C
:10421000892B41F01C9111960C91812F80238F3FA7
:1042200009F0C9C50F900F900F900F900F90DF917C
:10423000CF911F910F91FF90EF90DF90CF90BF90A3
:10424000AF909F908F907F906F905F904F90089568
:104250000E94D808D82E682F89819A810E947809F7
:10426000E02FF0E0BEE0DB9EE00DF11D1124EE0F2B
:10427000FF1FEE0FFF1FE10FF11DEE0FFF1FEC54AC
:10428000FE4F059114910033EAE51E0709F4BEC004
:10429000B0F5C8019A558A9708F4EAC0043F4CE586
:1042A000140709F416C208F043C0093D9CE519073C
:1042B00009F40BC20A3DACE51A0709F41AC2083D1D
:1042C000BCE51B0709F040C026E241EE61EEC701E4
:1042D0000F900F900F900F900F90DF91CF911F9143
:1042E0000F91FF90EF90DF90CF90BF90AF909F9095
:1042F0008F907F906F905F904F900C94770F013369
:104300002AE5120759F6B70181E39AE50E94D30A1C
:10431000882309F487CFF70140815181628173813D
:1043200084810E947806882309F47CCF81E089C0CB
:10433000063FECE51E0709F4D4C108F4CEC1073FDF
:104340002CE5120709F4D1C1F7018281882309F411
:1043500044C5109229040230FCE51F0708F4A5C2E9
:1043600006312CE5120738F098012B5F3C452930C7
:10437000310508F09AC20E9474209093F403809350
:10438000F30300314CE5140709F45EC208F0ECC1F8
:1043900008309CE5190709F44DC208F0BBC1043090
:1043A000BCE51B0709F43AC208F0A6C10230FCE5DF
:1043B0001F0709F42DC28091F303826003301C456E
:1043C00009F429C26091F3031091F40384E090E0B2
:1043D0000E94542F612F82E290E00E94542F0F9090
:1043E0000F900F900F900F90DF91CF911F910F9131
:1043F000FF90EF90DF90CF90BF90AF909F908F9005
:104400007F906F905F904F900C94811BB70180E379
:104410009AE50E94D30A882309F404CFD7014C916E
:1044200011965C91119712966C91129713967C914C
:10443000139714968C910E947806882309F4F2CE83
:1044400080E00F900F900F900F900F90DF91CF9121
:104450001F910F91FF90EF90DF90CF90BF90AF90A2
:104460009F908F907F906F905F904F900C944C2016
:10447000B701C8010E94D30A882309F4D3CE0E9451
:104480006C046C0190930E0380930D03D7014C9143
:1044900011965C91119712966C91129713967C91DC
:1044A000139714968C910E947806882321F0D0925D
:1044B0000C03C0920B0310922103109220038091F1
:1044C000DA038823D9F0813009F45CC010910F031E
:1044D000D7014C9111965C91119712966C9112979D
:1044E00013967C91139714968C910E9478068823DA
:1044F00009F493C01F5F10930F0394CEF70140811E
:1045000051816281738184810E947806F801FF27BE
:10451000EC58FE4F0491902F929596959695937036
:10452000882371F0A92FB0E0FD01E853FC4F808192
:10453000802B8083AC52BC4FEC91E02BEC93C6CF28
:1045400086E0E8ECF3E0A4EDB3E001900D928A95EB
:10455000E1F7A92FB0E09D0122533C4FF901808182
:10456000402F482391E009F090E090930F02902FA4
:1045700090958923F9018083A853BC4F0C91E92FB2
:10458000E023DCCFD7014C9111965C9111971296E4
:104590006C91129713967C91139714968C910E94AC
:1045A0007806E82F802F67E00E94FF2E492F90E0C9
:1045B00026E030E0241B310941E050E001C0440F07
:1045C0002A95EAF7BC0168537C4FDB012C91EE235E
:1045D00049F0242B2C93FC01EC52FC4F9081942B3E
:1045E000908374CF36E0E8ECF3E0A4EDB3E0019003
:1045F0000D923A95E1F7FC01E253FC4F8081382F90
:10460000342391E009F090E090930F02942F90955D
:10461000892380839223FB01E3CF115011160CF004
:1046200048C010930F0380910F02882309F4FACD3C
:1046300010912403183009F03FC080912503809326
:10464000230381E00E947106809325038091230358
:1046500090E026E0289FD001299FB00D1124A5539A
:10466000BD4FE4EDF3E001900D922A95E1F7880F3C
:10467000991FFC01E550FD4F80910B0390910C03B5
:10468000918380830F900F900F900F900F90DF9188
:10469000CF911F910F91FF90EF90DF90CF90BF903F
:1046A000AF909F908F907F906F905F904F900C9401
:1046B000F81E10920F03B7CF812F0E9471068093CE
:1046C00023031F5F10932403C1CF27E245EE65EE5D
:1046D000FECD26E241EE60EEFACD27E245EE64EE35
:1046E000F6CD26E241EE62EEF2CD27E245EE66EE31
:1046F000EECD28E241E0EBCF8091F30380610630FC
:104700004CE5140709F487C008F48CC08091F303CA
:10471000806281C08091F3038D7F0C309CE5190786
:1047200009F479C070F48091F3038C600A30BCE521
:104730001B0709F470C008F481C08091F3038E7FD9
:104740006AC08091F303877F0E30FCE51F0709F4F0
:1047500062C08091F3038B7F0F301C4508F45BC06F
:104760008091F3038F7E57C00C3F4CE5140709F48A
:104770005DC030F503319CE5190709F46DC078F48C
:104780000131BCE51B0709F463C002311C4509F087
:1047900019CE0E94811B8091F3038F773CC00531B5
:1047A000FCE51F0709F460C008F474C08091F403AD
:1047B00081600B3F1C4509F005CE8093F40302CEC7
:1047C00001158DE5180709F44BC088F48091F403B6
:1047D0008D7F0E3FACE51A0781F38091F4038E7F45
:1047E0000F3F1C4550F38091F4038360E6CF023005
:1047F000EDE51E0709F457C008F442C060E003303D
:104800001D4509F0DFCD8EE090E00E94542FDACDF7
:104810008091F30381608093F303D4CD8091F303FF
:104820008460F9CF8091F3038860F5CF8091F40321
:104830008260C3CF8091F3038064EDCF0E94811B1F
:104840008091F3038068E7CF8091F3038F7DE3CFFE
:104850008091F3038F7BDFCF8091F303837FDBCFE6
:104860008091F4038C7FA9CF8091F30382FB992779
:1048700090F921E0922790FB82F990FB83F9CBCF4E
:104880008091F403982F909591708E7F892B90FBE7
:1048900081F993CF0E94811B9091F303892F97FB9D
:1048A00087F98058B8CF61E0AECF06314CE51407E8
:1048B00009F09EC280916E028A7A91E009F490E03C
:1048C0009093100281111AC089E20E9499080F90FA
:1048D0000F900F900F900F90DF91CF911F910F913C
:1048E000FF90EF90DF90CF90BF90AF909F908F9010
:1048F0007F906F905F904F900C944A0885E3E5CFCE
:1049000085E373C20E94811B8FEF94E3ACE081507A
:104910009040A040E1F700C0000081E08093E000FB
:1049200080E28093D8001092C900EFE1FEE4319755
:10493000F1F700C0000087E090EBDC0180932A04CF
:1049400090932B04A0932C04B0932D0488E19CE059
:104950000FB6F894A895809360000FBE9093600006
:10496000FFCF0F900F900F900F900F90DF91CF918E
:104970001F910F91FF90EF90DF90CF90BF90AF907D
:104980009F908F907F906F905F904F900C948220BB
:10499000812F902F0E945109D82E44C2F92FFF7009
:1049A000CF2E907F19F0C29440EFC4228D2D222388
:1049B000C9F0CC2069F090E29D0D983010F0D11034
:1049C0000BC080916E02C82AC0926E020E944A08F3
:1049D0008D2D0E94A50E18C080916D02C82AC0922C
:1049E0006D02F4CF0E94550ACC2071F0C09480E291
:1049F0008D0D883010F0B11030C080916E02C82249
:104A0000C0926E020E944A08085011090430110534
:104A100010F40E94250585E0F701DE011196019052
:104A20000D928A95E1F789819A810E945109EA8164
:104A3000BEE08B9FC00111248E0F911D880F991F1E
:104A4000880F991FE981E80FF92FF11DEE0FFF1F65
:104A5000EC54FE4F85919491E5CB80916D02C82274
:104A6000C0926D02CFCF892F8F70907F903211F05E
:104A70008295807F9D2D41E0B4120EC0222331F03B
:104A8000333008F0C1CF0E944B0ABECF323008F05D
:104A9000BBCF0E94400AB8CF222319F0332399F3E9
:104AA00097CF3323B1F3993309F07EC18FEF97EE9F
:104AB000A3E081509040A040E1F700C0000074C125
:104AC000892F86958695837061F0813009F09CCF9F
:104AD0008D2D9370211102C090E080E00E94F904B6
:104AE00093CF8D2D9370211102C090E080E00E9441
:104AF0000F058ACF8D2D222329F00E9417060E94D0
:104B0000310582CF0E945805FACF892F837009F0B2
:104B10006CC0211179CF8D2D829586958770880F75
:104B2000880F6D2D6F70462E512C712C612C082E24
:104B300004C0440C551C661C771C0A94D2F740E054
:104B400050E0BA01D4FE0FC04FE050E060E070E0EA
:104B500004C0440F551F661F771F8A95D2F74095F2
:104B6000509560957095969596959370923019F141
:104B7000A8F580906F0290907002A0907102B090A2
:104B80007202913069F04429552966297729CB01B1
:104B9000BA01682179218A219B210E94360A34CFEB
:104BA00084289528A628B728CB01BA016829792935
:104BB0008A299B29F2CF4429552966297729809093
:104BC0006F0290907002A0907102B0907202CB01BF
:104BD000BA01682579258A259B25DFCFCB01BA014B
:104BE0006429752986299729D8CF8695222311F023
:104BF000892F8170882309F407CF8D2D82958695A2
:104C00008770880F880F6D2D6F70462E512C712C78
:104C1000612C082E04C0440C551C661C771C0A9499
:104C2000D2F740E050E0BA01D4FE0FC04FE050E0B0
:104C300060E070E004C0440F551F661F771F8A951F
:104C4000D2F740955095609570959695969593708E
:104C5000923019F1A8F58090730290907402A090A0
:104C60007502B0907602913069F044295529662981
:104C70007729CB01BA01682179218A219B210E94E1
:104C8000E809C2CE84289528A628B728CB01BA0106
:104C9000682979298A299B29F2CF4429552966292F
:104CA00077298090730290907402A0907502B09062
:104CB0007602CB01BA01682579258A259B25DFCFAD
:104CC000CB01BA016429752986299729D8CF9F700D
:104CD000C92E222329F0892F0E94150A8D2DD3CEAB
:104CE0008D2D0E94400A8C2D0E94F2098DCE8D2DB3
:104CF000B1EFDB1609F442C0BD1558F0E0EFDE1647
:104D0000F1F0222309F44BC0311162CE892F8F714B
:104D10003AC0F2EFDF16D1F143EFD412F2CF2223E3
:104D2000D1F1292F2F7161E070E080E090E004C0A4
:104D3000660F771F881F991F2A95D2F7A0CF2223CD
:104D4000C9F0323008F060CE292F2F7161E070E099
:104D500080E090E004C0660F771F881F991F2A9596
:104D6000D2F78090730290907402A0907502B09078
:104D70007602A1CF333008F047CEE6CF892F8F716E
:104D8000222309F4B1CF0E94150A3ECE892F8F71DC
:104D90002223C9F3A9CF60E070E0CB0170CF3323A9
:104DA00039F0893309F482CE8D2D0E94550A2CCE1C
:104DB000892F8F7199CF85E0F701DE01119601905F
:104DC0000D928A95E1F7F701228189819A8121115B
:104DD0003FCA0E945109D82E43CA06311C4589F4A6
:104DE0008091100281118CCD89E20E946E086FCDF6
:104DF00001152CE5120709F485CD0F3D1C4509F47A
:104E0000B0CDD7011C9111960C91882309F4C0CD27
:104E1000812F902F0E94D808D82E682F812F902F95
:104E20000E947809E02FF0E0BEE0DB9EE00DF11D6E
:104E30001124EE0FFF1FEE0FFF1FE10FF11DEE0F0C
:104E4000FF1FEC54FE4F859194910E94DB06D82EF3
:104E5000B82EF7012281358132953F70892F8295D6
:104E60008F70082F10E08C3008F0CECDF801E4539D
:104E7000F04D0C94332F1F93CF93DF938091390221
:104E8000807FA9F480913602882389F080916B029B
:104E9000D0913A026091340270913502A0913702AC
:104EA000B0913802C62FC72316E0D81304C0DF9193
:104EB000CF911F91089590E0109711F0CF3F19F412
:104EC00001968770F2CF189F9001199F300D112421
:104ED000F901E55CFD4F41814713F2CF4081461354
:104EE000EFCF42814111ECCF438154814A1B5B0BD0
:104EF000483C510528F7809139028F70806180937A
:104F00003902F901E05CFD4F80818F708061808300
:104F100084E392E00E94ED20DF91CF911F910C94E9
:104F2000CE08AF92BF92CF92DF92EF92FF920F9393
:104F30001F93CF93DF93CDB7DEB761970FB6F89489
:104F4000DEBF0FBECDBF8C0185E0F801DE011D96EE
:104F500001900D928A95E1F7F801E28084E3A82E92
:104F600082E0B82E609137027091380261157105A8
:104F700009F432C19091340240913502892F842383
:104F80008F3F09F429C120813181C380D480F09002
:104F90003602F601E61BF70BFF2009F4E8C080910A
:104FA0003902582F507FE83CF10508F0ABC0511191
:104FB00077C0FE2C431321C092131FC0E1101DC007
:104FC0008F70806180933902C5010E94ED2080912D
:104FD0003902F80185838F2D61960FB6F894DEBFF4
:104FE0000FBECDBFDF91CF911F910F91FF90EF903A
:104FF000DF90CF90BF90AF900895CD2829F0822FF9
:1050000083238F3F09F003C180E0F82FF170DF2E7A
:1050100080FF3CC080916B0240913A0256E08413BD
:1050200015C02D873E878D859E850E943609292FC4
:1050300022952F702230F0F0243018F59F70F1F097
:10504000F8019581907FD1F4D12C1EC090E0589F3B
:10505000F001599FF00D1124E55CFD4F618136137D
:1050600006C06081261303C06281E6120FC001965C
:105070008770D5CF9F7011F0882331F3805E883020
:1050800018F3C8010E94ED20FD2CA5CFEE2009F4F5
:10509000A2CF80913902816080933902F12C9BCF9D
:1050A000431306C0921304C0F801EE2009F479C03E
:1050B000C8010E94A409882309F1EE20F9F080912B
:1050C0003902803270F020913402309135023887F5
:1050D0002F831986DB86CA868C87CE0107960E94AD
:1050E000ED2086E0F801A4E3B2E001900D928A95EC
:1050F000E1F70E943B27FF24F3946DCFC8010E9483
:10510000ED20F9CF51110AC084E392E00E94ED2016
:1051100086E0F50111928A95E9F7C0CF43130FC0DD
:1051200092130DC0E1100BC0F8018583C8010E94E5
:10513000ED2086E0F50111928A95E9F74CCFC80180
:105140000E94A4098823D1F2EE20C1F28091390295
:10515000803238F220913402309135023A8329832B
:105160001B82DD82CC828E83CE010196B8CFE83CD3
:10517000F105F8F6FE2CEE2009F243131FC092133E
:105180001DC08091390280FD10C0982F907F69F07A
:10519000F8018583903F31F0982F907F905F8F705A
:1051A000892B8583C8010E94ED2086E0F801A4E3E5
:1051B000B2E001900D928A95E1F70DCFC8010E94EF
:1051C000A40981118ECF80913902816080933902C8
:1051D000C8010E94ED20FFCEEE2009F48FCFC80158
:1051E0000E94A409F82E882309F488CF86E0F801EC
:1051F000A4E3B2E001900D928A95E1F78091340228
:10520000909135020E9436090E943B27E4CE81E04E
:105210008E25FBCE1F93CF93DF93CDB7DEB7679775
:105220000FB6F894DEBF0FBECDBF4B8B5C8B6D8B82
:105230007E8B8F8B611110926D021A8A198A85E01C
:10524000FE017396DE011D9601900D928A95E1F79D
:1052500086E0FE013D96DE01179601900D928A953B
:10526000E1F7CE0107960E949127882389F016E086
:1052700080916B0290913A02891349C067960FB6EC
:10528000F894DEBF0FBECDBFDF91CF911F9108957F
:1052900086E0FE013796DE01119601900D928A9507
:1052A000E1F78A859B85892B11F38F819885892366
:1052B0008F3FE9F220913A0230E0C90101968770F0
:1052C000992740916B024817190671F40E94811BBF
:1052D00010923A0210926B0286E0E4E3F2E0DF0102
:1052E0001D928A95E9F7C3CF96E0929FD001939FD4
:1052F000B00D1124A55CBD4FFE01319601900D92B9
:105300009A95E1F780933A020E94CE08B0CF819F30
:10531000C0011124855C9D4F0E949127882309F4C8
:10532000ADCF80916B0290E00196877099278093B2
:105330006B029ECF1F920F920FB60F9211242F93E4
:105340003F934F935F936F937F938F939F93AF930D
:10535000BF93CF93DF93EF93FF93D091E900DF707A
:105360008091EC00C82FC17080FDC0E81092E90068
:105370008091F000877F8093F00078940E94981BC2
:105380001092E9008091F00088608093F000CD2BAE
:10539000CF70C093E900FF91EF91DF91CF91BF9162
:1053A000AF919F918F917F916F915F914F913F91BD
:1053B0002F910F900FBE0F901F9018951F920F9274
:1053C0000FB60F9211242F933F934F935F936F93D8
:1053D0007F938F939F93AF93BF93EF93FF938091AE
:1053E000E10082FF09C08091E20082FF05C0809148
:1053F000E1008B7F8093E1008091DA0080FF24C080
:105400008091D80080FF20C08091DA008E7F809349
:10541000DA008091D90080FF9BC080E189BD82E1E4
:1054200089BD09B400FEFDCF81E080932604809100
:10543000F803811109C00E949E020E949B03809183
:10544000E20084608093E2008091E10080FF17C059
:105450008091E20080FF13C08091E2008E7F8093F4
:10546000E2008091E20080618093E2008091D800A8
:1054700080628093D80019BC85E0809326048091D7
:10548000E10084FF29C08091E20084FF25C080E113
:1054900089BD82E189BD89B5982F917080FFFBCFCE
:1054A0008091D8008F7D8093D8008091E1008F7E1D
:1054B0008093E1008091E2008F7E8093E2008091F2
:1054C000E20081608093E20080911D04882309F44A
:1054D00045C084E0809326048091E10083FF27C0CB
:1054E0008091E20083FF23C08091E100877F809359
:1054F000E10082E08093260410921D048091E10077
:105500008E7F8093E1008091E2008E7F8093E200A5
:105510008091E20080618093E20042E060E080E000
:105520000E9469038091F00088608093F000FF91F1
:10553000EF91BF91AF919F918F917F916F915F910B
:105540004F913F912F910F900FBE0F901F90189584
:1055500019BC109226041092F80376CF8091E300D4
:1055600087FD93E090932604B7CF78941F921FB6DF
:105570001F9211248F939F93AF93BF938091EF035A
:105580009091F003A091F103B091F2030196A11D57
:10559000B11D8093EF039093F003A093F103B093B8
:1055A000F203BF91AF919F918F911F901FBE1F90EB
:1055B00018951F921FB61F9211248F939F93AF933C
:1055C000BF938091EE03811113C08091EF039091FE
:1055D000F003A091F103B091F2034196A11DB11D1A
:1055E0008093EF039093F003A093F103B093F20341
:1055F000BF91AF919F918F911F901FBE1F901895E3
:10560000CDB7DEB762970FB6F894DEBF0FBECDBF41
:1056100084B7877F84BF0FB6F894A8958091600007
:10562000886180936000109260000FBE80E890E077
:105630000FB6F89480936100909361000FBE85B718
:10564000806885BF85B7806885BF86E996E09093BE
:105650006301809362010E949E020E949B038091DD
:10566000E20084608093E20078948091260488238D
:10567000A1F01091E9001F709091EC00892F8170CA
:1056800090FD80E8182B1092E9008091E80083FDDE
:105690000E94981B1F701093E90082E084BD93E084
:1056A00095BD9AEF97BD80936E000E94161B90E007
:1056B00090930B0180930A010E941B0D0E942A0DFA
:1056C0008FEA92E0E7E7F2E05BEC652E52E0752EA0
:1056D0004DEB52E0DA011D92AD01DC011D92CD01CE
:1056E00010821182128213823496B2E04B3C5B0727
:1056F00089F790E080E00E944E2F893E9E4F11F086
:105700000E94822082E090E00E94462F8093110345
:105710000E9474209093F4038093F30383E090E05D
:105720000E94462F682F70E090E080E00E94360AC9
:1057300081E00E944C203F988AB18F708AB96E98A0
:10574000479A8BB1806F8BB9769A90E080E00E9487
:105750004E2F893E9E4F11F00E9482208DE090E0F6
:105760000E94462F8093DA036091F3036068609390
:10577000F3031091F40384E090E00E94542F612F12
:1057800082E290E00E94542F80E091E09093EB033E
:105790008093EA0382E090E09093200180931F01C0
:1057A00080912604843069F4809121019091220136
:1057B000A0912301B0912401892B8A2B8B2B09F016
:1057C0002DC238E1A32EB12C42E1242E8091260473
:1057D000853049F480912604853009F443C20E9443
:1057E000811B0E9425050E94E01F882359F08FB776
:1057F000F8944091EF035091F0036091F1037091A0
:10580000F2038FBFE2E1F3E0ADEBB2E010E000E0C5
:10581000302F8D919191981709F471C2292F282763
:1058200090E0FF24F394422F4F2109F463C299873B
:105830003A878F2191E009F490E09B870E946C04E5
:105840008160782F9D878C8749855A856B858D85EA
:105850000E940A29F801EE5EFC4F8081F826F08252
:1058600086E0E2EEF3E0DE01119601900D928A955A
:10587000E1F7F090E403E090E5031091E603009176
:10588000E7031092E4031092E5031092E6031092EE
:10589000E7038F2D8E2909F448C08091E003909191
:1058A000E1030E945D049C019091DC03992309F4BB
:1058B000A2C225313105C8F19F3F19F09F5F909337
:1058C000DC03FF2059F00E94F3059FEF1F140CF436
:1058D00091E0899F802D11248093E403EE2059F0FC
:1058E0000E94F3059FEF1E140CF491E0899F802D18
:1058F00011248093E5033091E4033323B1F0209128
:10590000E503222391F045EB3403C00111249923D0
:1059100009F40CC29093E40345EB24039001112495
:10592000332309F407C23093E503812F802B09F458
:1059300048C08091DE039091DF030E945D049C01CA
:105940009091DB03992309F452C225363105C8F141
:105950009F3F19F09F5F9093DB03112359F00E9442
:10596000D1059FEF11160CF491E0899F802D112431
:105970008093E603002359F00E94D1059FEF101693
:105980000CF491E0899F802D11248093E7033091DE
:10599000E6033323B1F02091E703222391F045EB96
:1059A0003403C0011124992309F4C8C19093E6037C
:1059B00045EB240390011124332309F4C3C1309330
:1059C000E7038091E4039091E503892B9091E6032E
:1059D000892B9091E703892B11F00E94310586E015
:1059E000FE013196A2EEB3E001900D928A95E1F7A7
:1059F00080910F0318160CF0C0C04090240344207F
:105A000009F4BBC080910D0390910E030E945D04C8
:105A10006C018091200390912103892B09F081C0B2
:105A2000E0912303F0E0EE0FFF1FE550FD4F0091E2
:105A30000B0310910C0380819181081B190BC01678
:105A4000D10608F46EC001151105A1F122E3209FD3
:105A5000C001219F900D112464E670E00E940B2F7D
:105A6000542C4801861A970A7801E60EF71E332453
:105A70003A94350C832D0E947106E82FF0E0EE0F6A
:105A8000FF1FE550FD4F2081318180910B039091E4
:105A90000C03821B930B8815990520F0E816F90674
:105AA00008F054C1852D0E94710680932503451886
:105AB00040922403E0902403F12C86E0882EFE140B
:105AC00081F18F2D0E947106982E889DB0011124BE
:105AD00065537D4F46E050E088EC93E00E94392FFB
