:100000000C9455020C949C020C949C020C949C023F
:100010000C949C020C949C020C949C020C949C02E8
:100020000C949C020C949C020C9435290C94F1289D
:100030000C94302A0C949C020C949C020C949C020C
:100040000C949C020C949C020C949C020C949C02B8
:100050000C949C020C940C2A0C949C020C949C0210
:100060000C949C020C949C020C949C020C949C0298
:100070000C949C020C949C020C949C020C949C0288
:100080000C949C020C949C020C949C020C949C0278
:100090000C949C020C949C020C949C020C949C0268
:1000A0000C949C020C949C020C949C02536570204E
:1000B000313520323032310076312E313A20436CE6
:1000C00061794D0000000000000000000000000009
:1000D0000000000000000000000000000000000020
:1000E00000000000000000007E0F00D4FFFFFFC7EB
:1000F0000000007800000000000000002A2B28000B
:1001000000000000000000000000000000000029C6
:10011000000000002C1E3420212224342627252E06
:10012000362D3738271E1F2021222324252633333E
:10013000362E37381F0405060708090A0B0C0D0E6A
:100140000F101112131415161718191A1B1C1D2F36
:100150003130232D350405060708090A0B0C0D0E56
:100160000F101112131415161718191A1B1C1D2F16
:100170003130354C00D0D0D0D0D0D00101020408AD
:1001800010204142444848000000484850608182A5
:10019000848890A0C1C2C4D0D0D0D0D0D0C8000034
:1001A000000000000000000000000000000000004F
:1001B000000000000000165A175A185A00001A5A78
:1001C0001B5A235A00001C5A1D5A195A00001E5A65
:1001D0001F5A00000000205A215A00000000225A35
:1001E000295A000000000000000000000000115A21
:1001F000125A015A00000D5A0E5A105A00000B5A9A
:100200000C5A0F5A0000095A0A5A00000000075AF7
:10021000085A00000000005A155A000000000000B3
:100220000000000000001C000B0025020000180068
:100230000D004C0000000C000E00105000001200D9
:100240000F00000000001300330000000000280031
:100250003402000000000000000000000000170051
:100260000A0028420000150009002C0000000800C8
:100270000700E20000001A00160000000000140051
:10028000040000000000E100E000000000000000A9
:1002900000000000000023001100250200002400DF
:1002A00010004C000000250036021050000026000F
:1002B00037020000000027003802000000002D0077
:1002C000E500000000000000000000000000220027
:1002D000050028000000210019002C00000020006B
:1002E0000600E20000001F001B00000000001E00CE
:1002F0001D0000000000E100E00000000000000020
:100300000000000005010906A1018501050719E0AB
:1003100029E71500250195087501810295017508E9
:1003200081010507190029FF150026FF00950675B4
:1003300008810005081901290595057501910295A7
:100340000175039101C005010902A101850209019E
:10035000A100050919012908150025019508750155
:1003600081020501093009311581257F9502750843
:10037000810609381581257F950175088106050CD0
:100380000A38021581257F950175088106C0C005D0
:10039000010980A101850319012AB700150126B7BB
:1003A00000950175108100C0050C0901A1018504AB
:1003B00019012AA002150126A002950175108100DD
:1003C000C005010906A1018505050719E029E71502
:1003D0000025019508750181020507190029EF150F
:1003E00000250195F075018102050819012905957F
:1003F0000575019102950175039101C009025F0025
:10040000030100A0FA090400000103010100092111
:100410001101000122F8000705810320000A080BE2
:1004200001020202010009040100010202010005AB
:10043000240010010424020205240601020705829B
:10044000030800FF09040200020A00000007050477
:10045000021000050705830210000512010002EFDB
:10046000020108EDFE37130100010200010E0347EF
:100470000065006F007200670069000000260367D6
:1004800000200048006500610076007900200049E6
:10049000006E0064007500730074007200690065EE
:1004A0000073000000040309040011241FBECFEFF5
:1004B000DAE0DEBFCDBF04B603FE27C0809123047F
:1004C00090912404A0912504B09126048730904B8C
:1004D000A740B04BD1F41092230410922404109240
:1004E00025041092260414BE84B7877F84BF0FB6FC
:1004F000F894A895809160008861809360001092C4
:1005000060000FBEE0E0F8E3099511E0A0E0B1E083
:10051000E2E6FEE502C005900D92A236B107D9F7DA
:1005200024E0A2E6B1E001C01D92A332B207E1F7D8
:100530000E94572A0C94E12E0C940000E8EDF0E0A4
:1005400080818E7F80831092E2001092DA001092F8
:10055000E100A0EEB0E08C9181608C9380818F7778
:10056000808319BCA7EDB0E08C918E7F8C93808145
:100570008F7E80831092F10308952091E4003091E2
:10058000E50095E6A9012091EC00822F817020FF03
:1005900006C08091E80080FF06C080E008952091A9
:1005A000E80022FD1AC080911F04882389F085305D
:1005B00089F08091EB0085FD0FC02091E40030911F
:1005C000E50042175307F9F29150E1F684E00895EF
:1005D00082E0089583E0089581E0089580911F04EA
:1005E000843061F58091210190912201A091230135
:1005F000B0912401892B8A2B8B2B01F180910E0164
:100600008F708093E9009091F3008091F200892B24
:1006100011F480E008959091E8008091E8008E77D1
:100620008093E80095FDF5CF0E94BD02811107C0BF
:100630009091E8009E779093E800089582E00895F5
:10064000EF92FF920F931F93CF937C018B010E9437
:10065000BD02C82F811117C08091E80085FD0BC035
:100660008091E8008E778093E8000E94BD02882385
:1006700099F3C82F08C0F70181917F018093F100A1
:100680000150110949F78C2FCF911F910F91FF90C5
:10069000EF9008958091170487FF13C08091E800C0
:1006A00082FF06C08091E8008B778093E80004C049
:1006B00080911F048111F2CF089580911F04882337
:1006C000D9F38091E80080FFF8CF8091E8008E7721
:1006D000ECCF982F9093E900242F762F50E08917C4
:1006E00031F07091EC002091ED005091F00021FD6F
:1006F00007C09F5F973071F78093E90081E008950C
:100700003091EB003E7F3093EB003091ED003D7F68
:100710003093ED003091EB0031603093EB0070933B
:10072000EC002093ED005093F0002091EE0027FDA7
:10073000E0CF80E00895CF92DF92EF92FF920F9387
:100740001F93CF93DF93C8EDD0E088818F7E88839D
:10075000E7EDF0E080818160808384E082BF81E00A
:100760008093F10388818E7F888302EE10E0F80188
:1007700010821092DA0081EEC82ED12CF601108280
:1007800088818F77888388818068888388818F7D3E
:10079000888319BC10921F0410921604109215043D
:1007A0001092140490EEE92EF12CF70180818B7FDA
:1007B000808388818160888342E060E080E00E94DD
:1007C0006903F60180818E7F8083F80180818160DA
:1007D0008083808188608083F70180818E7F808321
:1007E000888180618883DF91CF911F910F91FF9065
:1007F000EF90DF90CF900895FC0180911D049091BF
:100800001E0486179707A0F06115710529F49091D1
:10081000E8009E779093E80090E06115710551F42F
:10082000911108C08091E80082FF34C080E00895F3
:10083000BC01F2CF80911F048823C1F18530C1F142
:100840008091E80083FD30C08091E80082FDEACF0E
:100850008091E80080FFE1CF8091F3002091F200C9
:10086000382F6115710519F02830310558F091E0E5
:100870002830310509F090E02091E8002E77209390
:10088000E800CBCF81918093F100615071092F5F17
:100890003F4FE7CF80911F04882341F0853041F01E
:1008A0008091E80083FFBECF81E0089582E0089543
:1008B00083E008958091F30308959C014FB7F89465
:1008C0008091E8039091E903A091EA03B091EB03D2
:1008D0004FBF821B930B08952FB7F8948091E803C4
:1008E0009091E903A091EA03B091EB032FBF089523
:1008F000DF92EF92FF920F931F93CF93DF93F82E27
:100900000E946C048C0184EAE82E94E8D92E10929F
:10091000BC00E092BC000E946C04EC018091BC0021
:1009200087FF0DC08091B900887F8830F9F08091F1
:10093000B900887F8031D1F0CFEFDFEF08C00E948F
:100940006C048C1B9D0BC29748F3CEEFDFEFC80100
:100950000E945D04883E9340D0F2CE01DF91CF919A
:100960001F910F91FF90EF90DF900895F092BB00E0
:10097000D092BC000E946C04EC018091BC0087FF07
:100980000AC08091B900887F883111F08034A1F6C7
:10099000D0E0C0E0E2CF0E946C048C1B9D0BC2979C
:1009A00060F3D3CFCF93DF938093BB0084E8809331
:1009B000BC000E946C04EC018091BC0087FF0FC05A
:1009C0002091B900287F81E090E0283211F490E076
:1009D00080E0919581959109DF91CF9108950E94D2
:1009E0006C048C1B9D0B883E934030F38EEF9FEF81
:1009F000F3CF2091E5033091E6032817390771F012
:100A00009093E6038093E503E091E303F091E40320
:100A1000309721F00084F185E02D0994089520910C
:100A2000E1033091E2032817390771F09093E20354
:100A30008093E103E091E303F091E403309721F028
:100A40000680F781E02D09940895E091E303F09189
:100A5000E403309721F00190F081E02D099480E0CB
:100A600008950E946C049C019091DD038091DE0347
:100A7000982B21F03093DA032093D9039091DF0370
:100A80008091E003982B21F03093D8032093D70373
:100A9000E091E303F091E403309749F082E0809322
:100AA000DB030480F581E02D8BED93E0099408953C
:100AB0004091DD038D3E59F48091DE0387FF0DC028
:100AC0001092DE0341110BC01092D50308C08E3E78
:100AD00081F48091DE0318169CF3442381F0809109
:100AE000DF039091E003892B09F05AC01092D403E0
:100AF00008958F3E49F447FFF0CF1092DD038091B7
:100B0000DE038111ECCFE0CF803F19F41416ACF373
:100B1000E4CF9091DF03893F29F41916F4F610927F
:100B2000DF03DBCF8A3F19F497FFD7CFF8CF90913F
:100B3000E0038B3F29F497FFD0CF1092E003CDCF95
:100B40008C3F19F41916CCF3C8CF9FE0980F98305A
:100B500090F4815F990B21E030E0B90102C0660F8B
:100B6000771F8A95E2F7CB0180959091DC0389236A
:100B70008093DC03B2CF8D3F31F48091D6038E7F1A
:100B80008093D603AACF8E3F21F48091D6038D7F28
:100B9000F7CF8F3F09F0A1CF8091D6038B7FF0CFA5
:100BA00008958091D60380FD16C081FD16C082FD98
:100BB00016C08091D4038823A1F0883280F428E005
:100BC000829FC001112468E270E00E94782E862F77
:100BD000672B39F0089582E0089584E0089588E055
:100BE000089581E008958091D60380FD16C081FDAF
:100BF00016C082FD18C08091D503882391F08C33F4
:100C000090F423E2829FC00111246CE370E00E9403
:100C1000782E862F672B49F0089588E0089581E1AA
:100C2000089585E0089583E2089581E008958D3E5A
:100C300031F40E94F30581958093DE0308958E3E82
:100C400019F40E94F305F8CF8F3E31F40E94F305AA
:100C500081958093DD030895803F19F40E94F30588
:100C6000F8CF893F29F40E94D1058093DF030895CE
:100C70008A3F21F40E94D1058195F7CF8B3F31F453
:100C80000E94D10581958093E00308958C3F19F46B
:100C90000E94D105F8CF9FE0980F983070F4815FE3
:100CA000990B21E030E001C0220F8A95EAF780918C
:100CB000DC03822B8093DC0308958D3F31F4809117
:100CC000D60381608093D60308958E3F21F48091EE
:100CD000D6038260F7CF8F3FB9F78091D603846047
:100CE000F1CF90912A03890F883008F08850089539
:100CF000CF93DF9300D000D00F92CDB7DEB76B83D8
:100D00007C838D838C819D81892B21F0CA0189236D
:100D10008F3F51F480E081700F900F900F900F90F3
:100D20000F90DF91CF9108958B81F5CF80E00895EA
:100D30009091EC0392FF06C0282F28712830F9F417
:100D4000877F846093FF06C0282F28712831F1F433
:100D5000877E84612091ED0320FF06C0382F387113
:100D60003830D9F4877F816021FF06C0282F287191
:100D70002831D1F4877E816194FD877E0895282FE4
:100D800024712430F9F68B7F8860DCCF282F247102
:100D9000243101F78B7E8861DDCF382F31713130FE
:100DA00019F78E7F8860E0CF282F2171213121F73C
:100DB0008E7E8861E1CFCF93DF93EC01823891057D
:100DC00081F1B0F58133910509F491C020F58932A4
:100DD000910509F485C08A9709F490C0C11520E5F2
:100DE000D20708F0A7C0C11530E4D30708F0F6C059
:100DF000CF3BD10508F089C0C83AD10508F0E1C061
:100E0000C53AD10508F0D5C0C430D105F8F4C130D9
:100E1000D105E1F040C08533910509F45AC0C99766
:100E2000E9F68091EC03837089F0C0EED0E00EC04B
:100E3000833E910599F170F4803E910501F1823E67
:100E4000910561F68091EC0382FD21C0CE01DF9116
:100E5000CF910895863E910561F1873E910571F12C
:100E6000843E910509F0BACF8091ED0381FFEECF6A
:100E70008091EC03C7EED0E084FD0DC0E7CF8091F8
:100E8000EC0380FDFEC09091ED0390FFDFCFC3EE39
:100E9000D0E084FFDBCFD0E0C0E0D8CF8091EC037E
:100EA00082FDF2C09091ED0390FDBFCF84FFCECFC5
:100EB000F2CF8091EC0383FDDDCFC8CF8091EC03AE
:100EC00083FDE5C09091ED0391FFF0CFC4EED0E03B
:100ED000BDCF8091EC0385FFB9CFC9E2D0E0B6CF9A
:100EE0008091EC0385FFB2CFC5E3D0E0AFCF809116
:100EF000EC0386FFABCFCAE2D0E0A8CF8091EC0331
:100F000086FFA4CFC1E3D0E0A1CFCF3FD10509F048
:100F100058F4CD3ED10508F05FC0CE01805E910946
:100F2000089708F493CFB7CFC11540E2D40708F46F
:100F30008DCFB1CFC11584E5D807A0F4C11593E5D5
:100F4000D90708F07CC0C11522E5D20708F066C0B9
:100F5000C11531E5D30708F444C0DC2FCC27C16F9D
:100F6000D06A74CFC1154AE5D40778F4C11589E574
:100F7000D80708F078C0C11598E5D90708F48BCFD9
:100F8000DC2FCC27C06FD06A61CFCE01905681157F
:100F9000904208F080CF8D2F8F710E94980690E0CC
:100FA000982F882788279F719C012C2BE901D062FC
:100FB0004DCFC55AD0E0C05DDE4FC881D0E0D064CF
:100FC00045CFC85AD0E0CC0FDD1FCD5CDE4F099075
:100FD000D881C02DD4643ACFD06538CFDF70D06AC5
:100FE00035CFCE0164E0969587956A95E1F78370D9
:100FF0002C2F26952695237040E2249F90011124E2
:10100000382B8C2F8370C1E0D0E002C0CC0FDD1FE5
:101010008A95E2F7C22BD32BDC6818CFCE01837000
:10102000992721E030E002C0220F331F8A95E2F7B2
:10103000C695C69580E2C89FE0011124EBCFCE0192
:101040008370992721E030E002C0220F331F8A9578
:10105000E2F7C695C69590E2C99FE0011124C22B24
:10106000D32BDA68F3CE8C2F8F700E94980634E071
:10107000D695C7953A95E1F7CF709C2FEC01D069D2
:10108000E5CEC9E3D0E0E2CEC2EED0E0DFCEC6EEE0
:10109000D0E0DCCE80916D0290916C02892B909112
:1010A0006B02892B80936501E091E303F091E403E7
:1010B000309799F080910C01882369F08091EC03BE
:1010C00087FF09C085E0809364010280F381E02DF1
:1010D00084E691E0099481E0F6CF089590910C01A7
:1010E0009923D1F09091EC0397FF16C0E82FE69575
:1010F000E695E695EE31E0F4F0E0EC59FE4F282F4E
:10110000277081E090E001C0880F2A95EAF780956A
:101110009281892382830895E7E6F1E09191891312
:1011200003C0DF0111971C9291E0ED36F907B1F78A
:10113000089590910C019923C1F09091EC0397FFD1
:1011400014C0E82FE695E695E695EE31F8F4F0E068
:10115000EC59FE4F877021E030E001C0220F8A95E4
:10116000EAF78281822B82830895A7E6B1E0EFEF50
:1011700090E02D91821751F0EF3F19F4211101C039
:10118000E92F9F5F9630A9F7EF3F09F408950E2EDF
:10119000000CFF0BEC59FE4F8383089580916A0287
:1011A00090913902981301C008958F5F8770FACF2C
:1011B0008F929F92AF92BF92CF92DF92EF92FF9267
:1011C0000F931F93CF93DF938090720290907302DE
:1011D000A0907402B090750240916E0250916F021F
:1011E0006091700270917102842A952AA62AB72A0A
:1011F000CFE1D0E0E92EF12C2EE0C22E082F10E036
:10120000DC2ED501C4010C2E04C0B695A795979588
:1012100087950A94D2F780FD11C0219788F7D12CC9
:101220008D2DDF91CF911F910F91FF90EF90DF9067
:10123000CF90BF90AF909F908F900895CC9EF0017B
:10124000CD9EF00D1124EE0DFF1DEE0FFF1FEE0FD2
:10125000FF1FE00FF11FEE0FFF1FEC54FE4F8591B3
:1012600094910E94DB060197C1F2DACFCF93DF930E
:10127000EC010E94D8089EE0899FF0011124ED0F37
:10128000F11DEE0FFF1FEE0FFF1FEC0FF11DEE0F14
:10129000FF1FEC54FE4F85919491DF91CF910C94F8
:1012A000DB06990F990F890F982F97708695869571
:1012B000869525E0829FF0011124E05FFD4F50E00C
:1012C00040E080E0219130E0092E02C0369527955C
:1012D0000A94E2F721703327042E01C0220F0A94EA
:1012E000EAF7822B4F5F5F4F4530510559F708955C
:1012F000990F990F890F982F977041E001C0440F03
:101300009A95EAF786958695869595E0899FF001EE
:101310001124E05FFD4F30E020E070E05191DF01EB
:101320001197CB01022E02C0969587950A94E2F799
:10133000817081958527842385278C932F5F3F4F6C
:101340002530310559F70895FC01808191810E9473
:101350003609292F2F7092959F7092509E3078F405
:10136000E92FF0E0ED51F14D0C948C2E803F19F0F7
:1013700020F4883E20F481E00895843FE1F380E08A
:101380000895883EC0F3813FD1F7F5CF822F86952F
:1013900086958695089590E080E00E940F0590E084
:1013A00080E00E94F90410926C0210926B020E947D
:1013B0004A0886E0EBEDF3E0DF011D928A95E9F73C
:1013C0001092D5031092D4031092D6030C943105D9
:1013D000609372027093730280937402909375020B
:1013E0000C94CB090F931F9341E050E060E070E054
:1013F00004C0440F551F661F771F8A95D2F7CB0193
:10140000BA01609570958095909500917202109147
:10141000730220917402309175026023712382233C
:1014200093231F910F910C94E8090F931F9341E0B0
:1014300050E060E070E004C0440F551F661F771F46
:101440008A95D2F78091720290917302A0917402F2
:10145000B09175028A019B01082B192B2A2B3B2B7B
:10146000C901B8011F910F910C94E80960936E02B5
:1014700070936F0280937002909371020C94CB0969
:10148000882341F0809590916D02892380936D02AD
:101490000C944A080895882339F090916D02982B96
:1014A00090936D020C944A080895882309F459C05A
:1014B000823871F40E94250581FF53C089E30E94A0
:1014C00099080E944A0889E30E946E080C944A0811
:1014D000833859F40E94250580FF43C083E50E94AC
:1014E00099080E944A0883E5EFCF843859F40E9496
:1014F000250582FF36C087E40E9499080E944A08A9
:1015000087E4E2CF9CEF980F913AF0F290E2980FC7
:10151000983088F4877021E030E0A90102C0440FC0
:10152000551F8A95E2F7CA01809590916D02892333
:1015300080936D02CBCF9BE5980F933020F490E021
:1015400080E00C940F0598E5980F973120F490E017
:1015500080E00C94F9048D3E20F00E9458050C9414
:10156000310508956093090270930A0280930B027B
:1015700090930C028091AC039091AD03909308027C
:1015800080930702EBE2F3E0A7E8B1E041915191CB
:10159000619171914D935D936D937D9383E0EB3AEF
:1015A000F807A1F708950F931F93CF93DF93EC01F2
:1015B0008B01FB018281882309F44EC00E946C04D8
:1015C000909386018093850181E08093AE03F801BA
:1015D0009281FE01FA55EA32F10508F0D9C1EF50C7
:1015E000F14D0C948C2E4091C7035091C80360912B
:1015F000C9037091CA03992331F144604093C70332
:101600005093C8036093C9037093CA038091AC03DD
:101610009091AD03FC01EE0FFF1FEE0FFF1FE55D84
:10162000FC4F4091C7035091C8036091C90370916A
:10163000CA03408351836283738301969093AD0301
:101640008093AC0309C04B7F4093C7035093C803FA
:101650006093C9037093CA0381E0DF91CF911F911A
:101660000F9108954091C7035091C8036091C90339
:101670007091CA03992311F04860C0CF477FE4CF2F
:101680004091C7035091C8036091C9037091CA0388
:10169000992311F04061B2CF4F7ED6CF4091C7035E
:1016A0005091C8036091C9037091CA03992311F046
:1016B0004062A4CF4F7DC8CF4091C7035091C8036B
:1016C0006091C9037091CA03992311F0416096CFCC
:1016D0004E7FBACF4091C7035091C8036091C903B0
:1016E0007091CA03992311F0426088CF4D7FACCF2F
:1016F0004091C7035091C8036091C9037091CA0318
:10170000992311F040647ACF4F7B9ECF4091C7035D
:101710005091C8036091C9037091CA03992311F0D5
:1017200040686CCF4F7790CF4091C7035091C8036A
:101730006091C9037091CA03992311F051605ECF83
:101740005E7F82CF4091C7035091C8036091C90367
:101750007091CA03992311F0526050CF5D7F74CF0E
:101760004091C7035091C8036091C9037091CA03A7
:10177000992311F0546042CF5B7F66CF4091C7033D
:101780005091C8036091C9037091CA03992311F065
:10179000586034CF577F58CF4091C7035091C8034A
:1017A0006091C9037091CA03992311F0506126CF4B
:1017B0005F7E4ACF4091C7035091C8036091C9032F
:1017C0007091CA03992311F0506218CF5F7D3CCF0E
:1017D0004091C7035091C8036091C9037091CA0337
:1017E000992311F050640ACF5F7B2ECF4091C7033D
:1017F0005091C8036091C9037091CA03992311F0F5
:101800005068FCCE5F7720CF4091C7035091C8034A
:101810006091C9037091CA03992311F06160EECE03
:101820006E7F12CF4091C7035091C8036091C903E6
:101830007091CA03992311F06260E0CE6D7F04CFEE
:101840004091C7035091C8036091C9037091CA03C6
:10185000992311F06460D2CE6B7FF6CE4091C7031E
:101860005091C8036091C9037091CA03992311F084
:101870006860C4CE677FE8CE4091C7035091C8032B
:101880006091C9037091CA03992311F06061B6CECB
:101890006F7EDACE4091C7035091C8036091C903AF
:1018A0007091CA03992311F06062A8CE6F7DCCCEEF
:1018B0004091C7035091C8036091C9037091CA0356
:1018C000992311F060649ACE6F7BBECE4091C7031E
:1018D0005091C8036091C9037091CA03992311F014
:1018E00060688CCE6F77B0CE4091C7035091C8032B
:1018F0006091C9037091CA03992311F071607ECE83
:101900007E7FA2CE4091C7035091C8036091C90366
:101910007091CA03992311F0726070CE7D7F94CECE
:101920004091C7035091C8036091C9037091CA03E5
:10193000992311F0746062CE7B7F86CE4091C703FD
:101940005091C8036091C9037091CA03992311F0A3
:10195000786054CE777F78CE4091C7035091C8030A
:101960006091C9037091CA03992311F0706146CE4A
:101970007F7E6ACE4091C7035091C8036091C9032E
:101980007091CA03992311F0706238CE7F7D5CCECE
:10199000992309F461CE3ACECF93C82F873050F502
:1019A00080910A0190910B01892B11F580E40E942E
:1019B000780490930B0180930A01892BB1F482E1A2
:1019C0000E94D20490930B0180930A01892B69F441
:1019D00081E090E001C0880FCA95EAF780950E94E7
:1019E000D20490930B0180930A0184E98093BC0098
:1019F000CF9108958A30B1F038F4883069F0893099
:101A000071F0209A2898F4CF8C3091F070F08D30DE
:101A1000C1F73E9A4698ECCF219A2998E9CF229AAD
:101A20002A98E6CF239A2B98E3CF529A5A98E0CF80
:101A3000539A5B98DDCF84B1807F84B985B1807F74
:101A400085B93E9846988AB1837F8AB98BB1837FE6
:101A50008BB9089580B38D7880BB81B3826781BBD9
:101A60000895EF92FF920F931F93CF93DF93C82FA8
:101A7000873008F084C080910A0190910B01892B76
:101A800009F088C080E40E94780490930B01809351
:101A90000A01892B09F43FC090E084E98093BC00DF
:101AA0002C2F30E0F901E255FD4FA081A92790834A
:101AB000F901EE0FFF1FEE0FFF1FEA58FD4F70E018
:101AC00060E040E0C1E0D0E0B0E055E0162F80815A
:101AD000882309F461C0815080837D0102C0F594A0
:101AE000E7941A95E2F7E0FC50836F5F7F4F3196E1
:101AF0006430710559F724543D4F842F8095F901C6
:101B0000208182239423892BDF91CF911F910F9104
:101B1000FF90EF90089583E10E94D20490930B010F
:101B200080930A01892B09F0B7CF81E40E947804E1
:101B300090930B0180930A01892B09F0ADCF84E8C3
:101B40008093BC000E946C048C018091BC0087FFD4
:101B500008C09091BB00909510920B0110920A0161
:101B60009CCF0E946C04801B910B883E934068F3CD
:101B70008EEF9FEF90930B0180930A018DCF8FB171
:101B80009FB1869581709695969596959E70982BA7
:101B9000909586CF90E084CF7E01062E01C0EE0C9A
:101BA0000A94EAF74E2999CFCF93C091E90020918A
:101BB000EC00922F917020FD90E820911D0120FFF4
:101BC00012C0CF70C92B90910E019F709093E900C5
:101BD0009091EB0090FF04C09091EE0097FD05C03E
:101BE000CF70C093E900CF9108959FEF2091E80056
:101BF000915025FD06C025ED2A95F1F700009111C1
:101C0000F5CF8093F1008DE091E00E94EE0280918B
:101C1000E80080FFE5CF8091E8008E778093E800B0
:101C2000DFCF90911F04943031F58093EE037093D1
:101C3000F0036093EF0381E08093E9008FEF9091D0
:101C4000E800815095FD06C095ED9A95F1F70000EA
:101C50008111F5CF8091E80085FF0DC050E040E094
:101C600063E070E08EEE93E00E9420038091E80034
:101C70008E778093E8000895BC0184E00C94110EE7
:101C8000BC0183E00C94110E9C0181E08093E9007B
:101C90009FEF8091E800915085FD06C085ED8A9503
:101CA000F1F700009111F5CF8091E80085FF0CC09D
:101CB00050E040E066E070E0C9010E94200380919E
:101CC000E8008E778093E8000895CF93DF93EC01CE
:101CD00080910C01882321F08091EC0360E287FF62
:101CE00069E081E08093E9008FEF9091E8008150F6
:101CF00095FD06C095ED9A95F1F700008111F5CF9D
:101D00008091E80085FF19C080910C01811118C0F5
:101D100050E040E068E070E0CE0101960E942003B0
:101D20008091E8008E778093E80080E2FE01A4EFC6
:101D3000B3E001900D928A95E1F7DF91CF9108957C
:101D400070E050E040E0CE01E9CFCF93C82F882368
:101D500009F4AEC08238C1F40E94250581FDA8C0F7
:101D600089E30E9499080E944A082FEF81EE94E0CF
:101D7000215080409040E1F700C0000089E30E94BC
:101D80006E08CF910C944A088338A1F40E9425056F
:101D900080FD8EC083E50E9499080E944A082FEFBB
:101DA00081EE94E0215080409040E1F700C00000B7
:101DB00083E5E5CF8438A1F40E94250582FD78C033
:101DC00087E40E9499080E944A082FEF81EE94E070
:101DD000215080409040E1F700C0000087E4CFCF61
:101DE0008CEF8C0F813A88F580910C01882301F1EA
:101DF0008091EC0387FF1CC0EC2FE695E695E695F5
:101E0000F0E0EC59FE4F828190E04C2F477021E0CA
:101E100030E002C0220F331F4A95E2F7822393235A
:101E2000892B79F08C2F0E946E080E944A0809C005
:101E3000E7E6F1E08191C817A9F321E0ED36F2075A
:101E4000C9F78C2F0E9499089CCF80E28C0F8830B4
:101E500068F4C77021E030E001C0220FCA95EAF7AC
:101E600080916D02822B80936D028BCFEBE5EC0F9E
:101E7000E33040F4F0E0E05DFE4F808190E0CF91F0
:101E80000C940F05E8E5EC0FE73150F4F0E0EE0FAD
:101E9000FF1FED5CFE4F80819181CF910C94F9047E
:101EA000CD3E30F08C2F0E941706CF910C94310557
:101EB000CF9108951F93CF93DF93182FD0E0C0E008
:101EC000893311F4C0E5D0E0812F0E94A50E209740
:101ED00031F4812FDF91CF911F910C94550A8FE936
:101EE0009FE00197F1F700C000002197F0CF0F931A
:101EF0001F93CF93DF93C62FD42F022FFC01828133
:101F00008823A1F0609322040E946C049093210422
:101F100080932004C77081E001C0880FCA95EAF75A
:101F2000DF91CF911F910F910C944B0A8091220465
:101F3000681335C080912004909121040E945D04B3
:101F4000883C910560F510E21D0FCD17B9F080E2D5
:101F50008C0F883040F4C77081E001C0880FCA95AB
:101F6000EAF70E94400A183048F481E09D2F9770EC
:101F700001C0880F9A95EAF70E944B0A802F0E94B1
:101F80005A0F183098F4D77081E001C0880FDA95A5
:101F9000EAF7DF91CF911F910F910C94400AC7701F
:101FA00081E001C0880FCA95EAF7F3CFDF91CF91A6
:101FB0001F910F9108959091C503923069F490910B
:101FC000C403943158F4E92FF0E0E155FC4F8083CD
:101FD0009F5F9093C40308950C94A50E0895CF922B
:101FE000DF92EF92FF92C090C703D090C803E090B9
:101FF000C903F090CA03C11491E0D906E104F104C9
:1020000061F4811103C084E10E94DB0FC701B601B6
:10201000FF90EF90DF90CF900895C11492E0D90621
:10202000E104F10421F48111F1CF84E0EDCFC1147A
:1020300094E0D906E104F10421F48111E7CF8AE1AB
:10204000E3CFC11490E1D906E104F10421F4811138
:10205000DDCF88E0D9CFC11490E4D906E104F104C2
:1020600021F48111D3CF85E1CFCFC11498E0D906F7
:10207000E104F10421F48111C9CF86E1C5CFC11477
:1020800090E2D906E104F10421F48111BFCF87E089
:10209000BBCFC11490E8D906E104F10421F4811109
:1020A000B5CF89E0B1CF94E0C916D104E104F104C1
:1020B00021F48111ABCF87E1A7CF98E0C916D104F5
:1020C000E104F10421F48111A1CF8AE09DCFC11474
:1020D000D10491E0E906F10421F4811197CF86E063
:1020E00093CFC114D10492E0E906F10421F48111E7
:1020F0008DCF89E189CFC114D10494E0E906F104C0
:1021000021F4811183CF81E17FCFC114D10498E004
:10211000E906F10421F4811179CF80E175CF90E1D6
:10212000C916D104E104F10421F481116FCF8CE1CF
:102130006BCF90E2C916D104E104F10421F48111BE
:1021400065CF8BE061CFC114D10490E1E906F104C1
:1021500021F481115BCF88E157CFC114D10490E401
:10216000E906F10421F4811151CF8CE04DCFC11467
:10217000D104E10491E0F90621F4811147CF82E115
:1021800043CFC114D104E10494E0F90621F4811194
:102190003DCF83E139CFC114D104E10490E1F906C8
:1021A00021F4811133CF8FE22FCFC114D10490E2FB
:1021B000E906F10421F4811129CF8DE025CFC11466
:1021C000D10490E8E906F10421F481111FCF8EE0DB
:1021D0001BCFC114D104E10492E0F90621F481116E
:1021E00015CF8FE011CFC114D104E10498E0F906B6
:1021F00021F481110BCF83E307CFC114D104E10493
:1022000090E2F90621F4811101CF84E3FDCE90E440
:10221000C916D104E104F10421F48111F7CE8EE155
:10222000F3CE90E8C916D104E104F104B1F3C12C56
:10223000D12C7601EBCEAF92BF92CF92DF92EF928C
:10224000FF920F931F93CF93DF93EC018AE0A82EA8
:10225000FE012491222309F494C0213009F03EC0EC
:1022600031968491813031F42296FE0184910E944E
:102270005A0F07C0823039F42296FE0184910E94E1
:10228000A50E2196E5CF833031F42296FE0184918C
:102290000E94550AF6CF843009F071C02296FE01E3
:1022A000249190E080E0FE0131962053330B2A30D8
:1022B000310548F0019728F3EFE9FFE03197F1F796
:1022C00000C00000F7CFA89EA001A99E500D1124C8
:1022D000C901840F951F2491EF01E5CFE22FF0E0B3
:1022E000EC50FF4FB490822F86958695869590E0AE
:1022F000FC01EC51FF4FE4902770F12C022E02C03C
:10230000F594E7940A94E2F731E0E322FF24FC011C
:10231000EC52FF4FC490D12C022E02C0D594C7942A
:102320000A94E2F7E1E0CE22DD24FC01EC53FF4FFA
:10233000049110E002C0159507952A95E2F7017007
:102340001127E114F10419F081EE0E94A50EC114C9
:10235000D10419F086EE0E94A50E8B2D0E945A0F13
:10236000CD2819F086EE0E94550AEF2819F081EE6B
:102370000E94550A012B09F484CF8CE278CFEF013B
:1023800080CFDF91CF911F910F91FF90EF90DF9061
:10239000CF90BF90AF900895CF92DF92EF92FF92CF
:1023A000C090C703D090C803E090C903F090CA035F
:1023B00090E4C916D104E1049CE3F90689F4811183
:1023C00008C088EB90E00E941B118CEA90E00E940C
:1023D0001B11C701B601FF90EF90DF90CF900895D9
:1023E00090ECC916D1049FE0E906F10431F48111A3
:1023F000F0CF8EEA0E94DB0FECCFC1149CE3D9062C
:10240000E104F10449F48111E4CF8091C5038130E6
:1024100001F780930E02DDCF9CE2C91690E2D90647
:10242000E104F10431F48111D4CF8AE20E94DB0F80
:10243000D0CFC1149AE0D90692E0E906F10471F414
:102440008111C7CF82EF0E9417060E94310581E0FB
:102450008093CC0382EF8093CB03BBCFC11490EA6F
:10246000D90692E0E906F10471F48111B2CF81EF4F
:102470000E9417060E94310581E08093CC0381EF12
:102480008093CB03A6CFC114D1049FE0E906F104E9
:1024900031F481119ECF89E30E94DB0F9ACFC114E2
:1024A000D10499E0E906F10431F4811192CF89E277
:1024B0000E94DB0F8ECFC114D10496E0E906F1042F
:1024C00031F4811186CF80EE0E94DB0F82CF90EC39
:1024D000C916D10499E0E906F10449F4811179CFD4
:1024E00080EE0E94DB0F81EE0E94DB0F72CF90E442
:1024F000C916D10495E0E906F10461F4811169CFB0
:1025000080EE0E94DB0F81EE0E94DB0F82EE0E94C4
:10251000DB0F5FCFC114D104E1049CE3F90631F471
:10252000811157CF83EE0E94DB0F53CFC114D1042A
:10253000E10494E1F90631F481114BCF80EE0E9461
:10254000DB0F47CFC114D104E10498E2F90631F45E
:1025500081113FCF82EE0E94DB0F3BCF90E4C91682
:10256000D10491E0E906F10431F4811132CF80EE1B
:102570000E94DB0F2ECFC114D10493E0E906F104D1
:1025800031F4811126CF82EE0E94DB0F22CFC114DD
:10259000D10492E0E906F10431F481111ACF81EE01
:1025A0000E94DB0F16CFC1149AE5D90690E3E90625
:1025B000F10431F481110DCF8EE30E94DB0F09CFBE
:1025C000C1149AE5D90690ECE906F10431F48111C1
:1025D00000CF8FE30E94DB0FFCCEC1149AE5D90631
:1025E000E10493E0F90631F48111F3CE80E40E9416
:1025F000DB0FEFCEC1149AE5D906E1049CE0F906A1
:1026000031F48111E6CE81E40E94DB0FE2CEC114E9
:102610009AE5D90690E1E906F10431F48111D9CEA9
:102620008AE30E94DB0FD5CEC1149AE5D90690E467
:10263000E906F10431F48111CCCE8BE30E94DB0F6B
:10264000C8CEC1149AE5D906E10491E0F90631F447
:102650008111BFCE8CE30E94DB0FBBCEC1149AE583
:10266000D906E10494E0F90631F48111B2CE8DE38C
:102670000E94DB0FAECEC1149AE5D90690E2E906BE
:10268000F10431F48111A5CE82E40E94DB0FA1CECA
:10269000C1149AE5D906E10492E0F90631F48111FA
:1026A00098CE83E40E94DB0F94CEC1149AE5D9063C
:1026B00090E8E906F10431F481118BCE84E40E94A4
:1026C000DB0F87CEC1149AE5D906E10498E0F9063C
:1026D00031F481117ECE85E40E94DB0F7ACE9CE03E
:1026E000C916D10490E1E906F10431F4811171CEEB
:1026F00080E50E94DB0F6DCE9CE0C916D10490E40A
:10270000E906F10431F4811164CE81E50E94DB0F0A
:1027100060CE9CE0C916D104E10491E0F90631F4E1
:10272000811157CE82E50E94DB0F53CE9CE0C91683
:10273000D104E10494E0F90631F481114ACE8FE42A
:102740000E94DB0F46CE9CE1C916D104E104F104DE
:1027500031F481113ECE8BE40E94DB0F3ACE9CE235
:10276000C916D104E104F10431F4811132CE8EE4B2
:102770000E94DB0F2ECEC1149AEAD90690E1E90639
:10278000F10431F4811125CE8CEA0E94DB0F21CEB9
:10279000C1149AEAD90690E4E906F10431F48111F2
:1027A00018CE8EEA0E94DB0F14CEC1149AEAD90625
:1027B000E10491E0F90631F481110BCE8EEA0E941A
:1027C000DB0F07CEC1149AEAD906E10494E0F906BA
:1027D00031F48111FECD8BEA0E94DB0FFACDC114DA
:1027E0009AEAD906E10490E1F90631F48111F1CDBC
:1027F00089EA0E94DB0FEDCDC1149AEAD906E10403
:1028000090E2F90631F48111E4CD8AEA0E94DB0FEF
:10281000E0CDC1149AEAD906E10498E0F90631F452
:102820008111D7CD88EA0E94DB0FD3CD90E4C91681
:1028300091E0D906E104F10431F48111CACD8EE1B1
:102840000E94DB0FC6CD90E4C91694E0D906E104DE
:10285000F10431F48111BDCD8FE10E94DB0FB9CDC0
:1028600090E4C91690E1D906E104F10431F4811134
:10287000B0CD80E20E94DB0FACCD90E4C916D90642
:10288000E104F10431F48111A4CD81E20E94DB0F57
:10289000A0CD94E4C916D104E104F10431F481110E
:1028A00098CD82E20E94DB0F94CD90E5C916D10449
:1028B000E104F10431F481118CCD83E20E94DB0F3D
:1028C00088CD90E4C916D10490E1E906F10431F411
:1028D00081117FCD84E20E94DB0F7BCD90E4C9168D
:1028E000D104E906F10431F4811173CD85E20E942F
:1028F000DB0F6FCD90E4C916D104E10491E0F90635
:1029000031F4811166CD86E20E94DB0F62CD90E446
:10291000C916D104E10494E0F90631F4811159CDCE
:1029200087E20E94DB0F55CD90E8C91691E0D906E9
:10293000E104F10431F481114CCD8EE10E94DB0FF2
:1029400048CD90E8C91694E0D906E104F10431F4C9
:1029500081113FCD8FE10E94DB0F3BCD90E8C9167E
:1029600090E1D906E104F10431F4811132CD80E225
:102970000E94DB0F2ECD90E8C91690E4D906E10441
:10298000F10431F4811125CD81E20E94DB0F21CDCC
:1029900094E8C916D104E104F10431F4811119CD90
:1029A00082E20E94DB0F15CD90E9C916D104E10443
:1029B000F10431F481110DCD83E20E94DB0F09CDCA
:1029C00090E8C916D10490E1E906F10431F48111CF
:1029D00000CD84E20E94DB0FFCCC90E8C916D10444
:1029E00090E4E906F10431F48111F3CC85E20E9410
:1029F000DB0FEFCC90E8C916D104E10491E0F906B1
:102A000031F48111E6CC86E20E94DB0FE2CC90E843
:102A1000C916D104E10494E0F90631F48111D9CC4E
:102A200087E20E94DB0FD5CC90E8C916D10491E073
:102A3000E906F10431F48111CCCC82E20E94DB0F73
:102A4000C8CC90E8C916D10498E0E906F10431F445
:102A50008111BFCC8BE20E94DB0FBBCCC114D1042F
:102A60009CE0E906F10431F48111B3CC8AE20E94C2
:102A7000DB0FAFCCC114D104E10490E3F90631F4CB
:102A80008111A7CC88E20E94DB0FA3CCC114D10432
:102A900094E0E906F10431F481119BCC88E20E94B4
:102AA000DB0F97CCC114D104E10490E1F90631F4B5
:102AB00081118FCC8AE20E94DB0F8BCC90E4C91687
:102AC000D104E104F10431F4811183CC8AE20E9443
:102AD000DB0F7FCC90E8C916D104E104F10431F496
:102AE000811177CC8AE20E94DB0F73CCC114D10430
:102AF00091E0E906F10431F481116BCC8CE20E9483
:102B0000DB0F67CCC114D10498E0E906F10431F47D
:102B100081115FCC8CE20E94DB0F5BCCC114D1042D
:102B2000E10490E2F90631F4811153CC89E20E946C
:102B3000DB0F4FCC92E0C916D1049CE0E906F1040A
:102B400031F4811146CC88E20E94DB0F42CC92E046
:102B5000C916D10493E0E906F10431F4811139CCAE
:102B60008CE20E94DB0F35CC92E0C91690E3D906C7
:102B7000E104F10449F481112CCC81EE0E94DB0FB9
:102B800086E20E94DB0F25CC92E0C91690ECD906B4
:102B9000E104F10449F481111CCC81EE0E94DB0FA9
:102BA00087E20E94DB0F15CC9EE0C916D104E10438
:102BB000F10431F481110DCC85E30E94DB0F09CCC7
:102BC00092E0C916D104E10490E3F90631F48111D1
:102BD00000CC89E20E94DB0FFCCB92E0C91693E0A7
:102BE000D906E104F10449F48111F3CB81EE0E948E
:102BF000DB0F80E20E94DB0FECCB92E0C9169CE079
:102C0000D906E104F10449F48111E3CB81EE0E947D
:102C1000DB0F81E20E94DB0FDCCB92E0C91691E072
:102C2000D906E104F10449F48111D3CB81EE0E946D
:102C3000DB0F8EE10E94DB0FCCCB92E0C916D906E8
:102C4000E104F10449F48111C4CB81EE0E94DB0F51
:102C500082E20E94DB0FBDCB92E0C91694E0D90658
:102C6000E104F10449F48111B4CB81EE0E94DB0F41
:102C70008FE10E94DB0FADCB92E0C91698E0D90638
:102C8000E104F10449F48111A4CB81EE0E94DB0F31
:102C900083E20E94DB0F9DCB92E0C91690E1D9063A
:102CA000E104F10449F4811194CB81EE0E94DB0F21
:102CB0008FE20E94DB0F8DCB92E0C91690E2D9061D
:102CC000E104F10431F4811184CB8FE20E94DB0F27
:102CD00080CB92E0C91690E4D906E104F10449F4EE
:102CE000811177CB81EE0E94DB0F80E30E94DB0F26
:102CF00070CB92E0C91690E8D906E104F10431F4F2
:102D0000811167CB80E30E94DB0F63CB96E0C9168D
:102D1000D104E104F10449F481115BCB81EE0E94FE
:102D2000DB0F81E30E94DB0F54CB9AE0C916D1047C
:102D3000E104F10449F481114CCB81EE0E94DB0FD8
:102D400085E30E94DB0F45CB92E1C916D104E10473
:102D5000F10431F481113DCB84E30E94DB0F39CBC8
:102D600092E2C916D104E104F10449F4811131CB96
:102D700081EE0E94DB0F84E30E94DB0F2ACB92E0FE
:102D8000C916D10490E1E906F10431F4811121CB97
:102D900087E50E94DB0F1DCB92E0C916D10490E2BB
:102DA000E906F10449F4811114CB81EE0E94DB0F96
:102DB00084E20E94DB0F0DCB92E0C916D10490E4AF
:102DC000E906F10431F4811104CB8DE20E94DB0F9E
:102DD00000CB92E0C916D10490E8E906F10431F481
:102DE0008111F7CA8EE20E94DB0FF3CA92E0C91686
:102DF000D104E10491E0F90631F48111EACA88E3D3
:102E00000E94DB0FE6CA92E0C916D104E104F9067C
:102E100031F48111DECA86E30E94DB0FDACA92E048
:102E2000C916D104E10494E0F90631F48111D1CA44
:102E300085E50E94DB0FCDCA92E0C916D104E104FA
:102E400098E0F90631F48111C4CA87E30E94DB0FD0
:102E5000C0CA92E0C916D104E10490E1F90631F448
:102E60008111B7CA8BE20E94DB0FB3CA92E0C91688
:102E7000D10491E0E906F10431F48111AACA81EE8E
:102E80000E94DB0FA6CA92E0C916D104E906F1043C
:102E900031F481119ECA88E30E94DB0F9ACA92E046
:102EA000C916D10494E0E906F10431F4811191CA04
:102EB00083E30E94DB0F8DCA92E0C916D10498E02B
:102EC000E906F10431F4811184CA81E30E94DB0F29
:102ED00080CA92E4C916D104E104F10431F48111ED
:102EE00078CA81E30E94DB0F74CAC11493E0D9064B
:102EF000E104F10431F481116CCA84E00E94DB0F1B
:102F000068CAC1149CE0D906E104F10431F48111CE
:102F100060CA86E10E94DB0F5CCAC11490E3D90647
:102F2000E104F10431F4811154CA87E00E94DB0FFF
:102F300050CAC11490ECD906E104F10431F48111B6
:102F400048CA89E00E94DB0F44CA9CE0C916D1043C
:102F5000E104F10431F481113CCA8AE00E94DB0FE4
:102F600038CA90E3C916D104E104F10431F48111A7
:102F700030CA8BE00E94DB0F2CCAC114D10490E34D
:102F8000E906F10431F4811124CA8DE00E94DB0FBF
:102F900020CAC114D104E1049CE0F90631F4811186
:102FA00018CA83E30E94DB0F14CAC114D104E104E0
:102FB00093E0F90631F481110CCA8FE00E94DB0F17
:102FC00008CAC114D10490ECE906F10431F481116E
:102FD00000CA8EE00E94DB0FFCC9C11491E0D90643
:102FE000E104F10431F48111F4C984E10E94DB0FA2
:102FF000F0C9C11492E0D906E104F10431F4811161
:10300000E8C98DE10E94DB0FE4C9C11494E0D90640
:10301000E104F10431F48111DCC98AE10E94DB0F83
:10302000D8C9C11498E0D906E104F10431F4811142
:10303000D0C98BE10E94DB0FCCC9C11490E1D90645
:10304000E104F10431F48111C4C988E00E94DB0F6E
:10305000C0C9C11490E2D906E104F10431F4811130
:10306000B8C986E00E94DB0FB4C9C11490E4D90648
:10307000E104F10431F48111ACC985E10E94DB0F58
:10308000A8C9C11490E8D906E104F10431F4811112
:10309000A0C989E10E94DB0F9CC994E0C916D10444
:1030A000E104F10431F4811194C987E10E94DB0F3E
:1030B00090C998E0C916D104E104F10431F48111FA
:1030C00088C985E00E94DB0F84C990E1C916D1044C
:1030D000E104F10431F481117CC98CE10E94DB0F21
:1030E00078C990E2C916D104E104F10431F48111E8
:1030F00070C981E10E94DB0F6CC9C114D10490E159
:10310000E906F10431F4811164C988E10E94DB0F02
:1031100060C9C114D10490E2E906F10431F48111CF
:1031200058C980E10E94DB0F54C9C114D10490E456
:10313000E906F10431F481114CC98CE00E94DB0FE7
:1031400048C9C114D10490E8E906F10431F48111B1
:1031500040C986E30E94DB0F3CC9C114D104E104DD
:1031600091E0F90631F4811134C982E10E94DB0F4C
:1031700030C9C114D104E10492E0F90631F481119F
:1031800028C987E30E94DB0F24C9C114D104E104DC
:1031900094E0F90631F481111CC983E10E94DB0F30
:1031A00018C9C114D104E10498E0F90631F4811181
:1031B00010C988E30E94DB0F0CC9C12CD12C760109
:1031C00008C92F923F924F925F926F927F928F9297
:1031D0009F92AF92BF92CF92DF92EF92FF920F93A6
:1031E0001F93CF93DF93CDB7DEB7CB57D1090FB67F
:1031F000F894DEBF0FBECDBF182FC090C703D0908C
:10320000C803E090C903F090CA03C0FE0CC0D70108
:10321000C60121E082278093C7039093C803A0933F
:10322000C903B093CA03112361F181E00E94EF0F3B
:103230008090C7039090C803A090C903B090CA03C0
:10324000681579058A059B05E1F480E0C558DF4FD4
:103250000FB6F894DEBF0FBECDBFDF91CF911F91A7
:103260000F91FF90EF90DF90CF90BF90AF909F9025
:103270008F907F906F905F904F903F902F900C9425
:10328000EF0F81E00E94CC118090C7039090C8039B
:10329000A090C903B090CA03681579058A059B05FB
:1032A00009F446C0AE014F5F5F4FA3965FAF4EAFCC
:1032B000A397A5965FAF4EAFA597812C912C540193
:1032C000EA961FAE1EAEEA978C149D04AE04BF04AE
:1032D00009F475C12BE233E0A7963FAF2EAFA79755
:1032E000312C212CA8961FAEA897EB961FAEEB971A
:1032F000EC961FAEEC9700E060E070E0CB0124019B
:1033000035014094509460947094E0964CAE5DAE5C
:103310006EAE7FAEE097A50194012270332744275B
:103320005527E4962CAF3DAF4EAF5FAFE497C5C0D5
:1033300080E00E94CC1180910E02882361F180917F
:10334000090290910A02A0910B02B0910C028093A5
:10335000C7039093C803A093C903B093CA03809195
:103360000702909108029093AD038093AC03E7E8C5
:10337000F1E0ABE2B3E041915191619171914D93D4
:103380005D936D937D9352E0E730F507A1F71092BE
:103390000E0210E032CF6091C7037091C803809194
:1033A000C9039091CA03C558DF4F0FB6F894DEBF2A
:1033B0000FBECDBFDF91CF911F910F91FF90EF9086
:1033C000DF90CF90BF90AF909F908F907F906F9045
:1033D0005F904F903F902F900C94B20AA796AEAD9D
:1033E000BFADA7972D913D914D915D91A796BFAF30
:1033F000AEAFA797E0964CAC5DAC6EAC7FACE097FF
:103400004222532264227522E8964CAE5DAE6EAE27
:103410007FAEE8974092C7035092C8036092C903F9
:103420007092CA03411451046104710409F442C04A
:103430002114310489F0611571058105910561F050
:103440004626572668267926A301920122303105A7
:103450004105510509F443C0E4964CAC5DAC6EAC3B
:103460007FACE49745284628472879F0E8962CADAC
:103470003DAD4EAD5FADE89722602093C70330931A
:10348000C8034093C9035093CA0381E0112309F490
:103490005CC00E94EF0F611571058105910551F027
:1034A000A8966FAFA897EB967FAFEB97EC968FAF90
:1034B000EC97092F2FEF221A320A2091AC0330919A
:1034C000AD03221533050CF089CFA8966FADA897F0
:1034D000EB967FADEB97EC968FADEC97902F862A0D
:1034E000972AA82AB92AA596AEADBFADA5976D9328
:1034F0007D938D939D93A596BFAFAEAFA597EA96AA
:10350000EEADFFADEA973196EA96FFAFEEAFEA97E0
:10351000789709F0D9CEC558DF4F0FB6F894DEBFC3
:103520000FBECDBFDF91CF911F910F91FF90EF9014
:10353000DF90CF90BF90AF909F908F907F906F90D3
:103540005F904F903F902F9008950E94CC11A3CF91
:10355000A396EEADFFADA39781919191A191B19109
:10356000A396FFAFEEAFA3978093C7039093C803D2
:10357000A093C903B093CA0380E01123E9F00E942D
:10358000EF0FFFEFAF1ABF0AEA964EAC5FACEA97B7
:103590004A145B04E9F680910E02811104C0C70150
:1035A000B6010E94B20AC092C703D092C803E0924B
:1035B000C903F092CA03AFCF0E94CC11E2CFB12C65
:1035C000A12CE2CF80E290E090930B0180930A015E
:1035D00080910D02811111C01092B9008CE080938E
:1035E000B80081E080930D022FEF83ED90E321502E
:1035F00080409040E1F700C0000080E40E94780421
:1036000090930B0180930A01892B09F040C080E060
:103610000E94D20490930B0180930A01892BB9F583
:1036200080E80E94D20490930B0180930A01892BB9
:1036300071F58FEF0E94D20490930B0180930A01E1
:10364000892B29F584E98093BC0080E40E947804EA
:1036500090930B0180930A01892BC9F48CE00E949E
:10366000D20490930B0180930A01892B81F480E8A6
:103670000E94D20490930B0180930A01892B39F4A4
:103680008FEF0E94D20490930B0180930A0184E98A
:103690008093BC0080910A01089510926D02809180
:1036A0000C01882369F08091EC0387FF09C0E6E6EE
:1036B000F1E08EE1DF011D928A95E9F70C94CB09C8
:1036C000E7E6F1E086E0F6CF1F93CF93DF93CDB727
:1036D000DEB7AA970FB6F894DEBF0FBECDBF87E165
:1036E00094E02091F100FC012193CF01F4E08F31AF
:1036F0009F07B9F780911804833009F4B8C008F027
:103700004CC0813009F47EC0823009F4F8C0809149
:10371000E80083FF9BC020910D0180911B049091D4
:103720001C042817190609F091C0809118048132F1
:1037300009F405C108F0F4C0803209F087C0809117
:103740001704813209F082C08091E800877F80935E
:10375000E8008091E80082FF2FC13091F1002091B4
:10376000F1009091F1008091F100309321012093BC
:10377000220190932301809324018091F100809392
:1037800025018091F100809326018091F1008093C2
:1037900027018091E8008B770AC18A3009F49EC026
:1037A0008B3009F481C0893009F0B1CF80911704C2
:1037B000813209F0ACCF80911B0490911C04892BBD
:1037C00009F0A5CF8091E800877F8093E800809181
:1037D000E80082FF37C09091F3008091F2000297D9
:1037E00029F48091F1008B7F813021F48091F100E8
:1037F0008093F3038091E8008B778093E8000E9428
:103800004A0385CF80911704813A09F080CF8091D7
:10381000E800877F8093E80080911B0490911C044E
:10382000892B61F460E284EF93E070E00E94FC0376
:103830008091E8008B778093E80069CF60E090E0AA
:1038400080E0F3CF80911F048111C1CF8091E80007
:1038500083FF47C180911704909118049A3008F0B3
:1038600040C1E92FF0E0E55EF04D0C948C2E809184
:103870001704813A09F04BCF80911B0490911C04EE
:10388000892B09F044CF8091E800877F8093E8007E
:103890008091E80080FFFCCF80910C018093F100C3
:1038A0008091E8008E77A9CF80911704813209F0CA
:1038B0002ECF80911B0490911C04892B09F027CFF7
:1038C0008091E800877F8093E8000E944A038091FE
:1038D000190480930C010E944D1B19CF809117048D
:1038E000813209F014CF8091E800877F8093E8004F
:1038F0000E944A0380911A048093F20308CF8091BA
:103900001704813A09F003CF8091E800877F809304
:10391000E8008091E80080FFFCCF8091F203BECFE9
:10392000823209F44EC0833209F090CF809117049F
:10393000813209F08BCF8091E800877F38C0809179
:103940001704813A09F082CF8091E800877F809345
:10395000E8008091E80080FFFCCF809121019091E8
:103960002201A0912301B09124018093F100492FFD
:103970005A2F6B2F77274093F100AD0166277727E9
:103980004093F1008B2F9927AA27BB278093F10042
:10399000809125018093F100809126018093F100B0
:1039A000809127018093F1008091E8008E778093C9
:1039B000E8000E944A034ACF80911F048111C9CEBA
:1039C00045CF80911704813209F040CF8091E80003
:1039D000877F8093E8000E944A03809119049091A8
:1039E0001A0490931E0180931D0130CF803899F006
:1039F000823809F076C080911B048F70873008F000
:103A000070C08093E9008091EB0085FB882780F9E6
:103A10001092E90006C08091140490911504911150
:103A200082609091E800977F9093E8008093F10086
:103A30001092F1008091E8008E77A1C1882309F4EB
:103A40008EC1823009F04DC080911904811192C15C
:103A500080911B048F702FEF280F263008F041C093
:103A60008093E9002091EB0020FF84C1933031F472
:103A70008091EB0080628093EB007CC19091EB0021
:103A800090619093EB0021E030E001C0220F8A9515
:103A9000EAF72093EA001092EA008091EB00886038
:103AA000EACF81111EC0109119041F778091E300A5
:103AB0008078812B8093E3008091E800877F80935A
:103AC000E8000E944A038091E80080FFFCCF8091CB
:103AD000E30080688093E30082E0111183E080932B
:103AE0001F048091E80083FF0AC08091E800877F6F
:103AF0008093E8008091EB0080628093EB00AA96AF
:103B00000FB6F894DEBF0FBECDBFDF91CF911F91EE
:103B100008958058823028F78091190490911A04F2
:103B20008C3D23E09207A1F583E08A838AE28983B2
:103B30004FB7F894DE01139620E03EE051E2E32F08
:103B4000F0E050935700E49120FF03C0E295EF703E
:103B50003F5FEF708E2F90E0EA30C0F0C7968D93F4
:103B60009D932F5F243159F74FBF8091E800877FE5
:103B70008093E8006AE270E0CE0101960E94FC03A7
:103B80008091E8008B778093E800ABCFC096E7CFB9
:103B900040911B0450911C04292F332723303105F9
:103BA00009F43FC078F52130310509F466C08FE58E
:103BB00090E0ECEFF3E02230310509F092CF209154
:103BC000E800277F2093E80020911D0430911E0417
:103BD0008217930708F49C0140E02115310509F094
:103BE00051C041114FC08091E80082FDC9CF809142
:103BF0001F04882329F2853019F28091E80083FFA1
:103C0000F2CFBECF2132310581F12232310509F0E8
:103C100068CF452B09F065CF88EF90E0E4E0F3E052
:103C2000CECF992781309105C1F0009759F00297C6
:103C300009F057CFEDE6F4E0E4918E2F90E0EDE649
:103C4000F4E007C0E5EAF4E0E4918E2F90E0E5EAC5
:103C5000F4E0009709F0B3CF44CFEDE7F4E0E4914E
:103C60008E2F90E0EDE7F4E0F4CF452B09F039CF4B
:103C700089E090E0EEE0F4E0A2CF82E190E0EBE5B5
:103C8000F4E09DCF80911F04882309F479CF85301B
:103C900009F476CF8091E80083FD72CF8091E8002F
:103CA00082FDA1CF8091E80080FF97CF9091F30033
:103CB0008091F2002115310519F08830910550F0FE
:103CC00041E0089709F040E08091E8008E7780930A
:103CD000E80083CF44914093F1003196215031099F
:103CE0000196E8CF803809F0FCCE8091E800877F0C
:103CF0008093E800809116048093F1009BCE81119F
:103D0000F0CE10911904123008F0EBCE8091E8004B
:103D1000877F8093E800109316040E944A031123C2
:103D200011F084E005C08091E30087FDFACF81E0C7
:103D300080931F0442E261EC81E00E94690342E04B
:103D400061EC82E00E94690342E160E884E00E9445
:103D5000690342E161E883E00E946903C2CE809179
:103D60001904813009F0BDCE81E0933009F080E084
:103D7000809315041092E9008091E800877F80937A
:103D8000E8000E944A03ADCE0F931F93CF93DF93B9
:103D90008091CC03882341F01092CC038091CB0317
:103DA0000E9458050E9431058091C7039091C80375
:103DB000A091C903B091CA038F309105A105B10547
:103DC00041F58091C60391E089278093C603109244
:103DD000C7031092C8031092C9031092CA0310922D
:103DE000AE031092AD031092AC030E944D1B1092D3
:103DF000AB03EBE2F3E08BEA93E04FEF5FEF60E0C1
:103E000070E041935193619371938E179F07C9F7A7
:103E100059C083309105A10520E3B20721F58091B7
:103E2000C503823041F01092C4038093C30382E043
:103E30008093C503CCCF8091C3038093C5030FEA61
:103E400013E0D0E0C0E08091C4038C171D0609F098
:103E50001CF40E944D1BBBCFD8018D918D010E9497
:103E6000A50E2196F0CF83339105A105B10521F46C
:103E700081E00E94150AABCF2091C50381309105E6
:103E8000A105B10539F4211102C081E0D1CF109212
:103E9000C5039DCF213011F580FF2AC01092AE03DB
:103EA0001092AD031092AC031092C7031092C80396
:103EB0001092C9031092CA038091D303882321F181
:103EC000813089F1EDECF3E086E0DF011D928A9507
:103ED000E9F7DF91CF911F910F910895223041F0C2
:103EE00083709927AA27BB27892B8A2B8B2B21F03C
:103EF00080E00E94E1186BCF2111D0CF8091C603E2
:103F0000882361F281E0F5CFCDECD3E001ED13E041
:103F1000899181110E94D40D0C171D07C9F780E00B
:103F20000E94D40DCFCF8091CD0380688093CD03C4
:103F3000CDECD3E003ED13E089910E94D40D0C1772
:103F40001D07D1F7BFCF0F931F93CF93DF938091BE
:103F50000A0190910B01892B71F0809184018F5F90
:103F600080938401811107C00E94E21A90E090932F
:103F70000B0180930A010CEB12E0C0E08C2F0E9431
:103F8000CC0CD7E0DC0F8D2F0E94CC0C8C2F0E9424
:103F9000310DF80181938F018D2F0E94310DF801B1
:103FA00086830E941B0DCF5FC73041F78091C50308
:103FB000813089F48091AE03882369F08091AB034E
:103FC00081110FC080918501909186010E945D044E
:103FD0008F3E924000F581E0DF91CF911F910F91CC
:103FE000089580918501909186010E945D044A9711
:103FF00090F380E00E94E1180E944A080E944D1B45
:104000000E946C0490938601809385018091AB039C
:104010008111E1CFD7CF81E08093AB03DCCF96E075
:10402000EFE1F3E0DF01292F1D922A95E9F7EDEC8E
:10403000F3E0DF011D929A95E9F710922A0310929E
:10404000290310922803109227031092260310923E
:1040500025038093D303682F8DE090E00C94AD2E60
:10406000CF9384E090E00E949F2EC82F82E290E0E0
:104070000E949F2E982F8C2FCF91089569EE7EEF8E
:1040800090E080E00E94CB2E60E082E090E00E9411
:10409000AD2E60E083E090E00E94AD2E10926E02A3
:1040A00010926F02109270021092710260E084E030
:1040B00090E00E94AD2E60E082E290E00E94AD2E82
:1040C00060E085E090E00E94AD2E60E086E090E048
:1040D0000E94AD2E6FEF87E090E00E94AD2E40E091
:1040E00050E0BA0188E090E00E94BF2E60E08DE0D1
:1040F00090E00E94AD2E40E050E0BA0188E190E0EF
:104100000E94BF2E60E087E190E00E94AD2E40E06B
:1041100050E0BA018CE190E00E94BF2E70E060E0B8
:1041200080E290E00E94CB2E40E050E0BA0188E1AE
:1041300090E00E94BF2E40E050E0BA018FE090E096
:104140000E94BF2E40E050E0BA0183E190E00C9461
:10415000BF2E4F925F926F927F928F929F92AF92FB
:10416000BF92CF92DF92EF92FF920F931F93CF9364
:10417000DF9300D000D00F92CDB7DEB77C01FC01F9
:1041800083819481892B39F010810181812F8023D3
:104190008F3F09F069C50F900F900F900F900F900F
:1041A000DF91CF911F910F91FF90EF90DF90CF9013
:1041B000BF90AF909F908F907F906F905F904F9047
:1041C00008950E94D808D82E682F89819A810E946C
:1041D0007809E02FF0E02EE0D29EE00DF11D1124D1
:1041E000EE0FFF1FEE0FFF1FE10FF11DEE0FFF1F80
:1041F000EC54FE4F0591149100334AE5140709F47D
:10420000C0C0B0F5C8019A558A9708F4E5C0043FCC
:104210008CE5180709F4C0C108F043C0093DECE57E
:104220001E0709F4B5C10A3DFCE51F0709F4C0C12A
:10423000083D2CE5120709F042C026E241EE61EE8E
:10424000C7010F900F900F900F900F90DF91CF91BB
:104250001F910F91FF90EF90DF90CF90BF90AF90A4
:104260009F908F907F906F905F904F900C94770FFE
:1042700001337AE5170759F6B70181E39AE50E9401
:10428000D30A882309F487CFF701408151816281E5
:10429000738184810E947806882309F47CCF81E0B1
:1042A00084C0063F4CE5140709F47EC108F478C1C8
:1042B00027E245EE66EE073F7CE5170709F2F701B6
:1042C0008281882309F4E1C4109222040230FCE5C3
:1042D0001F0708F44BC206312CE5120738F098018D
:1042E0002B5F3C452930310508F040C20E94302048
:1042F0009093ED038093EC0300314CE5140709F42F
:1043000004C208F095C108307CE5170709F4EFC135
:1043100008F064C104309CE5190709F4E0C108F015
:104320004AC10230FCE51F0709F4D3C18091EC03B8
:10433000826003301C4509F4CFC16091EC031091F9
:10434000ED0384E090E00E94AD2E612F82E290E0C8
:104350000E94AD2E0F900F900F900F900F90DF9155
:10436000CF911F910F91FF90EF90DF90CF90BF9072
:10437000AF909F908F907F906F905F904F900C9434
:104380004D1BB70180E39AE50E94D30A882309F404
:1043900002CFF701408151816281738184810E9443
:1043A0007806882309F4F7CE80E00F900F900F90E5
:1043B0000F900F90DF91CF911F910F91FF90EF9091
:1043C000DF90CF90BF90AF909F908F907F906F9035
:1043D0005F904F900C940F20B701C8010E94D30A40
:1043E000882309F4D8CE0E946C046C0190930D03CD
:1043F00080930C03F7014081518162817381848134
:104400000E947806882321F0D0920B03C0920A0301
:1044100010922603109225038091D303882399F0EC
:104420008130D9F110910E03F701408151816281F1
:10443000738184810E947806882309F45AC01F5F23
:1044400010930E03A8CEF7014081518162817381E0
:1044500084810E947806F801FF27EC58FE4F949162
:10446000A92FA295A695A695A370B0E0882371F018
:104470009D01215E3C4FF9018081892B8083A353EC
:10448000BC4F0C91E92FE02BEC93CCCFA15EBC4F3D
:10449000E92FE0950C91E023F7CFF701408151819E
:1044A0006281738184810E947806A82F802F67E043
:1044B0000E94582E492F90E026E030E0B901641B9D
:1044C000710921E030E001C0220F6A95EAF7FC0192
:1044D000E15EFC4F4081AA2349F0422B4083FC015E
:1044E000E353FC4F8081282B20839CCF20952423ED
:1044F000FBCF115011160CF4A3CF10920E031091A4
:1045000029031830E1F580912A038093280381E084
:104510000E94710680932A038091280390E026E090
:10452000289FD001299FB00D1124A653BD4FEDEC5B
:10453000F3E001900D922A95E1F7880F991FFC0195
:10454000E650FD4F80910A0390910B039183808385
:104550000F900F900F900F900F90DF91CF911F91C0
:104560000F91FF90EF90DF90CF90BF90AF909F9012
:104570008F907F906F905F904F900C94C41E812F0E
:104580000E947106809328031F5F10932903C4CFF4
:1045900027E245EE65EE54CE26E241EE60EE50CEC7
:1045A00027E245EE64EE4CCE26E241EE62EE48CEC6
:1045B00028E241E0EFCF8091EC03806106304CE5CA
:1045C000140709F489C08091EC03886007301C450A
:1045D00008F482C08091EC0380627EC08091EC037D
:1045E0008D7F0C307CE5170709F476C070F480915C
:1045F000EC038C600A309CE5190709F46DC008F4DF
:104600007AC08091EC038E7F67C08091EC03877F36
:104610000E30FCE51F0709F45FC08091EC038B7F2F
:104620000F301C4508F458C08091EC038F7E54C0B5
:104630000C3F4CE5140709F456C030F503317CE516
:10464000170709F46AC078F401319CE5190709F4E9
:1046500060C002311C4509F070CE0E944D1B809154
:10466000EC038F7739C00531FCE51F0709F45DC005
:1046700008F471C08091ED0381600B3F1C4509F087
:104680005CCE8093ED0359CE01156DE5160709F454
:1046900048C070F40E3F8CE5180799F18091ED0346
:1046A0008E7F0F3F1C4568F38091ED038360E9CF57
:1046B0000230EDE51E0709F457C008F442C060E07F
:1046C00003301D4509F039CE8EE090E00E94AD2EFA
:1046D00034CE8091EC0381608093EC032ECE8091E8
:1046E000EC038460F9CF8091ED038260CACF8091A2
:1046F000EC038064F1CF0E944D1B8091EC03806835
:10470000EBCF8091ED038D7FBCCF8091EC038F7D4B
:10471000E3CF8091EC038F7BDFCF8091EC03837F2D
:10472000DBCF8091ED038C7FACCF8091EC0382FBDB
:10473000992790F921E0922790FB82F990FB83F969
:10474000CBCF8091ED03982F909591708E7F892B20
:1047500090FB81F996CF0E944D1B9091EC03892F1D
:1047600097FB87F98058B8CF61E0AECF06314CE5B2
:10477000140709F095C280916D028A7A91E009F4DC
:1047800090E090930F0281111AC089E20E9499086B
:104790000F900F900F900F900F90DF91CF911F917E
:1047A0000F91FF90EF90DF90CF90BF90AF909F90D0
:1047B0008F907F906F905F904F900C944A0885E3A4
:1047C000E5CF85E36AC20E944D1B6FEF74E38CE076
:1047D000615070408040E1F700C0000081E08093AC
:1047E000E00080E28093D8001092C900EFE1FEE47F
:1047F0003197F1F700C0000087E090EBDC01809377
:10480000230490932404A0932504B093260488E104
:104810009CE00FB6F894A895809360000FBE90932B
:104820006000FFCF0F900F900F900F900F90DF91CF
:10483000CF911F910F91FF90EF90DF90CF90BF909D
:10484000AF909F908F907F906F905F904F900C945F
:104850003E20812F902F0E945109D82E3AC2F92F65
:10486000FF70DF2E907F19F0D29440EFD4228C2D70
:104870002223C9F0DD2069F090E29C0D983010F001
:10488000C1100BC080916D02D82AD0926D020E9497
:104890004A088C2D0E94A50E18C080916C02D82A5F
:1048A000D0926C02F4CF0E94550ADD2071F0D094B2
:1048B00080E28C0D883010F0B11030C080916D0214
:1048C000D822D0926D020E944A0808501109043083
:1048D000110510F40E94250585E0F701DE0111960F
:1048E00001900D928A95E1F789819A810E94510980
:1048F000EA81FEE08F9FC00111248E0F911D880F69
:10490000991F880F991FE981E80FF92FF11DEE0F0C
:10491000FF1FEC54FE4F859194913DCC80916C0229
:10492000D822D0926C02CFCF892F8F70907F903297
:1049300011F08295807F9C2D41E0B4120EC022239D
:1049400031F0333008F0C1CF0E944B0ABECF323075
:1049500008F0BBCF0E94400AB8CF222319F03323BE
:1049600099F397CF3323B1F3993349F46FEF77EE8F
:1049700083E0615070408040E1F700C000008C2D62
:104980000E94550AA2CF892F86958695837061F083
:10499000813009F09ACF8C2D9370211102C090E0E4
:1049A00080E00E94F90491CF8C2D9370211102C0F8
:1049B00090E080E00E940F0588CF8C2D222329F003
:1049C0000E9417060E94310580CF0E945805FACF39
:1049D000892F837009F065C0211177CF8C2D8295C6
:1049E00086958770880F880F6C2D6F70862E912C9E
:1049F000B12CA12C082E04C0880C991CAA1CBB1C2D
:104A00000A94D2F740E050E0BA01C4FE0FC04FE074
:104A100050E060E070E004C0440F551F661F771F30
:104A20008A95D2F740955095609570959695969594
:104A30009370923019F1D8F440906E0250906F024A
:104A40006090700270907102913069F04829592984
:104A50006A297B29CB01BA0164217521862197211E
:104A60000E94360A32CF84289528A628B728CB0181
:104A7000BA01682979298A299B29F2CF482959291D
:104A80006A297B2980906E0290906F02A09070023C
:104A9000B0907102CB01BA01682579258A259B2542
:104AA000DFCF8695222311F0892F8170882309F4A6
:104AB0000CCF8C2D829586958770880F880F6C2D72
:104AC0006F70862E912CB12CA12C082E04C0880C5E
:104AD000991CAA1CBB1C0A94D2F740E050E0BA0112
:104AE000C4FE0FC04FE050E060E070E004C0440F2F
:104AF000551F661F771F8A95D2F740955095609590
:104B00007095969596959370923019F1D8F44090DF
:104B1000720250907302609074027090750291302E
:104B200069F0482959296A297B29CB01BA016421F6
:104B30007521862197210E94E809C7CE84289528EF
:104B4000A628B728CB01BA01682979298A299B2987
:104B5000F2CF482959296A297B29809072029090C6
:104B60007302A0907402B0907502CB01BA0168255F
:104B700079258A259B25DFCF9F70D92E222329F006
:104B8000892F0E94150A8C2DDFCE8C2D0E94400AA1
:104B90008D2D0E94F20999CE8C2DE1EFCE1609F4ED
:104BA00042C0EC1558F0F0EFCF16F1F0222309F4D3
:104BB0004BC031116ECE892F8F713AC042EFC416AF
:104BC000D1F163EFC612F2CF2223D1F1292F2F7139
:104BD00061E070E080E090E004C0660F771F881FFE
:104BE000991F2A95D2F7A7CF2223C9F0323008F0B7
:104BF0006CCE292F2F7161E070E080E090E004C05E
:104C0000660F771F881F991F2A95D2F7809072022E
:104C100090907302A0907402B0907502A8CF3330C8
:104C200008F053CEE6CF892F8F71222309F4B1CF3C
:104C30000E94150A4ACE892F8F712223C9F3A9CF6A
:104C400060E070E0CB0177CF332359F0893309F06E
:104C500096CE7FEF87EE93E0715080409040E1F771
:104C60008CCE892F8F7195CF85E0DE011196019052
:104C70000D928A95E1F7F701228189819A812111AC
:104C8000A0CA0E945109D82EA4CA06311C4589F435
:104C900080910F02811195CD89E20E946E0878CD36
:104CA00001152CE5120709F48ECD0F3D1C4509F4C2
:104CB000B9CDF70110810181882309F4CACD812F74
:104CC000902F0E94D808D82E682F812F902F0E94F5
:104CD0007809E02FF0E02EE0D29EE00DF11D1124C6
:104CE000EE0FFF1FEE0FFF1FE10FF11DEE0FFF1F75
:104CF000EC54FE4F859194910E94DB06C82EB82E8D
:104D0000F7012281358132953F70892F82958F700E
:104D1000082F10E08C3008F0D8CDF801EB5DF04D95
:104D20000C948C2E1F93CF93DF9380913802807F59
:104D3000A9F480913502882389F080916A02D0918C
:104D400039026091330270913402A0913602B09121
:104D50003702C62FC72316E0D81304C0DF91CF91C6
:104D60001F91089590E0109711F0CF3F19F401962C
:104D70008770F2CF189F9001199F300D1124F9010F
:104D8000E65CFD4F41814713F2CF40814613EFCFE0
:104D900042814111ECCF438154814A1B5B0B483C5B
:104DA000510528F7809138028F7080618093380216
:104DB000F901E15CFD4F80818F708061808383E326
:104DC00092E00E94A920DF91CF911F910C94CE0810
:104DD000AF92BF92CF92DF92EF92FF920F931F9309
:104DE000CF93DF93CDB7DEB761970FB6F894DEBFF0
:104DF0000FBECDBF8C0185E0F801DE011D9601904C
:104E00000D928A95E1F7F801E28083E3A82E82E013
:104E1000B82E60913602709137026115710509F460
:104E200032C19091330240913402892F84238F3F05
:104E300009F429C120813181C380D480F0903502EA
:104E4000F601E61BF70BFF2009F4E8C08091380259
:104E5000582F507FE83CF10508F0ABC0511177C0E6
:104E6000FE2C431321C092131FC0E1101DC08F7090
:104E7000806180933802C5010E94A9208091380288
:104E8000F80185838F2D61960FB6F894DEBF0FBEB3
:104E9000CDBFDF91CF911F910F91FF90EF90DF90E9
:104EA000CF90BF90AF900895CD2829F0822F832313
:104EB0008F3F09F003C180E0F82FF170DF2E80FFF3
:104EC0003CC080916A024091390256E0841315C0BB
:104ED0002D873E878D859E850E943609292F229534
:104EE0002F702230F0F0243018F59F70F1F0F801A7
:104EF0009581907FD1F4D12C1EC090E0589FF00195
:104F0000599FF00D1124E65CFD4F6181361306C0F8
:104F10006081261303C06281E6120FC0019687707C
:104F2000D5CF9F7011F0882331F3805E883018F35D
:104F3000C8010E94A920FD2CA5CFEE2009F4A2CF24
:104F400080913802816080933802F12C9BCF43130B
:104F500006C0921304C0F801EE2009F479C0C8011C
:104F60000E94A409882309F1EE20F9F0809138020B
:104F7000803270F0209133023091340238872F83D1
:104F80001986DB86CA868C87CE0107960E94A920E7
:104F900086E0F801A3E3B2E001900D928A95E1F773
:104FA0000E949226FF24F3946DCFC8010E94A9208D
:104FB000F9CF51110AC083E392E00E94A92086E054
:104FC000F50111928A95E9F7C0CF43130FC09213F0
:104FD0000DC0E1100BC0F8018583C8010E94A92013
:104FE00086E0F50111928A95E9F74CCFC8010E943D
:104FF000A4098823D1F2EE20C1F2809138028032D8
:1050000038F220913302309134023A8329831B8293
:10501000DD82CC828E83CE010196B8CFE83CF105CB
:10502000F8F6FE2CEE2009F243131FC092131DC0A8
:105030008091380280FD10C0982F907F69F0F801B0
:105040008583903F31F0982F907F905F8F70892BF0
:105050008583C8010E94A92086E0F801A3E3B2E09D
:1050600001900D928A95E1F70DCFC8010E94A40925
:1050700081118ECF80913802816080933802C801FF
:105080000E94A920FFCEEE2009F48FCFC8010E9414
:10509000A409F82E882309F488CF86E0F801A3E359
:1050A000B2E001900D928A95E1F7809133029091E0
:1050B00034020E9436090E949226E4CE81E08E25B9
:1050C000FBCE1F93CF93DF93CDB7DEB767970FB6B5
:1050D000F894DEBF0FBECDBF4B8B5C8B6D8B7E8B90
:1050E0008F8B611110926C021A8A198A85E0FE0179
:1050F0007396DE011D9601900D928A95E1F786E088
:10510000FE013D96DE01179601900D928A95E1F71A
:10511000CE0107960E94E826882389F016E0809148
:105120006A0290913902891349C067960FB6F894C4
:10513000DEBF0FBECDBFDF91CF911F91089586E0F6
:10514000FE013796DE01119601900D928A95E1F7E6
:105150008A859B85892B11F38F81988589238F3FC1
:10516000E9F22091390230E0C90101968770992750
:1051700040916A024817190671F40E944D1B109263
:10518000390210926A0286E0E3E3F2E0DF011D9249
:105190008A95E9F7C3CF96E0929FD001939FB00D17
:1051A0001124A65CBD4FFE01319601900D929A9597
:1051B000E1F7809339020E94CE08B0CF819FC001F1
:1051C0001124865C9D4F0E94E826882309F4ADCF08
:1051D00080916A0290E001968770992780936A0215
:1051E0009ECF1F920F920FB60F9211242F933F93D1
:1051F0004F935F936F937F938F939F93AF93BF93DF
:10520000CF93DF93EF93FF93D091E900DF7080910C
:10521000EC00C82FC17080FDC0E81092E9008091B9
:10522000F000877F8093F00078940E94641B1092B6
:10523000E9008091F00088608093F000CD2BCF7062
:10524000C093E900FF91EF91DF91CF91BF91AF91B2
:105250009F918F917F916F915F914F913F912F918E
:105260000F900FBE0F901F9018951F920F920FB6C0
:105270000F9211242F933F934F935F936F937F93DC
:105280008F939F93AF93BF93EF93FF938091E10030
:1052900082FF09C08091E20082FF05C08091E10099
:1052A0008B7F8093E1008091DA0080FF24C08091A1
:1052B000D80080FF20C08091DA008E7F8093DA00D2
:1052C0008091D90080FF9BC080E189BD82E189BDCA
:1052D00009B400FEFDCF81E080931F048091F103AB
:1052E000811109C00E949E020E949B038091E200EE
:1052F00084608093E2008091E10080FF17C080917C
:10530000E20080FF13C08091E2008E7F8093E20074
:105310008091E20080618093E2008091D8008062F9
:105320008093D80019BC85E080931F048091E10030
:1053300084FF29C08091E20084FF25C080E189BDFF
:1053400082E189BD89B5982F917080FFFBCF809154
:10535000D8008F7D8093D8008091E1008F7E80936C
:10536000E1008091E2008F7E8093E2008091E20074
:1053700081608093E20080911604882309F445C07F
:1053800084E080931F048091E10083FF27C0809117
:10539000E20083FF23C08091E100877F8093E100DA
:1053A00082E080931F04109216048091E1008E7FAA
:1053B0008093E1008091E2008E7F8093E2008091F3
:1053C000E20080618093E20042E060E080E00E94C1
:1053D00069038091F00088608093F000FF91EF9165
:1053E000BF91AF919F918F917F916F915F914F91FD
:1053F0003F912F910F900FBE0F901F90189519BCE1
:1054000010921F041092F10376CF8091E30087FD84
:1054100093E090931F04B7CF78941F921FB61F920A
:1054200011248F939F93AF93BF938091E803909142
:10543000E903A091EA03B091EB030196A11DB11D10
:105440008093E8039093E903A093EA03B093EB03FE
:10545000BF91AF919F918F911F901FBE1F90189584
:105460001F921FB61F9211248F939F93AF93BF93E8
:105470008091E703811113C08091E8039091E903C3
:10548000A091EA03B091EB034196A11DB11D809359
:10549000E8039093E903A093EA03B093EB03BF9171
:1054A000AF919F918F911F901FBE1F901895CDB700
:1054B000DEB762970FB6F894DEBF0FBECDBF84B7DC
:1054C000877F84BF0FB6F894A895809160008861AB
:1054D00080936000109260000FBE80E890E00FB6ED
:1054E000F89480936100909361000FBE85B7806847
:1054F00085BF85B7806885BF86E996E09093630194
:10550000809362010E949E020E949B038091E200B0
:1055100084608093E200789480911F048823A1F036
:105520001091E9001F709091EC00892F817090FD1F
:1055300080E8182B1092E9008091E80083FD0E941A
:10554000641B1F701093E90082E084BD93E095BD59
:105550009AEF97BD80936E000E94E21A90E09093BC
:105560000B0180930A010E941B0D0E942A0D8EEAF6
:1055700092E0E6E7F2E05AEC652E52E0752E4CEB35
:1055800052E0DA011D92AD01DC011D92CD011082C5
:105590001182128213823496B2E04A3C5B0789F78B
:1055A00090E080E00E94A72E893E9E4F11F00E945D
:1055B0003E2082E090E00E949F2E809310030E9484
:1055C00030209093ED038093EC0383E090E00E9401
:1055D0009F2E682F70E090E080E00E94360A81E004
:1055E0000E940F203F988AB18F708AB96E98479AAF
:1055F0008BB1806F8BB9769A90E080E00E94A72EE5
:10560000893E9E4F11F00E943E208DE090E00E9466
:105610009F2E8093D3036091EC0360686093EC034A
:105620001091ED0384E090E00E94AD2E612F82E2A4
:1056300090E00E94AD2E80E091E09093E40380938F
:10564000E30382E090E09093200180931F0180911A
:105650001F04843069F48091210190912201A0916E
:105660002301B0912401892B8A2B8B2B09F028C2AE
:1056700038E1A32EB12C42E1242E80911F04853005
:1056800049F480911F04853009F43EC20E944D1BED
:105690000E9425050E94A31F882359F08FB7F89414
:1056A0004091E8035091E9036091EA037091EB03A4
:1056B0008FBFE1E1F3E0ACEBB2E010E000E0302FAF
:1056C0008D919191981709F46CC2292F282790E0A9
:1056D000FF24F394422F4F2109F45EC299873A8741
:1056E0008F2191E009F490E09B870E946C04816017
:1056F000782F9D878C8749855A856B858D850E947B
:105700006128F801EF5EFC4F8081F826F08286E088
:10571000EBEDF3E0DE01119601900D928A95E1F731
:10572000F090DD03E090DE031091DF030091E003D1
:105730001092DD031092DE031092DF031092E0035B
:105740008F2D8E2909F448C08091D9039091DA03F6
:105750000E945D049C019091D503992309F4A4C291
:1057600025313105C8F19F3F19F09F5F9093D50314
:10577000FF2059F00E94F3059FEF1F140CF491E0F5
:10578000899F802D11248093DD03EE2059F00E9423
:10579000F3059FEF1E140CF491E0899F802D1124D6
:1057A0008093DE033091DD033323B1F02091DE03DB
:1057B000222391F045EB3403C0011124992309F40D
:1057C00007C29093DD0345EB24039001112433239A
:1057D00009F402C23093DE03812F802B09F448C004
:1057E0008091D7039091D8030E945D049C01909111
:1057F000D403992309F454C225363105C8F19F3FDB
:1058000019F09F5F9093D403112359F00E94D105A2
:105810009FEF11160CF491E0899F802D1124809345
:10582000DF03002359F00E94D1059FEF10160CF4FE
:1058300091E0899F802D11248093E0033091DF0354
:105840003323B1F02091E003222391F045EB3403A0
:10585000C0011124992309F4C3C19093DF0345EBE0
:10586000240390011124332309F4BEC13093E003D3
:105870008091DD039091DE03892B9091DF03892BCA
:105880009091E003892B11F00E94310586E0FE0122
:105890003196ABEDB3E001900D928A95E1F78091DE
:1058A0000E0318160CF0BBC040902903442009F4E5
:1058B000B6C080910C0390910D030E945D046C01B1
:1058C000E0912803F0E0EE0FFF1FE650FD4F00913E
:1058D0000A0310910B0380819181081B190B09F4B5
:1058E00072C08091250390912603892B09F06BC02B
:1058F000C016D10608F467C022E3209FC001219F93
:10590000900D112464E670E00E94642E542C48012E
:10591000861A970A7801E60EF71E33243A94350C5E
:10592000832D0E947106E82FF0E0EE0FFF1FE65076
:10593000FD4F2081318180910A0390910B03821BDE
:10594000930B8815990520F0E816F90608F050C168
:10595000852D0E94710680932A03451840922903E1
:10596000E0902903F12C86E0882EFE1461F18F2D42
:105970000E947106982E889DB001112466537D4FB8
:1059800046E050E08FE193E00E94922E892B09F0CF
:1059900037C190922A03EF18E0922903109227034F
:1059A00024E6209FC001219F900D11248034AFE197
:1059B0009A0708F427C160E971E00E94642E709391
:1059C0002603609325038091250390912603009779
:1059D00031F1C816D90618F1809127030E9471068B
:1059E00096E0989FF0011124E653FD4FADECB3E033
:1059F00001900D929A95E1F70E94C41E80912703B1
:105A00008F5F8093270390912903891302C010921E
:105A100027030E946C0490930D0380930C030E9453
:105A2000250590910F03891721F00E942505809389
:105A30000F0380911F04843019F5C0902101D0908C
:105A40002201E0902301F0902401C114D104E1046B
:105A5000F104B1F0809113018F708093E90090916F
:105A6000E80092FF0DC09091F3002091F200392FD1
:105A7000232B09F0CEC08091E8008B778093E8005B
:105A800080911F04843009F0F8CD8091210190911C
:105A90002201A0912301B0912401892B8A2B8B2B09
:105AA00009F4EBCD80910E018F708093E900809115
:105AB000E80080FFE2CD8DE091E00E94EE02DDCDB6
:105AC000809118018F708093E90088E0E8E2F1E0AE
:105AD000DE01119601900D928A95E1F750E040E0C9
