:100000000C9435010C947C010C947C010C947C01C3
:100010000C947C010C947C010C947C010C947C016C
:100020000C947C010C947C010C94471C0C941B1DBB
:100030000C944D170C947C010C947C010C947C0165
:100040000C947C010C947C010C947C010C947C013C
:100050000C947C010C94A4170C947C010C947C01EE
:100060000C947C010C947C010C947C010C947C011C
:100070000C947C010C947C010C947C010C947C010C
:100080000C947C010C947C010C947C010C947C01FC
:100090000C947C010C947C010C947C010C947C01EC
:1000A0000C947C010C947C010C947C01075A095A35
:1000B0000B5A0D5A115A165A1A5A1C5A1E5A205ABD
:1000C000225A085A0A5A0C5A0E5A125A175A1B5ACE
:1000D0001D5A1F5A215A295A00000000015A0F5A6E
:1000E000105A185A195A025A00000000000000D095
:1000F000D0D0D0D0D00101020408102041424448A1
:1001000048000000484850608182848890A0C1C2A5
:10011000C4D0D0D0D0D0D0C8000000000000000073
:1001200000000000000000000000000000001003BC
:10013000540068006500200055006E006900000052
:100140001E037300740065006E006F006B00650095
:10015000790062006F0061007200640073000000AB
:100160000403090409027800040100A0FA0904004C
:1001700000010301010009211101000122400007D3
:1001800005810308000A09040100010300000009B9
:100190002111010001223B000705820320000A080B
:1001A0000B02020202010009040200010202010026
:1001B0000524001001042402020524060203070599
:1001C00083030800FF09040300020A00000007057A
:1001D0000502100005070584021000051201000247
:1001E000EF02010800900100010001020001050179
:1001F0000906A1018505050719E029E71500250174
:100200009508750181020507190029EF15002501E0
:1002100095F07501810205081901290595057501FB
:100220009102950175039101C005010906A101051F
:100230000719E029E7150025019508750181029548
:1002400001750881010507190029FF150026FF0027
:1002500095067508810005081901290595057501A0
:100260009102950175039101C00011241FBECFEFCB
:10027000DAE0DEBFCDBF04B603FE27C08091760270
:1002800090917702A0917802B09179028730904BDB
:10029000A740B04BD1F410927602109277021092E0
:1002A00078021092790214BE84B7877F84BF0FB69C
:1002B000F894A89580916000886180936000109206
:1002C00060000FBEE0E0F8E3099511E0A0E0B1E0C6
:1002D000EAE0F2E402C005900D92AE33B107D9F71F
:1002E00022E0AEE3B1E001C01D92A637B207E1F70C
:1002F0000E9447110C94DB200C94000081E00C94C8
:10030000841181E0089581E008950C94830108959B
:100310000C9487011F93CF93DF9300D000D00F92EE
:10032000CDB7DEB749835A836B8330914001898111
:100330009A8131111DC06623B9F02223A9F00E94D1
:100340006507182F682F89819A810E94110769819A
:100350007A81812F0F900F900F900F900F90DF9167
:10036000CF911F910C94BE0D0E943D07182FEFCF27
:100370000E94650769817A81EDCFFC01262F4081BB
:1003800051816281738184810C948A0181E0089596
:10039000CF93DF93EC0160E00E94BD01BE01DF91CD
:1003A000CF910C9488010E94C30F0E944A020C94C2
:1003B000E70F0C94EA0F08950E94BA050E94DB0132
:1003C0002FEF84E39CE0215080409040E1F700C093
:1003D00000000C94C8170F931F93CF93DF938C01E9
:1003E00061E00E94BD01EC01B8010E9485018823F3
:1003F000D9F1B801CE010E94E7118823A9F1B80113
:10040000CE010E944714882379F1B801CE010E94E1
:100410009914882349F1B801CE010E94BC158823A4
:1004200019F1F8018281882361F0CB35FDE5DF0702
:1004300021F170F4C115ECE5DE07A1F0CF3DDC45FC
:10044000C9F0C801DF91CF911F910F910C948101E8
:10045000CC358DE5D807A1F0CD35DD4591F70E946B
:10046000420BEFCF0E94DC0180E0DF91CF911F9122
:100470000F9108950E94B90CF7CF0E944B0BE1CF6A
:100480000E944E0BDECF08950C94430281E0089544
:100490000C9446020895CF93C82F0E9444028C2FDB
:1004A000CF910C944802CF93DF93CDB7DEB72B9753
:1004B0000FB6F894DEBF0FBECDBF4F835887698754
:1004C0007A878B8761110E94710B1E821D8285E0E5
:1004D000FE013796DE01119601900D928A95E1F7A3
:1004E0008C819D81892B89F449815A816B817C8122
:1004F0008D819E810E94710A2B960FB6F894DEBF03
:100500000FBECDBFDF91CF91089589819A81892354
:100510008F3F51F3CE0101960E94C6018111E4CFB5
:10052000EBCFFC01808191810C94A707CF93C82F5A
:10053000882309F469C08238C1F40E94EB1581FD5B
:1005400063C089E30E940B0B0E94A10B2FEF81EE89
:1005500094E0215080409040E1F700C0000089E322
:100560000E94120BCF910C94A10B8338A1F40E942E
:10057000EB1580FD49C083E50E940B0B0E94A10B87
:100580002FEF81EE94E0215080409040E1F700C0D1
:10059000000083E5E5CF8438A1F40E94EB1582FDCD
:1005A00033C087E40E940B0B0E94A10B2FEF81EE5A
:1005B00094E0215080409040E1F700C0000087E4C3
:1005C000CFCF8CEF8C0F813A90F46C2F809100018B
:1005D000909101010E945116882329F08C2F0E94CE
:1005E000120B0E94A10B8C2F0E940B0BBBCF80E241
:1005F0008C0F883048F4C77081E001C0880FCA951D
:10060000EAF70E94540BAECFCF910895882309F4E6
:100610004BC0823871F40E94EB1581FF45C089E31D
:100620000E940B0B0E94A10B89E30E94120B0C94F9
:10063000A10B833859F40E94EB1580FF35C083E588
:100640000E940B0B0E94A10B83E5EFCF843859F475
:100650000E94EB1582FF28C087E40E940B0B0E94CA
:10066000A10B87E4E2CF9CEF980F913AF0F290E271
:10067000980F983050F4877091E001C0990F8A95D7
:10068000EAF7892F0E945A0BD2CF9BE5980F93303F
:1006900020F490E080E00C941116885A873120F401
:1006A00090E080E00C94271608951F93CF93DF937A
:1006B000182FEB010E949602209731F4812FDF91D1
:1006C000CF911F910C9406038FE99FE00197F1F7FA
:1006D00000C000002197F0CF70E060E0893311F492
:1006E00060E570E00C945503882321F00E94540BC0
:1006F0000C94A10B0895882321F00E945A0B0C94AE
:10070000A10B0895BF92CF92DF92EF92FF920F93C9
:100710001F93CF93DF936C01D62FC72FFC0102816B
:10072000158112951F700E94290BE82E8823A1F0D5
:10073000E02E002389F08C2F807F803429F080E226
:100740008D0FE12C883040F082E00E94F20B0E9475
:10075000290B91E0E82EE926BC2EB2949FE0B92245
:10076000EB2DF0E0E352FF4D0C9486201C2F1F7000
:10077000C07F11F01295107F0023A9F0112359F0CA
:1007800080E28D0F883010F0D11109C0812F0E94B6
:10079000540B0E94A10B8D2F0E94960214C0812F32
:1007A0000E94640BF6CF8D2F0E940603112359F08F
:1007B00080E28D0F883010F0D1112CC0812F0E9463
:1007C0005A0B0E94A10B2B2D2850330B24303105DE
:1007D00020F40E94EB150E944B02EE2009F477C131
:1007E0000E94250B80FD73C1F60112820E941F0B2F
:1007F0000E947506C6010E9488050E941F0BDF91AA
:10080000CF911F910F91FF90EF90DF90CF90BF900D
:100810000C949606812F0E946A0BD3CFFC2FFF7099
:10082000FF2EC07FC03219F0F29480EFF822DD2352
:1008300069F0D13049F1002391F1112351F1F60112
:10084000858180FFA8CF8F70858323C0002381F02E
:10085000111106C00E94840B8F290E947403B3CF2C
:100860001130C1F70E94840B8F290E948A0BABCFF5
:10087000111106C00E94970B8F2D0E947B03A3CFFE
:10088000113009F4A0CFF6CF002329F0163008F07C
:100890009ACF8F2DE2CF153008F095CFEDCF1123F1
:1008A00059F3D93349F4FFEF27EE33E0F1502040FC
:1008B0003040E1F700C000008D2F0E94060383CF77
:1008C0008C2F837009F041C001117DCF4D2F4295CF
:1008D00046954770440F440F0D2F0F7010E030E025
:1008E00020E0042E04C0000F111F221F331F0A94A2
:1008F000D2F760E070E0CB01D4FF0FC06FE070E092
:1009000080E090E004C0660F771F881F991F4A950A
:10091000D2F76095709580959095C695C695C370F1
:10092000602B712B822B932BC23049F058F4C130CD
:1009300019F00E94270647CF0E94150644CF0E9457
:10094000390641CF0E9413063ECF8695002311F051
:100950008C2F8170882309F436CF4D2F4295469510
:100960004770440F440F0D2F0F7010E030E020E06F
:10097000042E04C0000F111F221F331F0A94D2F748
:1009800060E070E0CB01D4FF0FC06FE070E080E06A
:1009900090E004C0660F771F881F991F4A95D2F711
:1009A0006095709580959095C695C695C370602B9F
:1009B000712B822B932BC23049F058F4C13019F0BF
:1009C0000E94EC0600CF0E94DA06FDCE0E94FE06D1
:1009D000FACE0E944F06F7CECF70002329F08C2F5D
:1009E0000E9475068D2F39CF8D2F0E947B038C2F8F
:1009F0000E949606E8CED23F89F160F4D03FC9F05C
:100A0000D13F29F1002309F442C01111C4CE8C2F2B
:100A10008F7121C0D33F39F1D43FA1F7002369F191
:100A2000CF718C2F0E94750663E08C2F0E94D70B2C
:100A3000CACE002341F0153008F0C5CE8C2F8F713F
:100A40000E94B906C0CE163008F0BDCEF7CF8C2F6D
:100A50008F71002369F20E947506B5CE8C2F8F71BD
:100A60000023C9F3C5CF002329F08C2F8F710E947A
:100A70006006A9CE0E945B06A6CE81E00E94F20B22
:100A8000123008F4A0CE82E00E94F20B9CCE11231B
:100A900059F0D93309F010CF8FEF97EEE3E0815092
:100AA0009040E040E1F706CF8C2F8F71A1CF4C2F03
:100AB0004F706D2FC6010E94BA0D0E94D50783CEDC
:100AC0004C2F4F706D2FC6010E94BD0D7CCEDF9163
:100AD000CF911F910F91FF90EF90DF90CF90BF903B
:100AE00008950F931F93CF93DF93EC016881798171
:100AF0008A810E94B1078C010E9410070E94120691
:100B0000B801CE01DF91CF911F910F910C94820318
:100B1000CF93DF93EC018B819C81892B29F0888115
:100B2000998189238F3F59F4DF91CF910895CE01A8
:100B30000E947105CE01DF91CF910C94C801CE01C6
:100B40000E94EB018111F3CF0E94290B882361F3EE
:100B50008A81882349F382E0DF91CF910C94F20BD4
:100B60000E94710B0E94810B0C94A10B0E94190B27
:100B70000C94B0050E94610B0C94B605E92FE29528
:100B8000EF70E250EE3070F4F0E0E351FF4D0C9462
:100B90008620803F19F020F4883E20F481E00895FB
:100BA000843FE1F380E00895883EC0F3813FD1F7B0
:100BB000F5CF93FB882780F90895FC01808191810E
:100BC0000E94A7070C94BE05CF93DF9300D000D0FE
:100BD0000F92CDB7DEB70F900F900F900F900F9040
:100BE000DF91CF910895CF93DF9300D000D000D054
:100BF000CDB7DEB726960FB6F894DEBF0FBECDBFD9
:100C0000DF91CF91089508950C9403060E94040685
:100C100060935E0170935F01809360019093610126
:100C20000C94B00508950C9406060F931F93009141
:100C30005E0110915F012091600130916101602B94
:100C4000712B822B932B1F910F910C9406060F93FF
:100C50001F9300915E0110915F012091600130911E
:100C6000610160237123822393231F910F910C94C0
:100C700006060F931F9300915E0110915F01209172
:100C800060013091610160277127822793271F91AE
:100C90000F910C9406060C9403060C944B060E94CC
:100CA0004D0660935A0170935B0180935C019093B1
:100CB0005D010C94B00560E070E0CB010C944F0630
:100CC0000F931F9341E050E060E070E08A019B01C8
:100CD00004C0000F111F221F331F8A95D2F7C901CC
:100CE000B8011F910F910C944F060F931F9341E091
:100CF00050E060E070E004C0440F551F661F771F8E
:100D00008A95D2F780915A0190915B01A0915C0184
:100D1000B0915D018A019B01082B192B2A2B3B2BDB
:100D2000C901B8011F910F910C944F060F931F93A7
:100D300041E050E060E070E004C0440F551F661FC2
:100D4000771F8A95D2F7CB01BA016095709580958F
:100D5000909500915A0110915B0120915C013091B6
:100D60005D0160237123822393231F910F910C94C3
:100D70004F060F931F9341E050E060E070E004C025
:100D8000440F551F661F771F8A95D2F780915A012D
:100D900090915B01A0915C01B0915D018A019B0182
:100DA000082719272A273B27C901B8011F910F914E
:100DB0000C944F060F931F9300915A0110915B0101
:100DC00020915C0130915D01602B712B822B932B64
:100DD0001F910F910C944F060F931F9300915A018E
:100DE00010915B0120915C0130915D0160237123C2
:100DF000822393231F910F910C944F060F931F93FF
:100E000000915A0110915B0120915C0130915D01CC
:100E100060277127822793271F910F910C944F060B
:100E200008952BE0929F800D1124982F977041E038
:100E300001C0440F9A95EAF786958695869595E0C8
:100E4000899FF0011124EF5BFE4F90E080E070E09D
:100E50005191DF0111979B01082E02C0369527950D
:100E60000A94E2F7217021952527242325272C9326
:100E700001968530910561F708952BE0929F800DD2
:100E80001124982F977086958695869525E0829FE8
:100E9000F0011124EF5BFE4F50E040E080E0219133
:100EA00030E0092E02C0369527950A94E2F72170AA
:100EB0003327042E01C0220F0A94EAF7822B4F5FDA
:100EC0005F4F4530510559F70895BF92CF92DF9299
:100ED000EF92FF920F931F93CF93DF938C01C090FB
:100EE0005A01D0905B01E0905C01F0905D0180912F
:100EF0005E0190915F01A0916001B0916101C82AEB
:100F0000D92AEA2AFB2ACFE1D0E0BC2ED701C601BC
:100F10000C2E04C0B695A795979587950A94D2F79D
:100F200080FD0EC0219788F7B12C8B2DDF91CF91DA
:100F30001F910F91FF90EF90DF90CF90BF90089599
:100F4000B8018C2F0E94CB0E019761F3EECFCF93A7
:100F5000DF93EC010E946507BE01DF91CF910C94F5
:100F6000CB0E1F93CF93DF93EB0190914001992318
:100F700031F0CB01DF91CF911F910C94A70788230B
:100F800079F0CB010E946507182F682FCE010E94CF
:100F90001107BE01812FDF91CF911F910C94CB0ED1
:100FA000CB010E943D07182FF4CFEF92FF920F93D1
:100FB0001F93CF93DF938C01892B81F0F12CEE24CA
:100FC000E394E8012196F8018491843770F4843029
:100FD00008F05FC08130B1F08230A1F1DF91CF9194
:100FE0001F910F91FF90EF900895853709F44CC041
:100FF00008F43DC09CE7980F903780F78F770E94E8
:10100000060349C00E5F1F4FFE01849190E2980FC6
:10101000983060F48770FE2D01C0FF0F8A95EAF7C3
:101020008F2F0E94740B0E94A10B02C00E94960297
:101030008F2D815030F2EFE9FFE03197F1F700C0DA
:101040000000F7CF0E5F1F4FFE01849190E2980FD2
:10105000983050F48770FE2D01C0FF0F8A95EAF793
:101060008F2F0E947A0BDFCF0E940603E1CF0E5F25
:101070001F4FFE01C491C150D8F28FE99FE0019744
:10108000F1F700C00000F7CF0E5F1F4FFE01F49094
:10109000CFCF0E9496028E01CBCF1F93CF93DF93C9
:1010A000C091620116E0809163018C1304C0DF914E
:1010B000CF911F910895D0E01C9FF0011D9FF00D6E
:1010C0001124EC59FE4F40815181628173818481EA
:1010D00095810E94F3052196C770E5CF4091940158
:1010E00050919501609196017091970180919801BE
:1010F000909199010C94F3051F93CF93DF93809106
:101100009901807FA9F480919601882389F08091CC
:101110006201C09163016091940170919501A09169
:101120009701B0919801D62FD72316E0C81304C0B9
:10113000DF91CF911F91089590E0109711F0DF3F5C
:1011400019F401968770F2CF189F9001199F300D06
:101150001124F901EC59FE4F41814713F2CF408130
:101160004613EFCF42814111ECCF438154814A1B9A
:101170005B0B483C510528F7809199018F70806185
:1011800080939901F901E759FE4F80818F7080614A
:10119000808384E991E00E948805DF91CF911F91BF
:1011A0000C944D08AF92BF92CF92DF92EF92FF92D4
:1011B0000F931F93CF93DF93CDB7DEB761970FB631
:1011C000F894DEBF0FBECDBF8C0185E0F801DE01D3
:1011D0001D9601900D928A95E1F7F801E28084E96D
:1011E000C82E81E0D82E6091970170919801611509
:1011F000710509F45AC19091940120919501892FAC
:1012000082238F3F09F451C140815181A380B48072
:10121000F0909601F501E61BF70BFF2009F4F6C0EC
:1012200080919901382F307FE83CF10508F0AFC07C
:10123000311179C0FE2C251323C0941321C0E11075
:101240001FC08F708061809399010E946E08C60153
:101250000E94880580919901F80185838F2D619600
:101260000FB6F894DEBF0FBECDBFDF91CF911F91B7
:101270000F91FF90EF90DF90CF90BF90AF900895C7
:10128000AB2829F0842F85238F3F09F027C180E008
:10129000F82FF170DF2E80FF3CC080916201209119
:1012A000630136E0821315C04D875E878D859E856C
:1012B0000E94A707292F22952F702230F0F02430AA
:1012C00018F59F70F1F0F8019581907FD1F4D12C41
:1012D0001EC090E0389FF001399FF00D1124EC59A9
:1012E000FE4F6181651306C06081641303C0628193
:1012F000E6120FC001968770D5CF9F7011F088233A
:1013000031F3805E883018F3C8010E948805FD2CF7
:10131000A5CFEE2009F4A2CF80919901816080933E
:101320009901F12C9BCF251306C0941304C0F8013A
:10133000EE2009F487C0C8010E94DD05882319F159
:10134000EE2009F180919901803270F02091940192
:101350003091950138872F831986BB86AA868C87A2
:10136000CE0107960E94880586E0F801A4E9B1E065
:1013700001900D928A95E1F70E947C080E946E0808
:10138000FF24F3946BCFC8010E948805F9CF311177
:1013900013C07A2DB98AA88A6E2D89890E94E40526
:1013A00084E991E00E94880586E0F60111928A9511
:1013B000E9F70E946E08B5CF25130FC094130DC036
:1013C000E1100BC0F8018583C8010E94880586E002
:1013D000F60111928A95E9F741CFC8010E94DD0517
:1013E000882389F2EE2079F280919901803208F405
:1013F000BBCF20919401309195013A8329831B82C0
:10140000BD82AC828E83CE010196ACCFE83CF10563
:1014100008F03EC0FE2CEE2009F4B5CF25132AC0FB
:10142000941328C08091990180FD1BC0982F907F54
:10143000C1F0F8018583903F31F0982F907F905F45
:101440008F70892B8583C8010E94880586E0F8018A
:10145000A4E9B1E001900D928A95E1F70E946E082F
:10146000FDCE86E0F801A4E9B1E001900D928A95E5
:10147000E1F7F4CEC8010E94DD05811175CF80919E
:101480009901816080939901C8010E948805E6CE88
:101490007A2DB98AA88A6E2D89890E94E40586E092
:1014A000F60111928A95E9F7D9CFEE2009F46BCFB6
:1014B000C8010E94DD05F82E882309F464CF86E078
:1014C000F801A4E9B1E001900D928A95E1F784E971
:1014D00091E00E9491020E947C08C0CF81E08E259D
:1014E000D7CE1F93CF93DF93CDB7DEB72C970FB630
:1014F000F894DEBF0FBECDBF4F83588769877A87C8
:101500008B879C87CE0107960E94D208882369F0BA
:101510008A859B85892B39F04F815885842F8523B7
:101520008F3F09F071C016E05FC086E0FE0137967C
:10153000DE01119601900D928A95E1F78A859B85CF
:10154000892B89F38F81988589238F3F61F32091BF
:10155000630130E0C90101968770992740916201CB
:101560004817190671F40E94BA051092630110928F
:10157000620186E0E4E9F1E0DF011D928A95E9F776
:10158000D2CF96E0929FD001939FB00D1124AC5919
:10159000BE4FFE01319601900D929A95E1F780932E
:1015A00063010E944D08BFCF819FC00111248C5957
:1015B0009E4F0E94D2088823E9F0E09162011E9FAD
:1015C000F0011124EC59FE4F4081518162817381F9
:1015D000848195810E94F3058091620190E00196DB
:1015E00087709927809362018091620190916301D5
:1015F0008913DACF2C960FB6F894DEBF0FBECDBF9D
:10160000DF91CF911F91089569857A858B859C859F
:101610000E94F30588CF682F80910001909101010D
:101620000C94D116682F80910001909101010C94C7
:10163000DC1680910001909101010C94E7168091D5
:101640009A01859585958595089580919A01877071
:10165000089590919A01977081E009F480E00895CF
:101660009091580292FB222720F9281751F080FB15
:1016700092F99093580280915702909158020C94DD
:10168000350C08958091580282FB882780F991E0FB
:1016900089270C94300B81E00C94300B80E00C9483
:1016A000300B8091BE0108959091BE01892B8093EB
:1016B000BE01089580959091BE0198239093BE013C
:1016C00008951092BE0108959091BD01892B8093D9
:1016D000BD01089580959091BD0198239093BD011F
:1016E00008951092BD0108959091BC01892B8093BB
:1016F000BC01089580959091BC0198239093BC0102
:1017000008951092BC01089580919B010895089559
:101710000C94870B9091580292FD08C090919B0108
:10172000981721F080939B010C94880B0895809169
:101730009B01882329F010929B0180E00C94880B78
:101740000895E0910001F09101018091BE01808334
:10175000E0910001F091010180819091BD01892B00
:101760008083E0910001F091010180819091BC01A2
:10177000892B808390919B01992381F0E091000156
:10178000F09101018081892B8083809100019091EB
:1017900001010E943D1681110E94970B809100016A
:1017A000909101010C94F71508950C94D40B90912D
:1017B000580292FD10C098E0899F90011124622B7D
:1017C00060939A010E94750680919A01859585958E
:1017D00085950C94D50B0C94750610929A0180E0B7
:1017E0000C94D50B90919A018095892380939A014E
:1017F000282F277039F4282F082E000C330B92174E
:10180000130621F49091580292FF07C085958595A3
:1018100085950E9496060C94ED0B08956FEF7FEF6F
:1018200090E080E00C94C52090E080E00E94A12030
:1018300021E0893E9E4F09F020E0822F089582E04A
:1018400090E00C94992083E090E00C949920CF9341
:1018500084E090E00E949920C82F82E290E00E94EC
:101860009920982F8C2FCF910895CF93C92F682F4F
:1018700084E090E00E94A7206C2F82E290E0CF915C
:101880000C94A720AB01BC018FE090E00C94B92030
:10189000AB01BC0183E190E00C94B92060E070E002
:1018A000CB010C94480C60E070E0CB010E94420C2C
:1018B0000C944E0C69EE7EEF90E080E00E94C52013
:1018C00060E082E090E00E94A72060E083E090E08A
:1018D0000E94A72010925E0110925F011092600199
:1018E0001092610160E084E090E00E94A72060E037
:1018F00082E290E00E94A72060E085E090E00E94F4
:10190000A72060E086E090E00E94A7206FEF87E0CC
:1019100090E00E94A72040E050E0BA0188E090E00B
:101920000E94B92060E08DE090E00E94A72040E096
:1019300050E0BA0188E190E00E94B92060E087E1C0
:1019400090E00E94A72040E050E0BA018CE190E0D6
:101950000E94B92070E060E080E290E00E94C52023
:1019600040E050E0BA0188E190E00E94B9200C9478
:10197000530C0C945A0C682F8EE090E00C94A72026
:101980000E9489176093CA017093CB018093CC01A8
:101990009093CD016093C6017093C7018093C801F5
:1019A0009093C901089585B7806885BF85B7806821
:1019B00085BF0895089508950C94DA0C08950C9449
:1019C000DE0C0E94D30C89EA9FE00E94EC170E9473
:1019D000DB0C0C94DC0C81E008950C94EB0C089566
:1019E00008950E94EF0C0C94F00C0E9474170E9452
:1019F000A6100E947711E7E5F2E08081806880837D
:101A000080915702909158020E94350C0C94DF0C83
:101A10008F929F92AF92BF92CF92DF92EF92FF92FE
:101A20000F931F93CF93DF93CDB7DEB72A970FB6EF
:101A3000F894DEBF0FBECDBF0E94C21081110E947C
:101A4000C00C50EC852E51E0952E10E000E0A02E49
:101A5000802F0E94EC0F6C01F401E190F1904F0196
:101A6000E816F90609F45CC08091CE0181FD0E9460
:101A7000F50FC7018C259D25B12CEE24E394F12CA4
:101A80009C012E213F21232B09F444C00E94ED0C20
:101A90008823A9F0BE82AF82CE20DF2081E0CD284E
:101AA00009F480E088870E947D178160782F9A87EB
:101AB00089874E815F8168858A850E945302000F65
:101AC000111FF801E054FE4F80819181E826F9262C
:101AD000F182E0820E94FD120E94EB159091BF01FD
:101AE0008917A9F10E94EB158093BF012A960FB6C2
:101AF000F894DEBF0FBECDBFDF91CF911F910F9144
:101B0000FF90EF90DF90CF90BF90AF909F908F901D
:101B10000C944B02B394EE0CFF1CFBE0BF12B0CF51
:101B20000F5F1F4F0330110509F091CF8FEF8983AD
:101B30008A831B820E947D178160782F9D838C830E
:101B400049815A816B818D810E945302C3CF2A96AD
:101B50000FB6F894DEBF0FBECDBFDF91CF911F91BE
:101B60000F91FF90EF90DF90CF90BF90AF909F903C
:101B70008F90089590E080E008950895972F70E089
:101B80002BE0929F600D711D1124FB0191E2899F52
:101B9000E00DF11D1124EE0FFF1FE455FF4F85915D
:101BA00094910895FC01EE0FFF1FE251FF4F8591C4
:101BB00094910895CF93DF930E94CF0EEC0181158D
:101BC00021E59207D0F5811530E5930708F096C01E
:101BD00081159042F8F4C11581E0D807B8F4C03EF1
:101BE000D10588F4C03CD10508F07BC0C130D105D7
:101BF00069F0209759F0CE010497813A910530F0B1
:101C0000D0E0C0E003C0C83ED105D0F7CE01DF91DF
:101C1000CF910895C11590E4D90708F06CC0CE01AA
:101C20009F70C11520E3D20708F45EC0CE0199274A
:101C3000D3FF5EC0EC01D86CE9CF811535E5930781
:101C400000F5811544E5940708F08DC0C11583E5C2
:101C5000D80708F074C0C11592E5D90708F46AC026
:101C6000CE018370992721E030E002C0220F331F9C
:101C70008A95E2F7C695C69580E2C89FE0011124D7
:101C800055C0811529E59207A0F4811538E5930721
:101C900008F06EC0811546E5940708F0B1CF0E94A8
:101CA000660FC82FD0E0DC2FCC27CC27DF71D062A5
:101CB000ADCFC1158AE5D80708F45FC0CE019056B4
:101CC0008115904208F09CCF8D2F8F710E94660F76
:101CD00090E0982F882788279F719C012C2BE90181
:101CE000E6CFCE01805C91090E94D20DEC018ECF2F
:101CF000EC01D06C8BCFDF70D06A88CFE4E0969592
:101D00008795EA95E1F783702C2F26952695237009
:101D100040E2249F90011124382B8C2F8370C1E066
:101D2000D0E002C0CC0FDD1F8A95E2F7C22BD32B87
:101D3000DC686CCFDC2FCC27C16FD06A67CFCE01B7
:101D40008370992721E030E002C0220F331F8A956B
:101D5000E2F7C695C69590E2C99FE0011124C22B17
:101D6000D32BDA6853CFD82FCC27C46FD06A4ECF8D
:101D7000D82FCC27C06FD06A49CF8C2F8F700E948C
:101D8000660F34E0D695C7953A95E1F7CF709C2F52
:101D9000EC01D0693BCF0E94BE0D0C94DA0D823865
:101DA0009105B1F1B0F48133910509F475C048F49F
:101DB0008932910509F469C08A32910509F473C02A
:101DC00008958533910509F459C08933910501F1CE
:101DD0000895833E9105A9F138F4803E9105F9F00C
:101DE000823E910549F10895863E9105A9F1873E0D
:101DF0009105C9F1843E910519F52091580221FF02
:101E00001FC08091570284FD14C087EE90E00895B2
:101E1000209157022370A1F080EE90E00895209168
:101E2000570220FD47C03091580230FF09C024FFFF
:101E300044C090E080E004C02091570222FDF7CF1B
:101E400008952091570222FD3BC03091580230FD89
:101E5000E3CF24FFF5CFEDCF2091570223FFF0CF42
:101E600024FDE7CFD2CF2091570223FD2CC0309123
:101E7000580231FFEECF84EE90E008952091570292
:101E800025FFDECF89E290E008952091570225FFDB
:101E9000D7CF85E390E008952091570226FFD0CF59
:101EA0008AE290E008952091570226FFC9CF81E38E
:101EB00090E0089589E390E0089583EE90E008951E
:101EC00082EE90E0089586EE90E00895909157029A
:101ED00092FF06C0282F28712830F9F4877F84608C
:101EE00093FF06C0282F28712831F1F4877E846182
:101EF0002091580220FF06C0382F38713830D9F4AD
:101F0000877F816021FF06C0282F28712831D1F4F6
:101F1000877E816194FD877E0895282F2471243067
:101F2000F9F68B7F8860DCCF282F2471243101F7EC
:101F30008B7E8861DDCF382F3171313019F78E7F7C
:101F40008860E0CF282F2171213121F78E7E8861B2
:101F5000E1CF80E008950C940E0C0E94C2108FE334
:101F60009CE90197F1F700C000000E94C21080E0D8
:101F70000E94EC0F80FF04C00E94AB0F0C94C817A6
:101F800008950C94AD0F0E94140C811102C00E94A0
:101F9000B90C0E941F0C8093CE010E94270C9093D5
:101FA0005802809357020E94C10F0E94230C682F91
:101FB00070E090E080E00E94130660915A017091F9
:101FC0005B0180915C0190915D010C944D060C9435
:101FD0007E0108950C94E90FE82FF0E0EE0FFF1F4B
:101FE000E15AFD4F808191810895089580EA8A9594
:101FF000F1F7089500C008950C94F60FF894E82FB7
:10200000E295EF70F0E031A1282F2F7081E090E091
:1020100001C0880F2A95EAF7982F9095932391A3F2
:1020200092A1892B82A378940895CF93DF9384EFB4
:102030000E94FE0F82E30E94FE0F86E30E94FE0FC5
:10204000C0E3D1E089918F3F11F00E94FE0F81E043
:10205000CB33D807B9F7DF91CF910895AF92BF92F4
:10206000CF92DF92EF92FF920F931F93CF93DF9364
:102070008C01B62EC62FD0E0CE01855C9E4F7C0130
:10208000FC0120812F3F09F453C0F894E22FE29520
:10209000EF70F0E031A12F7081E090E001C0880F77
:1020A0002A95EAF7932F982B91A392A180958923E3
:1020B00082A378940E94FA0FE0E3F1E030E020E0A0
:1020C000D12CC12C41E050E081918F3FE1F1A82F4C
:1020D000A295AF70B0E090966C9170E08F7002C0E6
:1020E000759567958A95E2F760FD2DC0CA01022EAD
:1020F00002C0880F991F0A94E2F7C82AD92A2F5FD5
:102100003F4F2B30310501F7F70180818F3F11F0F0
:102110000E94FE0F61E0C114D10409F460E08B2D30
:102120000E94FC0FCC0FDD1FC00FD11FD982C882C7
:10213000DF91CF911F910F91FF90EF90DF90CF90A3
:10214000BF90AF90089590E080E0D7CF0E94151027
:10215000A9E5B2E011961C921E92EFE5F2E0118221
:10216000108213961C921E92129713821282159659
:102170001C921E9214971582148283E00E940D1106
:102180000C94D301FF920F931F93CF93DF9300D052
:1021900000D000D0CDB7DEB78E010F5F1F4F86E0B5
:1021A000F80111928A95E9F760E0C8010E942E10AB
:1021B00061E0C8010E942E1062E0C8010E942E104A
:1021C00046E050E0B80189E592E00E948C20FF24AF
:1021D000F394009709F4F12C892B41F086E0F80183
:1021E000A9E5B2E001900D928A95E1F72F2D43E029
:1021F0006FE572E089E592E00E940E110E94D9011C
:102200008F2D26960FB6F894DEBF0FBECDBFDF919F
:10221000CF911F910F91FF9008950895FF920F9312
:102220001F93CF93DF93F82E092F162FD72FC42F8C
:10223000222349F081E08093D1010E947D17909381
:10224000D0018093CF018091D1018823A1F08091AA
:10225000CF019091D0010E949517059760F0EF2D66
:10226000F02FA12FBD2F90E080E0D0E08C179D07CC
:1022700044F01092D101DF91CF911F910F91FF9007
:102280000895219131912D933D930196EFCF0E94B6
:10229000F9160E947E190E9497190E94AB190E949C
:1022A000F10CFBCF9091D501890F883008F0885050
:1022B0000895CF93DF9300D000D00F92CDB7DEB753
:1022C0006B837C838D838C819D81892B21F0CA0156
:1022D00089238F3F51F480E081700F900F900F9011
:1022E0000F900F90DF91CF9108958B81F5CF0E94D1
:1022F000140C811102C00E94B90C8DE090E00E9484
:10230000992080931C02089596E0E4E2F2E0DF0158
:10231000292F1D922A95E9F7EEE1F2E0DF011D92E7
:102320009A95E9F71092D5011092D4011092D30139
:102330001092D2011092DB011092DA0180931C02FC
:10234000682F8DE090E00C94A72081E008950F9312
:102350001F93CF93DF936EE172E080911C020E9485
:10236000A511882331F080911C02882371F08130FF
:10237000D9F0EEE1F2E086E0DF011D928A95E9F7FF
:10238000DF91CF911F910F910895CEE1D2E002E24B
:1023900012E0899181110E9441190C171D07C9F79C
:1023A00080E00E944119E5CF80911E0280688093F1
:1023B0001E02CEE1D2E089910E94411982E0C4322E
:1023C000D807C9F7D6CF81E0089581E00895EF924C
:1023D000FF920F931F93CF93DF937C01EB0180E378
:1023E000E8168AE5F806E9F030F4C7019A558A97AD
:1023F000A0F1C1E01DC0F1E3EF16FAE5FF06C9F751
:1024000081E39AE50E94E511882389F0488159818A
:102410006A817B818C810E945911882341F081E07F
:1024200019C080E39AE50E94E511811109C0C0E05E
:102430008C2FDF91CF911F910F91FF90EF90089516
:10244000488159816A817B818C810E94591188233E
:1024500071F380E00E948411EACFC7010E94E51168
:10246000882329F30E947D178C019093D9018093D2
:10247000D801488159816A817B818C810E945911E0
:10248000882321F01093D7010093D6011092DB012D
:102490001092DA0110911C02112301F1113009F49C
:1024A00046C000911D022EE132E0412FBE01C7015E
:1024B0000E94E311882309F4BACF488159816A81C7
:1024C0007B818C810E945911C82F80911D02CC23E1
:1024D00009F458C08F5F80931D02A9CF48815981AC
:1024E0006A817B818C810E945911F701FF27E2519B
:1024F000FF4F9491A92FA295A695A695A370B0E041
:10250000882371F09D012C5D3D4FF9018081892B5D
:102510008083A25EBD4F8C91E92FE82BEC93C1CF55
:10252000AC5DBD4FE92FE0958C91E823F7CF488152
:1025300059816A817B818C810E945911482F8E2D8F
:1025400067E00E946620292FE82FF0E086E090E007
:10255000821B910921E030E001C0220F8A95EAF741
:10256000DF01AC5DBD4F8C91442341F0822B8C93F5
:10257000E25EFD4F8081282B208393CF2095282376
:102580002C938FCF815018160CF4A5CF10921D02FA
:10259000D091D401D83041F58091D5018093D301F9
:1025A00081E00E9452118093D5018091D30190E087
:1025B00026E0289FD001299FB00D1124A451BE4FC1
:1025C000EEE1F2E001900D922A95E1F7880F991F54
:1025D000FC01E452FE4F8091D6019091D701918386
:1025E00080830E94A71124CF8D2F0E9452118093C7
:1025F000D301DF5FD093D401D8CF9F92AF92BF9227
:10260000CF92DF92EF92FF920F931F93CF93DF93BE
:1026100080911D0218160CF0BAC08091D401882355
:1026200009F4B5C08091D8019091D9010E94951705
:102630007C018091DA019091DB01892B09F07BC04C
:10264000E091D301F0E0EE0FFF1FE452FE4FC09186
:10265000D601D091D70180819181C81BD90BEC168E
:10266000FD0608F468C02097C1F1A090D40122E3D0
:102670002C9FC0012D9F900D112464E670E00E94F4
:102680007220BA2C6E01C61AD70A8E01060F171FC8
:10269000BB2019F199249A949B0C892D0E94521108
:1026A000E82FF0E0EE0FFF1FE452FE4F2081318152
:1026B0008091D6019091D701821B930B8C159D05BB
:1026C00020F00817190708F06EC08B2D0E945211D8
:1026D0008093D501AB18A092D4010091D40110E0F1
:1026E00086E0C82E101739F1812F0E945211D82E82
:1026F0008C9DB001112464517E4F46E050E084E28D
:1027000092E00E948C20892B09F053C0D092D50111
:10271000011B0093D4011092D20124E62C9FC0012A
:102720002D9F900D112468EC70E00E947220709330
:10273000DB016093DA018091DA019091DB0100976F
:1027400031F1E816F90618F18091D2010E94521178
:1027500096E0989FF0011124E451FE4FAEE1B2E003
:1027600001900D929A95E1F70E94A7118091D201F4
:102770008F5F8093D2019091D401891302C010928F
:10278000D2010E947D179093D9018093D801DF91E7
:10279000CF911F910F91FF90EF90DF90CF90BF905E
:1027A000AF909F9008953093D7012093D601B92C14
:1027B0006FCF1F5F97CF0F931F93CF93DF93C42FDC
:1027C000D22FFC0182818823C9F040932C020E9401
:1027D0007D1790932B0280932A0280E28C0F883021
:1027E00008F050C0C77081E001C0880FCA95EAF7B1
:1027F000DF91CF911F910F910C94740310912C02D3
:10280000141335C080912A0290912B020E949517D3
:10281000883C910560F5C0E2CD0F1D17B9F080E24C
:10282000810F883040F4177081E001C0880F1A953D
:10283000EAF70E947B03C83048F481E09D2F97702F
:1028400001C0880F9A95EAF70E947403802F0E94B6
:102850006C03C830B8F4D77081E001C0880FDA95F6
:10286000EAF7DF91CF911F910F910C947B0380E2E7
:102870008C0F883038F4C77081E001C0880FCA958A
:10288000EAF7EFCFDF91CF911F910F9108950F934A
:102890009C01CB01243F4CE5340759F1A8F4293DB4
:1028A000FCE53F0701F12A3D4CE53407D1F1283D15
:1028B0003C4591F406E221EE41EE68ED7CE50E9494
:1028C000DB1380E00F910895263FFCE53F07E9F018
:1028D000B0F0273F3C45F9F0FC018281882339F1B3
:1028E00010922C02EFCF07E225EE45EE69ED7CE574
:1028F000E6CF06E221EE40EE64EF7CE5E0CF07E2B2
:1029000025EE44EE65EF7CE5DACF06E221EE42EEFD
:1029100066EF7CE5D4CF07E225EE46EE67EF7CE577
:10292000CECF08E221E045EE6AED7CE5C8CF81E03C
:10293000C9CFCF93DF93EC01FB018281882309F497
:1029400019C1C230FCE5DF07C0F1C6319CE5D907EB
:1029500030F09E012B5F3C452930310570F50E9417
:10296000270C9093580280935702C031ECE5DE07A4
:1029700009F4CFC008F05BC0C8308CE5D80709F473
:10298000B6C088F5C430ECE5DE0709F4A8C0C0F491
:10299000C2308CE5D80709F49CC080915702826050
:1029A000C330DC4509F498C08091570290915802D9
:1029B0000E94350C0E94BA0580E0DF91CF91089506
:1029C000809157028061C630ECE5DE0709F484C0CF
:1029D000809157028860C730DC4508F47DC0809143
:1029E0005702806279C0CC308CE5D80709F489C0E1
:1029F00070F4809157028C60CA30ECE5DE0709F470
:102A00006BC008F478C0809157028E7F65C0CE30CD
:102A10008CE5D80709F479C0809157028B7FCF30BD
:102A2000DC4508F459C0809157028F7E55C0CC3FD9
:102A3000ECE5DE0709F457C030F5C3318CE5D80763
:102A400009F46FC078F4C131ECE5DE0709F465C024
:102A5000C231DC4509F0A8CF0E94BA058091570227
:102A60008F773AC0C5318CE5D80709F462C008F405
:102A700076C0809158028160CB3FDC4509F094CF4D
:102A80008093580291CFC115FDE5DF0709F44DC0D1
:102A900088F4809158028D7FCE3F9CE5D90781F361
:102AA000809158028E7FCF3FDC4550F380915802D1
:102AB0008360E6CFC230FDE5DF0709F459C008F4B2
:102AC00044C080E0C330DD4509F06ECF0E94BB0CEE
:102AD0006BCF8091570281608093570265CF8091C0
:102AE00057028460F9CF809158028260C9CF8091EB
:102AF00057028064F1CF0E94BA0580915702806826
:102B0000EBCF809157028D7FE7CF80915702877F6F
:102B1000E3CF809157028F7DDFCF809157028F7B6B
:102B2000DBCF80915702837FD7CF809158028C7F73
:102B3000A7CF8091570282FB992790F921E0922735
:102B400090FB82F990FB83F9C7CF80915802982FB0
:102B5000909591708E7F892B90FB81F991CF0E9487
:102B6000BA0590915702892F97FB87F98058B4CF07
:102B700081E0ACCF81E021CFCF93DF93EB018631B1
:102B80009C4511F50E94510B9A81992399F08A7AFC
:102B900091E009F490E090932D02811109C089E23F
:102BA0000E940B0B0E94A10B80E0DF91CF91089552
:102BB00085E3F6CF80912D02811104C089E20E9445
:102BC000120BF0CF85E3FBCF81E0EFCF9093330280
:102BD000809332020895E0913202F09133023097EF
:102BE00021F00190F081E02D099480E00895E091BA
:102BF0003202F0913302309799F02091270122237D
:102C000059F02091570227FF07C0DC012C91119643
:102C10002C93119725E02C930280F381E02D0994E9
:102C2000089520913002309131022817390771F050
:102C30009093310280933002E0913202F09133029E
:102C4000309721F00680F781E02D099408952091B6
:102C50002E0230912F022817390771F090932F021E
:102C600080932E02E0913202F0913302309721F0EE
:102C70000084F185E02D09940895FC01329680913D
:102C80002701882321F0809157029EE187FF96E07B
:102C900080E0915008F4089521912223D1F38F5FB1
:102CA000F8CF662301F1209127012223F1F0209132
:102CB000570227FF1AC0462F4695469546954E3136
:102CC00090F4677021E030E002C0220F331F6A9554
:102CD000E2F7840F911DFC01828190E028233923C3
:102CE00081E0232B69F480E00895FC013296089678
:102CF0002191261721F0E817F907D1F7F4CF81E0E9
:102D000008959C01FC0132969FEF80E041914617A7
:102D100051F09F3F19F4411101C0982F8F5F863009
:102D2000A9F79F3F09F40895290F311D97FD3A95A2
:102D3000F90162830895FC013296089621912613C9
:102D400003C0DF0111971C92E817F907B9F708953E
:102D5000E62FE695E695E695EE3168F4E80FF92F53
:102D6000F11D677021E030E001C0220F6A95EAF79B
:102D70008281822B82830895E62FE695E695E6957B
:102D8000EE3170F4E80FF92FF11D677021E030E0AB
:102D900001C0220F6A95EAF72095828128232283B9
:102DA000089520912701222329F02091570227FD21
:102DB0000C94A8160C94811620912701222329F047
:102DC0002091570227FD0C94BC160C949B16FC0115
:102DD000329680912701882351F08091570287FF16
:102DE00006C08EE1DF011D928A95E9F7089586E01D
:102DF000F9CF0895089508950C94FB1680916D0203
:102E0000843049F10E94FC1680E00E944B0210922F
:102E1000340288E190E020E40FB6F894A8958093FE
:102E200060000FBE2093600083B7817F846083BF02
:102E300083B7816083BF7894889583B78E7F83BF83
:102E40000FB6F894A8958091600088618093600027
:102E5000109260000FBE08950895CF930E94FA1655
:102E60000E94C2100E942C17C0E08C2F0E94EC0F11
:102E7000892B31F4CF5FC330C1F780E0CF91089543
:102E800081E0FCCF08950C9442170E94BA050E947D
:102E9000EB150E944B020C9443171F921FB61F9212
:102EA00011248F939F93AF93BF938091340281112C
:102EB00013C08091650290916602A0916702B09163
:102EC00068024196A11DB11D809365029093660230
:102ED000A0936702B0936802BF91AF919F918F91C9
:102EE0001F901FBE1F90189582E084BD93E095BD92
:102EF0009AEF97BD80936E0008952FB7F894809154
:102F0000650290916602A0916702B09168022FBF9E
:102F100008952FB7F89460916502709166028091D0
:102F20006702909168022FBF08959C014FB7F894F3
:102F30008091650290916602A0916702B09168024B
:102F40004FBF821B930B089578941F921FB61F9258
:102F500011248F939F93AF93BF93809165029091BB
:102F60006602A0916702B09168020196A11DB11D91
:102F70008093650290936602A0936702B093680203
:102F8000BF91AF919F918F911F901FBE1F90189579
:102F900081E08093E00080E28093D8001092C90025
:102FA0008FE19EE40197F1F700C0000087E090EB0D
:102FB000DC018093760290937702A0937802B0931D
:102FC000790288E19CE00FB6F894A89580936000A0
:102FD0000FBE90936000FFCF90933F0180933E011E
:102FE00008958091550208950895CF93DF93EC01E1
:102FF000809127018823B1F18091570287FF32C069
:1030000060E282E08093E9008FEF9091E8008150C8
:1030100095FD06C095ED9A95F1F700008111F5CF69
:103020008091E80085FF1BC08091270170E050E08F
:1030300040E0811104C050E040E068E070E0CE0163
:103040000E943C1A8091E8008E778093E80080E22D
:10305000FE01A5E3B2E001900D928A95E1F7DF91C0
:10306000CF91089568E081E0CDCF089508958091D3
:103070006C02811109C00E94CC1B0E94291C809106
:10308000E20084608093E200089510926C0208953B
:1030900008950895089542E061EC81E00E94481B84
:1030A00042E261EC82E00E94481B42E061EC83E076
:1030B0000E94481B42E160E885E00E94481B42E113
:1030C00061E884E00C94481B80916F02833009F41E
:1030D00060C048F48130C9F1823009F4A2C082E0B6
:1030E00091E00C94B41F8A3009F48AC08B3009F443
:1030F0006DC08930A1F780916E02813281F7809195
:10310000720290917302029750F78091E800877FD6
:103110008093E8008091E80082FF36C09091F30030
:103120008091F200029729F48091F1008B7F813029
:1031300021F48091F100809355028091E8008B7713
:103140008093E8000E947C1BCACF80916E02813A76
:1031500031F68091E800877F8093E80080917202C9
:1031600090917302892B61F460E285E392E070E054
:103170000E948B1A8091E8008B778093E800AFCF94
:1031800060E090E080E0F3CF80916D028111C2CFCA
:10319000089580916E02813A09F0A1CF8091720268
:1031A00090917302892B09F09ACF8091E800877F74
:1031B0008093E8008091E80080FFFCCF8091270198
:1031C0008093F1008091E8008E77BACF80916E02F3
:1031D000813209F084CF8091720290917302892B21
:1031E00009F07DCF8091E800877F8093E8000E94FE
:1031F0007C1B80917002809327010E94BA056FCFDB
:1032000080916E02813209F06ACF8091E800877F59
:103210008093E8000E947C1B80917102809356028B
:103220005ECF80916E02813A09F059CF8091E8001B
:10323000877F8093E8008091E80080FFFCCF809139
:103240005602BECF82E090E0909315018093140166
:1032500082E091E00C946B1F0895CF93DF9382E09E
:1032600091E00E94121FEC01209719F4DF91CF9199
:10327000089582E091E00E943B1F0E942C19219743
:10328000F3CFCF93C091E9002091EC00922F917081
:1032900020FD90E82091120120FF12C0CF70C92BB1
:1032A000909103019F709093E9009091EB0090FF43
:1032B00004C09091EE0097FD05C0CF70C093E90067
:1032C000CF9108959FEF2091E800915025FD06C011
:1032D00025ED2A95F1F700009111F5CF8093F100CB
:1032E00082E091E00E94CD1E8091E80080FFE5CF52
:1032F0008091E8008E778093E800DFCF84B7877FE6
:1033000084BF0FB6F894A89580916000886180937F
:103310006000109260000FBE80E890E00FB6F89455
:1033200080936100909361000FBE0C94E10C0E94A9
:10333000CC1B0E94291CE2EEF0E080818460808337
:1033400078940E94B21E0E94F50C8DE191E00E94DB
:10335000E6150C94221980916D02853031F480912C
:103360006D02853051F00E9445170E94080D0E94A1
:103370002D1982E091E00C94FB1E0E94FE168091B4
:103380006B02882361F30E942D17882341F30E946A
:10339000261A0E94BA05E3CF0C94CE19292F3327A1
:1033A0002330310519F168F42130310509F444C0A6
:1033B0002230310509F445C090E080E030E020E0A3
:1033C00025C02132310549F122323105A9F780E4C7
:1033D00090E029E232E061157105C1F08BE390E0E5
:1033E0002EEE31E06130710589F0E6CF992781300A
:1033F000910581F0009729F00297F1F6EEE2F1E0F5
:1034000002C0E0E6F1E0849190E09F01FA0131838F
:1034100020830895E0E4F1E0F6CF89E090E026E72C
:1034200031E06115710591F389E090E02FE831E01A
:103430006130710559F3C0CF82E190E02CED31E0AD
:10344000E5CF88E790E024E631E0E0CF80E189BD78
:1034500082E189BD09B400FEFDCF8091D8008F7D47
:103460008093D8008091E00082608093E00080919A
:10347000E00081FDFCCF0895AF92BF92CF92DF9222
:10348000FF920F931F93CF93DF936C01EB018A019F
:103490000E949B1BF82E811123C00115110539F0E4
:1034A000F80180819181C81BD90BC80ED91EB12C9F
:1034B000A12C2097A9F08091E80085FD22C0809181
:1034C000E8008E778093E80001151105A1F0F8015E
:1034D00080819181A80EB91EB182A08285E0F82E6C
:1034E0008F2DDF91CF911F910F91FF90DF90CF90A3
:1034F000BF90AF9008950E949B1B8823D1F2F82EB5
:10350000EFCFF60181916F018093F1002197FFEFDA
:10351000AF1ABF0ACECFFC01809174029091750260
:1035200086179707A0F06115710529F49091E800BE
:103530009E779093E80090E06115710551F4911128
:1035400008C08091E80082FF34C080E00895BC018B
:10355000F2CF80916D028823C1F18530C1F1809155
:10356000E80083FD30C08091E80082FDEACF8091C1
:10357000E80080FFE1CF8091F3002091F200382F26
:103580006115710519F02830310558F091E02830A7
:10359000310509F090E02091E8002E772093E800B3
:1035A000CBCF81918093F100615071092F5F3F4F24
:1035B000E7CF80916D02882341F0853041F0809102
:1035C000E80083FFBECF81E0089582E0089583E0A4
:1035D0000895FC01809174029091750286179707F7
:1035E000A0F06115710529F48091E8008E77809331
:1035F000E80090E06115710551F4911108C08091C7
:10360000E80082FF35C080E00895BC01F2CF8091D0
:103610006D028823C9F18530C9F18091E80083FDEE
:1036200031C08091E80082FDEACF8091E80080FF00
:10363000E1CF8091F3002091F200382F61157105E0
:1036400019F02830310558F091E02830310509F0A3
:1036500090E08091E8008E778093E800CBCF849152
:103660008093F1003196615071092F5F3F4FE6CF93
:1036700080916D02882341F0853041F08091E8000F
:1036800083FFBDCF81E0089582E0089583E008952F
:10369000982F973028F08F708093E90081E008958B
:1036A0009093E900242F762F50E0981731F0709115
:1036B000EC002091ED005091F00021FD02C09F5FD1
:1036C000E8CF3091EB003E7F3093EB003091ED007E
:1036D0003D7F3093ED003091EB0031603093EB0093
:1036E0007093EC002093ED005093F0002091EE00D9
:1036F00027FDE5CF80E0089580916E0287FF13C01B
:103700008091E80082FF06C08091E8008B7780936B
:10371000E80004C080916D028111F2CF089580917C
:103720006D028823D9F38091E80080FFF8CF809163
:10373000E8008E77ECCF2091E4003091E50095E62B
:10374000A9012091EC00822F817020FF06C080919A
:10375000E80080FF06C080E008952091E80022FD87
:103760001AC080916D02882389F0853089F080919C
:10377000EB0085FD0FC02091E4003091E500421779
:103780005307F9F29150E1F684E0089582E008953C
:1037900083E0089581E008950E943A1C0E94421C33
:1037A000E0EEF0E0808181608083E8EDF0E08081F0
:1037B0008F77808319BCA7EDB0E08C918E7F8C93BE
:1037C00080818F7E808310926C0208950F931F93E7
:1037D000CF93DF930E943A1C0E94421CC8EDD0E0B8
:1037E00088818F77888388818068888388818F7DAE
:1037F000888319BC10926D021092690210926B02BC
:1038000010926A0200EE10E0F80180818B7F8083C5
:1038100088818160888342E060E080E00E94481BEC
:10382000E1EEF0E080818E7F8083E2EEF0E0808147
:1038300081608083808188608083F80180818E7FB1
:103840008083888180618883DF91CF911F910F9160
:103850000895E8EDF0E080818F7E8083E7EDF0E071
:1038600080818160808384E082BF81E080936C02EC
:103870000C94E61BE8EDF0E080818E7F808310924F
:10388000E20008951092DA001092E10008951F926C
:103890000F920FB60F9211242F933F934F935F9384
:1038A0006F937F938F939F93AF93BF93EF93FF9308
:1038B0008091E10082FF0BC08091E20082FF07C08F
:1038C0008091E1008B7F8093E1000E94B11E809186
:1038D000DA0080FF19C08091D80080FF15C0809168
:1038E000DA008E7F8093DA008091D90080FF96C045
:1038F00080E189BD82E189BD09B400FEFDCF81E090
:1039000080936D020E9437188091E10080FF19C0FA
:103910008091E20080FF15C08091E2008E7F80934D
:10392000E2008091E20080618093E2008091D80003
:1039300080628093D80019BC85E080936D020E945C
:1039400049188091E10084FF2BC08091E20084FF40
:1039500027C080E189BD82E189BD89B5982F91702A
:1039600080FFFBCF8091D8008F7D8093D80080911D
:10397000E1008F7E8093E1008091E2008F7E809352
:10398000E2008091E20081608093E2008091690210
:10399000882309F449C084E080936D020E944A188C
:1039A0008091E10083FF29C08091E20083FF25C060
:1039B0008091E100877F8093E10082E080936D0237
:1039C000109269028091E1008E7F8093E1008091E6
:1039D000E2008E7F8093E2008091E200806180931C
:1039E000E20042E060E080E00E94481B8091F0002D
:1039F00088608093F0000E944818FF91EF91BF917A
:103A0000AF919F918F917F916F915F914F913F9176
:103A10002F910F900FBE0F901F90189519BC109208
:103A20006D020E94451870CF8091E30087FD93E0FE
:103A300090936D02B3CF1F920F920FB60F92112485
:103A40002F933F934F935F936F937F938F939F93A6
:103A5000AF93BF93CF93DF93EF93FF93D091E900A0
:103A6000DF708091EC00C82FC17080FDC0E810921B
:103A7000E9008091F000877F8093F00078940E94A5
:103A80005F1D1092E9008091F00088608093F00043
:103A9000CD2BCF70C093E900FF91EF91DF91CF91D3
:103AA000BF91AF919F918F917F916F915F914F9156
:103AB0003F912F910F900FBE0F901F9018951F935D
:103AC000CF93DF93CDB7DEB7AA970FB6F894DEBFDA
:103AD0000FBECDBF8EE692E02091F100FC01219354
:103AE000CF01F2E086379F07B9F70E9464188091F2
:103AF000E80083FF1EC180916E0290916F029A30A0
:103B000008F017C1E92FF0E0E550FF4D0C94862036
:103B1000803899F0823809F00CC1809172028F7060
:103B2000873008F006C18093E9008091EB0085FBA7
:103B3000882780F91092E90006C080916A0290916E
:103B40006B02911182609091E800977F9093E8005A
:103B50008093F1001092F1008091E8008E77E5C02B
:103B6000882309F4D3C0823009F0E3C08091700249
:103B70008111D6C0809172028F702FEF280F2630EE
:103B800008F0D7C08093E9002091EB0020FFC8C067
:103B9000933031F48091EB0080628093EB00C0C0E1
:103BA0009091EB0090619093EB0021E030E001C038
:103BB000220F8A95EAF72093EA001092EA0080919A
:103BC000EB008860EACF8111B4C0109170021F77BA
:103BD0008091E3008078812B8093E3008091E8005E
:103BE000877F8093E8000E947C1B8091E80080FF23
:103BF000FCCF8091E30080688093E30082E01111A4
:103C000083E080936D0295C08058823008F091C0A7
:103C100080917002909171028C3D23E09207A1F592
:103C200083E08A838AE289834FB7F894DE01139692
:103C300020E03EE051E2E32FF0E050935700E491A2
:103C400020FF03C0E295EF703F5FEF708E2F90E092
:103C5000EA30C0F0C7968D939D932F5F243159F7BA
:103C60004FBF8091E800877F8093E8006AE270E0B0
:103C7000CE0101960E948B1A8091E8008B77809389
:103C8000E80057C0C096E7CF60917202709173024E
:103C9000AE014F5F5F4F0E94CC19BC01892B09F424
:103CA00048C09091E800977F9093E80089819A81BD
:103CB0000E94E91AE1CF8038E1F58091E800877F22
:103CC0008093E800809169028093F10045CF8111D3
:103CD00030C090917002923060F58091E800877F4B
:103CE0008093E800909369020E947C1B8091690296
:103CF000882311F084E005C08091E30087FDFACFAE
:103D000081E080936D020E944B1813C08091700275
:103D1000813079F481E0933009F080E080936B0288
:103D20001092E9008091E800877F8093E8000E946C
:103D30007C1B8091E80083FF0AC08091E800877FA8
:103D40008093E8008091EB0080628093EB00AA965C
:103D50000FB6F894DEBF0FBECDBFDF91CF911F919C
:103D600008950895CF9380916D028823A1F0C091AA
:103D7000E900CF709091EC00892F817090FD80E870
:103D8000C82B1092E9008091E80083FD0E945F1D1E
:103D9000CF70C093E900CF91089520916D02243037
:103DA00041F5FC014489558966897789452B462B65
:103DB000472BF9F081818F708093E9009091F30097
:103DC0008091F200892B11F480E008959091E80031
:103DD0008091E8008E778093E80095FDF5CF0E94F2
:103DE0009B1B811107C09091E8009E779093E8009B
:103DF000089582E0089520916D02243091F4FC0131
:103E00004489558966897789452B462B472B49F08C
:103E100021812F702093E9002091E80020FD0C946F
:103E2000CD1E089520916D02243019F090E080E0BD
:103E30000895FC014489558966897789452B462B6D
:103E4000472BA1F386818F708093E9008091E80071
:103E500082FFECCF9091F3008091F200009731F453
:103E60002091E8002B772093E80008959091F300CB
:103E70008091F200089520916D02243019F08FEFA7
:103E80009FEF0895FC014489558966897789452B00
:103E9000462B472BA1F386818F708093E900809198
:103EA000E80082FFECCF9091F3008091F200892B23
:103EB00079F08091F10090E03091F3002091F200D0
:103EC000232B29F42091E8002B772093E800089514
:103ED0008FEF9FEFF1CF0F931F93CF93DF93CDB76A
:103EE000DEB728970FB6F894DEBF0FBECDBF8C01AA
:103EF00080916D02843059F5F80184899589A689ED
:103F0000B789892B8A2B8B2B11F183858F70809336
:103F1000E90088E0E8E2F1E0DE01119601900D92FF
:103F20008A95E1F750E040E068E070E0CE0101964C
:103F30000E943C1A50E040E062E070E0C801429606
:103F40000E943C1A8091E8008E778093E8002896C2
:103F50000FB6F894DEBF0FBECDBFDF91CF911F919A
:103F60000F91089508950895CF93DF93EC01809108
:103F7000E80083FF10C02881809172029091730243
:103F80002817190641F480916F028132F1F030F464
:103F9000803209F450C0DF91CF910895823209F444
:103FA0007EC08332C1F780916E028132A1F7809189
:103FB000E800877F8093E8000E947C1B609170027C
:103FC000CE01DF91CF910C94B31F80916E02813AA4
:103FD00011F78091E800877F8093E8008091E800E6
:103FE00080FFFCCF8C899D89AE89BF898093F100C9
:103FF000492F5A2F6B2F77274093F100AD01662789
:1040000077274093F1008B2F9927AA27BB2780930E
:10401000F100888D8093F100898D8093F1008A8D65
:104020008093F1008091E8008E778093E800DF9123
:10403000CF910C947C1B80916E02813209F0ABCF42
:104040008091E800877F8093E8008091E80082FFFC
:1040500021C03091F1002091F1009091F100809108
:10406000F1003C8B2D8B9E8B8F8B8091F100888F84
:104070008091F100898F8091F1008A8F8091E80012
:104080008B778093E8000E947C1BCE01DF91CF915B
:104090000C94B21F80916D028111D7CF7CCF80919B
:1040A0006E02813209F077CF8091E800877F80939C
:1040B000E8000E947C1B8091700290917102998BA4
:1040C000888BCE01DF91CF910C94B21F991B79E0C0
:1040D00004C0991F961708F0961B881F7A95C9F798
:1040E00080950895AA1BBB1B51E107C0AA1FBB1FE7
:1040F000A617B70710F0A61BB70B881F991F5A9574
:10410000A9F780959095BC01CD010895EE0FFF1F92
:104110000590F491E02D0994FB01DC0104C08D9120
:104120000190801921F441505040C8F7881B990B29
:104130000895F999FECF92BD81BDF89A992780B56F
:104140000895A8E1B0E042E050E00C94CD20262F85
:10415000F999FECF92BD81BDF89A019700B402167D
:1041600039F01FBA20BD0FB6F894FA9AF99A0FBE2B
:1041700008950396272F0E94A8200E94A720252F8C
:104180000E94A820242F0C94A8200196272F0E947B
:10419000A8200C94A720DC01CB01FC01F999FECFEB
:1041A00006C0F2BDE1BDF89A319600B40D924150BF
:1041B0005040B8F70895F894FFCFB603B6030E0445
:1041C0000E04E303E303E303E3036004EC04FB04F2
:1041D000FB045705E303E3036005C905C905D205E0
:1041E000D205D405D205D205D205C905C905D90520
:1041F000D205D205D905881DB01D991EB01D991E86
:0A420000E31D041E991E5B1E671EDD
:10420A009C010284100000010510000001830800CF
:10421A0000010000000000000000000000F117F596
:10422A00173518F417361801A12000000000020003
:0E423A00F5F6F731333534C6976694F4323614
:00000001FF
